{
  "contracts/Voting.sol": {
    "Voting": {
      "abi": [
        {
          "inputs": [],
          "stateMutability": "nonpayable",
          "type": "constructor"
        },
        {
          "anonymous": false,
          "inputs": [
            {
              "indexed": false,
              "internalType": "bool",
              "name": "status",
              "type": "bool"
            }
          ],
          "name": "ContractDisabled",
          "type": "event"
        },
        {
          "anonymous": false,
          "inputs": [
            {
              "indexed": false,
              "internalType": "bool",
              "name": "status",
              "type": "bool"
            }
          ],
          "name": "ContractEnabled",
          "type": "event"
        },
        {
          "anonymous": false,
          "inputs": [
            {
              "indexed": false,
              "internalType": "string",
              "name": "contestantName_",
              "type": "string"
            },
            {
              "indexed": false,
              "internalType": "uint256",
              "name": "userId_",
              "type": "uint256"
            }
          ],
          "name": "VoteOccurred",
          "type": "event"
        },
        {
          "anonymous": false,
          "inputs": [
            {
              "indexed": false,
              "internalType": "bool",
              "name": "status",
              "type": "bool"
            }
          ],
          "name": "VotesVisibility",
          "type": "event"
        },
        {
          "anonymous": false,
          "inputs": [
            {
              "indexed": false,
              "internalType": "bool",
              "name": "status",
              "type": "bool"
            }
          ],
          "name": "VotingDisabled",
          "type": "event"
        },
        {
          "anonymous": false,
          "inputs": [
            {
              "indexed": false,
              "internalType": "bool",
              "name": "status",
              "type": "bool"
            }
          ],
          "name": "VotingEnabled",
          "type": "event"
        },
        {
          "anonymous": false,
          "inputs": [],
          "name": "VotingEnded",
          "type": "event"
        },
        {
          "anonymous": false,
          "inputs": [
            {
              "indexed": false,
              "internalType": "uint256",
              "name": "contestantId",
              "type": "uint256"
            },
            {
              "indexed": false,
              "internalType": "string",
              "name": "name",
              "type": "string"
            },
            {
              "indexed": false,
              "internalType": "uint256",
              "name": "numberOfVotes",
              "type": "uint256"
            },
            {
              "indexed": false,
              "internalType": "bool",
              "name": "hasWon",
              "type": "bool"
            }
          ],
          "name": "contestantCreated",
          "type": "event"
        },
        {
          "anonymous": false,
          "inputs": [
            {
              "indexed": false,
              "internalType": "uint256",
              "name": "userId",
              "type": "uint256"
            },
            {
              "indexed": false,
              "internalType": "address",
              "name": "userAddress",
              "type": "address"
            },
            {
              "indexed": false,
              "internalType": "uint256",
              "name": "userType",
              "type": "uint256"
            },
            {
              "indexed": false,
              "internalType": "bool",
              "name": "hasVoted",
              "type": "bool"
            }
          ],
          "name": "userCreated",
          "type": "event"
        },
        {
          "anonymous": false,
          "inputs": [
            {
              "indexed": false,
              "internalType": "string",
              "name": "message",
              "type": "string"
            }
          ],
          "name": "userCreationFailed",
          "type": "event"
        },
        {
          "anonymous": false,
          "inputs": [
            {
              "indexed": false,
              "internalType": "string",
              "name": "message",
              "type": "string"
            }
          ],
          "name": "userTypeUpdateFailure",
          "type": "event"
        },
        {
          "anonymous": false,
          "inputs": [
            {
              "indexed": false,
              "internalType": "uint256",
              "name": "userId_",
              "type": "uint256"
            },
            {
              "indexed": false,
              "internalType": "string",
              "name": "userType_",
              "type": "string"
            }
          ],
          "name": "userTypeUpdated",
          "type": "event"
        },
        {
          "inputs": [],
          "name": "_canVote",
          "outputs": [
            {
              "internalType": "bool",
              "name": "",
              "type": "bool"
            }
          ],
          "stateMutability": "view",
          "type": "function"
        },
        {
          "inputs": [],
          "name": "_isVoteVisible",
          "outputs": [
            {
              "internalType": "bool",
              "name": "",
              "type": "bool"
            }
          ],
          "stateMutability": "view",
          "type": "function"
        },
        {
          "inputs": [],
          "name": "_isVotingEnded",
          "outputs": [
            {
              "internalType": "bool",
              "name": "",
              "type": "bool"
            }
          ],
          "stateMutability": "view",
          "type": "function"
        },
        {
          "inputs": [
            {
              "internalType": "uint256",
              "name": "userId_",
              "type": "uint256"
            },
            {
              "internalType": "uint256",
              "name": "_userType",
              "type": "uint256"
            }
          ],
          "name": "changeUserType",
          "outputs": [],
          "stateMutability": "nonpayable",
          "type": "function"
        },
        {
          "inputs": [
            {
              "internalType": "address",
              "name": "user",
              "type": "address"
            }
          ],
          "name": "checkIfChairman",
          "outputs": [
            {
              "internalType": "bool",
              "name": "",
              "type": "bool"
            }
          ],
          "stateMutability": "view",
          "type": "function"
        },
        {
          "inputs": [
            {
              "internalType": "uint256",
              "name": "_userType",
              "type": "uint256"
            }
          ],
          "name": "collateResults",
          "outputs": [],
          "stateMutability": "nonpayable",
          "type": "function"
        },
        {
          "inputs": [],
          "name": "contractDisabled",
          "outputs": [
            {
              "internalType": "bool",
              "name": "",
              "type": "bool"
            }
          ],
          "stateMutability": "view",
          "type": "function"
        },
        {
          "inputs": [
            {
              "internalType": "string",
              "name": "_name",
              "type": "string"
            }
          ],
          "name": "createContestant",
          "outputs": [],
          "stateMutability": "nonpayable",
          "type": "function"
        },
        {
          "inputs": [
            {
              "internalType": "address",
              "name": "_userAddress",
              "type": "address"
            },
            {
              "internalType": "uint256",
              "name": "_userType",
              "type": "uint256"
            }
          ],
          "name": "createUser",
          "outputs": [],
          "stateMutability": "nonpayable",
          "type": "function"
        },
        {
          "inputs": [],
          "name": "disableContract",
          "outputs": [],
          "stateMutability": "nonpayable",
          "type": "function"
        },
        {
          "inputs": [],
          "name": "disbaleVote",
          "outputs": [],
          "stateMutability": "nonpayable",
          "type": "function"
        },
        {
          "inputs": [],
          "name": "enableContract",
          "outputs": [],
          "stateMutability": "nonpayable",
          "type": "function"
        },
        {
          "inputs": [],
          "name": "enableVote",
          "outputs": [],
          "stateMutability": "nonpayable",
          "type": "function"
        },
        {
          "inputs": [],
          "name": "fetchVotes",
          "outputs": [
            {
              "components": [
                {
                  "internalType": "uint256",
                  "name": "id",
                  "type": "uint256"
                },
                {
                  "internalType": "uint256",
                  "name": "contestantId",
                  "type": "uint256"
                }
              ],
              "internalType": "struct Voting.voteInfo[]",
              "name": "",
              "type": "tuple[]"
            }
          ],
          "stateMutability": "view",
          "type": "function"
        },
        {
          "inputs": [],
          "name": "getContestants",
          "outputs": [
            {
              "components": [
                {
                  "internalType": "uint256",
                  "name": "id",
                  "type": "uint256"
                },
                {
                  "internalType": "string",
                  "name": "name",
                  "type": "string"
                },
                {
                  "internalType": "uint256",
                  "name": "numberOfVotes",
                  "type": "uint256"
                },
                {
                  "internalType": "bool",
                  "name": "hasWon",
                  "type": "bool"
                }
              ],
              "internalType": "struct Voting.contestantInfo[]",
              "name": "",
              "type": "tuple[]"
            }
          ],
          "stateMutability": "view",
          "type": "function"
        },
        {
          "inputs": [],
          "name": "getUsers",
          "outputs": [
            {
              "components": [
                {
                  "internalType": "uint256",
                  "name": "userId",
                  "type": "uint256"
                },
                {
                  "internalType": "address",
                  "name": "userAddress",
                  "type": "address"
                },
                {
                  "internalType": "string",
                  "name": "userType",
                  "type": "string"
                },
                {
                  "internalType": "bool",
                  "name": "hasVoted",
                  "type": "bool"
                }
              ],
              "internalType": "struct Voting.userInfo[]",
              "name": "",
              "type": "tuple[]"
            }
          ],
          "stateMutability": "view",
          "type": "function"
        },
        {
          "inputs": [
            {
              "internalType": "uint256",
              "name": "_userType",
              "type": "uint256"
            }
          ],
          "name": "hideVotesVisibility",
          "outputs": [],
          "stateMutability": "nonpayable",
          "type": "function"
        },
        {
          "inputs": [],
          "name": "highestVote",
          "outputs": [
            {
              "internalType": "uint256",
              "name": "",
              "type": "uint256"
            }
          ],
          "stateMutability": "view",
          "type": "function"
        },
        {
          "inputs": [],
          "name": "isContractDisabled",
          "outputs": [
            {
              "internalType": "bool",
              "name": "",
              "type": "bool"
            }
          ],
          "stateMutability": "view",
          "type": "function"
        },
        {
          "inputs": [
            {
              "internalType": "address",
              "name": "userAddress",
              "type": "address"
            }
          ],
          "name": "isValidUser",
          "outputs": [
            {
              "internalType": "bool",
              "name": "",
              "type": "bool"
            }
          ],
          "stateMutability": "view",
          "type": "function"
        },
        {
          "inputs": [],
          "name": "isVotingEnabled",
          "outputs": [
            {
              "internalType": "bool",
              "name": "",
              "type": "bool"
            }
          ],
          "stateMutability": "view",
          "type": "function"
        },
        {
          "inputs": [],
          "name": "isVotingEnded",
          "outputs": [
            {
              "internalType": "bool",
              "name": "",
              "type": "bool"
            }
          ],
          "stateMutability": "view",
          "type": "function"
        },
        {
          "inputs": [],
          "name": "isVotingVisible",
          "outputs": [
            {
              "internalType": "bool",
              "name": "",
              "type": "bool"
            }
          ],
          "stateMutability": "view",
          "type": "function"
        },
        {
          "inputs": [
            {
              "internalType": "uint256",
              "name": "_userType",
              "type": "uint256"
            }
          ],
          "name": "showVotesVisibility",
          "outputs": [],
          "stateMutability": "nonpayable",
          "type": "function"
        },
        {
          "inputs": [
            {
              "internalType": "uint256",
              "name": "contestantId_",
              "type": "uint256"
            },
            {
              "internalType": "uint256",
              "name": "userId_",
              "type": "uint256"
            }
          ],
          "name": "vote",
          "outputs": [],
          "stateMutability": "nonpayable",
          "type": "function"
        }
      ],
      "evm": {
        "bytecode": {
          "linkReferences": {},
          "object": "60806040523480156200001157600080fd5b50620000467fa7525982680e84f98eca7a30f43ca193af52d50b3f6ce8412c4bbf101191431b60001b620002f860201b60201c565b6200007a7ff87e5d0d5650ee1e3c6545a5a87d7b4d53891ad0c3231178a1b6c9d75724d23260001b620002f860201b60201c565b620000ae7fa8cd02447412c31ae694d6b3dc42742793d7c2b522b7f75516c6a150f8d7515160001b620002f860201b60201c565b336000806101000a81548173ffffffffffffffffffffffffffffffffffffffff021916908373ffffffffffffffffffffffffffffffffffffffff160217905550620001227f0aba4322cfa2814baecdce084f276be9753a25d3513f60562528f78e27e8a14d60001b620002f860201b60201c565b620001567f0151da57b081e68b15064db95912df6e45ef3339138b1631e0e6b87a9ae023e660001b620002f860201b60201c565b6001600560006101000a81548160ff021916908315150217905550620001a57fcb333e5bf4f6de8780ab7d28b3b371140e335c8552668bff4c8d035740711cdb60001b620002f860201b60201c565b620001d97f6909a739565f2d642c56c98a6c4a18d58a1fdabab8f2d099aa2e08f5f464c3a760001b620002f860201b60201c565b6000600560026101000a81548160ff021916908315150217905550620002287fd2d3f5d525f9ff98ccede1ecb21ffdd4f5948d87396981c96bb464052826668060001b620002f860201b60201c565b6200025c7f9184c9cf2925dd77eae18cd4d4e46b1d3e3f6419258ae6755750a3756de6b6ae60001b620002f860201b60201c565b6000600760006101000a81548160ff021916908315150217905550620002ab7f46fca31097d9ff2c5d666c9b09820f75feb2549255c2d75ded991507bda1450960001b620002f860201b60201c565b620002df7ff31e03b3ba56f7870e855b2b6c00cd23e2371f1a52648f246fd7cff0616e363f60001b620002f860201b60201c565b620002f2336000620002fb60201b60201c565b620015fb565b50565b6200032f7fef43da0f26ae566a87a4aaa20a03af758ea04ede79d9f203b5e48a7745aa773c60001b620002f860201b60201c565b620003637feb57aac3338f386c1c266edda3724aa13fd2dec570bc06c33fb4d0c3339573fe60001b620002f860201b60201c565b620003977f42b91e8c973483e4118fc701be2519d7fc9c161715af12d6aa735a63e4463cde60001b620002f860201b60201c565b620003cb7fde7a68b7ae86298389d7c585aa3564b7d5759fea4c5816def1ae78618cc6a89a60001b620002f860201b60201c565b60008054906101000a900473ffffffffffffffffffffffffffffffffffffffff1673ffffffffffffffffffffffffffffffffffffffff163373ffffffffffffffffffffffffffffffffffffffff16146200045c576040517f08c379a000000000000000000000000000000000000000000000000000000000815260040162000453906200141e565b60405180910390fd5b620004907f577a0e929dcaa0872c59b226f3852a0f31f735e02b3e8e73c85b60abc06df6e560001b620002f860201b60201c565b620004c47f41e92cd776bedbc688f7a26c9319debd60c194e394ee2b3af0377b6f507a39d860001b620002f860201b60201c565b620004f87f6a2db2451bea729c665ab016dba44ec168c092f538fee964692509c3630a12a760001b620002f860201b60201c565b6200052c7f1b11e30cdb2cc4f74a025cc0d2e30dd09581b0930eb7e311ddefb3cf2386fa5c60001b620002f860201b60201c565b620005607f7e39da682e9ff02c1ee1d6add785b5ef228e5d8006771139e19729c757c16bb360001b620002f860201b60201c565b620005947f5437f81a5171c1803cbf9dff3260f4a0811eba0fea2b2389657a015de286edb860001b620002f860201b60201c565b60001515600760009054906101000a900460ff16151514620005ed576040517f08c379a0000000000000000000000000000000000000000000000000000000008152600401620005e490620013fc565b60405180910390fd5b620006217fd1e3539a8bfd4aae400ae5d8055a5fccf812096c04b416610bc366a0292ab65360001b620002f860201b60201c565b620006557f2e34e692b87ad72ebeb0c14d4af3a5de00f361dbaab7dc659ce508ec3f6b2f7e60001b620002f860201b60201c565b620006897f355bff74c3366eb8d94bcb27f47a620c68d67058219cf0d6e2499a6c28041d1060001b620002f860201b60201c565b620006bd7f8b690fb5bb88dcb9da05c323d8dae5388285ed3f99c4b2171d56ea1109a61f8960001b620002f860201b60201c565b620006f17f4dadda3a06edd60808c2c0a0e321491cf5714843e9c6cad5f0861ed49c6f525960001b620002f860201b60201c565b620007257f5079f4f3723aa4e55bb271f06f4d86450fa703096aeddd272eb8961f2e51fc7660001b620002f860201b60201c565b6000811480620007355750600181145b80620007415750600281145b62000783576040517f08c379a00000000000000000000000000000000000000000000000000000000081526004016200077a9062001440565b60405180910390fd5b620007b77f262468a20a065189820398f89b32a8a92d8ef265ea17a91ec7f82515947a384960001b620002f860201b60201c565b620007eb7f51e5a39a71db55563f00a23685b76cd09f9256bec304e2189d0bafa661af449c60001b620002f860201b60201c565b6200081f7f3dc6beb8e5cf6662046276f972eae87fee23ac0dbfbbae1657889841256d076e60001b620002f860201b60201c565b600081141562000b20576200085d7f14a99c11d10753b1c59f10e5888f9fe5a295c91dd6ea739d17eb36a63f7c578d60001b620002f860201b60201c565b620008917f54800cd0f671a2012002b0705c466246ee0c4cf49d3595214f1980385782f7d960001b620002f860201b60201c565b620008c57f1aa4cd53f949d0d4d18d397ce8f9211c61137840a0bf42ea7a7cd4c4d4a7b78760001b620002f860201b60201c565b60006001600480549050620008db9190620014c0565b9050620009117f95859a35b02116620a0a7a4b6dfd9b11bf87ee4af96f5de9060696b5aca64f6960001b620002f860201b60201c565b620009457f97e4f145043b4bd7c62be4a4169db4d04e11e8222b000cd17d6f2851c8da7ebc60001b620002f860201b60201c565b600460405180608001604052808381526020018573ffffffffffffffffffffffffffffffffffffffff1681526020016040518060400160405280600b81526020017f426f6172644d656d62657200000000000000000000000000000000000000000081525081526020016000151581525090806001815401808255809150506001900390600052602060002090600402016000909190919091506000820151816000015560208201518160010160006101000a81548173ffffffffffffffffffffffffffffffffffffffff021916908373ffffffffffffffffffffffffffffffffffffffff160217905550604082015181600201908051906020019062000a4e9291906200122d565b5060608201518160030160006101000a81548160ff021916908315150217905550505062000aa57fbc425e72244f3eac0f8784df74eb3633a893efc09b9d108ba67f234cb1be4e7f60001b620002f860201b60201c565b62000ad97f864f11951d81932da7232100f9cba39dbd7fe9bf353062e0d69c59b1554e7bd760001b620002f860201b60201c565b7f6b20eb62f1298cad3d3fe78b79d9d03ed50788e17184c1c0b61a05291ea520d8818484600060405162000b11949392919062001462565b60405180910390a15062001229565b62000b547fb65cc5e676722a39d37a62c66ab8b3d60c264562aae78a47644153732e3792df60001b620002f860201b60201c565b62000b887f7bf379b5ded2608b5d1186235eeb89c47cf26530ef3409163a680a8b8dd4f5f760001b620002f860201b60201c565b600181141562000e895762000bc67f0cca31473288a03f31207264f4ac9980d7f2736c301a79b89c311ba9238c54ea60001b620002f860201b60201c565b62000bfa7f298b77e04762a2d7d320c5566521b4b6ff523d7614a11bea95426f6214cb277660001b620002f860201b60201c565b62000c2e7f8834b2bae2c101c9677f5ea5c710d8e9e2f649c2b60afd1f7b7bc1398992309260001b620002f860201b60201c565b6000600160048054905062000c449190620014c0565b905062000c7a7f771ffed58f4af75a46cbb4fc241a1a518c90620958982f23e3b920363dd13bee60001b620002f860201b60201c565b62000cae7faeeac9471082ddbffa2f40866dd6846e3220a716de797930a2c7aca55c22ec6160001b620002f860201b60201c565b600460405180608001604052808381526020018573ffffffffffffffffffffffffffffffffffffffff1681526020016040518060400160405280600781526020017f546561636865720000000000000000000000000000000000000000000000000081525081526020016000151581525090806001815401808255809150506001900390600052602060002090600402016000909190919091506000820151816000015560208201518160010160006101000a81548173ffffffffffffffffffffffffffffffffffffffff021916908373ffffffffffffffffffffffffffffffffffffffff160217905550604082015181600201908051906020019062000db79291906200122d565b5060608201518160030160006101000a81548160ff021916908315150217905550505062000e0e7ff9726fdb5fabdeb3339f013c4ca32fc2883b7df9c18e074589a12c3b57312b3a60001b620002f860201b60201c565b62000e427f2cd3d5360ed1cd63e41ccbc395516fb741cf2c07dcde2e3795191a5e3602a6a560001b620002f860201b60201c565b7f6b20eb62f1298cad3d3fe78b79d9d03ed50788e17184c1c0b61a05291ea520d8818484600060405162000e7a949392919062001462565b60405180910390a15062001228565b62000ebd7fb1ee0b0f5e8a1f05c9b9987847599e88a77cca52674f23e8ebfce427a7279bce60001b620002f860201b60201c565b62000ef17f9c3d967aa4398c9885b385cafbc87a5fe6bef0785448f06e4c075059105ddc0260001b620002f860201b60201c565b6002811415620011f25762000f2f7f11ceeb3ddd69569e3853adc651662db092906423aa31b7f0c48696b1e3172a4f60001b620002f860201b60201c565b62000f637f96721af08b6fc4a70ad419ef9207a10ff273b9b63e0ac5ce069573b98200cb2560001b620002f860201b60201c565b62000f977f43bec662a60f2f8ba6d074f081abfc419a00d9749a550612916f2f84dfb4ee0560001b620002f860201b60201c565b6000600160048054905062000fad9190620014c0565b905062000fe37f45e714116b74c537878c0a8bd670bb967ffc5621e37559052a2c83ecc3e7c30760001b620002f860201b60201c565b620010177f5d2f86c367ecfc96d5ad8d2b948ae30d98b21b9c16f864b86c03cb13ff64589360001b620002f860201b60201c565b600460405180608001604052808381526020018573ffffffffffffffffffffffffffffffffffffffff1681526020016040518060400160405280600781526020017f53747564656e740000000000000000000000000000000000000000000000000081525081526020016000151581525090806001815401808255809150506001900390600052602060002090600402016000909190919091506000820151816000015560208201518160010160006101000a81548173ffffffffffffffffffffffffffffffffffffffff021916908373ffffffffffffffffffffffffffffffffffffffff1602179055506040820151816002019080519060200190620011209291906200122d565b5060608201518160030160006101000a81548160ff0219169083151502179055505050620011777facfa66427951b0d9efede4247ee6b4b54c182e5f9f8370853fb74e7128e8ce7660001b620002f860201b60201c565b620011ab7f57bfbee038983cb0225bee6911ece6beb6220af48d180e6f6e5b148d27d15dc460001b620002f860201b60201c565b7f6b20eb62f1298cad3d3fe78b79d9d03ed50788e17184c1c0b61a05291ea520d88184846000604051620011e3949392919062001462565b60405180910390a15062001227565b620012267f327efe096b9fddb0809d95a2444075f5b9e5d8f41cb240d35cc03ca4569f2bbf60001b620002f860201b60201c565b5b5b5b5050565b8280546200123b9062001567565b90600052602060002090601f0160209004810192826200125f5760008555620012ab565b82601f106200127a57805160ff1916838001178555620012ab565b82800160010185558215620012ab579182015b82811115620012aa5782518255916020019190600101906200128d565b5b509050620012ba9190620012be565b5090565b5b80821115620012d9576000816000905550600101620012bf565b5090565b620012e8816200151d565b82525050565b620012f98162001531565b82525050565b60006200130e601a83620014af565b91507f436f6e747261637420686173206265656e2064697361626c65640000000000006000830152602082019050919050565b600062001350602683620014af565b91507f4f6e6c79207468652063686169726d616e20697320616c6c6f77656420746f2060008301527f6d6f6469667900000000000000000000000000000000000000000000000000006020830152604082019050919050565b6000620013b8601883620014af565b91507f55736572207479706520646f6573206e6f7420657869737400000000000000006000830152602082019050919050565b620013f6816200155d565b82525050565b600060208201905081810360008301526200141781620012ff565b9050919050565b60006020820190508181036000830152620014398162001341565b9050919050565b600060208201905081810360008301526200145b81620013a9565b9050919050565b6000608082019050620014796000830187620013eb565b620014886020830186620012dd565b620014976040830185620013eb565b620014a66060830184620012ee565b95945050505050565b600082825260208201905092915050565b6000620014cd826200155d565b9150620014da836200155d565b9250827fffffffffffffffffffffffffffffffffffffffffffffffffffffffffffffffff038211156200151257620015116200159d565b5b828201905092915050565b60006200152a826200153d565b9050919050565b60008115159050919050565b600073ffffffffffffffffffffffffffffffffffffffff82169050919050565b6000819050919050565b600060028204905060018216806200158057607f821691505b60208210811415620015975762001596620015cc565b5b50919050565b7f4e487b7100000000000000000000000000000000000000000000000000000000600052601160045260246000fd5b7f4e487b7100000000000000000000000000000000000000000000000000000000600052602260045260246000fd5b6169ff806200160b6000396000f3fe608060405234801561001057600080fd5b50600436106101725760003560e01c80637a89281e116100de5780639f88a0cf11610097578063c10196fa11610071578063c10196fa146103a3578063c857ecbe146103c1578063d962aa3d146103df578063f3c95c60146103fb57610172565b80639f88a0cf1461035f578063b384abef14610369578063b3a4dc2f1461038557610172565b80637a89281e146102b35780637cba25da146102e35780637d467dcb146102ff578063811094e41461031d578063894ba8331461033957806393dfc8eb1461034357610172565b8063421ac42e11610130578063421ac42e14610215578063512e711e146102335780635b2585d6146102515780635b3e5cd31461026d5780635ca2797c1461028b578063794566d71461029557610172565b8062ce8e3e1461017757806319abe7b814610195578063313cedf0146101b3578063367edd32146101d1578063410de7a6146101db57806341ecf700146101f7575b600080fd5b61017f61042b565b60405161018c9190616369565b60405180910390f35b61019d610779565b6040516101aa919061638b565b60405180910390f35b6101bb6109ce565b6040516101c891906163ad565b60405180910390f35b6101d9610a69565b005b6101f560048036038101906101f09190615c64565b610d30565b005b6101ff611118565b60405161020c91906163ad565b60405180910390f35b61021d611311565b60405161022a91906163ad565b60405180910390f35b61023b611324565b60405161024891906163ad565b60405180910390f35b61026b60048036038101906102669190615c64565b611337565b005b61027561171f565b60405161028291906163ad565b60405180910390f35b610293611918565b005b61029d611d3d565b6040516102aa91906163ad565b60405180910390f35b6102cd60048036038101906102c89190615bbe565b611d50565b6040516102da91906163ad565b60405180910390f35b6102fd60048036038101906102f89190615c64565b611f8a565b005b610307612366565b60405161031491906163ad565b60405180910390f35b61033760048036038101906103329190615c8d565b612379565b005b610341612f17565b005b61035d60048036038101906103589190615be7565b61333c565b005b6103676140e3565b005b610383600480360381019061037e9190615c8d565b614508565b005b61038d614d84565b60405161039a91906164d8565b60405180910390f35b6103ab614d8a565b6040516103b89190616347565b60405180910390f35b6103c961508c565b6040516103d691906163ad565b60405180910390f35b6103f960048036038101906103f49190615c23565b615285565b005b61041560048036038101906104109190615bbe565b615612565b60405161042291906163ad565b60405180910390f35b60606104597f6a2db2451bea729c665ab016dba44ec168c092f538fee964692509c3630a12a760001b615a86565b6104857f1b11e30cdb2cc4f74a025cc0d2e30dd09581b0930eb7e311ddefb3cf2386fa5c60001b615a86565b6104b17f7e39da682e9ff02c1ee1d6add785b5ef228e5d8006771139e19729c757c16bb360001b615a86565b6104dd7f5437f81a5171c1803cbf9dff3260f4a0811eba0fea2b2389657a015de286edb860001b615a86565b60001515600760009054906101000a900460ff16151514610533576040517f08c379a000000000000000000000000000000000000000000000000000000000815260040161052a906163f8565b60405180910390fd5b61055f7fd1e3539a8bfd4aae400ae5d8055a5fccf812096c04b416610bc366a0292ab65360001b615a86565b61058b7f2e34e692b87ad72ebeb0c14d4af3a5de00f361dbaab7dc659ce508ec3f6b2f7e60001b615a86565b6105b77f535b561de8f363494514770ad0985913a63ce502d062895e7d5210e5318faf7a60001b615a86565b6105e37f0b5e5101a28503dc4f1418a9e64b9a4ae68b919ee89af7098615635da2b4680360001b615a86565b61060f7f5a797a6b2c261bd15d1ed3329f7d233c320b135c50852fd99fa51b3c04a5669960001b615a86565b6004805480602002602001604051908101604052809291908181526020016000905b828210156107705783829060005260206000209060040201604051806080016040529081600082015481526020016001820160009054906101000a900473ffffffffffffffffffffffffffffffffffffffff1673ffffffffffffffffffffffffffffffffffffffff1673ffffffffffffffffffffffffffffffffffffffff1681526020016002820180546106c490616882565b80601f01602080910402602001604051908101604052809291908181526020018280546106f090616882565b801561073d5780601f106107125761010080835404028352916020019161073d565b820191906000526020600020905b81548152906001019060200180831161072057829003601f168201915b505050505081526020016003820160009054906101000a900460ff16151515158152505081526020019060010190610631565b50505050905090565b60606107a77f6a2db2451bea729c665ab016dba44ec168c092f538fee964692509c3630a12a760001b615a86565b6107d37f1b11e30cdb2cc4f74a025cc0d2e30dd09581b0930eb7e311ddefb3cf2386fa5c60001b615a86565b6107ff7f7e39da682e9ff02c1ee1d6add785b5ef228e5d8006771139e19729c757c16bb360001b615a86565b61082b7f5437f81a5171c1803cbf9dff3260f4a0811eba0fea2b2389657a015de286edb860001b615a86565b60001515600760009054906101000a900460ff16151514610881576040517f08c379a0000000000000000000000000000000000000000000000000000000008152600401610878906163f8565b60405180910390fd5b6108ad7fd1e3539a8bfd4aae400ae5d8055a5fccf812096c04b416610bc366a0292ab65360001b615a86565b6108d97f2e34e692b87ad72ebeb0c14d4af3a5de00f361dbaab7dc659ce508ec3f6b2f7e60001b615a86565b6109057fe3223aa097284b94ecd71541be8a3a4d5dd2571b6ed3c2cbfd4545350b76d89560001b615a86565b6109317f53b9a29eceb0087da5e69836d368f5687fa763336afb7d42f140fdae20d14a3d60001b615a86565b61095d7fca20859b4864b4efe31d076a0dcd9b68b11585307ef4f39cc23dda8c129d3cf760001b615a86565b6002805480602002602001604051908101604052809291908181526020016000905b828210156109c55783829060005260206000209060020201604051806040016040529081600082015481526020016001820154815250508152602001906001019061097f565b50505050905090565b60006109fc7f863882f0c694b218214e2590cec11a0216b999c419747188e4071d856b4c37f860001b615a86565b610a287f5fdb5882db4ea8a0b2a2410303643db79c708156ae10aef7364d769a2e7f405d60001b615a86565b610a547f59b682088382e5d7c5c9656a17aeeea23f1809367801ebd0ef07d463d2ccfe8460001b615a86565b600760009054906101000a900460ff16905090565b610a957fef43da0f26ae566a87a4aaa20a03af758ea04ede79d9f203b5e48a7745aa773c60001b615a86565b610ac17feb57aac3338f386c1c266edda3724aa13fd2dec570bc06c33fb4d0c3339573fe60001b615a86565b610aed7f42b91e8c973483e4118fc701be2519d7fc9c161715af12d6aa735a63e4463cde60001b615a86565b610b197fde7a68b7ae86298389d7c585aa3564b7d5759fea4c5816def1ae78618cc6a89a60001b615a86565b60008054906101000a900473ffffffffffffffffffffffffffffffffffffffff1673ffffffffffffffffffffffffffffffffffffffff163373ffffffffffffffffffffffffffffffffffffffff1614610ba7576040517f08c379a0000000000000000000000000000000000000000000000000000000008152600401610b9e90616438565b60405180910390fd5b610bd37f577a0e929dcaa0872c59b226f3852a0f31f735e02b3e8e73c85b60abc06df6e560001b615a86565b610bff7f41e92cd776bedbc688f7a26c9319debd60c194e394ee2b3af0377b6f507a39d860001b615a86565b610c2b7f63ca1ac858840fe86856f256aaddd88c32e8fa5cf8d89ef71007303d796a3a3460001b615a86565b610c577fc981e4f9bdab3af09a2991125ca16dbab5e39e5acdfc043bcd1fadaa19f091f460001b615a86565b610c837f533217a6fe94e06a0b2f23c5e8f72389da2ed02dd24bd595a91694b70aebebe560001b615a86565b6000600760006101000a81548160ff021916908315150217905550610cca7fd6fa1b8ad2578b8479ee9c3c75c90b95e62f4fcef6a70394f56aa1d56f90017160001b615a86565b610cf67f6b90874667afb0ef2a611270bab7b1668bbc0f5b8f2c6cd2163efb92987d578f60001b615a86565b7fb332ca16caa1c4a06e0ac387e6f16243ed23af2575eb84c3417d16dbbfa3f3436000604051610d2691906163ad565b60405180910390a1565b610d5c7f6a2db2451bea729c665ab016dba44ec168c092f538fee964692509c3630a12a760001b615a86565b610d887f1b11e30cdb2cc4f74a025cc0d2e30dd09581b0930eb7e311ddefb3cf2386fa5c60001b615a86565b610db47f7e39da682e9ff02c1ee1d6add785b5ef228e5d8006771139e19729c757c16bb360001b615a86565b610de07f5437f81a5171c1803cbf9dff3260f4a0811eba0fea2b2389657a015de286edb860001b615a86565b60001515600760009054906101000a900460ff16151514610e36576040517f08c379a0000000000000000000000000000000000000000000000000000000008152600401610e2d906163f8565b60405180910390fd5b610e627fd1e3539a8bfd4aae400ae5d8055a5fccf812096c04b416610bc366a0292ab65360001b615a86565b610e8e7f2e34e692b87ad72ebeb0c14d4af3a5de00f361dbaab7dc659ce508ec3f6b2f7e60001b615a86565b80610ebb7faf6bca6ce21200a02f3cbe036828f6cfb765d6c088fa993b4bb0ab546b4c3f1b60001b615a86565b610ee77fd982bd477130beb139d731cb8928d87c370167f349c625a8e535fc4d2d3ee23b60001b615a86565b610f137fabf33cfa9f4e71f5616eb67056120427dfc2e446e50fb242f2b7b8d376d906c760001b615a86565b610f3f7f509f318513292604594951bdc2b18c4d80055568b0ac60e7bca3fd548ba81a9560001b615a86565b6000811480610f4e5750600181145b610f8d576040517f08c379a0000000000000000000000000000000000000000000000000000000008152600401610f8490616478565b60405180910390fd5b610fb97f4aedd73d2a4bca1b4db28fbcc07f5d1114fc8fea79030a83ec3286bd1ddee46260001b615a86565b610fe57f0e98c1fc9b6167b9c071357f5c02541e481f393a1ba185016055d641a3adb19160001b615a86565b6110117f92c6ed2334e4ff1dbc5f626221a28dded592ae513e8ccdfaa89dd03a500f53f060001b615a86565b61103d7fa5f7563529b32afc1e9d28dfbac507a755333593156e30343b5a00800b72ddfb60001b615a86565b6110697f4b28c1ce7809d96259a8aac6c3bf9a474016e32ff592ee908d96e31d55ec249960001b615a86565b6001600560016101000a81548160ff0219169083151502179055506110b07f7c5fd92cd08a64e6ea125c1c6715add3834cda0b99c535edaefadca04ee7c7ae60001b615a86565b6110dc7fb12002e5126e8689d643a3847c93cf30654b71ee5be7c97a4745255ea7cea02060001b615a86565b7f7391a69cbe7f7d60dcd848427cf512560c21aff11e6012a0eb9d42aa07dcfbfe600160405161110c91906163ad565b60405180910390a15050565b60006111467f6a2db2451bea729c665ab016dba44ec168c092f538fee964692509c3630a12a760001b615a86565b6111727f1b11e30cdb2cc4f74a025cc0d2e30dd09581b0930eb7e311ddefb3cf2386fa5c60001b615a86565b61119e7f7e39da682e9ff02c1ee1d6add785b5ef228e5d8006771139e19729c757c16bb360001b615a86565b6111ca7f5437f81a5171c1803cbf9dff3260f4a0811eba0fea2b2389657a015de286edb860001b615a86565b60001515600760009054906101000a900460ff16151514611220576040517f08c379a0000000000000000000000000000000000000000000000000000000008152600401611217906163f8565b60405180910390fd5b61124c7fd1e3539a8bfd4aae400ae5d8055a5fccf812096c04b416610bc366a0292ab65360001b615a86565b6112787f2e34e692b87ad72ebeb0c14d4af3a5de00f361dbaab7dc659ce508ec3f6b2f7e60001b615a86565b6112a47f7b6b7e4283cf4d86f88da6be21a85652a0ae370797215a77b30c388f6972b73d60001b615a86565b6112d07ff1e61e73ea300dba36ee526385d25af35a78dd5d834c7951a87be1b3141132fc60001b615a86565b6112fc7f8464180892ce02b0861ca7481e8feeb674ef4d0f56891b00ff11dd9dd0d3acd960001b615a86565b600560009054906101000a900460ff16905090565b600760009054906101000a900460ff1681565b600560019054906101000a900460ff1681565b6113637f6a2db2451bea729c665ab016dba44ec168c092f538fee964692509c3630a12a760001b615a86565b61138f7f1b11e30cdb2cc4f74a025cc0d2e30dd09581b0930eb7e311ddefb3cf2386fa5c60001b615a86565b6113bb7f7e39da682e9ff02c1ee1d6add785b5ef228e5d8006771139e19729c757c16bb360001b615a86565b6113e77f5437f81a5171c1803cbf9dff3260f4a0811eba0fea2b2389657a015de286edb860001b615a86565b60001515600760009054906101000a900460ff1615151461143d576040517f08c379a0000000000000000000000000000000000000000000000000000000008152600401611434906163f8565b60405180910390fd5b6114697fd1e3539a8bfd4aae400ae5d8055a5fccf812096c04b416610bc366a0292ab65360001b615a86565b6114957f2e34e692b87ad72ebeb0c14d4af3a5de00f361dbaab7dc659ce508ec3f6b2f7e60001b615a86565b806114c27faf6bca6ce21200a02f3cbe036828f6cfb765d6c088fa993b4bb0ab546b4c3f1b60001b615a86565b6114ee7fd982bd477130beb139d731cb8928d87c370167f349c625a8e535fc4d2d3ee23b60001b615a86565b61151a7fabf33cfa9f4e71f5616eb67056120427dfc2e446e50fb242f2b7b8d376d906c760001b615a86565b6115467f509f318513292604594951bdc2b18c4d80055568b0ac60e7bca3fd548ba81a9560001b615a86565b60008114806115555750600181145b611594576040517f08c379a000000000000000000000000000000000000000000000000000000000815260040161158b90616478565b60405180910390fd5b6115c07f4aedd73d2a4bca1b4db28fbcc07f5d1114fc8fea79030a83ec3286bd1ddee46260001b615a86565b6115ec7f0e98c1fc9b6167b9c071357f5c02541e481f393a1ba185016055d641a3adb19160001b615a86565b6116187fff7afb45d52b8fc33d2dd8bac7b874698ac76c8cad4413bce6b6b00b7b49ea4160001b615a86565b6116447f729add0ff34d5227518eb20c8b8e47b9ae65cff0c8c353b7aee716655fce145760001b615a86565b6116707f3b55e9318f4b997ae984de250caac29e525a565a40630fec08d02bbf69f52cb360001b615a86565b6000600560016101000a81548160ff0219169083151502179055506116b77f77406171b31ad3f4b02f2a6cf1fdc743cce1967b107679843a29851e3c73d07d60001b615a86565b6116e37fa11574337556242812c19bbdfca129d13f8392cbc0677b7c1625f2d7fd514fe360001b615a86565b7f7391a69cbe7f7d60dcd848427cf512560c21aff11e6012a0eb9d42aa07dcfbfe600060405161171391906163ad565b60405180910390a15050565b600061174d7f6a2db2451bea729c665ab016dba44ec168c092f538fee964692509c3630a12a760001b615a86565b6117797f1b11e30cdb2cc4f74a025cc0d2e30dd09581b0930eb7e311ddefb3cf2386fa5c60001b615a86565b6117a57f7e39da682e9ff02c1ee1d6add785b5ef228e5d8006771139e19729c757c16bb360001b615a86565b6117d17f5437f81a5171c1803cbf9dff3260f4a0811eba0fea2b2389657a015de286edb860001b615a86565b60001515600760009054906101000a900460ff16151514611827576040517f08c379a000000000000000000000000000000000000000000000000000000000815260040161181e906163f8565b60405180910390fd5b6118537fd1e3539a8bfd4aae400ae5d8055a5fccf812096c04b416610bc366a0292ab65360001b615a86565b61187f7f2e34e692b87ad72ebeb0c14d4af3a5de00f361dbaab7dc659ce508ec3f6b2f7e60001b615a86565b6118ab7f6bdee1f2d95c9a58226bb620885bb238a4c6ff1e0c7e52714e54dac476a1379e60001b615a86565b6118d77f094577bf4bb17c5e18cbe04614f0b035d9ff0e670f5c388999325fbc79fb852860001b615a86565b6119037f77c7c6d62937ecdc390fdaebc51447797ba4a2c7598e927c1781271aedde170c60001b615a86565b600560019054906101000a900460ff16905090565b6119447f6a2db2451bea729c665ab016dba44ec168c092f538fee964692509c3630a12a760001b615a86565b6119707f1b11e30cdb2cc4f74a025cc0d2e30dd09581b0930eb7e311ddefb3cf2386fa5c60001b615a86565b61199c7f7e39da682e9ff02c1ee1d6add785b5ef228e5d8006771139e19729c757c16bb360001b615a86565b6119c87f5437f81a5171c1803cbf9dff3260f4a0811eba0fea2b2389657a015de286edb860001b615a86565b60001515600760009054906101000a900460ff16151514611a1e576040517f08c379a0000000000000000000000000000000000000000000000000000000008152600401611a15906163f8565b60405180910390fd5b611a4a7fd1e3539a8bfd4aae400ae5d8055a5fccf812096c04b416610bc366a0292ab65360001b615a86565b611a767f2e34e692b87ad72ebeb0c14d4af3a5de00f361dbaab7dc659ce508ec3f6b2f7e60001b615a86565b611aa27fef43da0f26ae566a87a4aaa20a03af758ea04ede79d9f203b5e48a7745aa773c60001b615a86565b611ace7feb57aac3338f386c1c266edda3724aa13fd2dec570bc06c33fb4d0c3339573fe60001b615a86565b611afa7f42b91e8c973483e4118fc701be2519d7fc9c161715af12d6aa735a63e4463cde60001b615a86565b611b267fde7a68b7ae86298389d7c585aa3564b7d5759fea4c5816def1ae78618cc6a89a60001b615a86565b60008054906101000a900473ffffffffffffffffffffffffffffffffffffffff1673ffffffffffffffffffffffffffffffffffffffff163373ffffffffffffffffffffffffffffffffffffffff1614611bb4576040517f08c379a0000000000000000000000000000000000000000000000000000000008152600401611bab90616438565b60405180910390fd5b611be07f577a0e929dcaa0872c59b226f3852a0f31f735e02b3e8e73c85b60abc06df6e560001b615a86565b611c0c7f41e92cd776bedbc688f7a26c9319debd60c194e394ee2b3af0377b6f507a39d860001b615a86565b611c387fc04346413a5a8c5973dfd901d5a25d0b7afabf143c07403135b0a0bb4c00123360001b615a86565b611c647f3acde8fbe920e06ae64f830c46f7d7861ae5d2285d99874d4826d74ebaea327c60001b615a86565b611c907fb4888757562181733d25b4617957a0eed02a5ff827bd06a048db7c21f1c96b3860001b615a86565b6001600560006101000a81548160ff021916908315150217905550611cd77f6568d6dd55db0aa520a32fe8977f1df02928e746ae4939f01b4cd8a325a4697560001b615a86565b611d037f7808db2361bd0cf4fa30b75e02fd54fad108bb1f2839ae278cf96f25d6388b8b60001b615a86565b7f24505c2a690f21afd3a9d6fd8280e5a12ad3fcf5edee69a44d19537561a85ad86001604051611d3391906163ad565b60405180910390a1565b600560029054906101000a900460ff1681565b6000611d7e7f6a2db2451bea729c665ab016dba44ec168c092f538fee964692509c3630a12a760001b615a86565b611daa7f1b11e30cdb2cc4f74a025cc0d2e30dd09581b0930eb7e311ddefb3cf2386fa5c60001b615a86565b611dd67f7e39da682e9ff02c1ee1d6add785b5ef228e5d8006771139e19729c757c16bb360001b615a86565b611e027f5437f81a5171c1803cbf9dff3260f4a0811eba0fea2b2389657a015de286edb860001b615a86565b60001515600760009054906101000a900460ff16151514611e58576040517f08c379a0000000000000000000000000000000000000000000000000000000008152600401611e4f906163f8565b60405180910390fd5b611e847fd1e3539a8bfd4aae400ae5d8055a5fccf812096c04b416610bc366a0292ab65360001b615a86565b611eb07f2e34e692b87ad72ebeb0c14d4af3a5de00f361dbaab7dc659ce508ec3f6b2f7e60001b615a86565b611edc7f0ad70c9681864d1f1a7e97b855104a8b803e9fff084374a3a2c24848959ca65b60001b615a86565b611f087fbf35bf221dfc8ad039bcc5105861207585f051a0dcd3528bac958c370479a8a560001b615a86565b611f347fac8b4b6c1e33348394d4812379c46be6d00869339a757a0ae3e474682ad7e1d760001b615a86565b8173ffffffffffffffffffffffffffffffffffffffff1660008054906101000a900473ffffffffffffffffffffffffffffffffffffffff1673ffffffffffffffffffffffffffffffffffffffff16149050919050565b80611fb77faf6bca6ce21200a02f3cbe036828f6cfb765d6c088fa993b4bb0ab546b4c3f1b60001b615a86565b611fe37fd982bd477130beb139d731cb8928d87c370167f349c625a8e535fc4d2d3ee23b60001b615a86565b61200f7fabf33cfa9f4e71f5616eb67056120427dfc2e446e50fb242f2b7b8d376d906c760001b615a86565b61203b7f509f318513292604594951bdc2b18c4d80055568b0ac60e7bca3fd548ba81a9560001b615a86565b600081148061204a5750600181145b612089576040517f08c379a000000000000000000000000000000000000000000000000000000000815260040161208090616478565b60405180910390fd5b6120b57f4aedd73d2a4bca1b4db28fbcc07f5d1114fc8fea79030a83ec3286bd1ddee46260001b615a86565b6120e17f0e98c1fc9b6167b9c071357f5c02541e481f393a1ba185016055d641a3adb19160001b615a86565b61210d7f6a2db2451bea729c665ab016dba44ec168c092f538fee964692509c3630a12a760001b615a86565b6121397f1b11e30cdb2cc4f74a025cc0d2e30dd09581b0930eb7e311ddefb3cf2386fa5c60001b615a86565b6121657f7e39da682e9ff02c1ee1d6add785b5ef228e5d8006771139e19729c757c16bb360001b615a86565b6121917f5437f81a5171c1803cbf9dff3260f4a0811eba0fea2b2389657a015de286edb860001b615a86565b60001515600760009054906101000a900460ff161515146121e7576040517f08c379a00000000000000000000000000000000000000000000000000000000081526004016121de906163f8565b60405180910390fd5b6122137fd1e3539a8bfd4aae400ae5d8055a5fccf812096c04b416610bc366a0292ab65360001b615a86565b61223f7f2e34e692b87ad72ebeb0c14d4af3a5de00f361dbaab7dc659ce508ec3f6b2f7e60001b615a86565b61226b7fae315468f033257b60e2d0ec27e6ca6d0365349862fac9cfb9e1be1b498a5a1460001b615a86565b6122977f350f4de06cca70166af803c1e735f1818cd1b8900d5d7edf6c96352849855cd460001b615a86565b6122c37f77d0d24f9fb3313e7df396ceebfdd65aa625e3102f572fa214c83312f7d435f160001b615a86565b6001600560026101000a81548160ff02191690831515021790555061230a7f2e7f930f70f19018a5350a744099d1dd3331fde3a25aaca7567b7a1ec038e84460001b615a86565b6123367f21f7e2db655466b9808b94dc58f291075e53408e9f2ee8837dfefc4a6a2c9c9160001b615a86565b7f7a19ed057db79e3c2fa0b97a54b43bef4fce74b31bb6c01af514b9a18a7f70ab60405160405180910390a15050565b600560009054906101000a900460ff1681565b6123a57fef43da0f26ae566a87a4aaa20a03af758ea04ede79d9f203b5e48a7745aa773c60001b615a86565b6123d17feb57aac3338f386c1c266edda3724aa13fd2dec570bc06c33fb4d0c3339573fe60001b615a86565b6123fd7f42b91e8c973483e4118fc701be2519d7fc9c161715af12d6aa735a63e4463cde60001b615a86565b6124297fde7a68b7ae86298389d7c585aa3564b7d5759fea4c5816def1ae78618cc6a89a60001b615a86565b60008054906101000a900473ffffffffffffffffffffffffffffffffffffffff1673ffffffffffffffffffffffffffffffffffffffff163373ffffffffffffffffffffffffffffffffffffffff16146124b7576040517f08c379a00000000000000000000000000000000000000000000000000000000081526004016124ae90616438565b60405180910390fd5b6124e37f577a0e929dcaa0872c59b226f3852a0f31f735e02b3e8e73c85b60abc06df6e560001b615a86565b61250f7f41e92cd776bedbc688f7a26c9319debd60c194e394ee2b3af0377b6f507a39d860001b615a86565b61253b7f6a2db2451bea729c665ab016dba44ec168c092f538fee964692509c3630a12a760001b615a86565b6125677f1b11e30cdb2cc4f74a025cc0d2e30dd09581b0930eb7e311ddefb3cf2386fa5c60001b615a86565b6125937f7e39da682e9ff02c1ee1d6add785b5ef228e5d8006771139e19729c757c16bb360001b615a86565b6125bf7f5437f81a5171c1803cbf9dff3260f4a0811eba0fea2b2389657a015de286edb860001b615a86565b60001515600760009054906101000a900460ff16151514612615576040517f08c379a000000000000000000000000000000000000000000000000000000000815260040161260c906163f8565b60405180910390fd5b6126417fd1e3539a8bfd4aae400ae5d8055a5fccf812096c04b416610bc366a0292ab65360001b615a86565b61266d7f2e34e692b87ad72ebeb0c14d4af3a5de00f361dbaab7dc659ce508ec3f6b2f7e60001b615a86565b6126997f59e8a8a17a5df121cf7c649d00254b02a05ed9a629665cc582e31ec1cef1427560001b615a86565b6126c57f95bf64900902c967dbcc74fc8ea7ac937503c82babeffa1db5746c3c40f1acc360001b615a86565b6126f17f6db16b3301c8234429178fc0324bb6d9b6b6ed81c28c679c468be46652fb364760001b615a86565b61271d7f0dcd2b304557705802d35c9a5731ea0f6572c98aa893eb024cf401a554606a4760001b615a86565b6001821415612761576040517f08c379a000000000000000000000000000000000000000000000000000000000815260040161275890616458565b60405180910390fd5b61278d7fd212a619053eb197644682f2861e7f873f5bc3cc66d80fdbc0f1c1191d51162e60001b615a86565b6127b97fa1ce3f5f4e70e0e79b154d249307aa4b61853e138fc92d2a572f4f8bf2baf17260001b615a86565b6127e57f03790373c63e8e0a67a817d542008f9a03eb0aff8042f7841dd113782035927860001b615a86565b6128117f9b9efdc05ae0ffaf60de8845c7166e40c2e72ae3400aae344ce375c149e1e27560001b615a86565b60008114806128205750600181145b8061282b5750600281145b61286a576040517f08c379a0000000000000000000000000000000000000000000000000000000008152600401612861906164b8565b60405180910390fd5b6128967f3b8caec6c6e480cf48e6405633606f2f24b8a220623c3196f60e7abd3ad58e8460001b615a86565b6128c27fe71a0b71941846e3c5838ddd1ebc8c839ef6828f9dfa7b1572f6ebbb67f40fba60001b615a86565b6128ee7f7003ad851b16c06e2e742ce73bef3613f8c3bad7330bc53c87ee0fcaf4ee56e860001b615a86565b6000811415612ab0576129237ff96ab60d2f10df8295ebc78ee96a87a258db8a94d424305e584d06e8aeff5b2c60001b615a86565b61294f7f4f2757dccaeb7d007362cb8de91300b130337ba049cce1e4569df1193bbdba2960001b615a86565b61297b7f0fe5e7069c7a820577cf95e0035509216ce9d89996c356056b8f8b37d52cc98860001b615a86565b6040518060400160405280600b81526020017f426f6172644d656d62657200000000000000000000000000000000000000000081525060046001846129c091906167b2565b815481106129f7577f4e487b7100000000000000000000000000000000000000000000000000000000600052603260045260246000fd5b90600052602060002090600402016002019080519060200190612a1b929190615a89565b50612a487fc5ce7bc7fa7f19ad6eda58d4e7fadddd847a990fc2d370e96f03f391348300fb60001b615a86565b612a747f8cc738c1eb6c17d76e0fcbdd2d868c74593d9ce866f94a12cda7b475554c476560001b615a86565b7f12523f2a740b8fc93b2bdc49d3e14b8198f975653db12a894ab58b4be45b7e7282604051612aa39190616584565b60405180910390a1612f13565b612adc7f0389e76f2670901a9b0c997b0b2f413ae7a6ffdd459cafb4ec524c5e8249cecd60001b615a86565b612b087fda17e9eef0757ab335a6caae72fbeb755cdc5673b5cfb241006d8ec476b0e0ee60001b615a86565b6001811415612cca57612b3d7f954ddf6351c1b9fcbd35e71c793afc959e59e88951ca6a8fe2c546bf7cc49dbe60001b615a86565b612b697f830691f0581c2d926ff7c84521e988bcd6629d38414e63fc5dd71d053be4b05b60001b615a86565b612b957f316624e8da96b6555ee69b620889960d8c62048f9a3b1d51ba91e0c0e252584c60001b615a86565b6040518060400160405280600781526020017f54656163686572000000000000000000000000000000000000000000000000008152506004600184612bda91906167b2565b81548110612c11577f4e487b7100000000000000000000000000000000000000000000000000000000600052603260045260246000fd5b90600052602060002090600402016002019080519060200190612c35929190615a89565b50612c627f4a17ed9b8a932fb8cd395e5533f89ea8499e2d6b9cd4af94f060181a980b2e3d60001b615a86565b612c8e7fdab79c0c2e760e01b7a97b32d232efde7b8853bd4f3c0bf7f0a3e399ff46433c60001b615a86565b7f12523f2a740b8fc93b2bdc49d3e14b8198f975653db12a894ab58b4be45b7e7282604051612cbd91906165b2565b60405180910390a1612f12565b612cf67f42e3d8281c8defbde9010e1a5e405af1387580e175d47dd414fc7ec9cf643f1460001b615a86565b612d227f51954b85bb328666ae5257b9dfb8681f5f29df5d6247d51884b59678ba9387de60001b615a86565b6002811415612ee457612d577fd8675e0d6ddb01f76393093941977c5445488782d32a4a6a53725b9cdfc6c8bf60001b615a86565b612d837fa541c88b1dfef352bcd7129c434563dc143b6508b8f97e73efb5207941b397d060001b615a86565b612daf7fce99e1455edfaf3746d1bc8b654a423447bbba96c1621adaf64d238282ff036560001b615a86565b6040518060400160405280600781526020017f53747564656e74000000000000000000000000000000000000000000000000008152506004600184612df491906167b2565b81548110612e2b577f4e487b7100000000000000000000000000000000000000000000000000000000600052603260045260246000fd5b90600052602060002090600402016002019080519060200190612e4f929190615a89565b50612e7c7fd338021dd497220ae32d9915349427d00dcc7a15926a37c9836bb44a121c6b5e60001b615a86565b612ea87f2fa37bf052eeccd9c7876f611d5d84e318fb3e5a7faf12b8c23e26d338f936eb60001b615a86565b7f12523f2a740b8fc93b2bdc49d3e14b8198f975653db12a894ab58b4be45b7e7282604051612ed791906165e0565b60405180910390a1612f11565b612f107f9378125aec2ac04a0a526ad0a344553effb3bc6a6121004c44863731baf29f2960001b615a86565b5b5b5b5050565b612f437f6a2db2451bea729c665ab016dba44ec168c092f538fee964692509c3630a12a760001b615a86565b612f6f7f1b11e30cdb2cc4f74a025cc0d2e30dd09581b0930eb7e311ddefb3cf2386fa5c60001b615a86565b612f9b7f7e39da682e9ff02c1ee1d6add785b5ef228e5d8006771139e19729c757c16bb360001b615a86565b612fc77f5437f81a5171c1803cbf9dff3260f4a0811eba0fea2b2389657a015de286edb860001b615a86565b60001515600760009054906101000a900460ff1615151461301d576040517f08c379a0000000000000000000000000000000000000000000000000000000008152600401613014906163f8565b60405180910390fd5b6130497fd1e3539a8bfd4aae400ae5d8055a5fccf812096c04b416610bc366a0292ab65360001b615a86565b6130757f2e34e692b87ad72ebeb0c14d4af3a5de00f361dbaab7dc659ce508ec3f6b2f7e60001b615a86565b6130a17fef43da0f26ae566a87a4aaa20a03af758ea04ede79d9f203b5e48a7745aa773c60001b615a86565b6130cd7feb57aac3338f386c1c266edda3724aa13fd2dec570bc06c33fb4d0c3339573fe60001b615a86565b6130f97f42b91e8c973483e4118fc701be2519d7fc9c161715af12d6aa735a63e4463cde60001b615a86565b6131257fde7a68b7ae86298389d7c585aa3564b7d5759fea4c5816def1ae78618cc6a89a60001b615a86565b60008054906101000a900473ffffffffffffffffffffffffffffffffffffffff1673ffffffffffffffffffffffffffffffffffffffff163373ffffffffffffffffffffffffffffffffffffffff16146131b3576040517f08c379a00000000000000000000000000000000000000000000000000000000081526004016131aa90616438565b60405180910390fd5b6131df7f577a0e929dcaa0872c59b226f3852a0f31f735e02b3e8e73c85b60abc06df6e560001b615a86565b61320b7f41e92cd776bedbc688f7a26c9319debd60c194e394ee2b3af0377b6f507a39d860001b615a86565b6132377fee5ee9914bcbcd227b8e7a5b8a0514c6bb2dfed44474a5eb3a9e58f87ea49fc160001b615a86565b6132637f8528e3140743a1f221df0157e60db8d14ea5a4c3c246db3f71fd01d7b447a77860001b615a86565b61328f7f8934b53671cfd96c418f66799c6f79d95413eded8163541151f23630c28555ed60001b615a86565b6001600760006101000a81548160ff0219169083151502179055506132d67faf32d09b8a750aa5921f56534f53f3233f2bd9892a02862d1161a90b58ff446060001b615a86565b6133027fd5dd7f39020d1371acd4788e3ad2a147834e94a4900b826efaaa1019a27fe7a760001b615a86565b7f46a78bf7ff8f677ad559c47d73bbd80cc457eaa9e07d76e336d61cac18fee98b600160405161333291906163ad565b60405180910390a1565b6133687fef43da0f26ae566a87a4aaa20a03af758ea04ede79d9f203b5e48a7745aa773c60001b615a86565b6133947feb57aac3338f386c1c266edda3724aa13fd2dec570bc06c33fb4d0c3339573fe60001b615a86565b6133c07f42b91e8c973483e4118fc701be2519d7fc9c161715af12d6aa735a63e4463cde60001b615a86565b6133ec7fde7a68b7ae86298389d7c585aa3564b7d5759fea4c5816def1ae78618cc6a89a60001b615a86565b60008054906101000a900473ffffffffffffffffffffffffffffffffffffffff1673ffffffffffffffffffffffffffffffffffffffff163373ffffffffffffffffffffffffffffffffffffffff161461347a576040517f08c379a000000000000000000000000000000000000000000000000000000000815260040161347190616438565b60405180910390fd5b6134a67f577a0e929dcaa0872c59b226f3852a0f31f735e02b3e8e73c85b60abc06df6e560001b615a86565b6134d27f41e92cd776bedbc688f7a26c9319debd60c194e394ee2b3af0377b6f507a39d860001b615a86565b6134fe7f6a2db2451bea729c665ab016dba44ec168c092f538fee964692509c3630a12a760001b615a86565b61352a7f1b11e30cdb2cc4f74a025cc0d2e30dd09581b0930eb7e311ddefb3cf2386fa5c60001b615a86565b6135567f7e39da682e9ff02c1ee1d6add785b5ef228e5d8006771139e19729c757c16bb360001b615a86565b6135827f5437f81a5171c1803cbf9dff3260f4a0811eba0fea2b2389657a015de286edb860001b615a86565b60001515600760009054906101000a900460ff161515146135d8576040517f08c379a00000000000000000000000000000000000000000000000000000000081526004016135cf906163f8565b60405180910390fd5b6136047fd1e3539a8bfd4aae400ae5d8055a5fccf812096c04b416610bc366a0292ab65360001b615a86565b6136307f2e34e692b87ad72ebeb0c14d4af3a5de00f361dbaab7dc659ce508ec3f6b2f7e60001b615a86565b61365c7f355bff74c3366eb8d94bcb27f47a620c68d67058219cf0d6e2499a6c28041d1060001b615a86565b6136887f8b690fb5bb88dcb9da05c323d8dae5388285ed3f99c4b2171d56ea1109a61f8960001b615a86565b6136b47f4dadda3a06edd60808c2c0a0e321491cf5714843e9c6cad5f0861ed49c6f525960001b615a86565b6136e07f5079f4f3723aa4e55bb271f06f4d86450fa703096aeddd272eb8961f2e51fc7660001b615a86565b60008114806136ef5750600181145b806136fa5750600281145b613739576040517f08c379a0000000000000000000000000000000000000000000000000000000008152600401613730906164b8565b60405180910390fd5b6137657f262468a20a065189820398f89b32a8a92d8ef265ea17a91ec7f82515947a384960001b615a86565b6137917f51e5a39a71db55563f00a23685b76cd09f9256bec304e2189d0bafa661af449c60001b615a86565b6137bd7f3dc6beb8e5cf6662046276f972eae87fee23ac0dbfbbae1657889841256d076e60001b615a86565b6000811415613a7e576137f27f14a99c11d10753b1c59f10e5888f9fe5a295c91dd6ea739d17eb36a63f7c578d60001b615a86565b61381e7f54800cd0f671a2012002b0705c466246ee0c4cf49d3595214f1980385782f7d960001b615a86565b61384a7f1aa4cd53f949d0d4d18d397ce8f9211c61137840a0bf42ea7a7cd4c4d4a7b78760001b615a86565b6000600160048054905061385e919061675c565b905061388c7f95859a35b02116620a0a7a4b6dfd9b11bf87ee4af96f5de9060696b5aca64f6960001b615a86565b6138b87f97e4f145043b4bd7c62be4a4169db4d04e11e8222b000cd17d6f2851c8da7ebc60001b615a86565b600460405180608001604052808381526020018573ffffffffffffffffffffffffffffffffffffffff1681526020016040518060400160405280600b81526020017f426f6172644d656d62657200000000000000000000000000000000000000000081525081526020016000151581525090806001815401808255809150506001900390600052602060002090600402016000909190919091506000820151816000015560208201518160010160006101000a81548173ffffffffffffffffffffffffffffffffffffffff021916908373ffffffffffffffffffffffffffffffffffffffff16021790555060408201518160020190805190602001906139bf929190615a89565b5060608201518160030160006101000a81548160ff0219169083151502179055505050613a0e7fbc425e72244f3eac0f8784df74eb3633a893efc09b9d108ba67f234cb1be4e7f60001b615a86565b613a3a7f864f11951d81932da7232100f9cba39dbd7fe9bf353062e0d69c59b1554e7bd760001b615a86565b7f6b20eb62f1298cad3d3fe78b79d9d03ed50788e17184c1c0b61a05291ea520d88184846000604051613a7094939291906164f3565b60405180910390a1506140df565b613aaa7fb65cc5e676722a39d37a62c66ab8b3d60c264562aae78a47644153732e3792df60001b615a86565b613ad67f7bf379b5ded2608b5d1186235eeb89c47cf26530ef3409163a680a8b8dd4f5f760001b615a86565b6001811415613d9757613b0b7f0cca31473288a03f31207264f4ac9980d7f2736c301a79b89c311ba9238c54ea60001b615a86565b613b377f298b77e04762a2d7d320c5566521b4b6ff523d7614a11bea95426f6214cb277660001b615a86565b613b637f8834b2bae2c101c9677f5ea5c710d8e9e2f649c2b60afd1f7b7bc1398992309260001b615a86565b60006001600480549050613b77919061675c565b9050613ba57f771ffed58f4af75a46cbb4fc241a1a518c90620958982f23e3b920363dd13bee60001b615a86565b613bd17faeeac9471082ddbffa2f40866dd6846e3220a716de797930a2c7aca55c22ec6160001b615a86565b600460405180608001604052808381526020018573ffffffffffffffffffffffffffffffffffffffff1681526020016040518060400160405280600781526020017f546561636865720000000000000000000000000000000000000000000000000081525081526020016000151581525090806001815401808255809150506001900390600052602060002090600402016000909190919091506000820151816000015560208201518160010160006101000a81548173ffffffffffffffffffffffffffffffffffffffff021916908373ffffffffffffffffffffffffffffffffffffffff1602179055506040820151816002019080519060200190613cd8929190615a89565b5060608201518160030160006101000a81548160ff0219169083151502179055505050613d277ff9726fdb5fabdeb3339f013c4ca32fc2883b7df9c18e074589a12c3b57312b3a60001b615a86565b613d537f2cd3d5360ed1cd63e41ccbc395516fb741cf2c07dcde2e3795191a5e3602a6a560001b615a86565b7f6b20eb62f1298cad3d3fe78b79d9d03ed50788e17184c1c0b61a05291ea520d88184846000604051613d8994939291906164f3565b60405180910390a1506140de565b613dc37fb1ee0b0f5e8a1f05c9b9987847599e88a77cca52674f23e8ebfce427a7279bce60001b615a86565b613def7f9c3d967aa4398c9885b385cafbc87a5fe6bef0785448f06e4c075059105ddc0260001b615a86565b60028114156140b057613e247f11ceeb3ddd69569e3853adc651662db092906423aa31b7f0c48696b1e3172a4f60001b615a86565b613e507f96721af08b6fc4a70ad419ef9207a10ff273b9b63e0ac5ce069573b98200cb2560001b615a86565b613e7c7f43bec662a60f2f8ba6d074f081abfc419a00d9749a550612916f2f84dfb4ee0560001b615a86565b60006001600480549050613e90919061675c565b9050613ebe7f45e714116b74c537878c0a8bd670bb967ffc5621e37559052a2c83ecc3e7c30760001b615a86565b613eea7f5d2f86c367ecfc96d5ad8d2b948ae30d98b21b9c16f864b86c03cb13ff64589360001b615a86565b600460405180608001604052808381526020018573ffffffffffffffffffffffffffffffffffffffff1681526020016040518060400160405280600781526020017f53747564656e740000000000000000000000000000000000000000000000000081525081526020016000151581525090806001815401808255809150506001900390600052602060002090600402016000909190919091506000820151816000015560208201518160010160006101000a81548173ffffffffffffffffffffffffffffffffffffffff021916908373ffffffffffffffffffffffffffffffffffffffff1602179055506040820151816002019080519060200190613ff1929190615a89565b5060608201518160030160006101000a81548160ff02191690831515021790555050506140407facfa66427951b0d9efede4247ee6b4b54c182e5f9f8370853fb74e7128e8ce7660001b615a86565b61406c7f57bfbee038983cb0225bee6911ece6beb6220af48d180e6f6e5b148d27d15dc460001b615a86565b7f6b20eb62f1298cad3d3fe78b79d9d03ed50788e17184c1c0b61a05291ea520d881848460006040516140a294939291906164f3565b60405180910390a1506140dd565b6140dc7f327efe096b9fddb0809d95a2444075f5b9e5d8f41cb240d35cc03ca4569f2bbf60001b615a86565b5b5b5b5050565b61410f7f6a2db2451bea729c665ab016dba44ec168c092f538fee964692509c3630a12a760001b615a86565b61413b7f1b11e30cdb2cc4f74a025cc0d2e30dd09581b0930eb7e311ddefb3cf2386fa5c60001b615a86565b6141677f7e39da682e9ff02c1ee1d6add785b5ef228e5d8006771139e19729c757c16bb360001b615a86565b6141937f5437f81a5171c1803cbf9dff3260f4a0811eba0fea2b2389657a015de286edb860001b615a86565b60001515600760009054906101000a900460ff161515146141e9576040517f08c379a00000000000000000000000000000000000000000000000000000000081526004016141e0906163f8565b60405180910390fd5b6142157fd1e3539a8bfd4aae400ae5d8055a5fccf812096c04b416610bc366a0292ab65360001b615a86565b6142417f2e34e692b87ad72ebeb0c14d4af3a5de00f361dbaab7dc659ce508ec3f6b2f7e60001b615a86565b61426d7fef43da0f26ae566a87a4aaa20a03af758ea04ede79d9f203b5e48a7745aa773c60001b615a86565b6142997feb57aac3338f386c1c266edda3724aa13fd2dec570bc06c33fb4d0c3339573fe60001b615a86565b6142c57f42b91e8c973483e4118fc701be2519d7fc9c161715af12d6aa735a63e4463cde60001b615a86565b6142f17fde7a68b7ae86298389d7c585aa3564b7d5759fea4c5816def1ae78618cc6a89a60001b615a86565b60008054906101000a900473ffffffffffffffffffffffffffffffffffffffff1673ffffffffffffffffffffffffffffffffffffffff163373ffffffffffffffffffffffffffffffffffffffff161461437f576040517f08c379a000000000000000000000000000000000000000000000000000000000815260040161437690616438565b60405180910390fd5b6143ab7f577a0e929dcaa0872c59b226f3852a0f31f735e02b3e8e73c85b60abc06df6e560001b615a86565b6143d77f41e92cd776bedbc688f7a26c9319debd60c194e394ee2b3af0377b6f507a39d860001b615a86565b6144037f9d51b7328499d944dee7859db866ffd5d92c186d8be3c814db9e241149e8a55060001b615a86565b61442f7fa0f247db4a7db407acd414b81d0b553f2d27e6dbec2fd71ce73986fe8a18b23460001b615a86565b61445b7f02828ef4f6ebfe4fa14450f8ce65e67572ba00868f2d3c6f4252ec75e7acd1a060001b615a86565b6000600560006101000a81548160ff0219169083151502179055506144a27f72a04522da475a86044297cdd457c8a7a9d42162c361065398ab37685339885460001b615a86565b6144ce7f64e474c2489bfe0ae1340b8961ab6cf7deb40c41548214adbe05c0f5d8c379c560001b615a86565b7fd3dc25b085205a3d69d2d144a9f0a0767b54be27b041bcbdb5308a676c1f393760006040516144fe91906163ad565b60405180910390a1565b6145347f78abae2589ed62b24bc5b882058a6960e361110c35a60cacf35ee087ffcbc6b560001b615a86565b6145607fe9e5ffe8ae06c4586ebd5d5285a6ede0e1be3a794a7150c96ce9c2c7c847f08060001b615a86565b61458c7fc96636aa72efa6aa4d551142b67700c1b6fe4f3355a2d9c517167a1eb97446cf60001b615a86565b6145b87fc391bf0bffda6d52af6bb9fb59471af917b63b86bfa3fa1d39cba9be7626285e60001b615a86565b60011515600560009054906101000a900460ff161515146145d857600080fd5b6146047f3ae9fe378c81234cc4cd6fcc032c5981686646618a14573cbabb3d7a63e3a8cd60001b615a86565b6146307f72f26e288d4c1928ccd040b451e85864aad7ed424c9b3d0701f5a1cc2ed3f91060001b615a86565b61465c7f6a2db2451bea729c665ab016dba44ec168c092f538fee964692509c3630a12a760001b615a86565b6146887f1b11e30cdb2cc4f74a025cc0d2e30dd09581b0930eb7e311ddefb3cf2386fa5c60001b615a86565b6146b47f7e39da682e9ff02c1ee1d6add785b5ef228e5d8006771139e19729c757c16bb360001b615a86565b6146e07f5437f81a5171c1803cbf9dff3260f4a0811eba0fea2b2389657a015de286edb860001b615a86565b60001515600760009054906101000a900460ff16151514614736576040517f08c379a000000000000000000000000000000000000000000000000000000000815260040161472d906163f8565b60405180910390fd5b6147627fd1e3539a8bfd4aae400ae5d8055a5fccf812096c04b416610bc366a0292ab65360001b615a86565b61478e7f2e34e692b87ad72ebeb0c14d4af3a5de00f361dbaab7dc659ce508ec3f6b2f7e60001b615a86565b6147ba7f33e91c77643c44379c9e8a6b878504bf37ae1ab52270e444caa1f7136d9fd29960001b615a86565b6147e67f9788f24291c3c1813cfd02f9406ac39a5cde353b1daa8d8741fba6d0f542ff8160001b615a86565b6148127fbb606f1505dd49f830a81a0499cfb64828bb0434a4e47c69bdf34ed7cc6e60bf60001b615a86565b61483e7f1f9676e906d3fe6eb21abc126e8606e21bfa6fea7c060a061445028bf01afbd760001b615a86565b60001515600560029054906101000a900460ff16151514614894576040517f08c379a000000000000000000000000000000000000000000000000000000000815260040161488b90616418565b60405180910390fd5b6148c07fbac16cf32fe761dcc6cf51da1f5465412fac92d3b4a48870c4f39d64f3388cb660001b615a86565b6148ec7fccabe23bb0401be4ba2a22cce0ee72d2ab64d1ccbb3452cc8b8cd2bca30d1c0760001b615a86565b6149187f3d21e327e700131ca766557f261b10ebbe20e531732e40ec65a19db5f73a795a60001b615a86565b6149447f3ad50affec7ff02d51f2dcf5d800dae108d4c9376cd9df6e0c8ba193e8afb7b260001b615a86565b60001515600460018361495791906167b2565b8154811061498e577f4e487b7100000000000000000000000000000000000000000000000000000000600052603260045260246000fd5b906000526020600020906004020160030160009054906101000a900460ff161515146149ef576040517f08c379a00000000000000000000000000000000000000000000000000000000081526004016149e690616498565b60405180910390fd5b614a1b7ff7b72bedaaee2e8d0981da6a627da68b71425743e935e1ea9d023e14b5afaec460001b615a86565b614a477fd2f73a98b6328c1338f1dc33c1550bd40116017039a1d3ba01c237562f4f055460001b615a86565b614a737f78093b8959d2f4f414bf0d2f3ccdb9e4f4412a4086803cfa8bdd8a97f7f96fb160001b615a86565b60016004600183614a8491906167b2565b81548110614abb577f4e487b7100000000000000000000000000000000000000000000000000000000600052603260045260246000fd5b906000526020600020906004020160030160006101000a81548160ff021916908315150217905550614b0f7fa6a3d9a64888b31d55dfdb00315bedd2a7f3e8caf90c9fef3fd580150c118b5d60001b615a86565b614b3b7f242fef9bbc8934deed3c034f83f87f933706d48b180ce6cf4bbf885ecdcacbe160001b615a86565b60006001600280549050614b4f919061675c565b9050614b7d7ff81a7d89ab0d3bdd61c04aee523c1a55f27787bdd8403a6ac94a2fa83e035fd260001b615a86565b614ba97f3c7a5eb979172b40d9d8ed349a240451ca8160c77fd3a00d40e040cbbf9de0eb60001b615a86565b6002604051806040016040528083815260200185815250908060018154018082558091505060019003906000526020600020906002020160009091909190915060008201518160000155602082015181600101555050614c2b7f9e2d65b909abfcca3d1c4c6dadcecbdf5ddb6a42fc72218a009c88a297761eda60001b615a86565b6003600184614c3a91906167b2565b81548110614c71577f4e487b7100000000000000000000000000000000000000000000000000000000600052603260045260246000fd5b90600052602060002090600402016002016000815480929190614c93906168b4565b9190505550614cc47f97e35560f66015e8661f8f3c796d07c21415e11acfe3f9f9b914e5e7253a325760001b615a86565b614cf07faa3258cda0a01cf0c4f984ca79800c19d80b5aee52a01fbbf1e1d261714b41db60001b615a86565b7f3894cca7f62969f5f8326aad1950b0cd936eb3c2b8e957265c4918d185a1f68f6003600185614d2091906167b2565b81548110614d57577f4e487b7100000000000000000000000000000000000000000000000000000000600052603260045260246000fd5b906000526020600020906004020160010183604051614d779291906163c8565b60405180910390a1505050565b60065481565b6060614db87f6a2db2451bea729c665ab016dba44ec168c092f538fee964692509c3630a12a760001b615a86565b614de47f1b11e30cdb2cc4f74a025cc0d2e30dd09581b0930eb7e311ddefb3cf2386fa5c60001b615a86565b614e107f7e39da682e9ff02c1ee1d6add785b5ef228e5d8006771139e19729c757c16bb360001b615a86565b614e3c7f5437f81a5171c1803cbf9dff3260f4a0811eba0fea2b2389657a015de286edb860001b615a86565b60001515600760009054906101000a900460ff16151514614e92576040517f08c379a0000000000000000000000000000000000000000000000000000000008152600401614e89906163f8565b60405180910390fd5b614ebe7fd1e3539a8bfd4aae400ae5d8055a5fccf812096c04b416610bc366a0292ab65360001b615a86565b614eea7f2e34e692b87ad72ebeb0c14d4af3a5de00f361dbaab7dc659ce508ec3f6b2f7e60001b615a86565b614f167f7217e6c3859b883505b9b02778494c35d2cc680ae6e8c050f9728b599c80d3ca60001b615a86565b614f427f2701327e6344864e75f84bbc53aa9eec6dd084e6d6242e5b3917f60768bea2a960001b615a86565b614f6e7f9b2d105f4e33975ddb688a9ab7eb7779b71208a8f810b5f476f1834db04f53c460001b615a86565b6003805480602002602001604051908101604052809291908181526020016000905b82821015615083578382906000526020600020906004020160405180608001604052908160008201548152602001600182018054614fcd90616882565b80601f0160208091040260200160405190810160405280929190818152602001828054614ff990616882565b80156150465780601f1061501b57610100808354040283529160200191615046565b820191906000526020600020905b81548152906001019060200180831161502957829003601f168201915b50505050508152602001600282015481526020016003820160009054906101000a900460ff16151515158152505081526020019060010190614f90565b50505050905090565b60006150ba7f6a2db2451bea729c665ab016dba44ec168c092f538fee964692509c3630a12a760001b615a86565b6150e67f1b11e30cdb2cc4f74a025cc0d2e30dd09581b0930eb7e311ddefb3cf2386fa5c60001b615a86565b6151127f7e39da682e9ff02c1ee1d6add785b5ef228e5d8006771139e19729c757c16bb360001b615a86565b61513e7f5437f81a5171c1803cbf9dff3260f4a0811eba0fea2b2389657a015de286edb860001b615a86565b60001515600760009054906101000a900460ff16151514615194576040517f08c379a000000000000000000000000000000000000000000000000000000000815260040161518b906163f8565b60405180910390fd5b6151c07fd1e3539a8bfd4aae400ae5d8055a5fccf812096c04b416610bc366a0292ab65360001b615a86565b6151ec7f2e34e692b87ad72ebeb0c14d4af3a5de00f361dbaab7dc659ce508ec3f6b2f7e60001b615a86565b6152187f2821e01a5c932ecef3cbe4719a1c736048f5320dceea6a5774b4fedbae9425b560001b615a86565b6152447fb2cbccddd1bd7406e67f6c6dc01c4975cbb965707f05538366d7b0de734bb9ae60001b615a86565b6152707ffdd43df2956e69a94d534aac3448f77f1a666891d31f5a8ce3434985bcf56aa660001b615a86565b600560029054906101000a900460ff16905090565b6152b17f6a2db2451bea729c665ab016dba44ec168c092f538fee964692509c3630a12a760001b615a86565b6152dd7f1b11e30cdb2cc4f74a025cc0d2e30dd09581b0930eb7e311ddefb3cf2386fa5c60001b615a86565b6153097f7e39da682e9ff02c1ee1d6add785b5ef228e5d8006771139e19729c757c16bb360001b615a86565b6153357f5437f81a5171c1803cbf9dff3260f4a0811eba0fea2b2389657a015de286edb860001b615a86565b60001515600760009054906101000a900460ff1615151461538b576040517f08c379a0000000000000000000000000000000000000000000000000000000008152600401615382906163f8565b60405180910390fd5b6153b77fd1e3539a8bfd4aae400ae5d8055a5fccf812096c04b416610bc366a0292ab65360001b615a86565b6153e37f2e34e692b87ad72ebeb0c14d4af3a5de00f361dbaab7dc659ce508ec3f6b2f7e60001b615a86565b61540f7f4878130ba92287a058bd7fc1d8817597f9a6beece4422a4daba62d75cf6e2aeb60001b615a86565b61543b7f42f997f384294eafccf6ef117a0435edaa12b05de6600155a65bee1260bceffd60001b615a86565b6154677f287a305594e469f7880e6e0aa4bb31df7f1e9e7277259206f7618a77c04fe9ab60001b615a86565b6000600160038054905061547b919061675c565b90506154a97f92366508a8b0084ab68a5dbef981f89d769d8dad22d8b7abfe84c562c240650260001b615a86565b6154d57f7df029ba62acef9d6954f71c790c83d4feb1c558dc4db8af3c2831eba8f05e5060001b615a86565b600360405180608001604052808381526020018481526020016000815260200160001515815250908060018154018082558091505060019003906000526020600020906004020160009091909190915060008201518160000155602082015181600101908051906020019061554b929190615a89565b506040820151816002015560608201518160030160006101000a81548160ff02191690831515021790555050506155a47fae491ad1ae48ab4a285b6a0ffbce5a89f9da7824b2aa7a0759123ec5f1bd2ad460001b615a86565b6155d07f5b34da52c638f96dc0bdc15e44080b1b84e6f4cac19b705a3d90d6d530b615c960001b615a86565b7f1d58ebd61d2b8ddd2f0ec09260e573e2048929d40687fb178f27634264a8371681836000806040516156069493929190616538565b60405180910390a15050565b60006156407f6a2db2451bea729c665ab016dba44ec168c092f538fee964692509c3630a12a760001b615a86565b61566c7f1b11e30cdb2cc4f74a025cc0d2e30dd09581b0930eb7e311ddefb3cf2386fa5c60001b615a86565b6156987f7e39da682e9ff02c1ee1d6add785b5ef228e5d8006771139e19729c757c16bb360001b615a86565b6156c47f5437f81a5171c1803cbf9dff3260f4a0811eba0fea2b2389657a015de286edb860001b615a86565b60001515600760009054906101000a900460ff1615151461571a576040517f08c379a0000000000000000000000000000000000000000000000000000000008152600401615711906163f8565b60405180910390fd5b6157467fd1e3539a8bfd4aae400ae5d8055a5fccf812096c04b416610bc366a0292ab65360001b615a86565b6157727f2e34e692b87ad72ebeb0c14d4af3a5de00f361dbaab7dc659ce508ec3f6b2f7e60001b615a86565b61579e7f344da0afd607c87a2eda4cb92c97683ec1bc5dd147b39c53a78b569067310acc60001b615a86565b6157ca7fc3f4bc849533d07991d89cf034b39cdcc0bde712f3eeb30479bcd0541d623bb860001b615a86565b6157f67fc4fd93e4623e2c289e95e03d4fcf16b71d8756ea22cc906a5c41a1273fe05dbd60001b615a86565b60006158247f4e7d5f66877f34d1eaa6e9fa1e6a915a00eae5a9d1bf09b5eb8e2ea7a582cf0060001b615a86565b6158507f63f02bdc44f6decb6a780362e6bc8686cce60aacd244db09d04aebe397e726ee60001b615a86565b60005b600480549050811015615a245761588c7f8828c26d6227b8ccb85327f40899c9bd9a86c55416ca1ef62b1ad50e7469813160001b615a86565b6158b87fffcc61eb9ec98c7459839fca47d10cfacb2b367a148878b5661af2e3725c89bf60001b615a86565b8373ffffffffffffffffffffffffffffffffffffffff1660048281548110615909577f4e487b7100000000000000000000000000000000000000000000000000000000600052603260045260246000fd5b906000526020600020906004020160010160009054906101000a900473ffffffffffffffffffffffffffffffffffffffff1673ffffffffffffffffffffffffffffffffffffffff1614156159e4576159837f7fd679bafb3bb65d9b7426595e76f4c6b9e2eab6669c2eace8c69240e430ab1c60001b615a86565b6159af7f4d0fcc1c93233d0aacaf8ffde217f7f08ac1106d5997b0326356edd862ca7d5a60001b615a86565b6159db7f38a0bece505475d2fe6926cac848630c63810859677b5e496055e98f71d48c5c60001b615a86565b60019150615a11565b615a107f3b08e08fa0a61c62f0a5ec657bc5a240ff84823fd93ffcdd2c43754886aaeace60001b615a86565b5b8080615a1c906168b4565b915050615853565b50615a517faf6c8528afb60f13345d103b499ba954613f472e04e84e3ca9dd5509da70503460001b615a86565b615a7d7fe787affcea928e404811a9485bb42104f559d2711cc057d9809eae3836b42d6960001b615a86565b80915050919050565b50565b828054615a9590616882565b90600052602060002090601f016020900481019282615ab75760008555615afe565b82601f10615ad057805160ff1916838001178555615afe565b82800160010185558215615afe579182015b82811115615afd578251825591602001919060010190615ae2565b5b509050615b0b9190615b0f565b5090565b5b80821115615b28576000816000905550600101615b10565b5090565b6000615b3f615b3a8461663f565b61660e565b905082815260208101848484011115615b5757600080fd5b615b62848285616840565b509392505050565b600081359050615b798161699b565b92915050565b600082601f830112615b9057600080fd5b8135615ba0848260208601615b2c565b91505092915050565b600081359050615bb8816169b2565b92915050565b600060208284031215615bd057600080fd5b6000615bde84828501615b6a565b91505092915050565b60008060408385031215615bfa57600080fd5b6000615c0885828601615b6a565b9250506020615c1985828601615ba9565b9150509250929050565b600060208284031215615c3557600080fd5b600082013567ffffffffffffffff811115615c4f57600080fd5b615c5b84828501615b7f565b91505092915050565b600060208284031215615c7657600080fd5b6000615c8484828501615ba9565b91505092915050565b60008060408385031215615ca057600080fd5b6000615cae85828601615ba9565b9250506020615cbf85828601615ba9565b9150509250929050565b6000615cd58383616234565b905092915050565b6000615ce98383616297565b905092915050565b6000615cfd83836162fa565b60408301905092915050565b615d12816167e6565b82525050565b615d21816167e6565b82525050565b6000615d32826166b4565b615d3c8185616707565b935083602082028501615d4e8561666f565b8060005b85811015615d8a5784840389528151615d6b8582615cc9565b9450615d76836166e0565b925060208a01995050600181019050615d52565b50829750879550505050505092915050565b6000615da7826166bf565b615db18185616718565b935083602082028501615dc38561667f565b8060005b85811015615dff5784840389528151615de08582615cdd565b9450615deb836166ed565b925060208a01995050600181019050615dc7565b50829750879550505050505092915050565b6000615e1c826166ca565b615e268185616729565b9350615e318361668f565b8060005b83811015615e62578151615e498882615cf1565b9750615e54836166fa565b925050600181019050615e35565b5085935050505092915050565b615e78816167f8565b82525050565b615e87816167f8565b82525050565b615e968161682e565b82525050565b6000615ea7826166d5565b615eb1818561673a565b9350615ec181856020860161684f565b615eca8161698a565b840191505092915050565b6000615ee0826166d5565b615eea818561674b565b9350615efa81856020860161684f565b615f038161698a565b840191505092915050565b60008154615f1b81616882565b615f25818661674b565b94506001821660008114615f405760018114615f5257615f85565b60ff1983168652602086019350615f85565b615f5b8561669f565b60005b83811015615f7d57815481890152600182019150602081019050615f5e565b808801955050505b50505092915050565b6000615f9b600b8361674b565b91507f426f6172644d656d6265720000000000000000000000000000000000000000006000830152602082019050919050565b6000615fdb60078361674b565b91507f54656163686572000000000000000000000000000000000000000000000000006000830152602082019050919050565b600061601b601a8361674b565b91507f436f6e747261637420686173206265656e2064697361626c65640000000000006000830152602082019050919050565b600061605b60108361674b565b91507f566f74696e672068617320656e646564000000000000000000000000000000006000830152602082019050919050565b600061609b60268361674b565b91507f4f6e6c79207468652063686169726d616e20697320616c6c6f77656420746f2060008301527f6d6f6469667900000000000000000000000000000000000000000000000000006020830152604082019050919050565b6000616101601a8361674b565b91507f596f752063616e6e6f742075706461746520796f757273656c660000000000006000830152602082019050919050565b600061614160168361674b565b91507f596f7520617265206e6f7420617574686f72697a6564000000000000000000006000830152602082019050919050565b600061618160158361674b565b91507f596f752063616e6e6f7420766f746520747769636500000000000000000000006000830152602082019050919050565b60006161c160188361674b565b91507f55736572207479706520646f6573206e6f7420657869737400000000000000006000830152602082019050919050565b600061620160078361674b565b91507f53747564656e74000000000000000000000000000000000000000000000000006000830152602082019050919050565b600060808301600083015161624c6000860182616329565b50602083015184820360208601526162648282615e9c565b91505060408301516162796040860182616329565b50606083015161628c6060860182615e6f565b508091505092915050565b60006080830160008301516162af6000860182616329565b5060208301516162c26020860182615d09565b50604083015184820360408601526162da8282615e9c565b91505060608301516162ef6060860182615e6f565b508091505092915050565b6040820160008201516163106000850182616329565b5060208201516163236020850182616329565b50505050565b61633281616824565b82525050565b61634181616824565b82525050565b600060208201905081810360008301526163618184615d27565b905092915050565b600060208201905081810360008301526163838184615d9c565b905092915050565b600060208201905081810360008301526163a58184615e11565b905092915050565b60006020820190506163c26000830184615e7e565b92915050565b600060408201905081810360008301526163e28185615f0e565b90506163f16020830184616338565b9392505050565b600060208201905081810360008301526164118161600e565b9050919050565b600060208201905081810360008301526164318161604e565b9050919050565b600060208201905081810360008301526164518161608e565b9050919050565b60006020820190508181036000830152616471816160f4565b9050919050565b6000602082019050818103600083015261649181616134565b9050919050565b600060208201905081810360008301526164b181616174565b9050919050565b600060208201905081810360008301526164d1816161b4565b9050919050565b60006020820190506164ed6000830184616338565b92915050565b60006080820190506165086000830187616338565b6165156020830186615d18565b6165226040830185616338565b61652f6060830184615e7e565b95945050505050565b600060808201905061654d6000830187616338565b818103602083015261655f8186615ed5565b905061656e6040830185615e8d565b61657b6060830184615e7e565b95945050505050565b60006040820190506165996000830184616338565b81810360208301526165aa81615f8e565b905092915050565b60006040820190506165c76000830184616338565b81810360208301526165d881615fce565b905092915050565b60006040820190506165f56000830184616338565b8181036020830152616606816161f4565b905092915050565b6000604051905081810181811067ffffffffffffffff821117156166355761663461695b565b5b8060405250919050565b600067ffffffffffffffff82111561665a5761665961695b565b5b601f19601f8301169050602081019050919050565b6000819050602082019050919050565b6000819050602082019050919050565b6000819050602082019050919050565b60008190508160005260206000209050919050565b600081519050919050565b600081519050919050565b600081519050919050565b600081519050919050565b6000602082019050919050565b6000602082019050919050565b6000602082019050919050565b600082825260208201905092915050565b600082825260208201905092915050565b600082825260208201905092915050565b600082825260208201905092915050565b600082825260208201905092915050565b600061676782616824565b915061677283616824565b9250827fffffffffffffffffffffffffffffffffffffffffffffffffffffffffffffffff038211156167a7576167a66168fd565b5b828201905092915050565b60006167bd82616824565b91506167c883616824565b9250828210156167db576167da6168fd565b5b828203905092915050565b60006167f182616804565b9050919050565b60008115159050919050565b600073ffffffffffffffffffffffffffffffffffffffff82169050919050565b6000819050919050565b600061683982616824565b9050919050565b82818337600083830152505050565b60005b8381101561686d578082015181840152602081019050616852565b8381111561687c576000848401525b50505050565b6000600282049050600182168061689a57607f821691505b602082108114156168ae576168ad61692c565b5b50919050565b60006168bf82616824565b91507fffffffffffffffffffffffffffffffffffffffffffffffffffffffffffffffff8214156168f2576168f16168fd565b5b600182019050919050565b7f4e487b7100000000000000000000000000000000000000000000000000000000600052601160045260246000fd5b7f4e487b7100000000000000000000000000000000000000000000000000000000600052602260045260246000fd5b7f4e487b7100000000000000000000000000000000000000000000000000000000600052604160045260246000fd5b6000601f19601f8301169050919050565b6169a4816167e6565b81146169af57600080fd5b50565b6169bb81616824565b81146169c657600080fd5b5056fea264697066735822122048ca6a48b4e1abe641d89f7a251498539e7e08b7091039065fbe3dbf2c3f0f5964736f6c63430008000033",
          "opcodes": "PUSH1 0x80 PUSH1 0x40 MSTORE CALLVALUE DUP1 ISZERO PUSH3 0x11 JUMPI PUSH1 0x0 DUP1 REVERT JUMPDEST POP PUSH3 0x46 PUSH32 0xA7525982680E84F98ECA7A30F43CA193AF52D50B3F6CE8412C4BBF101191431B PUSH1 0x0 SHL PUSH3 0x2F8 PUSH1 0x20 SHL PUSH1 0x20 SHR JUMP JUMPDEST PUSH3 0x7A PUSH32 0xF87E5D0D5650EE1E3C6545A5A87D7B4D53891AD0C3231178A1B6C9D75724D232 PUSH1 0x0 SHL PUSH3 0x2F8 PUSH1 0x20 SHL PUSH1 0x20 SHR JUMP JUMPDEST PUSH3 0xAE PUSH32 0xA8CD02447412C31AE694D6B3DC42742793D7C2B522B7F75516C6A150F8D75151 PUSH1 0x0 SHL PUSH3 0x2F8 PUSH1 0x20 SHL PUSH1 0x20 SHR JUMP JUMPDEST CALLER PUSH1 0x0 DUP1 PUSH2 0x100 EXP DUP2 SLOAD DUP2 PUSH20 0xFFFFFFFFFFFFFFFFFFFFFFFFFFFFFFFFFFFFFFFF MUL NOT AND SWAP1 DUP4 PUSH20 0xFFFFFFFFFFFFFFFFFFFFFFFFFFFFFFFFFFFFFFFF AND MUL OR SWAP1 SSTORE POP PUSH3 0x122 PUSH32 0xABA4322CFA2814BAECDCE084F276BE9753A25D3513F60562528F78E27E8A14D PUSH1 0x0 SHL PUSH3 0x2F8 PUSH1 0x20 SHL PUSH1 0x20 SHR JUMP JUMPDEST PUSH3 0x156 PUSH32 0x151DA57B081E68B15064DB95912DF6E45EF3339138B1631E0E6B87A9AE023E6 PUSH1 0x0 SHL PUSH3 0x2F8 PUSH1 0x20 SHL PUSH1 0x20 SHR JUMP JUMPDEST PUSH1 0x1 PUSH1 0x5 PUSH1 0x0 PUSH2 0x100 EXP DUP2 SLOAD DUP2 PUSH1 0xFF MUL NOT AND SWAP1 DUP4 ISZERO ISZERO MUL OR SWAP1 SSTORE POP PUSH3 0x1A5 PUSH32 0xCB333E5BF4F6DE8780AB7D28B3B371140E335C8552668BFF4C8D035740711CDB PUSH1 0x0 SHL PUSH3 0x2F8 PUSH1 0x20 SHL PUSH1 0x20 SHR JUMP JUMPDEST PUSH3 0x1D9 PUSH32 0x6909A739565F2D642C56C98A6C4A18D58A1FDABAB8F2D099AA2E08F5F464C3A7 PUSH1 0x0 SHL PUSH3 0x2F8 PUSH1 0x20 SHL PUSH1 0x20 SHR JUMP JUMPDEST PUSH1 0x0 PUSH1 0x5 PUSH1 0x2 PUSH2 0x100 EXP DUP2 SLOAD DUP2 PUSH1 0xFF MUL NOT AND SWAP1 DUP4 ISZERO ISZERO MUL OR SWAP1 SSTORE POP PUSH3 0x228 PUSH32 0xD2D3F5D525F9FF98CCEDE1ECB21FFDD4F5948D87396981C96BB4640528266680 PUSH1 0x0 SHL PUSH3 0x2F8 PUSH1 0x20 SHL PUSH1 0x20 SHR JUMP JUMPDEST PUSH3 0x25C PUSH32 0x9184C9CF2925DD77EAE18CD4D4E46B1D3E3F6419258AE6755750A3756DE6B6AE PUSH1 0x0 SHL PUSH3 0x2F8 PUSH1 0x20 SHL PUSH1 0x20 SHR JUMP JUMPDEST PUSH1 0x0 PUSH1 0x7 PUSH1 0x0 PUSH2 0x100 EXP DUP2 SLOAD DUP2 PUSH1 0xFF MUL NOT AND SWAP1 DUP4 ISZERO ISZERO MUL OR SWAP1 SSTORE POP PUSH3 0x2AB PUSH32 0x46FCA31097D9FF2C5D666C9B09820F75FEB2549255C2D75DED991507BDA14509 PUSH1 0x0 SHL PUSH3 0x2F8 PUSH1 0x20 SHL PUSH1 0x20 SHR JUMP JUMPDEST PUSH3 0x2DF PUSH32 0xF31E03B3BA56F7870E855B2B6C00CD23E2371F1A52648F246FD7CFF0616E363F PUSH1 0x0 SHL PUSH3 0x2F8 PUSH1 0x20 SHL PUSH1 0x20 SHR JUMP JUMPDEST PUSH3 0x2F2 CALLER PUSH1 0x0 PUSH3 0x2FB PUSH1 0x20 SHL PUSH1 0x20 SHR JUMP JUMPDEST PUSH3 0x15FB JUMP JUMPDEST POP JUMP JUMPDEST PUSH3 0x32F PUSH32 0xEF43DA0F26AE566A87A4AAA20A03AF758EA04EDE79D9F203B5E48A7745AA773C PUSH1 0x0 SHL PUSH3 0x2F8 PUSH1 0x20 SHL PUSH1 0x20 SHR JUMP JUMPDEST PUSH3 0x363 PUSH32 0xEB57AAC3338F386C1C266EDDA3724AA13FD2DEC570BC06C33FB4D0C3339573FE PUSH1 0x0 SHL PUSH3 0x2F8 PUSH1 0x20 SHL PUSH1 0x20 SHR JUMP JUMPDEST PUSH3 0x397 PUSH32 0x42B91E8C973483E4118FC701BE2519D7FC9C161715AF12D6AA735A63E4463CDE PUSH1 0x0 SHL PUSH3 0x2F8 PUSH1 0x20 SHL PUSH1 0x20 SHR JUMP JUMPDEST PUSH3 0x3CB PUSH32 0xDE7A68B7AE86298389D7C585AA3564B7D5759FEA4C5816DEF1AE78618CC6A89A PUSH1 0x0 SHL PUSH3 0x2F8 PUSH1 0x20 SHL PUSH1 0x20 SHR JUMP JUMPDEST PUSH1 0x0 DUP1 SLOAD SWAP1 PUSH2 0x100 EXP SWAP1 DIV PUSH20 0xFFFFFFFFFFFFFFFFFFFFFFFFFFFFFFFFFFFFFFFF AND PUSH20 0xFFFFFFFFFFFFFFFFFFFFFFFFFFFFFFFFFFFFFFFF AND CALLER PUSH20 0xFFFFFFFFFFFFFFFFFFFFFFFFFFFFFFFFFFFFFFFF AND EQ PUSH3 0x45C JUMPI PUSH1 0x40 MLOAD PUSH32 0x8C379A000000000000000000000000000000000000000000000000000000000 DUP2 MSTORE PUSH1 0x4 ADD PUSH3 0x453 SWAP1 PUSH3 0x141E JUMP JUMPDEST PUSH1 0x40 MLOAD DUP1 SWAP2 SUB SWAP1 REVERT JUMPDEST PUSH3 0x490 PUSH32 0x577A0E929DCAA0872C59B226F3852A0F31F735E02B3E8E73C85B60ABC06DF6E5 PUSH1 0x0 SHL PUSH3 0x2F8 PUSH1 0x20 SHL PUSH1 0x20 SHR JUMP JUMPDEST PUSH3 0x4C4 PUSH32 0x41E92CD776BEDBC688F7A26C9319DEBD60C194E394EE2B3AF0377B6F507A39D8 PUSH1 0x0 SHL PUSH3 0x2F8 PUSH1 0x20 SHL PUSH1 0x20 SHR JUMP JUMPDEST PUSH3 0x4F8 PUSH32 0x6A2DB2451BEA729C665AB016DBA44EC168C092F538FEE964692509C3630A12A7 PUSH1 0x0 SHL PUSH3 0x2F8 PUSH1 0x20 SHL PUSH1 0x20 SHR JUMP JUMPDEST PUSH3 0x52C PUSH32 0x1B11E30CDB2CC4F74A025CC0D2E30DD09581B0930EB7E311DDEFB3CF2386FA5C PUSH1 0x0 SHL PUSH3 0x2F8 PUSH1 0x20 SHL PUSH1 0x20 SHR JUMP JUMPDEST PUSH3 0x560 PUSH32 0x7E39DA682E9FF02C1EE1D6ADD785B5EF228E5D8006771139E19729C757C16BB3 PUSH1 0x0 SHL PUSH3 0x2F8 PUSH1 0x20 SHL PUSH1 0x20 SHR JUMP JUMPDEST PUSH3 0x594 PUSH32 0x5437F81A5171C1803CBF9DFF3260F4A0811EBA0FEA2B2389657A015DE286EDB8 PUSH1 0x0 SHL PUSH3 0x2F8 PUSH1 0x20 SHL PUSH1 0x20 SHR JUMP JUMPDEST PUSH1 0x0 ISZERO ISZERO PUSH1 0x7 PUSH1 0x0 SWAP1 SLOAD SWAP1 PUSH2 0x100 EXP SWAP1 DIV PUSH1 0xFF AND ISZERO ISZERO EQ PUSH3 0x5ED JUMPI PUSH1 0x40 MLOAD PUSH32 0x8C379A000000000000000000000000000000000000000000000000000000000 DUP2 MSTORE PUSH1 0x4 ADD PUSH3 0x5E4 SWAP1 PUSH3 0x13FC JUMP JUMPDEST PUSH1 0x40 MLOAD DUP1 SWAP2 SUB SWAP1 REVERT JUMPDEST PUSH3 0x621 PUSH32 0xD1E3539A8BFD4AAE400AE5D8055A5FCCF812096C04B416610BC366A0292AB653 PUSH1 0x0 SHL PUSH3 0x2F8 PUSH1 0x20 SHL PUSH1 0x20 SHR JUMP JUMPDEST PUSH3 0x655 PUSH32 0x2E34E692B87AD72EBEB0C14D4AF3A5DE00F361DBAAB7DC659CE508EC3F6B2F7E PUSH1 0x0 SHL PUSH3 0x2F8 PUSH1 0x20 SHL PUSH1 0x20 SHR JUMP JUMPDEST PUSH3 0x689 PUSH32 0x355BFF74C3366EB8D94BCB27F47A620C68D67058219CF0D6E2499A6C28041D10 PUSH1 0x0 SHL PUSH3 0x2F8 PUSH1 0x20 SHL PUSH1 0x20 SHR JUMP JUMPDEST PUSH3 0x6BD PUSH32 0x8B690FB5BB88DCB9DA05C323D8DAE5388285ED3F99C4B2171D56EA1109A61F89 PUSH1 0x0 SHL PUSH3 0x2F8 PUSH1 0x20 SHL PUSH1 0x20 SHR JUMP JUMPDEST PUSH3 0x6F1 PUSH32 0x4DADDA3A06EDD60808C2C0A0E321491CF5714843E9C6CAD5F0861ED49C6F5259 PUSH1 0x0 SHL PUSH3 0x2F8 PUSH1 0x20 SHL PUSH1 0x20 SHR JUMP JUMPDEST PUSH3 0x725 PUSH32 0x5079F4F3723AA4E55BB271F06F4D86450FA703096AEDDD272EB8961F2E51FC76 PUSH1 0x0 SHL PUSH3 0x2F8 PUSH1 0x20 SHL PUSH1 0x20 SHR JUMP JUMPDEST PUSH1 0x0 DUP2 EQ DUP1 PUSH3 0x735 JUMPI POP PUSH1 0x1 DUP2 EQ JUMPDEST DUP1 PUSH3 0x741 JUMPI POP PUSH1 0x2 DUP2 EQ JUMPDEST PUSH3 0x783 JUMPI PUSH1 0x40 MLOAD PUSH32 0x8C379A000000000000000000000000000000000000000000000000000000000 DUP2 MSTORE PUSH1 0x4 ADD PUSH3 0x77A SWAP1 PUSH3 0x1440 JUMP JUMPDEST PUSH1 0x40 MLOAD DUP1 SWAP2 SUB SWAP1 REVERT JUMPDEST PUSH3 0x7B7 PUSH32 0x262468A20A065189820398F89B32A8A92D8EF265EA17A91EC7F82515947A3849 PUSH1 0x0 SHL PUSH3 0x2F8 PUSH1 0x20 SHL PUSH1 0x20 SHR JUMP JUMPDEST PUSH3 0x7EB PUSH32 0x51E5A39A71DB55563F00A23685B76CD09F9256BEC304E2189D0BAFA661AF449C PUSH1 0x0 SHL PUSH3 0x2F8 PUSH1 0x20 SHL PUSH1 0x20 SHR JUMP JUMPDEST PUSH3 0x81F PUSH32 0x3DC6BEB8E5CF6662046276F972EAE87FEE23AC0DBFBBAE1657889841256D076E PUSH1 0x0 SHL PUSH3 0x2F8 PUSH1 0x20 SHL PUSH1 0x20 SHR JUMP JUMPDEST PUSH1 0x0 DUP2 EQ ISZERO PUSH3 0xB20 JUMPI PUSH3 0x85D PUSH32 0x14A99C11D10753B1C59F10E5888F9FE5A295C91DD6EA739D17EB36A63F7C578D PUSH1 0x0 SHL PUSH3 0x2F8 PUSH1 0x20 SHL PUSH1 0x20 SHR JUMP JUMPDEST PUSH3 0x891 PUSH32 0x54800CD0F671A2012002B0705C466246EE0C4CF49D3595214F1980385782F7D9 PUSH1 0x0 SHL PUSH3 0x2F8 PUSH1 0x20 SHL PUSH1 0x20 SHR JUMP JUMPDEST PUSH3 0x8C5 PUSH32 0x1AA4CD53F949D0D4D18D397CE8F9211C61137840A0BF42EA7A7CD4C4D4A7B787 PUSH1 0x0 SHL PUSH3 0x2F8 PUSH1 0x20 SHL PUSH1 0x20 SHR JUMP JUMPDEST PUSH1 0x0 PUSH1 0x1 PUSH1 0x4 DUP1 SLOAD SWAP1 POP PUSH3 0x8DB SWAP2 SWAP1 PUSH3 0x14C0 JUMP JUMPDEST SWAP1 POP PUSH3 0x911 PUSH32 0x95859A35B02116620A0A7A4B6DFD9B11BF87EE4AF96F5DE9060696B5ACA64F69 PUSH1 0x0 SHL PUSH3 0x2F8 PUSH1 0x20 SHL PUSH1 0x20 SHR JUMP JUMPDEST PUSH3 0x945 PUSH32 0x97E4F145043B4BD7C62BE4A4169DB4D04E11E8222B000CD17D6F2851C8DA7EBC PUSH1 0x0 SHL PUSH3 0x2F8 PUSH1 0x20 SHL PUSH1 0x20 SHR JUMP JUMPDEST PUSH1 0x4 PUSH1 0x40 MLOAD DUP1 PUSH1 0x80 ADD PUSH1 0x40 MSTORE DUP1 DUP4 DUP2 MSTORE PUSH1 0x20 ADD DUP6 PUSH20 0xFFFFFFFFFFFFFFFFFFFFFFFFFFFFFFFFFFFFFFFF AND DUP2 MSTORE PUSH1 0x20 ADD PUSH1 0x40 MLOAD DUP1 PUSH1 0x40 ADD PUSH1 0x40 MSTORE DUP1 PUSH1 0xB DUP2 MSTORE PUSH1 0x20 ADD PUSH32 0x426F6172644D656D626572000000000000000000000000000000000000000000 DUP2 MSTORE POP DUP2 MSTORE PUSH1 0x20 ADD PUSH1 0x0 ISZERO ISZERO DUP2 MSTORE POP SWAP1 DUP1 PUSH1 0x1 DUP2 SLOAD ADD DUP1 DUP3 SSTORE DUP1 SWAP2 POP POP PUSH1 0x1 SWAP1 SUB SWAP1 PUSH1 0x0 MSTORE PUSH1 0x20 PUSH1 0x0 KECCAK256 SWAP1 PUSH1 0x4 MUL ADD PUSH1 0x0 SWAP1 SWAP2 SWAP1 SWAP2 SWAP1 SWAP2 POP PUSH1 0x0 DUP3 ADD MLOAD DUP2 PUSH1 0x0 ADD SSTORE PUSH1 0x20 DUP3 ADD MLOAD DUP2 PUSH1 0x1 ADD PUSH1 0x0 PUSH2 0x100 EXP DUP2 SLOAD DUP2 PUSH20 0xFFFFFFFFFFFFFFFFFFFFFFFFFFFFFFFFFFFFFFFF MUL NOT AND SWAP1 DUP4 PUSH20 0xFFFFFFFFFFFFFFFFFFFFFFFFFFFFFFFFFFFFFFFF AND MUL OR SWAP1 SSTORE POP PUSH1 0x40 DUP3 ADD MLOAD DUP2 PUSH1 0x2 ADD SWAP1 DUP1 MLOAD SWAP1 PUSH1 0x20 ADD SWAP1 PUSH3 0xA4E SWAP3 SWAP2 SWAP1 PUSH3 0x122D JUMP JUMPDEST POP PUSH1 0x60 DUP3 ADD MLOAD DUP2 PUSH1 0x3 ADD PUSH1 0x0 PUSH2 0x100 EXP DUP2 SLOAD DUP2 PUSH1 0xFF MUL NOT AND SWAP1 DUP4 ISZERO ISZERO MUL OR SWAP1 SSTORE POP POP POP PUSH3 0xAA5 PUSH32 0xBC425E72244F3EAC0F8784DF74EB3633A893EFC09B9D108BA67F234CB1BE4E7F PUSH1 0x0 SHL PUSH3 0x2F8 PUSH1 0x20 SHL PUSH1 0x20 SHR JUMP JUMPDEST PUSH3 0xAD9 PUSH32 0x864F11951D81932DA7232100F9CBA39DBD7FE9BF353062E0D69C59B1554E7BD7 PUSH1 0x0 SHL PUSH3 0x2F8 PUSH1 0x20 SHL PUSH1 0x20 SHR JUMP JUMPDEST PUSH32 0x6B20EB62F1298CAD3D3FE78B79D9D03ED50788E17184C1C0B61A05291EA520D8 DUP2 DUP5 DUP5 PUSH1 0x0 PUSH1 0x40 MLOAD PUSH3 0xB11 SWAP5 SWAP4 SWAP3 SWAP2 SWAP1 PUSH3 0x1462 JUMP JUMPDEST PUSH1 0x40 MLOAD DUP1 SWAP2 SUB SWAP1 LOG1 POP PUSH3 0x1229 JUMP JUMPDEST PUSH3 0xB54 PUSH32 0xB65CC5E676722A39D37A62C66AB8B3D60C264562AAE78A47644153732E3792DF PUSH1 0x0 SHL PUSH3 0x2F8 PUSH1 0x20 SHL PUSH1 0x20 SHR JUMP JUMPDEST PUSH3 0xB88 PUSH32 0x7BF379B5DED2608B5D1186235EEB89C47CF26530EF3409163A680A8B8DD4F5F7 PUSH1 0x0 SHL PUSH3 0x2F8 PUSH1 0x20 SHL PUSH1 0x20 SHR JUMP JUMPDEST PUSH1 0x1 DUP2 EQ ISZERO PUSH3 0xE89 JUMPI PUSH3 0xBC6 PUSH32 0xCCA31473288A03F31207264F4AC9980D7F2736C301A79B89C311BA9238C54EA PUSH1 0x0 SHL PUSH3 0x2F8 PUSH1 0x20 SHL PUSH1 0x20 SHR JUMP JUMPDEST PUSH3 0xBFA PUSH32 0x298B77E04762A2D7D320C5566521B4B6FF523D7614A11BEA95426F6214CB2776 PUSH1 0x0 SHL PUSH3 0x2F8 PUSH1 0x20 SHL PUSH1 0x20 SHR JUMP JUMPDEST PUSH3 0xC2E PUSH32 0x8834B2BAE2C101C9677F5EA5C710D8E9E2F649C2B60AFD1F7B7BC13989923092 PUSH1 0x0 SHL PUSH3 0x2F8 PUSH1 0x20 SHL PUSH1 0x20 SHR JUMP JUMPDEST PUSH1 0x0 PUSH1 0x1 PUSH1 0x4 DUP1 SLOAD SWAP1 POP PUSH3 0xC44 SWAP2 SWAP1 PUSH3 0x14C0 JUMP JUMPDEST SWAP1 POP PUSH3 0xC7A PUSH32 0x771FFED58F4AF75A46CBB4FC241A1A518C90620958982F23E3B920363DD13BEE PUSH1 0x0 SHL PUSH3 0x2F8 PUSH1 0x20 SHL PUSH1 0x20 SHR JUMP JUMPDEST PUSH3 0xCAE PUSH32 0xAEEAC9471082DDBFFA2F40866DD6846E3220A716DE797930A2C7ACA55C22EC61 PUSH1 0x0 SHL PUSH3 0x2F8 PUSH1 0x20 SHL PUSH1 0x20 SHR JUMP JUMPDEST PUSH1 0x4 PUSH1 0x40 MLOAD DUP1 PUSH1 0x80 ADD PUSH1 0x40 MSTORE DUP1 DUP4 DUP2 MSTORE PUSH1 0x20 ADD DUP6 PUSH20 0xFFFFFFFFFFFFFFFFFFFFFFFFFFFFFFFFFFFFFFFF AND DUP2 MSTORE PUSH1 0x20 ADD PUSH1 0x40 MLOAD DUP1 PUSH1 0x40 ADD PUSH1 0x40 MSTORE DUP1 PUSH1 0x7 DUP2 MSTORE PUSH1 0x20 ADD PUSH32 0x5465616368657200000000000000000000000000000000000000000000000000 DUP2 MSTORE POP DUP2 MSTORE PUSH1 0x20 ADD PUSH1 0x0 ISZERO ISZERO DUP2 MSTORE POP SWAP1 DUP1 PUSH1 0x1 DUP2 SLOAD ADD DUP1 DUP3 SSTORE DUP1 SWAP2 POP POP PUSH1 0x1 SWAP1 SUB SWAP1 PUSH1 0x0 MSTORE PUSH1 0x20 PUSH1 0x0 KECCAK256 SWAP1 PUSH1 0x4 MUL ADD PUSH1 0x0 SWAP1 SWAP2 SWAP1 SWAP2 SWAP1 SWAP2 POP PUSH1 0x0 DUP3 ADD MLOAD DUP2 PUSH1 0x0 ADD SSTORE PUSH1 0x20 DUP3 ADD MLOAD DUP2 PUSH1 0x1 ADD PUSH1 0x0 PUSH2 0x100 EXP DUP2 SLOAD DUP2 PUSH20 0xFFFFFFFFFFFFFFFFFFFFFFFFFFFFFFFFFFFFFFFF MUL NOT AND SWAP1 DUP4 PUSH20 0xFFFFFFFFFFFFFFFFFFFFFFFFFFFFFFFFFFFFFFFF AND MUL OR SWAP1 SSTORE POP PUSH1 0x40 DUP3 ADD MLOAD DUP2 PUSH1 0x2 ADD SWAP1 DUP1 MLOAD SWAP1 PUSH1 0x20 ADD SWAP1 PUSH3 0xDB7 SWAP3 SWAP2 SWAP1 PUSH3 0x122D JUMP JUMPDEST POP PUSH1 0x60 DUP3 ADD MLOAD DUP2 PUSH1 0x3 ADD PUSH1 0x0 PUSH2 0x100 EXP DUP2 SLOAD DUP2 PUSH1 0xFF MUL NOT AND SWAP1 DUP4 ISZERO ISZERO MUL OR SWAP1 SSTORE POP POP POP PUSH3 0xE0E PUSH32 0xF9726FDB5FABDEB3339F013C4CA32FC2883B7DF9C18E074589A12C3B57312B3A PUSH1 0x0 SHL PUSH3 0x2F8 PUSH1 0x20 SHL PUSH1 0x20 SHR JUMP JUMPDEST PUSH3 0xE42 PUSH32 0x2CD3D5360ED1CD63E41CCBC395516FB741CF2C07DCDE2E3795191A5E3602A6A5 PUSH1 0x0 SHL PUSH3 0x2F8 PUSH1 0x20 SHL PUSH1 0x20 SHR JUMP JUMPDEST PUSH32 0x6B20EB62F1298CAD3D3FE78B79D9D03ED50788E17184C1C0B61A05291EA520D8 DUP2 DUP5 DUP5 PUSH1 0x0 PUSH1 0x40 MLOAD PUSH3 0xE7A SWAP5 SWAP4 SWAP3 SWAP2 SWAP1 PUSH3 0x1462 JUMP JUMPDEST PUSH1 0x40 MLOAD DUP1 SWAP2 SUB SWAP1 LOG1 POP PUSH3 0x1228 JUMP JUMPDEST PUSH3 0xEBD PUSH32 0xB1EE0B0F5E8A1F05C9B9987847599E88A77CCA52674F23E8EBFCE427A7279BCE PUSH1 0x0 SHL PUSH3 0x2F8 PUSH1 0x20 SHL PUSH1 0x20 SHR JUMP JUMPDEST PUSH3 0xEF1 PUSH32 0x9C3D967AA4398C9885B385CAFBC87A5FE6BEF0785448F06E4C075059105DDC02 PUSH1 0x0 SHL PUSH3 0x2F8 PUSH1 0x20 SHL PUSH1 0x20 SHR JUMP JUMPDEST PUSH1 0x2 DUP2 EQ ISZERO PUSH3 0x11F2 JUMPI PUSH3 0xF2F PUSH32 0x11CEEB3DDD69569E3853ADC651662DB092906423AA31B7F0C48696B1E3172A4F PUSH1 0x0 SHL PUSH3 0x2F8 PUSH1 0x20 SHL PUSH1 0x20 SHR JUMP JUMPDEST PUSH3 0xF63 PUSH32 0x96721AF08B6FC4A70AD419EF9207A10FF273B9B63E0AC5CE069573B98200CB25 PUSH1 0x0 SHL PUSH3 0x2F8 PUSH1 0x20 SHL PUSH1 0x20 SHR JUMP JUMPDEST PUSH3 0xF97 PUSH32 0x43BEC662A60F2F8BA6D074F081ABFC419A00D9749A550612916F2F84DFB4EE05 PUSH1 0x0 SHL PUSH3 0x2F8 PUSH1 0x20 SHL PUSH1 0x20 SHR JUMP JUMPDEST PUSH1 0x0 PUSH1 0x1 PUSH1 0x4 DUP1 SLOAD SWAP1 POP PUSH3 0xFAD SWAP2 SWAP1 PUSH3 0x14C0 JUMP JUMPDEST SWAP1 POP PUSH3 0xFE3 PUSH32 0x45E714116B74C537878C0A8BD670BB967FFC5621E37559052A2C83ECC3E7C307 PUSH1 0x0 SHL PUSH3 0x2F8 PUSH1 0x20 SHL PUSH1 0x20 SHR JUMP JUMPDEST PUSH3 0x1017 PUSH32 0x5D2F86C367ECFC96D5AD8D2B948AE30D98B21B9C16F864B86C03CB13FF645893 PUSH1 0x0 SHL PUSH3 0x2F8 PUSH1 0x20 SHL PUSH1 0x20 SHR JUMP JUMPDEST PUSH1 0x4 PUSH1 0x40 MLOAD DUP1 PUSH1 0x80 ADD PUSH1 0x40 MSTORE DUP1 DUP4 DUP2 MSTORE PUSH1 0x20 ADD DUP6 PUSH20 0xFFFFFFFFFFFFFFFFFFFFFFFFFFFFFFFFFFFFFFFF AND DUP2 MSTORE PUSH1 0x20 ADD PUSH1 0x40 MLOAD DUP1 PUSH1 0x40 ADD PUSH1 0x40 MSTORE DUP1 PUSH1 0x7 DUP2 MSTORE PUSH1 0x20 ADD PUSH32 0x53747564656E7400000000000000000000000000000000000000000000000000 DUP2 MSTORE POP DUP2 MSTORE PUSH1 0x20 ADD PUSH1 0x0 ISZERO ISZERO DUP2 MSTORE POP SWAP1 DUP1 PUSH1 0x1 DUP2 SLOAD ADD DUP1 DUP3 SSTORE DUP1 SWAP2 POP POP PUSH1 0x1 SWAP1 SUB SWAP1 PUSH1 0x0 MSTORE PUSH1 0x20 PUSH1 0x0 KECCAK256 SWAP1 PUSH1 0x4 MUL ADD PUSH1 0x0 SWAP1 SWAP2 SWAP1 SWAP2 SWAP1 SWAP2 POP PUSH1 0x0 DUP3 ADD MLOAD DUP2 PUSH1 0x0 ADD SSTORE PUSH1 0x20 DUP3 ADD MLOAD DUP2 PUSH1 0x1 ADD PUSH1 0x0 PUSH2 0x100 EXP DUP2 SLOAD DUP2 PUSH20 0xFFFFFFFFFFFFFFFFFFFFFFFFFFFFFFFFFFFFFFFF MUL NOT AND SWAP1 DUP4 PUSH20 0xFFFFFFFFFFFFFFFFFFFFFFFFFFFFFFFFFFFFFFFF AND MUL OR SWAP1 SSTORE POP PUSH1 0x40 DUP3 ADD MLOAD DUP2 PUSH1 0x2 ADD SWAP1 DUP1 MLOAD SWAP1 PUSH1 0x20 ADD SWAP1 PUSH3 0x1120 SWAP3 SWAP2 SWAP1 PUSH3 0x122D JUMP JUMPDEST POP PUSH1 0x60 DUP3 ADD MLOAD DUP2 PUSH1 0x3 ADD PUSH1 0x0 PUSH2 0x100 EXP DUP2 SLOAD DUP2 PUSH1 0xFF MUL NOT AND SWAP1 DUP4 ISZERO ISZERO MUL OR SWAP1 SSTORE POP POP POP PUSH3 0x1177 PUSH32 0xACFA66427951B0D9EFEDE4247EE6B4B54C182E5F9F8370853FB74E7128E8CE76 PUSH1 0x0 SHL PUSH3 0x2F8 PUSH1 0x20 SHL PUSH1 0x20 SHR JUMP JUMPDEST PUSH3 0x11AB PUSH32 0x57BFBEE038983CB0225BEE6911ECE6BEB6220AF48D180E6F6E5B148D27D15DC4 PUSH1 0x0 SHL PUSH3 0x2F8 PUSH1 0x20 SHL PUSH1 0x20 SHR JUMP JUMPDEST PUSH32 0x6B20EB62F1298CAD3D3FE78B79D9D03ED50788E17184C1C0B61A05291EA520D8 DUP2 DUP5 DUP5 PUSH1 0x0 PUSH1 0x40 MLOAD PUSH3 0x11E3 SWAP5 SWAP4 SWAP3 SWAP2 SWAP1 PUSH3 0x1462 JUMP JUMPDEST PUSH1 0x40 MLOAD DUP1 SWAP2 SUB SWAP1 LOG1 POP PUSH3 0x1227 JUMP JUMPDEST PUSH3 0x1226 PUSH32 0x327EFE096B9FDDB0809D95A2444075F5B9E5D8F41CB240D35CC03CA4569F2BBF PUSH1 0x0 SHL PUSH3 0x2F8 PUSH1 0x20 SHL PUSH1 0x20 SHR JUMP JUMPDEST JUMPDEST JUMPDEST JUMPDEST POP POP JUMP JUMPDEST DUP3 DUP1 SLOAD PUSH3 0x123B SWAP1 PUSH3 0x1567 JUMP JUMPDEST SWAP1 PUSH1 0x0 MSTORE PUSH1 0x20 PUSH1 0x0 KECCAK256 SWAP1 PUSH1 0x1F ADD PUSH1 0x20 SWAP1 DIV DUP2 ADD SWAP3 DUP3 PUSH3 0x125F JUMPI PUSH1 0x0 DUP6 SSTORE PUSH3 0x12AB JUMP JUMPDEST DUP3 PUSH1 0x1F LT PUSH3 0x127A JUMPI DUP1 MLOAD PUSH1 0xFF NOT AND DUP4 DUP1 ADD OR DUP6 SSTORE PUSH3 0x12AB JUMP JUMPDEST DUP3 DUP1 ADD PUSH1 0x1 ADD DUP6 SSTORE DUP3 ISZERO PUSH3 0x12AB JUMPI SWAP2 DUP3 ADD JUMPDEST DUP3 DUP2 GT ISZERO PUSH3 0x12AA JUMPI DUP3 MLOAD DUP3 SSTORE SWAP2 PUSH1 0x20 ADD SWAP2 SWAP1 PUSH1 0x1 ADD SWAP1 PUSH3 0x128D JUMP JUMPDEST JUMPDEST POP SWAP1 POP PUSH3 0x12BA SWAP2 SWAP1 PUSH3 0x12BE JUMP JUMPDEST POP SWAP1 JUMP JUMPDEST JUMPDEST DUP1 DUP3 GT ISZERO PUSH3 0x12D9 JUMPI PUSH1 0x0 DUP2 PUSH1 0x0 SWAP1 SSTORE POP PUSH1 0x1 ADD PUSH3 0x12BF JUMP JUMPDEST POP SWAP1 JUMP JUMPDEST PUSH3 0x12E8 DUP2 PUSH3 0x151D JUMP JUMPDEST DUP3 MSTORE POP POP JUMP JUMPDEST PUSH3 0x12F9 DUP2 PUSH3 0x1531 JUMP JUMPDEST DUP3 MSTORE POP POP JUMP JUMPDEST PUSH1 0x0 PUSH3 0x130E PUSH1 0x1A DUP4 PUSH3 0x14AF JUMP JUMPDEST SWAP2 POP PUSH32 0x436F6E747261637420686173206265656E2064697361626C6564000000000000 PUSH1 0x0 DUP4 ADD MSTORE PUSH1 0x20 DUP3 ADD SWAP1 POP SWAP2 SWAP1 POP JUMP JUMPDEST PUSH1 0x0 PUSH3 0x1350 PUSH1 0x26 DUP4 PUSH3 0x14AF JUMP JUMPDEST SWAP2 POP PUSH32 0x4F6E6C79207468652063686169726D616E20697320616C6C6F77656420746F20 PUSH1 0x0 DUP4 ADD MSTORE PUSH32 0x6D6F646966790000000000000000000000000000000000000000000000000000 PUSH1 0x20 DUP4 ADD MSTORE PUSH1 0x40 DUP3 ADD SWAP1 POP SWAP2 SWAP1 POP JUMP JUMPDEST PUSH1 0x0 PUSH3 0x13B8 PUSH1 0x18 DUP4 PUSH3 0x14AF JUMP JUMPDEST SWAP2 POP PUSH32 0x55736572207479706520646F6573206E6F742065786973740000000000000000 PUSH1 0x0 DUP4 ADD MSTORE PUSH1 0x20 DUP3 ADD SWAP1 POP SWAP2 SWAP1 POP JUMP JUMPDEST PUSH3 0x13F6 DUP2 PUSH3 0x155D JUMP JUMPDEST DUP3 MSTORE POP POP JUMP JUMPDEST PUSH1 0x0 PUSH1 0x20 DUP3 ADD SWAP1 POP DUP2 DUP2 SUB PUSH1 0x0 DUP4 ADD MSTORE PUSH3 0x1417 DUP2 PUSH3 0x12FF JUMP JUMPDEST SWAP1 POP SWAP2 SWAP1 POP JUMP JUMPDEST PUSH1 0x0 PUSH1 0x20 DUP3 ADD SWAP1 POP DUP2 DUP2 SUB PUSH1 0x0 DUP4 ADD MSTORE PUSH3 0x1439 DUP2 PUSH3 0x1341 JUMP JUMPDEST SWAP1 POP SWAP2 SWAP1 POP JUMP JUMPDEST PUSH1 0x0 PUSH1 0x20 DUP3 ADD SWAP1 POP DUP2 DUP2 SUB PUSH1 0x0 DUP4 ADD MSTORE PUSH3 0x145B DUP2 PUSH3 0x13A9 JUMP JUMPDEST SWAP1 POP SWAP2 SWAP1 POP JUMP JUMPDEST PUSH1 0x0 PUSH1 0x80 DUP3 ADD SWAP1 POP PUSH3 0x1479 PUSH1 0x0 DUP4 ADD DUP8 PUSH3 0x13EB JUMP JUMPDEST PUSH3 0x1488 PUSH1 0x20 DUP4 ADD DUP7 PUSH3 0x12DD JUMP JUMPDEST PUSH3 0x1497 PUSH1 0x40 DUP4 ADD DUP6 PUSH3 0x13EB JUMP JUMPDEST PUSH3 0x14A6 PUSH1 0x60 DUP4 ADD DUP5 PUSH3 0x12EE JUMP JUMPDEST SWAP6 SWAP5 POP POP POP POP POP JUMP JUMPDEST PUSH1 0x0 DUP3 DUP3 MSTORE PUSH1 0x20 DUP3 ADD SWAP1 POP SWAP3 SWAP2 POP POP JUMP JUMPDEST PUSH1 0x0 PUSH3 0x14CD DUP3 PUSH3 0x155D JUMP JUMPDEST SWAP2 POP PUSH3 0x14DA DUP4 PUSH3 0x155D JUMP JUMPDEST SWAP3 POP DUP3 PUSH32 0xFFFFFFFFFFFFFFFFFFFFFFFFFFFFFFFFFFFFFFFFFFFFFFFFFFFFFFFFFFFFFFFF SUB DUP3 GT ISZERO PUSH3 0x1512 JUMPI PUSH3 0x1511 PUSH3 0x159D JUMP JUMPDEST JUMPDEST DUP3 DUP3 ADD SWAP1 POP SWAP3 SWAP2 POP POP JUMP JUMPDEST PUSH1 0x0 PUSH3 0x152A DUP3 PUSH3 0x153D JUMP JUMPDEST SWAP1 POP SWAP2 SWAP1 POP JUMP JUMPDEST PUSH1 0x0 DUP2 ISZERO ISZERO SWAP1 POP SWAP2 SWAP1 POP JUMP JUMPDEST PUSH1 0x0 PUSH20 0xFFFFFFFFFFFFFFFFFFFFFFFFFFFFFFFFFFFFFFFF DUP3 AND SWAP1 POP SWAP2 SWAP1 POP JUMP JUMPDEST PUSH1 0x0 DUP2 SWAP1 POP SWAP2 SWAP1 POP JUMP JUMPDEST PUSH1 0x0 PUSH1 0x2 DUP3 DIV SWAP1 POP PUSH1 0x1 DUP3 AND DUP1 PUSH3 0x1580 JUMPI PUSH1 0x7F DUP3 AND SWAP2 POP JUMPDEST PUSH1 0x20 DUP3 LT DUP2 EQ ISZERO PUSH3 0x1597 JUMPI PUSH3 0x1596 PUSH3 0x15CC JUMP JUMPDEST JUMPDEST POP SWAP2 SWAP1 POP JUMP JUMPDEST PUSH32 0x4E487B7100000000000000000000000000000000000000000000000000000000 PUSH1 0x0 MSTORE PUSH1 0x11 PUSH1 0x4 MSTORE PUSH1 0x24 PUSH1 0x0 REVERT JUMPDEST PUSH32 0x4E487B7100000000000000000000000000000000000000000000000000000000 PUSH1 0x0 MSTORE PUSH1 0x22 PUSH1 0x4 MSTORE PUSH1 0x24 PUSH1 0x0 REVERT JUMPDEST PUSH2 0x69FF DUP1 PUSH3 0x160B PUSH1 0x0 CODECOPY PUSH1 0x0 RETURN INVALID PUSH1 0x80 PUSH1 0x40 MSTORE CALLVALUE DUP1 ISZERO PUSH2 0x10 JUMPI PUSH1 0x0 DUP1 REVERT JUMPDEST POP PUSH1 0x4 CALLDATASIZE LT PUSH2 0x172 JUMPI PUSH1 0x0 CALLDATALOAD PUSH1 0xE0 SHR DUP1 PUSH4 0x7A89281E GT PUSH2 0xDE JUMPI DUP1 PUSH4 0x9F88A0CF GT PUSH2 0x97 JUMPI DUP1 PUSH4 0xC10196FA GT PUSH2 0x71 JUMPI DUP1 PUSH4 0xC10196FA EQ PUSH2 0x3A3 JUMPI DUP1 PUSH4 0xC857ECBE EQ PUSH2 0x3C1 JUMPI DUP1 PUSH4 0xD962AA3D EQ PUSH2 0x3DF JUMPI DUP1 PUSH4 0xF3C95C60 EQ PUSH2 0x3FB JUMPI PUSH2 0x172 JUMP JUMPDEST DUP1 PUSH4 0x9F88A0CF EQ PUSH2 0x35F JUMPI DUP1 PUSH4 0xB384ABEF EQ PUSH2 0x369 JUMPI DUP1 PUSH4 0xB3A4DC2F EQ PUSH2 0x385 JUMPI PUSH2 0x172 JUMP JUMPDEST DUP1 PUSH4 0x7A89281E EQ PUSH2 0x2B3 JUMPI DUP1 PUSH4 0x7CBA25DA EQ PUSH2 0x2E3 JUMPI DUP1 PUSH4 0x7D467DCB EQ PUSH2 0x2FF JUMPI DUP1 PUSH4 0x811094E4 EQ PUSH2 0x31D JUMPI DUP1 PUSH4 0x894BA833 EQ PUSH2 0x339 JUMPI DUP1 PUSH4 0x93DFC8EB EQ PUSH2 0x343 JUMPI PUSH2 0x172 JUMP JUMPDEST DUP1 PUSH4 0x421AC42E GT PUSH2 0x130 JUMPI DUP1 PUSH4 0x421AC42E EQ PUSH2 0x215 JUMPI DUP1 PUSH4 0x512E711E EQ PUSH2 0x233 JUMPI DUP1 PUSH4 0x5B2585D6 EQ PUSH2 0x251 JUMPI DUP1 PUSH4 0x5B3E5CD3 EQ PUSH2 0x26D JUMPI DUP1 PUSH4 0x5CA2797C EQ PUSH2 0x28B JUMPI DUP1 PUSH4 0x794566D7 EQ PUSH2 0x295 JUMPI PUSH2 0x172 JUMP JUMPDEST DUP1 PUSH3 0xCE8E3E EQ PUSH2 0x177 JUMPI DUP1 PUSH4 0x19ABE7B8 EQ PUSH2 0x195 JUMPI DUP1 PUSH4 0x313CEDF0 EQ PUSH2 0x1B3 JUMPI DUP1 PUSH4 0x367EDD32 EQ PUSH2 0x1D1 JUMPI DUP1 PUSH4 0x410DE7A6 EQ PUSH2 0x1DB JUMPI DUP1 PUSH4 0x41ECF700 EQ PUSH2 0x1F7 JUMPI JUMPDEST PUSH1 0x0 DUP1 REVERT JUMPDEST PUSH2 0x17F PUSH2 0x42B JUMP JUMPDEST PUSH1 0x40 MLOAD PUSH2 0x18C SWAP2 SWAP1 PUSH2 0x6369 JUMP JUMPDEST PUSH1 0x40 MLOAD DUP1 SWAP2 SUB SWAP1 RETURN JUMPDEST PUSH2 0x19D PUSH2 0x779 JUMP JUMPDEST PUSH1 0x40 MLOAD PUSH2 0x1AA SWAP2 SWAP1 PUSH2 0x638B JUMP JUMPDEST PUSH1 0x40 MLOAD DUP1 SWAP2 SUB SWAP1 RETURN JUMPDEST PUSH2 0x1BB PUSH2 0x9CE JUMP JUMPDEST PUSH1 0x40 MLOAD PUSH2 0x1C8 SWAP2 SWAP1 PUSH2 0x63AD JUMP JUMPDEST PUSH1 0x40 MLOAD DUP1 SWAP2 SUB SWAP1 RETURN JUMPDEST PUSH2 0x1D9 PUSH2 0xA69 JUMP JUMPDEST STOP JUMPDEST PUSH2 0x1F5 PUSH1 0x4 DUP1 CALLDATASIZE SUB DUP2 ADD SWAP1 PUSH2 0x1F0 SWAP2 SWAP1 PUSH2 0x5C64 JUMP JUMPDEST PUSH2 0xD30 JUMP JUMPDEST STOP JUMPDEST PUSH2 0x1FF PUSH2 0x1118 JUMP JUMPDEST PUSH1 0x40 MLOAD PUSH2 0x20C SWAP2 SWAP1 PUSH2 0x63AD JUMP JUMPDEST PUSH1 0x40 MLOAD DUP1 SWAP2 SUB SWAP1 RETURN JUMPDEST PUSH2 0x21D PUSH2 0x1311 JUMP JUMPDEST PUSH1 0x40 MLOAD PUSH2 0x22A SWAP2 SWAP1 PUSH2 0x63AD JUMP JUMPDEST PUSH1 0x40 MLOAD DUP1 SWAP2 SUB SWAP1 RETURN JUMPDEST PUSH2 0x23B PUSH2 0x1324 JUMP JUMPDEST PUSH1 0x40 MLOAD PUSH2 0x248 SWAP2 SWAP1 PUSH2 0x63AD JUMP JUMPDEST PUSH1 0x40 MLOAD DUP1 SWAP2 SUB SWAP1 RETURN JUMPDEST PUSH2 0x26B PUSH1 0x4 DUP1 CALLDATASIZE SUB DUP2 ADD SWAP1 PUSH2 0x266 SWAP2 SWAP1 PUSH2 0x5C64 JUMP JUMPDEST PUSH2 0x1337 JUMP JUMPDEST STOP JUMPDEST PUSH2 0x275 PUSH2 0x171F JUMP JUMPDEST PUSH1 0x40 MLOAD PUSH2 0x282 SWAP2 SWAP1 PUSH2 0x63AD JUMP JUMPDEST PUSH1 0x40 MLOAD DUP1 SWAP2 SUB SWAP1 RETURN JUMPDEST PUSH2 0x293 PUSH2 0x1918 JUMP JUMPDEST STOP JUMPDEST PUSH2 0x29D PUSH2 0x1D3D JUMP JUMPDEST PUSH1 0x40 MLOAD PUSH2 0x2AA SWAP2 SWAP1 PUSH2 0x63AD JUMP JUMPDEST PUSH1 0x40 MLOAD DUP1 SWAP2 SUB SWAP1 RETURN JUMPDEST PUSH2 0x2CD PUSH1 0x4 DUP1 CALLDATASIZE SUB DUP2 ADD SWAP1 PUSH2 0x2C8 SWAP2 SWAP1 PUSH2 0x5BBE JUMP JUMPDEST PUSH2 0x1D50 JUMP JUMPDEST PUSH1 0x40 MLOAD PUSH2 0x2DA SWAP2 SWAP1 PUSH2 0x63AD JUMP JUMPDEST PUSH1 0x40 MLOAD DUP1 SWAP2 SUB SWAP1 RETURN JUMPDEST PUSH2 0x2FD PUSH1 0x4 DUP1 CALLDATASIZE SUB DUP2 ADD SWAP1 PUSH2 0x2F8 SWAP2 SWAP1 PUSH2 0x5C64 JUMP JUMPDEST PUSH2 0x1F8A JUMP JUMPDEST STOP JUMPDEST PUSH2 0x307 PUSH2 0x2366 JUMP JUMPDEST PUSH1 0x40 MLOAD PUSH2 0x314 SWAP2 SWAP1 PUSH2 0x63AD JUMP JUMPDEST PUSH1 0x40 MLOAD DUP1 SWAP2 SUB SWAP1 RETURN JUMPDEST PUSH2 0x337 PUSH1 0x4 DUP1 CALLDATASIZE SUB DUP2 ADD SWAP1 PUSH2 0x332 SWAP2 SWAP1 PUSH2 0x5C8D JUMP JUMPDEST PUSH2 0x2379 JUMP JUMPDEST STOP JUMPDEST PUSH2 0x341 PUSH2 0x2F17 JUMP JUMPDEST STOP JUMPDEST PUSH2 0x35D PUSH1 0x4 DUP1 CALLDATASIZE SUB DUP2 ADD SWAP1 PUSH2 0x358 SWAP2 SWAP1 PUSH2 0x5BE7 JUMP JUMPDEST PUSH2 0x333C JUMP JUMPDEST STOP JUMPDEST PUSH2 0x367 PUSH2 0x40E3 JUMP JUMPDEST STOP JUMPDEST PUSH2 0x383 PUSH1 0x4 DUP1 CALLDATASIZE SUB DUP2 ADD SWAP1 PUSH2 0x37E SWAP2 SWAP1 PUSH2 0x5C8D JUMP JUMPDEST PUSH2 0x4508 JUMP JUMPDEST STOP JUMPDEST PUSH2 0x38D PUSH2 0x4D84 JUMP JUMPDEST PUSH1 0x40 MLOAD PUSH2 0x39A SWAP2 SWAP1 PUSH2 0x64D8 JUMP JUMPDEST PUSH1 0x40 MLOAD DUP1 SWAP2 SUB SWAP1 RETURN JUMPDEST PUSH2 0x3AB PUSH2 0x4D8A JUMP JUMPDEST PUSH1 0x40 MLOAD PUSH2 0x3B8 SWAP2 SWAP1 PUSH2 0x6347 JUMP JUMPDEST PUSH1 0x40 MLOAD DUP1 SWAP2 SUB SWAP1 RETURN JUMPDEST PUSH2 0x3C9 PUSH2 0x508C JUMP JUMPDEST PUSH1 0x40 MLOAD PUSH2 0x3D6 SWAP2 SWAP1 PUSH2 0x63AD JUMP JUMPDEST PUSH1 0x40 MLOAD DUP1 SWAP2 SUB SWAP1 RETURN JUMPDEST PUSH2 0x3F9 PUSH1 0x4 DUP1 CALLDATASIZE SUB DUP2 ADD SWAP1 PUSH2 0x3F4 SWAP2 SWAP1 PUSH2 0x5C23 JUMP JUMPDEST PUSH2 0x5285 JUMP JUMPDEST STOP JUMPDEST PUSH2 0x415 PUSH1 0x4 DUP1 CALLDATASIZE SUB DUP2 ADD SWAP1 PUSH2 0x410 SWAP2 SWAP1 PUSH2 0x5BBE JUMP JUMPDEST PUSH2 0x5612 JUMP JUMPDEST PUSH1 0x40 MLOAD PUSH2 0x422 SWAP2 SWAP1 PUSH2 0x63AD JUMP JUMPDEST PUSH1 0x40 MLOAD DUP1 SWAP2 SUB SWAP1 RETURN JUMPDEST PUSH1 0x60 PUSH2 0x459 PUSH32 0x6A2DB2451BEA729C665AB016DBA44EC168C092F538FEE964692509C3630A12A7 PUSH1 0x0 SHL PUSH2 0x5A86 JUMP JUMPDEST PUSH2 0x485 PUSH32 0x1B11E30CDB2CC4F74A025CC0D2E30DD09581B0930EB7E311DDEFB3CF2386FA5C PUSH1 0x0 SHL PUSH2 0x5A86 JUMP JUMPDEST PUSH2 0x4B1 PUSH32 0x7E39DA682E9FF02C1EE1D6ADD785B5EF228E5D8006771139E19729C757C16BB3 PUSH1 0x0 SHL PUSH2 0x5A86 JUMP JUMPDEST PUSH2 0x4DD PUSH32 0x5437F81A5171C1803CBF9DFF3260F4A0811EBA0FEA2B2389657A015DE286EDB8 PUSH1 0x0 SHL PUSH2 0x5A86 JUMP JUMPDEST PUSH1 0x0 ISZERO ISZERO PUSH1 0x7 PUSH1 0x0 SWAP1 SLOAD SWAP1 PUSH2 0x100 EXP SWAP1 DIV PUSH1 0xFF AND ISZERO ISZERO EQ PUSH2 0x533 JUMPI PUSH1 0x40 MLOAD PUSH32 0x8C379A000000000000000000000000000000000000000000000000000000000 DUP2 MSTORE PUSH1 0x4 ADD PUSH2 0x52A SWAP1 PUSH2 0x63F8 JUMP JUMPDEST PUSH1 0x40 MLOAD DUP1 SWAP2 SUB SWAP1 REVERT JUMPDEST PUSH2 0x55F PUSH32 0xD1E3539A8BFD4AAE400AE5D8055A5FCCF812096C04B416610BC366A0292AB653 PUSH1 0x0 SHL PUSH2 0x5A86 JUMP JUMPDEST PUSH2 0x58B PUSH32 0x2E34E692B87AD72EBEB0C14D4AF3A5DE00F361DBAAB7DC659CE508EC3F6B2F7E PUSH1 0x0 SHL PUSH2 0x5A86 JUMP JUMPDEST PUSH2 0x5B7 PUSH32 0x535B561DE8F363494514770AD0985913A63CE502D062895E7D5210E5318FAF7A PUSH1 0x0 SHL PUSH2 0x5A86 JUMP JUMPDEST PUSH2 0x5E3 PUSH32 0xB5E5101A28503DC4F1418A9E64B9A4AE68B919EE89AF7098615635DA2B46803 PUSH1 0x0 SHL PUSH2 0x5A86 JUMP JUMPDEST PUSH2 0x60F PUSH32 0x5A797A6B2C261BD15D1ED3329F7D233C320B135C50852FD99FA51B3C04A56699 PUSH1 0x0 SHL PUSH2 0x5A86 JUMP JUMPDEST PUSH1 0x4 DUP1 SLOAD DUP1 PUSH1 0x20 MUL PUSH1 0x20 ADD PUSH1 0x40 MLOAD SWAP1 DUP2 ADD PUSH1 0x40 MSTORE DUP1 SWAP3 SWAP2 SWAP1 DUP2 DUP2 MSTORE PUSH1 0x20 ADD PUSH1 0x0 SWAP1 JUMPDEST DUP3 DUP3 LT ISZERO PUSH2 0x770 JUMPI DUP4 DUP3 SWAP1 PUSH1 0x0 MSTORE PUSH1 0x20 PUSH1 0x0 KECCAK256 SWAP1 PUSH1 0x4 MUL ADD PUSH1 0x40 MLOAD DUP1 PUSH1 0x80 ADD PUSH1 0x40 MSTORE SWAP1 DUP2 PUSH1 0x0 DUP3 ADD SLOAD DUP2 MSTORE PUSH1 0x20 ADD PUSH1 0x1 DUP3 ADD PUSH1 0x0 SWAP1 SLOAD SWAP1 PUSH2 0x100 EXP SWAP1 DIV PUSH20 0xFFFFFFFFFFFFFFFFFFFFFFFFFFFFFFFFFFFFFFFF AND PUSH20 0xFFFFFFFFFFFFFFFFFFFFFFFFFFFFFFFFFFFFFFFF AND PUSH20 0xFFFFFFFFFFFFFFFFFFFFFFFFFFFFFFFFFFFFFFFF AND DUP2 MSTORE PUSH1 0x20 ADD PUSH1 0x2 DUP3 ADD DUP1 SLOAD PUSH2 0x6C4 SWAP1 PUSH2 0x6882 JUMP JUMPDEST DUP1 PUSH1 0x1F ADD PUSH1 0x20 DUP1 SWAP2 DIV MUL PUSH1 0x20 ADD PUSH1 0x40 MLOAD SWAP1 DUP2 ADD PUSH1 0x40 MSTORE DUP1 SWAP3 SWAP2 SWAP1 DUP2 DUP2 MSTORE PUSH1 0x20 ADD DUP3 DUP1 SLOAD PUSH2 0x6F0 SWAP1 PUSH2 0x6882 JUMP JUMPDEST DUP1 ISZERO PUSH2 0x73D JUMPI DUP1 PUSH1 0x1F LT PUSH2 0x712 JUMPI PUSH2 0x100 DUP1 DUP4 SLOAD DIV MUL DUP4 MSTORE SWAP2 PUSH1 0x20 ADD SWAP2 PUSH2 0x73D JUMP JUMPDEST DUP3 ADD SWAP2 SWAP1 PUSH1 0x0 MSTORE PUSH1 0x20 PUSH1 0x0 KECCAK256 SWAP1 JUMPDEST DUP2 SLOAD DUP2 MSTORE SWAP1 PUSH1 0x1 ADD SWAP1 PUSH1 0x20 ADD DUP1 DUP4 GT PUSH2 0x720 JUMPI DUP3 SWAP1 SUB PUSH1 0x1F AND DUP3 ADD SWAP2 JUMPDEST POP POP POP POP POP DUP2 MSTORE PUSH1 0x20 ADD PUSH1 0x3 DUP3 ADD PUSH1 0x0 SWAP1 SLOAD SWAP1 PUSH2 0x100 EXP SWAP1 DIV PUSH1 0xFF AND ISZERO ISZERO ISZERO ISZERO DUP2 MSTORE POP POP DUP2 MSTORE PUSH1 0x20 ADD SWAP1 PUSH1 0x1 ADD SWAP1 PUSH2 0x631 JUMP JUMPDEST POP POP POP POP SWAP1 POP SWAP1 JUMP JUMPDEST PUSH1 0x60 PUSH2 0x7A7 PUSH32 0x6A2DB2451BEA729C665AB016DBA44EC168C092F538FEE964692509C3630A12A7 PUSH1 0x0 SHL PUSH2 0x5A86 JUMP JUMPDEST PUSH2 0x7D3 PUSH32 0x1B11E30CDB2CC4F74A025CC0D2E30DD09581B0930EB7E311DDEFB3CF2386FA5C PUSH1 0x0 SHL PUSH2 0x5A86 JUMP JUMPDEST PUSH2 0x7FF PUSH32 0x7E39DA682E9FF02C1EE1D6ADD785B5EF228E5D8006771139E19729C757C16BB3 PUSH1 0x0 SHL PUSH2 0x5A86 JUMP JUMPDEST PUSH2 0x82B PUSH32 0x5437F81A5171C1803CBF9DFF3260F4A0811EBA0FEA2B2389657A015DE286EDB8 PUSH1 0x0 SHL PUSH2 0x5A86 JUMP JUMPDEST PUSH1 0x0 ISZERO ISZERO PUSH1 0x7 PUSH1 0x0 SWAP1 SLOAD SWAP1 PUSH2 0x100 EXP SWAP1 DIV PUSH1 0xFF AND ISZERO ISZERO EQ PUSH2 0x881 JUMPI PUSH1 0x40 MLOAD PUSH32 0x8C379A000000000000000000000000000000000000000000000000000000000 DUP2 MSTORE PUSH1 0x4 ADD PUSH2 0x878 SWAP1 PUSH2 0x63F8 JUMP JUMPDEST PUSH1 0x40 MLOAD DUP1 SWAP2 SUB SWAP1 REVERT JUMPDEST PUSH2 0x8AD PUSH32 0xD1E3539A8BFD4AAE400AE5D8055A5FCCF812096C04B416610BC366A0292AB653 PUSH1 0x0 SHL PUSH2 0x5A86 JUMP JUMPDEST PUSH2 0x8D9 PUSH32 0x2E34E692B87AD72EBEB0C14D4AF3A5DE00F361DBAAB7DC659CE508EC3F6B2F7E PUSH1 0x0 SHL PUSH2 0x5A86 JUMP JUMPDEST PUSH2 0x905 PUSH32 0xE3223AA097284B94ECD71541BE8A3A4D5DD2571B6ED3C2CBFD4545350B76D895 PUSH1 0x0 SHL PUSH2 0x5A86 JUMP JUMPDEST PUSH2 0x931 PUSH32 0x53B9A29ECEB0087DA5E69836D368F5687FA763336AFB7D42F140FDAE20D14A3D PUSH1 0x0 SHL PUSH2 0x5A86 JUMP JUMPDEST PUSH2 0x95D PUSH32 0xCA20859B4864B4EFE31D076A0DCD9B68B11585307EF4F39CC23DDA8C129D3CF7 PUSH1 0x0 SHL PUSH2 0x5A86 JUMP JUMPDEST PUSH1 0x2 DUP1 SLOAD DUP1 PUSH1 0x20 MUL PUSH1 0x20 ADD PUSH1 0x40 MLOAD SWAP1 DUP2 ADD PUSH1 0x40 MSTORE DUP1 SWAP3 SWAP2 SWAP1 DUP2 DUP2 MSTORE PUSH1 0x20 ADD PUSH1 0x0 SWAP1 JUMPDEST DUP3 DUP3 LT ISZERO PUSH2 0x9C5 JUMPI DUP4 DUP3 SWAP1 PUSH1 0x0 MSTORE PUSH1 0x20 PUSH1 0x0 KECCAK256 SWAP1 PUSH1 0x2 MUL ADD PUSH1 0x40 MLOAD DUP1 PUSH1 0x40 ADD PUSH1 0x40 MSTORE SWAP1 DUP2 PUSH1 0x0 DUP3 ADD SLOAD DUP2 MSTORE PUSH1 0x20 ADD PUSH1 0x1 DUP3 ADD SLOAD DUP2 MSTORE POP POP DUP2 MSTORE PUSH1 0x20 ADD SWAP1 PUSH1 0x1 ADD SWAP1 PUSH2 0x97F JUMP JUMPDEST POP POP POP POP SWAP1 POP SWAP1 JUMP JUMPDEST PUSH1 0x0 PUSH2 0x9FC PUSH32 0x863882F0C694B218214E2590CEC11A0216B999C419747188E4071D856B4C37F8 PUSH1 0x0 SHL PUSH2 0x5A86 JUMP JUMPDEST PUSH2 0xA28 PUSH32 0x5FDB5882DB4EA8A0B2A2410303643DB79C708156AE10AEF7364D769A2E7F405D PUSH1 0x0 SHL PUSH2 0x5A86 JUMP JUMPDEST PUSH2 0xA54 PUSH32 0x59B682088382E5D7C5C9656A17AEEEA23F1809367801EBD0EF07D463D2CCFE84 PUSH1 0x0 SHL PUSH2 0x5A86 JUMP JUMPDEST PUSH1 0x7 PUSH1 0x0 SWAP1 SLOAD SWAP1 PUSH2 0x100 EXP SWAP1 DIV PUSH1 0xFF AND SWAP1 POP SWAP1 JUMP JUMPDEST PUSH2 0xA95 PUSH32 0xEF43DA0F26AE566A87A4AAA20A03AF758EA04EDE79D9F203B5E48A7745AA773C PUSH1 0x0 SHL PUSH2 0x5A86 JUMP JUMPDEST PUSH2 0xAC1 PUSH32 0xEB57AAC3338F386C1C266EDDA3724AA13FD2DEC570BC06C33FB4D0C3339573FE PUSH1 0x0 SHL PUSH2 0x5A86 JUMP JUMPDEST PUSH2 0xAED PUSH32 0x42B91E8C973483E4118FC701BE2519D7FC9C161715AF12D6AA735A63E4463CDE PUSH1 0x0 SHL PUSH2 0x5A86 JUMP JUMPDEST PUSH2 0xB19 PUSH32 0xDE7A68B7AE86298389D7C585AA3564B7D5759FEA4C5816DEF1AE78618CC6A89A PUSH1 0x0 SHL PUSH2 0x5A86 JUMP JUMPDEST PUSH1 0x0 DUP1 SLOAD SWAP1 PUSH2 0x100 EXP SWAP1 DIV PUSH20 0xFFFFFFFFFFFFFFFFFFFFFFFFFFFFFFFFFFFFFFFF AND PUSH20 0xFFFFFFFFFFFFFFFFFFFFFFFFFFFFFFFFFFFFFFFF AND CALLER PUSH20 0xFFFFFFFFFFFFFFFFFFFFFFFFFFFFFFFFFFFFFFFF AND EQ PUSH2 0xBA7 JUMPI PUSH1 0x40 MLOAD PUSH32 0x8C379A000000000000000000000000000000000000000000000000000000000 DUP2 MSTORE PUSH1 0x4 ADD PUSH2 0xB9E SWAP1 PUSH2 0x6438 JUMP JUMPDEST PUSH1 0x40 MLOAD DUP1 SWAP2 SUB SWAP1 REVERT JUMPDEST PUSH2 0xBD3 PUSH32 0x577A0E929DCAA0872C59B226F3852A0F31F735E02B3E8E73C85B60ABC06DF6E5 PUSH1 0x0 SHL PUSH2 0x5A86 JUMP JUMPDEST PUSH2 0xBFF PUSH32 0x41E92CD776BEDBC688F7A26C9319DEBD60C194E394EE2B3AF0377B6F507A39D8 PUSH1 0x0 SHL PUSH2 0x5A86 JUMP JUMPDEST PUSH2 0xC2B PUSH32 0x63CA1AC858840FE86856F256AADDD88C32E8FA5CF8D89EF71007303D796A3A34 PUSH1 0x0 SHL PUSH2 0x5A86 JUMP JUMPDEST PUSH2 0xC57 PUSH32 0xC981E4F9BDAB3AF09A2991125CA16DBAB5E39E5ACDFC043BCD1FADAA19F091F4 PUSH1 0x0 SHL PUSH2 0x5A86 JUMP JUMPDEST PUSH2 0xC83 PUSH32 0x533217A6FE94E06A0B2F23C5E8F72389DA2ED02DD24BD595A91694B70AEBEBE5 PUSH1 0x0 SHL PUSH2 0x5A86 JUMP JUMPDEST PUSH1 0x0 PUSH1 0x7 PUSH1 0x0 PUSH2 0x100 EXP DUP2 SLOAD DUP2 PUSH1 0xFF MUL NOT AND SWAP1 DUP4 ISZERO ISZERO MUL OR SWAP1 SSTORE POP PUSH2 0xCCA PUSH32 0xD6FA1B8AD2578B8479EE9C3C75C90B95E62F4FCEF6A70394F56AA1D56F900171 PUSH1 0x0 SHL PUSH2 0x5A86 JUMP JUMPDEST PUSH2 0xCF6 PUSH32 0x6B90874667AFB0EF2A611270BAB7B1668BBC0F5B8F2C6CD2163EFB92987D578F PUSH1 0x0 SHL PUSH2 0x5A86 JUMP JUMPDEST PUSH32 0xB332CA16CAA1C4A06E0AC387E6F16243ED23AF2575EB84C3417D16DBBFA3F343 PUSH1 0x0 PUSH1 0x40 MLOAD PUSH2 0xD26 SWAP2 SWAP1 PUSH2 0x63AD JUMP JUMPDEST PUSH1 0x40 MLOAD DUP1 SWAP2 SUB SWAP1 LOG1 JUMP JUMPDEST PUSH2 0xD5C PUSH32 0x6A2DB2451BEA729C665AB016DBA44EC168C092F538FEE964692509C3630A12A7 PUSH1 0x0 SHL PUSH2 0x5A86 JUMP JUMPDEST PUSH2 0xD88 PUSH32 0x1B11E30CDB2CC4F74A025CC0D2E30DD09581B0930EB7E311DDEFB3CF2386FA5C PUSH1 0x0 SHL PUSH2 0x5A86 JUMP JUMPDEST PUSH2 0xDB4 PUSH32 0x7E39DA682E9FF02C1EE1D6ADD785B5EF228E5D8006771139E19729C757C16BB3 PUSH1 0x0 SHL PUSH2 0x5A86 JUMP JUMPDEST PUSH2 0xDE0 PUSH32 0x5437F81A5171C1803CBF9DFF3260F4A0811EBA0FEA2B2389657A015DE286EDB8 PUSH1 0x0 SHL PUSH2 0x5A86 JUMP JUMPDEST PUSH1 0x0 ISZERO ISZERO PUSH1 0x7 PUSH1 0x0 SWAP1 SLOAD SWAP1 PUSH2 0x100 EXP SWAP1 DIV PUSH1 0xFF AND ISZERO ISZERO EQ PUSH2 0xE36 JUMPI PUSH1 0x40 MLOAD PUSH32 0x8C379A000000000000000000000000000000000000000000000000000000000 DUP2 MSTORE PUSH1 0x4 ADD PUSH2 0xE2D SWAP1 PUSH2 0x63F8 JUMP JUMPDEST PUSH1 0x40 MLOAD DUP1 SWAP2 SUB SWAP1 REVERT JUMPDEST PUSH2 0xE62 PUSH32 0xD1E3539A8BFD4AAE400AE5D8055A5FCCF812096C04B416610BC366A0292AB653 PUSH1 0x0 SHL PUSH2 0x5A86 JUMP JUMPDEST PUSH2 0xE8E PUSH32 0x2E34E692B87AD72EBEB0C14D4AF3A5DE00F361DBAAB7DC659CE508EC3F6B2F7E PUSH1 0x0 SHL PUSH2 0x5A86 JUMP JUMPDEST DUP1 PUSH2 0xEBB PUSH32 0xAF6BCA6CE21200A02F3CBE036828F6CFB765D6C088FA993B4BB0AB546B4C3F1B PUSH1 0x0 SHL PUSH2 0x5A86 JUMP JUMPDEST PUSH2 0xEE7 PUSH32 0xD982BD477130BEB139D731CB8928D87C370167F349C625A8E535FC4D2D3EE23B PUSH1 0x0 SHL PUSH2 0x5A86 JUMP JUMPDEST PUSH2 0xF13 PUSH32 0xABF33CFA9F4E71F5616EB67056120427DFC2E446E50FB242F2B7B8D376D906C7 PUSH1 0x0 SHL PUSH2 0x5A86 JUMP JUMPDEST PUSH2 0xF3F PUSH32 0x509F318513292604594951BDC2B18C4D80055568B0AC60E7BCA3FD548BA81A95 PUSH1 0x0 SHL PUSH2 0x5A86 JUMP JUMPDEST PUSH1 0x0 DUP2 EQ DUP1 PUSH2 0xF4E JUMPI POP PUSH1 0x1 DUP2 EQ JUMPDEST PUSH2 0xF8D JUMPI PUSH1 0x40 MLOAD PUSH32 0x8C379A000000000000000000000000000000000000000000000000000000000 DUP2 MSTORE PUSH1 0x4 ADD PUSH2 0xF84 SWAP1 PUSH2 0x6478 JUMP JUMPDEST PUSH1 0x40 MLOAD DUP1 SWAP2 SUB SWAP1 REVERT JUMPDEST PUSH2 0xFB9 PUSH32 0x4AEDD73D2A4BCA1B4DB28FBCC07F5D1114FC8FEA79030A83EC3286BD1DDEE462 PUSH1 0x0 SHL PUSH2 0x5A86 JUMP JUMPDEST PUSH2 0xFE5 PUSH32 0xE98C1FC9B6167B9C071357F5C02541E481F393A1BA185016055D641A3ADB191 PUSH1 0x0 SHL PUSH2 0x5A86 JUMP JUMPDEST PUSH2 0x1011 PUSH32 0x92C6ED2334E4FF1DBC5F626221A28DDED592AE513E8CCDFAA89DD03A500F53F0 PUSH1 0x0 SHL PUSH2 0x5A86 JUMP JUMPDEST PUSH2 0x103D PUSH32 0xA5F7563529B32AFC1E9D28DFBAC507A755333593156E30343B5A00800B72DDFB PUSH1 0x0 SHL PUSH2 0x5A86 JUMP JUMPDEST PUSH2 0x1069 PUSH32 0x4B28C1CE7809D96259A8AAC6C3BF9A474016E32FF592EE908D96E31D55EC2499 PUSH1 0x0 SHL PUSH2 0x5A86 JUMP JUMPDEST PUSH1 0x1 PUSH1 0x5 PUSH1 0x1 PUSH2 0x100 EXP DUP2 SLOAD DUP2 PUSH1 0xFF MUL NOT AND SWAP1 DUP4 ISZERO ISZERO MUL OR SWAP1 SSTORE POP PUSH2 0x10B0 PUSH32 0x7C5FD92CD08A64E6EA125C1C6715ADD3834CDA0B99C535EDAEFADCA04EE7C7AE PUSH1 0x0 SHL PUSH2 0x5A86 JUMP JUMPDEST PUSH2 0x10DC PUSH32 0xB12002E5126E8689D643A3847C93CF30654B71EE5BE7C97A4745255EA7CEA020 PUSH1 0x0 SHL PUSH2 0x5A86 JUMP JUMPDEST PUSH32 0x7391A69CBE7F7D60DCD848427CF512560C21AFF11E6012A0EB9D42AA07DCFBFE PUSH1 0x1 PUSH1 0x40 MLOAD PUSH2 0x110C SWAP2 SWAP1 PUSH2 0x63AD JUMP JUMPDEST PUSH1 0x40 MLOAD DUP1 SWAP2 SUB SWAP1 LOG1 POP POP JUMP JUMPDEST PUSH1 0x0 PUSH2 0x1146 PUSH32 0x6A2DB2451BEA729C665AB016DBA44EC168C092F538FEE964692509C3630A12A7 PUSH1 0x0 SHL PUSH2 0x5A86 JUMP JUMPDEST PUSH2 0x1172 PUSH32 0x1B11E30CDB2CC4F74A025CC0D2E30DD09581B0930EB7E311DDEFB3CF2386FA5C PUSH1 0x0 SHL PUSH2 0x5A86 JUMP JUMPDEST PUSH2 0x119E PUSH32 0x7E39DA682E9FF02C1EE1D6ADD785B5EF228E5D8006771139E19729C757C16BB3 PUSH1 0x0 SHL PUSH2 0x5A86 JUMP JUMPDEST PUSH2 0x11CA PUSH32 0x5437F81A5171C1803CBF9DFF3260F4A0811EBA0FEA2B2389657A015DE286EDB8 PUSH1 0x0 SHL PUSH2 0x5A86 JUMP JUMPDEST PUSH1 0x0 ISZERO ISZERO PUSH1 0x7 PUSH1 0x0 SWAP1 SLOAD SWAP1 PUSH2 0x100 EXP SWAP1 DIV PUSH1 0xFF AND ISZERO ISZERO EQ PUSH2 0x1220 JUMPI PUSH1 0x40 MLOAD PUSH32 0x8C379A000000000000000000000000000000000000000000000000000000000 DUP2 MSTORE PUSH1 0x4 ADD PUSH2 0x1217 SWAP1 PUSH2 0x63F8 JUMP JUMPDEST PUSH1 0x40 MLOAD DUP1 SWAP2 SUB SWAP1 REVERT JUMPDEST PUSH2 0x124C PUSH32 0xD1E3539A8BFD4AAE400AE5D8055A5FCCF812096C04B416610BC366A0292AB653 PUSH1 0x0 SHL PUSH2 0x5A86 JUMP JUMPDEST PUSH2 0x1278 PUSH32 0x2E34E692B87AD72EBEB0C14D4AF3A5DE00F361DBAAB7DC659CE508EC3F6B2F7E PUSH1 0x0 SHL PUSH2 0x5A86 JUMP JUMPDEST PUSH2 0x12A4 PUSH32 0x7B6B7E4283CF4D86F88DA6BE21A85652A0AE370797215A77B30C388F6972B73D PUSH1 0x0 SHL PUSH2 0x5A86 JUMP JUMPDEST PUSH2 0x12D0 PUSH32 0xF1E61E73EA300DBA36EE526385D25AF35A78DD5D834C7951A87BE1B3141132FC PUSH1 0x0 SHL PUSH2 0x5A86 JUMP JUMPDEST PUSH2 0x12FC PUSH32 0x8464180892CE02B0861CA7481E8FEEB674EF4D0F56891B00FF11DD9DD0D3ACD9 PUSH1 0x0 SHL PUSH2 0x5A86 JUMP JUMPDEST PUSH1 0x5 PUSH1 0x0 SWAP1 SLOAD SWAP1 PUSH2 0x100 EXP SWAP1 DIV PUSH1 0xFF AND SWAP1 POP SWAP1 JUMP JUMPDEST PUSH1 0x7 PUSH1 0x0 SWAP1 SLOAD SWAP1 PUSH2 0x100 EXP SWAP1 DIV PUSH1 0xFF AND DUP2 JUMP JUMPDEST PUSH1 0x5 PUSH1 0x1 SWAP1 SLOAD SWAP1 PUSH2 0x100 EXP SWAP1 DIV PUSH1 0xFF AND DUP2 JUMP JUMPDEST PUSH2 0x1363 PUSH32 0x6A2DB2451BEA729C665AB016DBA44EC168C092F538FEE964692509C3630A12A7 PUSH1 0x0 SHL PUSH2 0x5A86 JUMP JUMPDEST PUSH2 0x138F PUSH32 0x1B11E30CDB2CC4F74A025CC0D2E30DD09581B0930EB7E311DDEFB3CF2386FA5C PUSH1 0x0 SHL PUSH2 0x5A86 JUMP JUMPDEST PUSH2 0x13BB PUSH32 0x7E39DA682E9FF02C1EE1D6ADD785B5EF228E5D8006771139E19729C757C16BB3 PUSH1 0x0 SHL PUSH2 0x5A86 JUMP JUMPDEST PUSH2 0x13E7 PUSH32 0x5437F81A5171C1803CBF9DFF3260F4A0811EBA0FEA2B2389657A015DE286EDB8 PUSH1 0x0 SHL PUSH2 0x5A86 JUMP JUMPDEST PUSH1 0x0 ISZERO ISZERO PUSH1 0x7 PUSH1 0x0 SWAP1 SLOAD SWAP1 PUSH2 0x100 EXP SWAP1 DIV PUSH1 0xFF AND ISZERO ISZERO EQ PUSH2 0x143D JUMPI PUSH1 0x40 MLOAD PUSH32 0x8C379A000000000000000000000000000000000000000000000000000000000 DUP2 MSTORE PUSH1 0x4 ADD PUSH2 0x1434 SWAP1 PUSH2 0x63F8 JUMP JUMPDEST PUSH1 0x40 MLOAD DUP1 SWAP2 SUB SWAP1 REVERT JUMPDEST PUSH2 0x1469 PUSH32 0xD1E3539A8BFD4AAE400AE5D8055A5FCCF812096C04B416610BC366A0292AB653 PUSH1 0x0 SHL PUSH2 0x5A86 JUMP JUMPDEST PUSH2 0x1495 PUSH32 0x2E34E692B87AD72EBEB0C14D4AF3A5DE00F361DBAAB7DC659CE508EC3F6B2F7E PUSH1 0x0 SHL PUSH2 0x5A86 JUMP JUMPDEST DUP1 PUSH2 0x14C2 PUSH32 0xAF6BCA6CE21200A02F3CBE036828F6CFB765D6C088FA993B4BB0AB546B4C3F1B PUSH1 0x0 SHL PUSH2 0x5A86 JUMP JUMPDEST PUSH2 0x14EE PUSH32 0xD982BD477130BEB139D731CB8928D87C370167F349C625A8E535FC4D2D3EE23B PUSH1 0x0 SHL PUSH2 0x5A86 JUMP JUMPDEST PUSH2 0x151A PUSH32 0xABF33CFA9F4E71F5616EB67056120427DFC2E446E50FB242F2B7B8D376D906C7 PUSH1 0x0 SHL PUSH2 0x5A86 JUMP JUMPDEST PUSH2 0x1546 PUSH32 0x509F318513292604594951BDC2B18C4D80055568B0AC60E7BCA3FD548BA81A95 PUSH1 0x0 SHL PUSH2 0x5A86 JUMP JUMPDEST PUSH1 0x0 DUP2 EQ DUP1 PUSH2 0x1555 JUMPI POP PUSH1 0x1 DUP2 EQ JUMPDEST PUSH2 0x1594 JUMPI PUSH1 0x40 MLOAD PUSH32 0x8C379A000000000000000000000000000000000000000000000000000000000 DUP2 MSTORE PUSH1 0x4 ADD PUSH2 0x158B SWAP1 PUSH2 0x6478 JUMP JUMPDEST PUSH1 0x40 MLOAD DUP1 SWAP2 SUB SWAP1 REVERT JUMPDEST PUSH2 0x15C0 PUSH32 0x4AEDD73D2A4BCA1B4DB28FBCC07F5D1114FC8FEA79030A83EC3286BD1DDEE462 PUSH1 0x0 SHL PUSH2 0x5A86 JUMP JUMPDEST PUSH2 0x15EC PUSH32 0xE98C1FC9B6167B9C071357F5C02541E481F393A1BA185016055D641A3ADB191 PUSH1 0x0 SHL PUSH2 0x5A86 JUMP JUMPDEST PUSH2 0x1618 PUSH32 0xFF7AFB45D52B8FC33D2DD8BAC7B874698AC76C8CAD4413BCE6B6B00B7B49EA41 PUSH1 0x0 SHL PUSH2 0x5A86 JUMP JUMPDEST PUSH2 0x1644 PUSH32 0x729ADD0FF34D5227518EB20C8B8E47B9AE65CFF0C8C353B7AEE716655FCE1457 PUSH1 0x0 SHL PUSH2 0x5A86 JUMP JUMPDEST PUSH2 0x1670 PUSH32 0x3B55E9318F4B997AE984DE250CAAC29E525A565A40630FEC08D02BBF69F52CB3 PUSH1 0x0 SHL PUSH2 0x5A86 JUMP JUMPDEST PUSH1 0x0 PUSH1 0x5 PUSH1 0x1 PUSH2 0x100 EXP DUP2 SLOAD DUP2 PUSH1 0xFF MUL NOT AND SWAP1 DUP4 ISZERO ISZERO MUL OR SWAP1 SSTORE POP PUSH2 0x16B7 PUSH32 0x77406171B31AD3F4B02F2A6CF1FDC743CCE1967B107679843A29851E3C73D07D PUSH1 0x0 SHL PUSH2 0x5A86 JUMP JUMPDEST PUSH2 0x16E3 PUSH32 0xA11574337556242812C19BBDFCA129D13F8392CBC0677B7C1625F2D7FD514FE3 PUSH1 0x0 SHL PUSH2 0x5A86 JUMP JUMPDEST PUSH32 0x7391A69CBE7F7D60DCD848427CF512560C21AFF11E6012A0EB9D42AA07DCFBFE PUSH1 0x0 PUSH1 0x40 MLOAD PUSH2 0x1713 SWAP2 SWAP1 PUSH2 0x63AD JUMP JUMPDEST PUSH1 0x40 MLOAD DUP1 SWAP2 SUB SWAP1 LOG1 POP POP JUMP JUMPDEST PUSH1 0x0 PUSH2 0x174D PUSH32 0x6A2DB2451BEA729C665AB016DBA44EC168C092F538FEE964692509C3630A12A7 PUSH1 0x0 SHL PUSH2 0x5A86 JUMP JUMPDEST PUSH2 0x1779 PUSH32 0x1B11E30CDB2CC4F74A025CC0D2E30DD09581B0930EB7E311DDEFB3CF2386FA5C PUSH1 0x0 SHL PUSH2 0x5A86 JUMP JUMPDEST PUSH2 0x17A5 PUSH32 0x7E39DA682E9FF02C1EE1D6ADD785B5EF228E5D8006771139E19729C757C16BB3 PUSH1 0x0 SHL PUSH2 0x5A86 JUMP JUMPDEST PUSH2 0x17D1 PUSH32 0x5437F81A5171C1803CBF9DFF3260F4A0811EBA0FEA2B2389657A015DE286EDB8 PUSH1 0x0 SHL PUSH2 0x5A86 JUMP JUMPDEST PUSH1 0x0 ISZERO ISZERO PUSH1 0x7 PUSH1 0x0 SWAP1 SLOAD SWAP1 PUSH2 0x100 EXP SWAP1 DIV PUSH1 0xFF AND ISZERO ISZERO EQ PUSH2 0x1827 JUMPI PUSH1 0x40 MLOAD PUSH32 0x8C379A000000000000000000000000000000000000000000000000000000000 DUP2 MSTORE PUSH1 0x4 ADD PUSH2 0x181E SWAP1 PUSH2 0x63F8 JUMP JUMPDEST PUSH1 0x40 MLOAD DUP1 SWAP2 SUB SWAP1 REVERT JUMPDEST PUSH2 0x1853 PUSH32 0xD1E3539A8BFD4AAE400AE5D8055A5FCCF812096C04B416610BC366A0292AB653 PUSH1 0x0 SHL PUSH2 0x5A86 JUMP JUMPDEST PUSH2 0x187F PUSH32 0x2E34E692B87AD72EBEB0C14D4AF3A5DE00F361DBAAB7DC659CE508EC3F6B2F7E PUSH1 0x0 SHL PUSH2 0x5A86 JUMP JUMPDEST PUSH2 0x18AB PUSH32 0x6BDEE1F2D95C9A58226BB620885BB238A4C6FF1E0C7E52714E54DAC476A1379E PUSH1 0x0 SHL PUSH2 0x5A86 JUMP JUMPDEST PUSH2 0x18D7 PUSH32 0x94577BF4BB17C5E18CBE04614F0B035D9FF0E670F5C388999325FBC79FB8528 PUSH1 0x0 SHL PUSH2 0x5A86 JUMP JUMPDEST PUSH2 0x1903 PUSH32 0x77C7C6D62937ECDC390FDAEBC51447797BA4A2C7598E927C1781271AEDDE170C PUSH1 0x0 SHL PUSH2 0x5A86 JUMP JUMPDEST PUSH1 0x5 PUSH1 0x1 SWAP1 SLOAD SWAP1 PUSH2 0x100 EXP SWAP1 DIV PUSH1 0xFF AND SWAP1 POP SWAP1 JUMP JUMPDEST PUSH2 0x1944 PUSH32 0x6A2DB2451BEA729C665AB016DBA44EC168C092F538FEE964692509C3630A12A7 PUSH1 0x0 SHL PUSH2 0x5A86 JUMP JUMPDEST PUSH2 0x1970 PUSH32 0x1B11E30CDB2CC4F74A025CC0D2E30DD09581B0930EB7E311DDEFB3CF2386FA5C PUSH1 0x0 SHL PUSH2 0x5A86 JUMP JUMPDEST PUSH2 0x199C PUSH32 0x7E39DA682E9FF02C1EE1D6ADD785B5EF228E5D8006771139E19729C757C16BB3 PUSH1 0x0 SHL PUSH2 0x5A86 JUMP JUMPDEST PUSH2 0x19C8 PUSH32 0x5437F81A5171C1803CBF9DFF3260F4A0811EBA0FEA2B2389657A015DE286EDB8 PUSH1 0x0 SHL PUSH2 0x5A86 JUMP JUMPDEST PUSH1 0x0 ISZERO ISZERO PUSH1 0x7 PUSH1 0x0 SWAP1 SLOAD SWAP1 PUSH2 0x100 EXP SWAP1 DIV PUSH1 0xFF AND ISZERO ISZERO EQ PUSH2 0x1A1E JUMPI PUSH1 0x40 MLOAD PUSH32 0x8C379A000000000000000000000000000000000000000000000000000000000 DUP2 MSTORE PUSH1 0x4 ADD PUSH2 0x1A15 SWAP1 PUSH2 0x63F8 JUMP JUMPDEST PUSH1 0x40 MLOAD DUP1 SWAP2 SUB SWAP1 REVERT JUMPDEST PUSH2 0x1A4A PUSH32 0xD1E3539A8BFD4AAE400AE5D8055A5FCCF812096C04B416610BC366A0292AB653 PUSH1 0x0 SHL PUSH2 0x5A86 JUMP JUMPDEST PUSH2 0x1A76 PUSH32 0x2E34E692B87AD72EBEB0C14D4AF3A5DE00F361DBAAB7DC659CE508EC3F6B2F7E PUSH1 0x0 SHL PUSH2 0x5A86 JUMP JUMPDEST PUSH2 0x1AA2 PUSH32 0xEF43DA0F26AE566A87A4AAA20A03AF758EA04EDE79D9F203B5E48A7745AA773C PUSH1 0x0 SHL PUSH2 0x5A86 JUMP JUMPDEST PUSH2 0x1ACE PUSH32 0xEB57AAC3338F386C1C266EDDA3724AA13FD2DEC570BC06C33FB4D0C3339573FE PUSH1 0x0 SHL PUSH2 0x5A86 JUMP JUMPDEST PUSH2 0x1AFA PUSH32 0x42B91E8C973483E4118FC701BE2519D7FC9C161715AF12D6AA735A63E4463CDE PUSH1 0x0 SHL PUSH2 0x5A86 JUMP JUMPDEST PUSH2 0x1B26 PUSH32 0xDE7A68B7AE86298389D7C585AA3564B7D5759FEA4C5816DEF1AE78618CC6A89A PUSH1 0x0 SHL PUSH2 0x5A86 JUMP JUMPDEST PUSH1 0x0 DUP1 SLOAD SWAP1 PUSH2 0x100 EXP SWAP1 DIV PUSH20 0xFFFFFFFFFFFFFFFFFFFFFFFFFFFFFFFFFFFFFFFF AND PUSH20 0xFFFFFFFFFFFFFFFFFFFFFFFFFFFFFFFFFFFFFFFF AND CALLER PUSH20 0xFFFFFFFFFFFFFFFFFFFFFFFFFFFFFFFFFFFFFFFF AND EQ PUSH2 0x1BB4 JUMPI PUSH1 0x40 MLOAD PUSH32 0x8C379A000000000000000000000000000000000000000000000000000000000 DUP2 MSTORE PUSH1 0x4 ADD PUSH2 0x1BAB SWAP1 PUSH2 0x6438 JUMP JUMPDEST PUSH1 0x40 MLOAD DUP1 SWAP2 SUB SWAP1 REVERT JUMPDEST PUSH2 0x1BE0 PUSH32 0x577A0E929DCAA0872C59B226F3852A0F31F735E02B3E8E73C85B60ABC06DF6E5 PUSH1 0x0 SHL PUSH2 0x5A86 JUMP JUMPDEST PUSH2 0x1C0C PUSH32 0x41E92CD776BEDBC688F7A26C9319DEBD60C194E394EE2B3AF0377B6F507A39D8 PUSH1 0x0 SHL PUSH2 0x5A86 JUMP JUMPDEST PUSH2 0x1C38 PUSH32 0xC04346413A5A8C5973DFD901D5A25D0B7AFABF143C07403135B0A0BB4C001233 PUSH1 0x0 SHL PUSH2 0x5A86 JUMP JUMPDEST PUSH2 0x1C64 PUSH32 0x3ACDE8FBE920E06AE64F830C46F7D7861AE5D2285D99874D4826D74EBAEA327C PUSH1 0x0 SHL PUSH2 0x5A86 JUMP JUMPDEST PUSH2 0x1C90 PUSH32 0xB4888757562181733D25B4617957A0EED02A5FF827BD06A048DB7C21F1C96B38 PUSH1 0x0 SHL PUSH2 0x5A86 JUMP JUMPDEST PUSH1 0x1 PUSH1 0x5 PUSH1 0x0 PUSH2 0x100 EXP DUP2 SLOAD DUP2 PUSH1 0xFF MUL NOT AND SWAP1 DUP4 ISZERO ISZERO MUL OR SWAP1 SSTORE POP PUSH2 0x1CD7 PUSH32 0x6568D6DD55DB0AA520A32FE8977F1DF02928E746AE4939F01B4CD8A325A46975 PUSH1 0x0 SHL PUSH2 0x5A86 JUMP JUMPDEST PUSH2 0x1D03 PUSH32 0x7808DB2361BD0CF4FA30B75E02FD54FAD108BB1F2839AE278CF96F25D6388B8B PUSH1 0x0 SHL PUSH2 0x5A86 JUMP JUMPDEST PUSH32 0x24505C2A690F21AFD3A9D6FD8280E5A12AD3FCF5EDEE69A44D19537561A85AD8 PUSH1 0x1 PUSH1 0x40 MLOAD PUSH2 0x1D33 SWAP2 SWAP1 PUSH2 0x63AD JUMP JUMPDEST PUSH1 0x40 MLOAD DUP1 SWAP2 SUB SWAP1 LOG1 JUMP JUMPDEST PUSH1 0x5 PUSH1 0x2 SWAP1 SLOAD SWAP1 PUSH2 0x100 EXP SWAP1 DIV PUSH1 0xFF AND DUP2 JUMP JUMPDEST PUSH1 0x0 PUSH2 0x1D7E PUSH32 0x6A2DB2451BEA729C665AB016DBA44EC168C092F538FEE964692509C3630A12A7 PUSH1 0x0 SHL PUSH2 0x5A86 JUMP JUMPDEST PUSH2 0x1DAA PUSH32 0x1B11E30CDB2CC4F74A025CC0D2E30DD09581B0930EB7E311DDEFB3CF2386FA5C PUSH1 0x0 SHL PUSH2 0x5A86 JUMP JUMPDEST PUSH2 0x1DD6 PUSH32 0x7E39DA682E9FF02C1EE1D6ADD785B5EF228E5D8006771139E19729C757C16BB3 PUSH1 0x0 SHL PUSH2 0x5A86 JUMP JUMPDEST PUSH2 0x1E02 PUSH32 0x5437F81A5171C1803CBF9DFF3260F4A0811EBA0FEA2B2389657A015DE286EDB8 PUSH1 0x0 SHL PUSH2 0x5A86 JUMP JUMPDEST PUSH1 0x0 ISZERO ISZERO PUSH1 0x7 PUSH1 0x0 SWAP1 SLOAD SWAP1 PUSH2 0x100 EXP SWAP1 DIV PUSH1 0xFF AND ISZERO ISZERO EQ PUSH2 0x1E58 JUMPI PUSH1 0x40 MLOAD PUSH32 0x8C379A000000000000000000000000000000000000000000000000000000000 DUP2 MSTORE PUSH1 0x4 ADD PUSH2 0x1E4F SWAP1 PUSH2 0x63F8 JUMP JUMPDEST PUSH1 0x40 MLOAD DUP1 SWAP2 SUB SWAP1 REVERT JUMPDEST PUSH2 0x1E84 PUSH32 0xD1E3539A8BFD4AAE400AE5D8055A5FCCF812096C04B416610BC366A0292AB653 PUSH1 0x0 SHL PUSH2 0x5A86 JUMP JUMPDEST PUSH2 0x1EB0 PUSH32 0x2E34E692B87AD72EBEB0C14D4AF3A5DE00F361DBAAB7DC659CE508EC3F6B2F7E PUSH1 0x0 SHL PUSH2 0x5A86 JUMP JUMPDEST PUSH2 0x1EDC PUSH32 0xAD70C9681864D1F1A7E97B855104A8B803E9FFF084374A3A2C24848959CA65B PUSH1 0x0 SHL PUSH2 0x5A86 JUMP JUMPDEST PUSH2 0x1F08 PUSH32 0xBF35BF221DFC8AD039BCC5105861207585F051A0DCD3528BAC958C370479A8A5 PUSH1 0x0 SHL PUSH2 0x5A86 JUMP JUMPDEST PUSH2 0x1F34 PUSH32 0xAC8B4B6C1E33348394D4812379C46BE6D00869339A757A0AE3E474682AD7E1D7 PUSH1 0x0 SHL PUSH2 0x5A86 JUMP JUMPDEST DUP2 PUSH20 0xFFFFFFFFFFFFFFFFFFFFFFFFFFFFFFFFFFFFFFFF AND PUSH1 0x0 DUP1 SLOAD SWAP1 PUSH2 0x100 EXP SWAP1 DIV PUSH20 0xFFFFFFFFFFFFFFFFFFFFFFFFFFFFFFFFFFFFFFFF AND PUSH20 0xFFFFFFFFFFFFFFFFFFFFFFFFFFFFFFFFFFFFFFFF AND EQ SWAP1 POP SWAP2 SWAP1 POP JUMP JUMPDEST DUP1 PUSH2 0x1FB7 PUSH32 0xAF6BCA6CE21200A02F3CBE036828F6CFB765D6C088FA993B4BB0AB546B4C3F1B PUSH1 0x0 SHL PUSH2 0x5A86 JUMP JUMPDEST PUSH2 0x1FE3 PUSH32 0xD982BD477130BEB139D731CB8928D87C370167F349C625A8E535FC4D2D3EE23B PUSH1 0x0 SHL PUSH2 0x5A86 JUMP JUMPDEST PUSH2 0x200F PUSH32 0xABF33CFA9F4E71F5616EB67056120427DFC2E446E50FB242F2B7B8D376D906C7 PUSH1 0x0 SHL PUSH2 0x5A86 JUMP JUMPDEST PUSH2 0x203B PUSH32 0x509F318513292604594951BDC2B18C4D80055568B0AC60E7BCA3FD548BA81A95 PUSH1 0x0 SHL PUSH2 0x5A86 JUMP JUMPDEST PUSH1 0x0 DUP2 EQ DUP1 PUSH2 0x204A JUMPI POP PUSH1 0x1 DUP2 EQ JUMPDEST PUSH2 0x2089 JUMPI PUSH1 0x40 MLOAD PUSH32 0x8C379A000000000000000000000000000000000000000000000000000000000 DUP2 MSTORE PUSH1 0x4 ADD PUSH2 0x2080 SWAP1 PUSH2 0x6478 JUMP JUMPDEST PUSH1 0x40 MLOAD DUP1 SWAP2 SUB SWAP1 REVERT JUMPDEST PUSH2 0x20B5 PUSH32 0x4AEDD73D2A4BCA1B4DB28FBCC07F5D1114FC8FEA79030A83EC3286BD1DDEE462 PUSH1 0x0 SHL PUSH2 0x5A86 JUMP JUMPDEST PUSH2 0x20E1 PUSH32 0xE98C1FC9B6167B9C071357F5C02541E481F393A1BA185016055D641A3ADB191 PUSH1 0x0 SHL PUSH2 0x5A86 JUMP JUMPDEST PUSH2 0x210D PUSH32 0x6A2DB2451BEA729C665AB016DBA44EC168C092F538FEE964692509C3630A12A7 PUSH1 0x0 SHL PUSH2 0x5A86 JUMP JUMPDEST PUSH2 0x2139 PUSH32 0x1B11E30CDB2CC4F74A025CC0D2E30DD09581B0930EB7E311DDEFB3CF2386FA5C PUSH1 0x0 SHL PUSH2 0x5A86 JUMP JUMPDEST PUSH2 0x2165 PUSH32 0x7E39DA682E9FF02C1EE1D6ADD785B5EF228E5D8006771139E19729C757C16BB3 PUSH1 0x0 SHL PUSH2 0x5A86 JUMP JUMPDEST PUSH2 0x2191 PUSH32 0x5437F81A5171C1803CBF9DFF3260F4A0811EBA0FEA2B2389657A015DE286EDB8 PUSH1 0x0 SHL PUSH2 0x5A86 JUMP JUMPDEST PUSH1 0x0 ISZERO ISZERO PUSH1 0x7 PUSH1 0x0 SWAP1 SLOAD SWAP1 PUSH2 0x100 EXP SWAP1 DIV PUSH1 0xFF AND ISZERO ISZERO EQ PUSH2 0x21E7 JUMPI PUSH1 0x40 MLOAD PUSH32 0x8C379A000000000000000000000000000000000000000000000000000000000 DUP2 MSTORE PUSH1 0x4 ADD PUSH2 0x21DE SWAP1 PUSH2 0x63F8 JUMP JUMPDEST PUSH1 0x40 MLOAD DUP1 SWAP2 SUB SWAP1 REVERT JUMPDEST PUSH2 0x2213 PUSH32 0xD1E3539A8BFD4AAE400AE5D8055A5FCCF812096C04B416610BC366A0292AB653 PUSH1 0x0 SHL PUSH2 0x5A86 JUMP JUMPDEST PUSH2 0x223F PUSH32 0x2E34E692B87AD72EBEB0C14D4AF3A5DE00F361DBAAB7DC659CE508EC3F6B2F7E PUSH1 0x0 SHL PUSH2 0x5A86 JUMP JUMPDEST PUSH2 0x226B PUSH32 0xAE315468F033257B60E2D0EC27E6CA6D0365349862FAC9CFB9E1BE1B498A5A14 PUSH1 0x0 SHL PUSH2 0x5A86 JUMP JUMPDEST PUSH2 0x2297 PUSH32 0x350F4DE06CCA70166AF803C1E735F1818CD1B8900D5D7EDF6C96352849855CD4 PUSH1 0x0 SHL PUSH2 0x5A86 JUMP JUMPDEST PUSH2 0x22C3 PUSH32 0x77D0D24F9FB3313E7DF396CEEBFDD65AA625E3102F572FA214C83312F7D435F1 PUSH1 0x0 SHL PUSH2 0x5A86 JUMP JUMPDEST PUSH1 0x1 PUSH1 0x5 PUSH1 0x2 PUSH2 0x100 EXP DUP2 SLOAD DUP2 PUSH1 0xFF MUL NOT AND SWAP1 DUP4 ISZERO ISZERO MUL OR SWAP1 SSTORE POP PUSH2 0x230A PUSH32 0x2E7F930F70F19018A5350A744099D1DD3331FDE3A25AACA7567B7A1EC038E844 PUSH1 0x0 SHL PUSH2 0x5A86 JUMP JUMPDEST PUSH2 0x2336 PUSH32 0x21F7E2DB655466B9808B94DC58F291075E53408E9F2EE8837DFEFC4A6A2C9C91 PUSH1 0x0 SHL PUSH2 0x5A86 JUMP JUMPDEST PUSH32 0x7A19ED057DB79E3C2FA0B97A54B43BEF4FCE74B31BB6C01AF514B9A18A7F70AB PUSH1 0x40 MLOAD PUSH1 0x40 MLOAD DUP1 SWAP2 SUB SWAP1 LOG1 POP POP JUMP JUMPDEST PUSH1 0x5 PUSH1 0x0 SWAP1 SLOAD SWAP1 PUSH2 0x100 EXP SWAP1 DIV PUSH1 0xFF AND DUP2 JUMP JUMPDEST PUSH2 0x23A5 PUSH32 0xEF43DA0F26AE566A87A4AAA20A03AF758EA04EDE79D9F203B5E48A7745AA773C PUSH1 0x0 SHL PUSH2 0x5A86 JUMP JUMPDEST PUSH2 0x23D1 PUSH32 0xEB57AAC3338F386C1C266EDDA3724AA13FD2DEC570BC06C33FB4D0C3339573FE PUSH1 0x0 SHL PUSH2 0x5A86 JUMP JUMPDEST PUSH2 0x23FD PUSH32 0x42B91E8C973483E4118FC701BE2519D7FC9C161715AF12D6AA735A63E4463CDE PUSH1 0x0 SHL PUSH2 0x5A86 JUMP JUMPDEST PUSH2 0x2429 PUSH32 0xDE7A68B7AE86298389D7C585AA3564B7D5759FEA4C5816DEF1AE78618CC6A89A PUSH1 0x0 SHL PUSH2 0x5A86 JUMP JUMPDEST PUSH1 0x0 DUP1 SLOAD SWAP1 PUSH2 0x100 EXP SWAP1 DIV PUSH20 0xFFFFFFFFFFFFFFFFFFFFFFFFFFFFFFFFFFFFFFFF AND PUSH20 0xFFFFFFFFFFFFFFFFFFFFFFFFFFFFFFFFFFFFFFFF AND CALLER PUSH20 0xFFFFFFFFFFFFFFFFFFFFFFFFFFFFFFFFFFFFFFFF AND EQ PUSH2 0x24B7 JUMPI PUSH1 0x40 MLOAD PUSH32 0x8C379A000000000000000000000000000000000000000000000000000000000 DUP2 MSTORE PUSH1 0x4 ADD PUSH2 0x24AE SWAP1 PUSH2 0x6438 JUMP JUMPDEST PUSH1 0x40 MLOAD DUP1 SWAP2 SUB SWAP1 REVERT JUMPDEST PUSH2 0x24E3 PUSH32 0x577A0E929DCAA0872C59B226F3852A0F31F735E02B3E8E73C85B60ABC06DF6E5 PUSH1 0x0 SHL PUSH2 0x5A86 JUMP JUMPDEST PUSH2 0x250F PUSH32 0x41E92CD776BEDBC688F7A26C9319DEBD60C194E394EE2B3AF0377B6F507A39D8 PUSH1 0x0 SHL PUSH2 0x5A86 JUMP JUMPDEST PUSH2 0x253B PUSH32 0x6A2DB2451BEA729C665AB016DBA44EC168C092F538FEE964692509C3630A12A7 PUSH1 0x0 SHL PUSH2 0x5A86 JUMP JUMPDEST PUSH2 0x2567 PUSH32 0x1B11E30CDB2CC4F74A025CC0D2E30DD09581B0930EB7E311DDEFB3CF2386FA5C PUSH1 0x0 SHL PUSH2 0x5A86 JUMP JUMPDEST PUSH2 0x2593 PUSH32 0x7E39DA682E9FF02C1EE1D6ADD785B5EF228E5D8006771139E19729C757C16BB3 PUSH1 0x0 SHL PUSH2 0x5A86 JUMP JUMPDEST PUSH2 0x25BF PUSH32 0x5437F81A5171C1803CBF9DFF3260F4A0811EBA0FEA2B2389657A015DE286EDB8 PUSH1 0x0 SHL PUSH2 0x5A86 JUMP JUMPDEST PUSH1 0x0 ISZERO ISZERO PUSH1 0x7 PUSH1 0x0 SWAP1 SLOAD SWAP1 PUSH2 0x100 EXP SWAP1 DIV PUSH1 0xFF AND ISZERO ISZERO EQ PUSH2 0x2615 JUMPI PUSH1 0x40 MLOAD PUSH32 0x8C379A000000000000000000000000000000000000000000000000000000000 DUP2 MSTORE PUSH1 0x4 ADD PUSH2 0x260C SWAP1 PUSH2 0x63F8 JUMP JUMPDEST PUSH1 0x40 MLOAD DUP1 SWAP2 SUB SWAP1 REVERT JUMPDEST PUSH2 0x2641 PUSH32 0xD1E3539A8BFD4AAE400AE5D8055A5FCCF812096C04B416610BC366A0292AB653 PUSH1 0x0 SHL PUSH2 0x5A86 JUMP JUMPDEST PUSH2 0x266D PUSH32 0x2E34E692B87AD72EBEB0C14D4AF3A5DE00F361DBAAB7DC659CE508EC3F6B2F7E PUSH1 0x0 SHL PUSH2 0x5A86 JUMP JUMPDEST PUSH2 0x2699 PUSH32 0x59E8A8A17A5DF121CF7C649D00254B02A05ED9A629665CC582E31EC1CEF14275 PUSH1 0x0 SHL PUSH2 0x5A86 JUMP JUMPDEST PUSH2 0x26C5 PUSH32 0x95BF64900902C967DBCC74FC8EA7AC937503C82BABEFFA1DB5746C3C40F1ACC3 PUSH1 0x0 SHL PUSH2 0x5A86 JUMP JUMPDEST PUSH2 0x26F1 PUSH32 0x6DB16B3301C8234429178FC0324BB6D9B6B6ED81C28C679C468BE46652FB3647 PUSH1 0x0 SHL PUSH2 0x5A86 JUMP JUMPDEST PUSH2 0x271D PUSH32 0xDCD2B304557705802D35C9A5731EA0F6572C98AA893EB024CF401A554606A47 PUSH1 0x0 SHL PUSH2 0x5A86 JUMP JUMPDEST PUSH1 0x1 DUP3 EQ ISZERO PUSH2 0x2761 JUMPI PUSH1 0x40 MLOAD PUSH32 0x8C379A000000000000000000000000000000000000000000000000000000000 DUP2 MSTORE PUSH1 0x4 ADD PUSH2 0x2758 SWAP1 PUSH2 0x6458 JUMP JUMPDEST PUSH1 0x40 MLOAD DUP1 SWAP2 SUB SWAP1 REVERT JUMPDEST PUSH2 0x278D PUSH32 0xD212A619053EB197644682F2861E7F873F5BC3CC66D80FDBC0F1C1191D51162E PUSH1 0x0 SHL PUSH2 0x5A86 JUMP JUMPDEST PUSH2 0x27B9 PUSH32 0xA1CE3F5F4E70E0E79B154D249307AA4B61853E138FC92D2A572F4F8BF2BAF172 PUSH1 0x0 SHL PUSH2 0x5A86 JUMP JUMPDEST PUSH2 0x27E5 PUSH32 0x3790373C63E8E0A67A817D542008F9A03EB0AFF8042F7841DD1137820359278 PUSH1 0x0 SHL PUSH2 0x5A86 JUMP JUMPDEST PUSH2 0x2811 PUSH32 0x9B9EFDC05AE0FFAF60DE8845C7166E40C2E72AE3400AAE344CE375C149E1E275 PUSH1 0x0 SHL PUSH2 0x5A86 JUMP JUMPDEST PUSH1 0x0 DUP2 EQ DUP1 PUSH2 0x2820 JUMPI POP PUSH1 0x1 DUP2 EQ JUMPDEST DUP1 PUSH2 0x282B JUMPI POP PUSH1 0x2 DUP2 EQ JUMPDEST PUSH2 0x286A JUMPI PUSH1 0x40 MLOAD PUSH32 0x8C379A000000000000000000000000000000000000000000000000000000000 DUP2 MSTORE PUSH1 0x4 ADD PUSH2 0x2861 SWAP1 PUSH2 0x64B8 JUMP JUMPDEST PUSH1 0x40 MLOAD DUP1 SWAP2 SUB SWAP1 REVERT JUMPDEST PUSH2 0x2896 PUSH32 0x3B8CAEC6C6E480CF48E6405633606F2F24B8A220623C3196F60E7ABD3AD58E84 PUSH1 0x0 SHL PUSH2 0x5A86 JUMP JUMPDEST PUSH2 0x28C2 PUSH32 0xE71A0B71941846E3C5838DDD1EBC8C839EF6828F9DFA7B1572F6EBBB67F40FBA PUSH1 0x0 SHL PUSH2 0x5A86 JUMP JUMPDEST PUSH2 0x28EE PUSH32 0x7003AD851B16C06E2E742CE73BEF3613F8C3BAD7330BC53C87EE0FCAF4EE56E8 PUSH1 0x0 SHL PUSH2 0x5A86 JUMP JUMPDEST PUSH1 0x0 DUP2 EQ ISZERO PUSH2 0x2AB0 JUMPI PUSH2 0x2923 PUSH32 0xF96AB60D2F10DF8295EBC78EE96A87A258DB8A94D424305E584D06E8AEFF5B2C PUSH1 0x0 SHL PUSH2 0x5A86 JUMP JUMPDEST PUSH2 0x294F PUSH32 0x4F2757DCCAEB7D007362CB8DE91300B130337BA049CCE1E4569DF1193BBDBA29 PUSH1 0x0 SHL PUSH2 0x5A86 JUMP JUMPDEST PUSH2 0x297B PUSH32 0xFE5E7069C7A820577CF95E0035509216CE9D89996C356056B8F8B37D52CC988 PUSH1 0x0 SHL PUSH2 0x5A86 JUMP JUMPDEST PUSH1 0x40 MLOAD DUP1 PUSH1 0x40 ADD PUSH1 0x40 MSTORE DUP1 PUSH1 0xB DUP2 MSTORE PUSH1 0x20 ADD PUSH32 0x426F6172644D656D626572000000000000000000000000000000000000000000 DUP2 MSTORE POP PUSH1 0x4 PUSH1 0x1 DUP5 PUSH2 0x29C0 SWAP2 SWAP1 PUSH2 0x67B2 JUMP JUMPDEST DUP2 SLOAD DUP2 LT PUSH2 0x29F7 JUMPI PUSH32 0x4E487B7100000000000000000000000000000000000000000000000000000000 PUSH1 0x0 MSTORE PUSH1 0x32 PUSH1 0x4 MSTORE PUSH1 0x24 PUSH1 0x0 REVERT JUMPDEST SWAP1 PUSH1 0x0 MSTORE PUSH1 0x20 PUSH1 0x0 KECCAK256 SWAP1 PUSH1 0x4 MUL ADD PUSH1 0x2 ADD SWAP1 DUP1 MLOAD SWAP1 PUSH1 0x20 ADD SWAP1 PUSH2 0x2A1B SWAP3 SWAP2 SWAP1 PUSH2 0x5A89 JUMP JUMPDEST POP PUSH2 0x2A48 PUSH32 0xC5CE7BC7FA7F19AD6EDA58D4E7FADDDD847A990FC2D370E96F03F391348300FB PUSH1 0x0 SHL PUSH2 0x5A86 JUMP JUMPDEST PUSH2 0x2A74 PUSH32 0x8CC738C1EB6C17D76E0FCBDD2D868C74593D9CE866F94A12CDA7B475554C4765 PUSH1 0x0 SHL PUSH2 0x5A86 JUMP JUMPDEST PUSH32 0x12523F2A740B8FC93B2BDC49D3E14B8198F975653DB12A894AB58B4BE45B7E72 DUP3 PUSH1 0x40 MLOAD PUSH2 0x2AA3 SWAP2 SWAP1 PUSH2 0x6584 JUMP JUMPDEST PUSH1 0x40 MLOAD DUP1 SWAP2 SUB SWAP1 LOG1 PUSH2 0x2F13 JUMP JUMPDEST PUSH2 0x2ADC PUSH32 0x389E76F2670901A9B0C997B0B2F413AE7A6FFDD459CAFB4EC524C5E8249CECD PUSH1 0x0 SHL PUSH2 0x5A86 JUMP JUMPDEST PUSH2 0x2B08 PUSH32 0xDA17E9EEF0757AB335A6CAAE72FBEB755CDC5673B5CFB241006D8EC476B0E0EE PUSH1 0x0 SHL PUSH2 0x5A86 JUMP JUMPDEST PUSH1 0x1 DUP2 EQ ISZERO PUSH2 0x2CCA JUMPI PUSH2 0x2B3D PUSH32 0x954DDF6351C1B9FCBD35E71C793AFC959E59E88951CA6A8FE2C546BF7CC49DBE PUSH1 0x0 SHL PUSH2 0x5A86 JUMP JUMPDEST PUSH2 0x2B69 PUSH32 0x830691F0581C2D926FF7C84521E988BCD6629D38414E63FC5DD71D053BE4B05B PUSH1 0x0 SHL PUSH2 0x5A86 JUMP JUMPDEST PUSH2 0x2B95 PUSH32 0x316624E8DA96B6555EE69B620889960D8C62048F9A3B1D51BA91E0C0E252584C PUSH1 0x0 SHL PUSH2 0x5A86 JUMP JUMPDEST PUSH1 0x40 MLOAD DUP1 PUSH1 0x40 ADD PUSH1 0x40 MSTORE DUP1 PUSH1 0x7 DUP2 MSTORE PUSH1 0x20 ADD PUSH32 0x5465616368657200000000000000000000000000000000000000000000000000 DUP2 MSTORE POP PUSH1 0x4 PUSH1 0x1 DUP5 PUSH2 0x2BDA SWAP2 SWAP1 PUSH2 0x67B2 JUMP JUMPDEST DUP2 SLOAD DUP2 LT PUSH2 0x2C11 JUMPI PUSH32 0x4E487B7100000000000000000000000000000000000000000000000000000000 PUSH1 0x0 MSTORE PUSH1 0x32 PUSH1 0x4 MSTORE PUSH1 0x24 PUSH1 0x0 REVERT JUMPDEST SWAP1 PUSH1 0x0 MSTORE PUSH1 0x20 PUSH1 0x0 KECCAK256 SWAP1 PUSH1 0x4 MUL ADD PUSH1 0x2 ADD SWAP1 DUP1 MLOAD SWAP1 PUSH1 0x20 ADD SWAP1 PUSH2 0x2C35 SWAP3 SWAP2 SWAP1 PUSH2 0x5A89 JUMP JUMPDEST POP PUSH2 0x2C62 PUSH32 0x4A17ED9B8A932FB8CD395E5533F89EA8499E2D6B9CD4AF94F060181A980B2E3D PUSH1 0x0 SHL PUSH2 0x5A86 JUMP JUMPDEST PUSH2 0x2C8E PUSH32 0xDAB79C0C2E760E01B7A97B32D232EFDE7B8853BD4F3C0BF7F0A3E399FF46433C PUSH1 0x0 SHL PUSH2 0x5A86 JUMP JUMPDEST PUSH32 0x12523F2A740B8FC93B2BDC49D3E14B8198F975653DB12A894AB58B4BE45B7E72 DUP3 PUSH1 0x40 MLOAD PUSH2 0x2CBD SWAP2 SWAP1 PUSH2 0x65B2 JUMP JUMPDEST PUSH1 0x40 MLOAD DUP1 SWAP2 SUB SWAP1 LOG1 PUSH2 0x2F12 JUMP JUMPDEST PUSH2 0x2CF6 PUSH32 0x42E3D8281C8DEFBDE9010E1A5E405AF1387580E175D47DD414FC7EC9CF643F14 PUSH1 0x0 SHL PUSH2 0x5A86 JUMP JUMPDEST PUSH2 0x2D22 PUSH32 0x51954B85BB328666AE5257B9DFB8681F5F29DF5D6247D51884B59678BA9387DE PUSH1 0x0 SHL PUSH2 0x5A86 JUMP JUMPDEST PUSH1 0x2 DUP2 EQ ISZERO PUSH2 0x2EE4 JUMPI PUSH2 0x2D57 PUSH32 0xD8675E0D6DDB01F76393093941977C5445488782D32A4A6A53725B9CDFC6C8BF PUSH1 0x0 SHL PUSH2 0x5A86 JUMP JUMPDEST PUSH2 0x2D83 PUSH32 0xA541C88B1DFEF352BCD7129C434563DC143B6508B8F97E73EFB5207941B397D0 PUSH1 0x0 SHL PUSH2 0x5A86 JUMP JUMPDEST PUSH2 0x2DAF PUSH32 0xCE99E1455EDFAF3746D1BC8B654A423447BBBA96C1621ADAF64D238282FF0365 PUSH1 0x0 SHL PUSH2 0x5A86 JUMP JUMPDEST PUSH1 0x40 MLOAD DUP1 PUSH1 0x40 ADD PUSH1 0x40 MSTORE DUP1 PUSH1 0x7 DUP2 MSTORE PUSH1 0x20 ADD PUSH32 0x53747564656E7400000000000000000000000000000000000000000000000000 DUP2 MSTORE POP PUSH1 0x4 PUSH1 0x1 DUP5 PUSH2 0x2DF4 SWAP2 SWAP1 PUSH2 0x67B2 JUMP JUMPDEST DUP2 SLOAD DUP2 LT PUSH2 0x2E2B JUMPI PUSH32 0x4E487B7100000000000000000000000000000000000000000000000000000000 PUSH1 0x0 MSTORE PUSH1 0x32 PUSH1 0x4 MSTORE PUSH1 0x24 PUSH1 0x0 REVERT JUMPDEST SWAP1 PUSH1 0x0 MSTORE PUSH1 0x20 PUSH1 0x0 KECCAK256 SWAP1 PUSH1 0x4 MUL ADD PUSH1 0x2 ADD SWAP1 DUP1 MLOAD SWAP1 PUSH1 0x20 ADD SWAP1 PUSH2 0x2E4F SWAP3 SWAP2 SWAP1 PUSH2 0x5A89 JUMP JUMPDEST POP PUSH2 0x2E7C PUSH32 0xD338021DD497220AE32D9915349427D00DCC7A15926A37C9836BB44A121C6B5E PUSH1 0x0 SHL PUSH2 0x5A86 JUMP JUMPDEST PUSH2 0x2EA8 PUSH32 0x2FA37BF052EECCD9C7876F611D5D84E318FB3E5A7FAF12B8C23E26D338F936EB PUSH1 0x0 SHL PUSH2 0x5A86 JUMP JUMPDEST PUSH32 0x12523F2A740B8FC93B2BDC49D3E14B8198F975653DB12A894AB58B4BE45B7E72 DUP3 PUSH1 0x40 MLOAD PUSH2 0x2ED7 SWAP2 SWAP1 PUSH2 0x65E0 JUMP JUMPDEST PUSH1 0x40 MLOAD DUP1 SWAP2 SUB SWAP1 LOG1 PUSH2 0x2F11 JUMP JUMPDEST PUSH2 0x2F10 PUSH32 0x9378125AEC2AC04A0A526AD0A344553EFFB3BC6A6121004C44863731BAF29F29 PUSH1 0x0 SHL PUSH2 0x5A86 JUMP JUMPDEST JUMPDEST JUMPDEST JUMPDEST POP POP JUMP JUMPDEST PUSH2 0x2F43 PUSH32 0x6A2DB2451BEA729C665AB016DBA44EC168C092F538FEE964692509C3630A12A7 PUSH1 0x0 SHL PUSH2 0x5A86 JUMP JUMPDEST PUSH2 0x2F6F PUSH32 0x1B11E30CDB2CC4F74A025CC0D2E30DD09581B0930EB7E311DDEFB3CF2386FA5C PUSH1 0x0 SHL PUSH2 0x5A86 JUMP JUMPDEST PUSH2 0x2F9B PUSH32 0x7E39DA682E9FF02C1EE1D6ADD785B5EF228E5D8006771139E19729C757C16BB3 PUSH1 0x0 SHL PUSH2 0x5A86 JUMP JUMPDEST PUSH2 0x2FC7 PUSH32 0x5437F81A5171C1803CBF9DFF3260F4A0811EBA0FEA2B2389657A015DE286EDB8 PUSH1 0x0 SHL PUSH2 0x5A86 JUMP JUMPDEST PUSH1 0x0 ISZERO ISZERO PUSH1 0x7 PUSH1 0x0 SWAP1 SLOAD SWAP1 PUSH2 0x100 EXP SWAP1 DIV PUSH1 0xFF AND ISZERO ISZERO EQ PUSH2 0x301D JUMPI PUSH1 0x40 MLOAD PUSH32 0x8C379A000000000000000000000000000000000000000000000000000000000 DUP2 MSTORE PUSH1 0x4 ADD PUSH2 0x3014 SWAP1 PUSH2 0x63F8 JUMP JUMPDEST PUSH1 0x40 MLOAD DUP1 SWAP2 SUB SWAP1 REVERT JUMPDEST PUSH2 0x3049 PUSH32 0xD1E3539A8BFD4AAE400AE5D8055A5FCCF812096C04B416610BC366A0292AB653 PUSH1 0x0 SHL PUSH2 0x5A86 JUMP JUMPDEST PUSH2 0x3075 PUSH32 0x2E34E692B87AD72EBEB0C14D4AF3A5DE00F361DBAAB7DC659CE508EC3F6B2F7E PUSH1 0x0 SHL PUSH2 0x5A86 JUMP JUMPDEST PUSH2 0x30A1 PUSH32 0xEF43DA0F26AE566A87A4AAA20A03AF758EA04EDE79D9F203B5E48A7745AA773C PUSH1 0x0 SHL PUSH2 0x5A86 JUMP JUMPDEST PUSH2 0x30CD PUSH32 0xEB57AAC3338F386C1C266EDDA3724AA13FD2DEC570BC06C33FB4D0C3339573FE PUSH1 0x0 SHL PUSH2 0x5A86 JUMP JUMPDEST PUSH2 0x30F9 PUSH32 0x42B91E8C973483E4118FC701BE2519D7FC9C161715AF12D6AA735A63E4463CDE PUSH1 0x0 SHL PUSH2 0x5A86 JUMP JUMPDEST PUSH2 0x3125 PUSH32 0xDE7A68B7AE86298389D7C585AA3564B7D5759FEA4C5816DEF1AE78618CC6A89A PUSH1 0x0 SHL PUSH2 0x5A86 JUMP JUMPDEST PUSH1 0x0 DUP1 SLOAD SWAP1 PUSH2 0x100 EXP SWAP1 DIV PUSH20 0xFFFFFFFFFFFFFFFFFFFFFFFFFFFFFFFFFFFFFFFF AND PUSH20 0xFFFFFFFFFFFFFFFFFFFFFFFFFFFFFFFFFFFFFFFF AND CALLER PUSH20 0xFFFFFFFFFFFFFFFFFFFFFFFFFFFFFFFFFFFFFFFF AND EQ PUSH2 0x31B3 JUMPI PUSH1 0x40 MLOAD PUSH32 0x8C379A000000000000000000000000000000000000000000000000000000000 DUP2 MSTORE PUSH1 0x4 ADD PUSH2 0x31AA SWAP1 PUSH2 0x6438 JUMP JUMPDEST PUSH1 0x40 MLOAD DUP1 SWAP2 SUB SWAP1 REVERT JUMPDEST PUSH2 0x31DF PUSH32 0x577A0E929DCAA0872C59B226F3852A0F31F735E02B3E8E73C85B60ABC06DF6E5 PUSH1 0x0 SHL PUSH2 0x5A86 JUMP JUMPDEST PUSH2 0x320B PUSH32 0x41E92CD776BEDBC688F7A26C9319DEBD60C194E394EE2B3AF0377B6F507A39D8 PUSH1 0x0 SHL PUSH2 0x5A86 JUMP JUMPDEST PUSH2 0x3237 PUSH32 0xEE5EE9914BCBCD227B8E7A5B8A0514C6BB2DFED44474A5EB3A9E58F87EA49FC1 PUSH1 0x0 SHL PUSH2 0x5A86 JUMP JUMPDEST PUSH2 0x3263 PUSH32 0x8528E3140743A1F221DF0157E60DB8D14EA5A4C3C246DB3F71FD01D7B447A778 PUSH1 0x0 SHL PUSH2 0x5A86 JUMP JUMPDEST PUSH2 0x328F PUSH32 0x8934B53671CFD96C418F66799C6F79D95413EDED8163541151F23630C28555ED PUSH1 0x0 SHL PUSH2 0x5A86 JUMP JUMPDEST PUSH1 0x1 PUSH1 0x7 PUSH1 0x0 PUSH2 0x100 EXP DUP2 SLOAD DUP2 PUSH1 0xFF MUL NOT AND SWAP1 DUP4 ISZERO ISZERO MUL OR SWAP1 SSTORE POP PUSH2 0x32D6 PUSH32 0xAF32D09B8A750AA5921F56534F53F3233F2BD9892A02862D1161A90B58FF4460 PUSH1 0x0 SHL PUSH2 0x5A86 JUMP JUMPDEST PUSH2 0x3302 PUSH32 0xD5DD7F39020D1371ACD4788E3AD2A147834E94A4900B826EFAAA1019A27FE7A7 PUSH1 0x0 SHL PUSH2 0x5A86 JUMP JUMPDEST PUSH32 0x46A78BF7FF8F677AD559C47D73BBD80CC457EAA9E07D76E336D61CAC18FEE98B PUSH1 0x1 PUSH1 0x40 MLOAD PUSH2 0x3332 SWAP2 SWAP1 PUSH2 0x63AD JUMP JUMPDEST PUSH1 0x40 MLOAD DUP1 SWAP2 SUB SWAP1 LOG1 JUMP JUMPDEST PUSH2 0x3368 PUSH32 0xEF43DA0F26AE566A87A4AAA20A03AF758EA04EDE79D9F203B5E48A7745AA773C PUSH1 0x0 SHL PUSH2 0x5A86 JUMP JUMPDEST PUSH2 0x3394 PUSH32 0xEB57AAC3338F386C1C266EDDA3724AA13FD2DEC570BC06C33FB4D0C3339573FE PUSH1 0x0 SHL PUSH2 0x5A86 JUMP JUMPDEST PUSH2 0x33C0 PUSH32 0x42B91E8C973483E4118FC701BE2519D7FC9C161715AF12D6AA735A63E4463CDE PUSH1 0x0 SHL PUSH2 0x5A86 JUMP JUMPDEST PUSH2 0x33EC PUSH32 0xDE7A68B7AE86298389D7C585AA3564B7D5759FEA4C5816DEF1AE78618CC6A89A PUSH1 0x0 SHL PUSH2 0x5A86 JUMP JUMPDEST PUSH1 0x0 DUP1 SLOAD SWAP1 PUSH2 0x100 EXP SWAP1 DIV PUSH20 0xFFFFFFFFFFFFFFFFFFFFFFFFFFFFFFFFFFFFFFFF AND PUSH20 0xFFFFFFFFFFFFFFFFFFFFFFFFFFFFFFFFFFFFFFFF AND CALLER PUSH20 0xFFFFFFFFFFFFFFFFFFFFFFFFFFFFFFFFFFFFFFFF AND EQ PUSH2 0x347A JUMPI PUSH1 0x40 MLOAD PUSH32 0x8C379A000000000000000000000000000000000000000000000000000000000 DUP2 MSTORE PUSH1 0x4 ADD PUSH2 0x3471 SWAP1 PUSH2 0x6438 JUMP JUMPDEST PUSH1 0x40 MLOAD DUP1 SWAP2 SUB SWAP1 REVERT JUMPDEST PUSH2 0x34A6 PUSH32 0x577A0E929DCAA0872C59B226F3852A0F31F735E02B3E8E73C85B60ABC06DF6E5 PUSH1 0x0 SHL PUSH2 0x5A86 JUMP JUMPDEST PUSH2 0x34D2 PUSH32 0x41E92CD776BEDBC688F7A26C9319DEBD60C194E394EE2B3AF0377B6F507A39D8 PUSH1 0x0 SHL PUSH2 0x5A86 JUMP JUMPDEST PUSH2 0x34FE PUSH32 0x6A2DB2451BEA729C665AB016DBA44EC168C092F538FEE964692509C3630A12A7 PUSH1 0x0 SHL PUSH2 0x5A86 JUMP JUMPDEST PUSH2 0x352A PUSH32 0x1B11E30CDB2CC4F74A025CC0D2E30DD09581B0930EB7E311DDEFB3CF2386FA5C PUSH1 0x0 SHL PUSH2 0x5A86 JUMP JUMPDEST PUSH2 0x3556 PUSH32 0x7E39DA682E9FF02C1EE1D6ADD785B5EF228E5D8006771139E19729C757C16BB3 PUSH1 0x0 SHL PUSH2 0x5A86 JUMP JUMPDEST PUSH2 0x3582 PUSH32 0x5437F81A5171C1803CBF9DFF3260F4A0811EBA0FEA2B2389657A015DE286EDB8 PUSH1 0x0 SHL PUSH2 0x5A86 JUMP JUMPDEST PUSH1 0x0 ISZERO ISZERO PUSH1 0x7 PUSH1 0x0 SWAP1 SLOAD SWAP1 PUSH2 0x100 EXP SWAP1 DIV PUSH1 0xFF AND ISZERO ISZERO EQ PUSH2 0x35D8 JUMPI PUSH1 0x40 MLOAD PUSH32 0x8C379A000000000000000000000000000000000000000000000000000000000 DUP2 MSTORE PUSH1 0x4 ADD PUSH2 0x35CF SWAP1 PUSH2 0x63F8 JUMP JUMPDEST PUSH1 0x40 MLOAD DUP1 SWAP2 SUB SWAP1 REVERT JUMPDEST PUSH2 0x3604 PUSH32 0xD1E3539A8BFD4AAE400AE5D8055A5FCCF812096C04B416610BC366A0292AB653 PUSH1 0x0 SHL PUSH2 0x5A86 JUMP JUMPDEST PUSH2 0x3630 PUSH32 0x2E34E692B87AD72EBEB0C14D4AF3A5DE00F361DBAAB7DC659CE508EC3F6B2F7E PUSH1 0x0 SHL PUSH2 0x5A86 JUMP JUMPDEST PUSH2 0x365C PUSH32 0x355BFF74C3366EB8D94BCB27F47A620C68D67058219CF0D6E2499A6C28041D10 PUSH1 0x0 SHL PUSH2 0x5A86 JUMP JUMPDEST PUSH2 0x3688 PUSH32 0x8B690FB5BB88DCB9DA05C323D8DAE5388285ED3F99C4B2171D56EA1109A61F89 PUSH1 0x0 SHL PUSH2 0x5A86 JUMP JUMPDEST PUSH2 0x36B4 PUSH32 0x4DADDA3A06EDD60808C2C0A0E321491CF5714843E9C6CAD5F0861ED49C6F5259 PUSH1 0x0 SHL PUSH2 0x5A86 JUMP JUMPDEST PUSH2 0x36E0 PUSH32 0x5079F4F3723AA4E55BB271F06F4D86450FA703096AEDDD272EB8961F2E51FC76 PUSH1 0x0 SHL PUSH2 0x5A86 JUMP JUMPDEST PUSH1 0x0 DUP2 EQ DUP1 PUSH2 0x36EF JUMPI POP PUSH1 0x1 DUP2 EQ JUMPDEST DUP1 PUSH2 0x36FA JUMPI POP PUSH1 0x2 DUP2 EQ JUMPDEST PUSH2 0x3739 JUMPI PUSH1 0x40 MLOAD PUSH32 0x8C379A000000000000000000000000000000000000000000000000000000000 DUP2 MSTORE PUSH1 0x4 ADD PUSH2 0x3730 SWAP1 PUSH2 0x64B8 JUMP JUMPDEST PUSH1 0x40 MLOAD DUP1 SWAP2 SUB SWAP1 REVERT JUMPDEST PUSH2 0x3765 PUSH32 0x262468A20A065189820398F89B32A8A92D8EF265EA17A91EC7F82515947A3849 PUSH1 0x0 SHL PUSH2 0x5A86 JUMP JUMPDEST PUSH2 0x3791 PUSH32 0x51E5A39A71DB55563F00A23685B76CD09F9256BEC304E2189D0BAFA661AF449C PUSH1 0x0 SHL PUSH2 0x5A86 JUMP JUMPDEST PUSH2 0x37BD PUSH32 0x3DC6BEB8E5CF6662046276F972EAE87FEE23AC0DBFBBAE1657889841256D076E PUSH1 0x0 SHL PUSH2 0x5A86 JUMP JUMPDEST PUSH1 0x0 DUP2 EQ ISZERO PUSH2 0x3A7E JUMPI PUSH2 0x37F2 PUSH32 0x14A99C11D10753B1C59F10E5888F9FE5A295C91DD6EA739D17EB36A63F7C578D PUSH1 0x0 SHL PUSH2 0x5A86 JUMP JUMPDEST PUSH2 0x381E PUSH32 0x54800CD0F671A2012002B0705C466246EE0C4CF49D3595214F1980385782F7D9 PUSH1 0x0 SHL PUSH2 0x5A86 JUMP JUMPDEST PUSH2 0x384A PUSH32 0x1AA4CD53F949D0D4D18D397CE8F9211C61137840A0BF42EA7A7CD4C4D4A7B787 PUSH1 0x0 SHL PUSH2 0x5A86 JUMP JUMPDEST PUSH1 0x0 PUSH1 0x1 PUSH1 0x4 DUP1 SLOAD SWAP1 POP PUSH2 0x385E SWAP2 SWAP1 PUSH2 0x675C JUMP JUMPDEST SWAP1 POP PUSH2 0x388C PUSH32 0x95859A35B02116620A0A7A4B6DFD9B11BF87EE4AF96F5DE9060696B5ACA64F69 PUSH1 0x0 SHL PUSH2 0x5A86 JUMP JUMPDEST PUSH2 0x38B8 PUSH32 0x97E4F145043B4BD7C62BE4A4169DB4D04E11E8222B000CD17D6F2851C8DA7EBC PUSH1 0x0 SHL PUSH2 0x5A86 JUMP JUMPDEST PUSH1 0x4 PUSH1 0x40 MLOAD DUP1 PUSH1 0x80 ADD PUSH1 0x40 MSTORE DUP1 DUP4 DUP2 MSTORE PUSH1 0x20 ADD DUP6 PUSH20 0xFFFFFFFFFFFFFFFFFFFFFFFFFFFFFFFFFFFFFFFF AND DUP2 MSTORE PUSH1 0x20 ADD PUSH1 0x40 MLOAD DUP1 PUSH1 0x40 ADD PUSH1 0x40 MSTORE DUP1 PUSH1 0xB DUP2 MSTORE PUSH1 0x20 ADD PUSH32 0x426F6172644D656D626572000000000000000000000000000000000000000000 DUP2 MSTORE POP DUP2 MSTORE PUSH1 0x20 ADD PUSH1 0x0 ISZERO ISZERO DUP2 MSTORE POP SWAP1 DUP1 PUSH1 0x1 DUP2 SLOAD ADD DUP1 DUP3 SSTORE DUP1 SWAP2 POP POP PUSH1 0x1 SWAP1 SUB SWAP1 PUSH1 0x0 MSTORE PUSH1 0x20 PUSH1 0x0 KECCAK256 SWAP1 PUSH1 0x4 MUL ADD PUSH1 0x0 SWAP1 SWAP2 SWAP1 SWAP2 SWAP1 SWAP2 POP PUSH1 0x0 DUP3 ADD MLOAD DUP2 PUSH1 0x0 ADD SSTORE PUSH1 0x20 DUP3 ADD MLOAD DUP2 PUSH1 0x1 ADD PUSH1 0x0 PUSH2 0x100 EXP DUP2 SLOAD DUP2 PUSH20 0xFFFFFFFFFFFFFFFFFFFFFFFFFFFFFFFFFFFFFFFF MUL NOT AND SWAP1 DUP4 PUSH20 0xFFFFFFFFFFFFFFFFFFFFFFFFFFFFFFFFFFFFFFFF AND MUL OR SWAP1 SSTORE POP PUSH1 0x40 DUP3 ADD MLOAD DUP2 PUSH1 0x2 ADD SWAP1 DUP1 MLOAD SWAP1 PUSH1 0x20 ADD SWAP1 PUSH2 0x39BF SWAP3 SWAP2 SWAP1 PUSH2 0x5A89 JUMP JUMPDEST POP PUSH1 0x60 DUP3 ADD MLOAD DUP2 PUSH1 0x3 ADD PUSH1 0x0 PUSH2 0x100 EXP DUP2 SLOAD DUP2 PUSH1 0xFF MUL NOT AND SWAP1 DUP4 ISZERO ISZERO MUL OR SWAP1 SSTORE POP POP POP PUSH2 0x3A0E PUSH32 0xBC425E72244F3EAC0F8784DF74EB3633A893EFC09B9D108BA67F234CB1BE4E7F PUSH1 0x0 SHL PUSH2 0x5A86 JUMP JUMPDEST PUSH2 0x3A3A PUSH32 0x864F11951D81932DA7232100F9CBA39DBD7FE9BF353062E0D69C59B1554E7BD7 PUSH1 0x0 SHL PUSH2 0x5A86 JUMP JUMPDEST PUSH32 0x6B20EB62F1298CAD3D3FE78B79D9D03ED50788E17184C1C0B61A05291EA520D8 DUP2 DUP5 DUP5 PUSH1 0x0 PUSH1 0x40 MLOAD PUSH2 0x3A70 SWAP5 SWAP4 SWAP3 SWAP2 SWAP1 PUSH2 0x64F3 JUMP JUMPDEST PUSH1 0x40 MLOAD DUP1 SWAP2 SUB SWAP1 LOG1 POP PUSH2 0x40DF JUMP JUMPDEST PUSH2 0x3AAA PUSH32 0xB65CC5E676722A39D37A62C66AB8B3D60C264562AAE78A47644153732E3792DF PUSH1 0x0 SHL PUSH2 0x5A86 JUMP JUMPDEST PUSH2 0x3AD6 PUSH32 0x7BF379B5DED2608B5D1186235EEB89C47CF26530EF3409163A680A8B8DD4F5F7 PUSH1 0x0 SHL PUSH2 0x5A86 JUMP JUMPDEST PUSH1 0x1 DUP2 EQ ISZERO PUSH2 0x3D97 JUMPI PUSH2 0x3B0B PUSH32 0xCCA31473288A03F31207264F4AC9980D7F2736C301A79B89C311BA9238C54EA PUSH1 0x0 SHL PUSH2 0x5A86 JUMP JUMPDEST PUSH2 0x3B37 PUSH32 0x298B77E04762A2D7D320C5566521B4B6FF523D7614A11BEA95426F6214CB2776 PUSH1 0x0 SHL PUSH2 0x5A86 JUMP JUMPDEST PUSH2 0x3B63 PUSH32 0x8834B2BAE2C101C9677F5EA5C710D8E9E2F649C2B60AFD1F7B7BC13989923092 PUSH1 0x0 SHL PUSH2 0x5A86 JUMP JUMPDEST PUSH1 0x0 PUSH1 0x1 PUSH1 0x4 DUP1 SLOAD SWAP1 POP PUSH2 0x3B77 SWAP2 SWAP1 PUSH2 0x675C JUMP JUMPDEST SWAP1 POP PUSH2 0x3BA5 PUSH32 0x771FFED58F4AF75A46CBB4FC241A1A518C90620958982F23E3B920363DD13BEE PUSH1 0x0 SHL PUSH2 0x5A86 JUMP JUMPDEST PUSH2 0x3BD1 PUSH32 0xAEEAC9471082DDBFFA2F40866DD6846E3220A716DE797930A2C7ACA55C22EC61 PUSH1 0x0 SHL PUSH2 0x5A86 JUMP JUMPDEST PUSH1 0x4 PUSH1 0x40 MLOAD DUP1 PUSH1 0x80 ADD PUSH1 0x40 MSTORE DUP1 DUP4 DUP2 MSTORE PUSH1 0x20 ADD DUP6 PUSH20 0xFFFFFFFFFFFFFFFFFFFFFFFFFFFFFFFFFFFFFFFF AND DUP2 MSTORE PUSH1 0x20 ADD PUSH1 0x40 MLOAD DUP1 PUSH1 0x40 ADD PUSH1 0x40 MSTORE DUP1 PUSH1 0x7 DUP2 MSTORE PUSH1 0x20 ADD PUSH32 0x5465616368657200000000000000000000000000000000000000000000000000 DUP2 MSTORE POP DUP2 MSTORE PUSH1 0x20 ADD PUSH1 0x0 ISZERO ISZERO DUP2 MSTORE POP SWAP1 DUP1 PUSH1 0x1 DUP2 SLOAD ADD DUP1 DUP3 SSTORE DUP1 SWAP2 POP POP PUSH1 0x1 SWAP1 SUB SWAP1 PUSH1 0x0 MSTORE PUSH1 0x20 PUSH1 0x0 KECCAK256 SWAP1 PUSH1 0x4 MUL ADD PUSH1 0x0 SWAP1 SWAP2 SWAP1 SWAP2 SWAP1 SWAP2 POP PUSH1 0x0 DUP3 ADD MLOAD DUP2 PUSH1 0x0 ADD SSTORE PUSH1 0x20 DUP3 ADD MLOAD DUP2 PUSH1 0x1 ADD PUSH1 0x0 PUSH2 0x100 EXP DUP2 SLOAD DUP2 PUSH20 0xFFFFFFFFFFFFFFFFFFFFFFFFFFFFFFFFFFFFFFFF MUL NOT AND SWAP1 DUP4 PUSH20 0xFFFFFFFFFFFFFFFFFFFFFFFFFFFFFFFFFFFFFFFF AND MUL OR SWAP1 SSTORE POP PUSH1 0x40 DUP3 ADD MLOAD DUP2 PUSH1 0x2 ADD SWAP1 DUP1 MLOAD SWAP1 PUSH1 0x20 ADD SWAP1 PUSH2 0x3CD8 SWAP3 SWAP2 SWAP1 PUSH2 0x5A89 JUMP JUMPDEST POP PUSH1 0x60 DUP3 ADD MLOAD DUP2 PUSH1 0x3 ADD PUSH1 0x0 PUSH2 0x100 EXP DUP2 SLOAD DUP2 PUSH1 0xFF MUL NOT AND SWAP1 DUP4 ISZERO ISZERO MUL OR SWAP1 SSTORE POP POP POP PUSH2 0x3D27 PUSH32 0xF9726FDB5FABDEB3339F013C4CA32FC2883B7DF9C18E074589A12C3B57312B3A PUSH1 0x0 SHL PUSH2 0x5A86 JUMP JUMPDEST PUSH2 0x3D53 PUSH32 0x2CD3D5360ED1CD63E41CCBC395516FB741CF2C07DCDE2E3795191A5E3602A6A5 PUSH1 0x0 SHL PUSH2 0x5A86 JUMP JUMPDEST PUSH32 0x6B20EB62F1298CAD3D3FE78B79D9D03ED50788E17184C1C0B61A05291EA520D8 DUP2 DUP5 DUP5 PUSH1 0x0 PUSH1 0x40 MLOAD PUSH2 0x3D89 SWAP5 SWAP4 SWAP3 SWAP2 SWAP1 PUSH2 0x64F3 JUMP JUMPDEST PUSH1 0x40 MLOAD DUP1 SWAP2 SUB SWAP1 LOG1 POP PUSH2 0x40DE JUMP JUMPDEST PUSH2 0x3DC3 PUSH32 0xB1EE0B0F5E8A1F05C9B9987847599E88A77CCA52674F23E8EBFCE427A7279BCE PUSH1 0x0 SHL PUSH2 0x5A86 JUMP JUMPDEST PUSH2 0x3DEF PUSH32 0x9C3D967AA4398C9885B385CAFBC87A5FE6BEF0785448F06E4C075059105DDC02 PUSH1 0x0 SHL PUSH2 0x5A86 JUMP JUMPDEST PUSH1 0x2 DUP2 EQ ISZERO PUSH2 0x40B0 JUMPI PUSH2 0x3E24 PUSH32 0x11CEEB3DDD69569E3853ADC651662DB092906423AA31B7F0C48696B1E3172A4F PUSH1 0x0 SHL PUSH2 0x5A86 JUMP JUMPDEST PUSH2 0x3E50 PUSH32 0x96721AF08B6FC4A70AD419EF9207A10FF273B9B63E0AC5CE069573B98200CB25 PUSH1 0x0 SHL PUSH2 0x5A86 JUMP JUMPDEST PUSH2 0x3E7C PUSH32 0x43BEC662A60F2F8BA6D074F081ABFC419A00D9749A550612916F2F84DFB4EE05 PUSH1 0x0 SHL PUSH2 0x5A86 JUMP JUMPDEST PUSH1 0x0 PUSH1 0x1 PUSH1 0x4 DUP1 SLOAD SWAP1 POP PUSH2 0x3E90 SWAP2 SWAP1 PUSH2 0x675C JUMP JUMPDEST SWAP1 POP PUSH2 0x3EBE PUSH32 0x45E714116B74C537878C0A8BD670BB967FFC5621E37559052A2C83ECC3E7C307 PUSH1 0x0 SHL PUSH2 0x5A86 JUMP JUMPDEST PUSH2 0x3EEA PUSH32 0x5D2F86C367ECFC96D5AD8D2B948AE30D98B21B9C16F864B86C03CB13FF645893 PUSH1 0x0 SHL PUSH2 0x5A86 JUMP JUMPDEST PUSH1 0x4 PUSH1 0x40 MLOAD DUP1 PUSH1 0x80 ADD PUSH1 0x40 MSTORE DUP1 DUP4 DUP2 MSTORE PUSH1 0x20 ADD DUP6 PUSH20 0xFFFFFFFFFFFFFFFFFFFFFFFFFFFFFFFFFFFFFFFF AND DUP2 MSTORE PUSH1 0x20 ADD PUSH1 0x40 MLOAD DUP1 PUSH1 0x40 ADD PUSH1 0x40 MSTORE DUP1 PUSH1 0x7 DUP2 MSTORE PUSH1 0x20 ADD PUSH32 0x53747564656E7400000000000000000000000000000000000000000000000000 DUP2 MSTORE POP DUP2 MSTORE PUSH1 0x20 ADD PUSH1 0x0 ISZERO ISZERO DUP2 MSTORE POP SWAP1 DUP1 PUSH1 0x1 DUP2 SLOAD ADD DUP1 DUP3 SSTORE DUP1 SWAP2 POP POP PUSH1 0x1 SWAP1 SUB SWAP1 PUSH1 0x0 MSTORE PUSH1 0x20 PUSH1 0x0 KECCAK256 SWAP1 PUSH1 0x4 MUL ADD PUSH1 0x0 SWAP1 SWAP2 SWAP1 SWAP2 SWAP1 SWAP2 POP PUSH1 0x0 DUP3 ADD MLOAD DUP2 PUSH1 0x0 ADD SSTORE PUSH1 0x20 DUP3 ADD MLOAD DUP2 PUSH1 0x1 ADD PUSH1 0x0 PUSH2 0x100 EXP DUP2 SLOAD DUP2 PUSH20 0xFFFFFFFFFFFFFFFFFFFFFFFFFFFFFFFFFFFFFFFF MUL NOT AND SWAP1 DUP4 PUSH20 0xFFFFFFFFFFFFFFFFFFFFFFFFFFFFFFFFFFFFFFFF AND MUL OR SWAP1 SSTORE POP PUSH1 0x40 DUP3 ADD MLOAD DUP2 PUSH1 0x2 ADD SWAP1 DUP1 MLOAD SWAP1 PUSH1 0x20 ADD SWAP1 PUSH2 0x3FF1 SWAP3 SWAP2 SWAP1 PUSH2 0x5A89 JUMP JUMPDEST POP PUSH1 0x60 DUP3 ADD MLOAD DUP2 PUSH1 0x3 ADD PUSH1 0x0 PUSH2 0x100 EXP DUP2 SLOAD DUP2 PUSH1 0xFF MUL NOT AND SWAP1 DUP4 ISZERO ISZERO MUL OR SWAP1 SSTORE POP POP POP PUSH2 0x4040 PUSH32 0xACFA66427951B0D9EFEDE4247EE6B4B54C182E5F9F8370853FB74E7128E8CE76 PUSH1 0x0 SHL PUSH2 0x5A86 JUMP JUMPDEST PUSH2 0x406C PUSH32 0x57BFBEE038983CB0225BEE6911ECE6BEB6220AF48D180E6F6E5B148D27D15DC4 PUSH1 0x0 SHL PUSH2 0x5A86 JUMP JUMPDEST PUSH32 0x6B20EB62F1298CAD3D3FE78B79D9D03ED50788E17184C1C0B61A05291EA520D8 DUP2 DUP5 DUP5 PUSH1 0x0 PUSH1 0x40 MLOAD PUSH2 0x40A2 SWAP5 SWAP4 SWAP3 SWAP2 SWAP1 PUSH2 0x64F3 JUMP JUMPDEST PUSH1 0x40 MLOAD DUP1 SWAP2 SUB SWAP1 LOG1 POP PUSH2 0x40DD JUMP JUMPDEST PUSH2 0x40DC PUSH32 0x327EFE096B9FDDB0809D95A2444075F5B9E5D8F41CB240D35CC03CA4569F2BBF PUSH1 0x0 SHL PUSH2 0x5A86 JUMP JUMPDEST JUMPDEST JUMPDEST JUMPDEST POP POP JUMP JUMPDEST PUSH2 0x410F PUSH32 0x6A2DB2451BEA729C665AB016DBA44EC168C092F538FEE964692509C3630A12A7 PUSH1 0x0 SHL PUSH2 0x5A86 JUMP JUMPDEST PUSH2 0x413B PUSH32 0x1B11E30CDB2CC4F74A025CC0D2E30DD09581B0930EB7E311DDEFB3CF2386FA5C PUSH1 0x0 SHL PUSH2 0x5A86 JUMP JUMPDEST PUSH2 0x4167 PUSH32 0x7E39DA682E9FF02C1EE1D6ADD785B5EF228E5D8006771139E19729C757C16BB3 PUSH1 0x0 SHL PUSH2 0x5A86 JUMP JUMPDEST PUSH2 0x4193 PUSH32 0x5437F81A5171C1803CBF9DFF3260F4A0811EBA0FEA2B2389657A015DE286EDB8 PUSH1 0x0 SHL PUSH2 0x5A86 JUMP JUMPDEST PUSH1 0x0 ISZERO ISZERO PUSH1 0x7 PUSH1 0x0 SWAP1 SLOAD SWAP1 PUSH2 0x100 EXP SWAP1 DIV PUSH1 0xFF AND ISZERO ISZERO EQ PUSH2 0x41E9 JUMPI PUSH1 0x40 MLOAD PUSH32 0x8C379A000000000000000000000000000000000000000000000000000000000 DUP2 MSTORE PUSH1 0x4 ADD PUSH2 0x41E0 SWAP1 PUSH2 0x63F8 JUMP JUMPDEST PUSH1 0x40 MLOAD DUP1 SWAP2 SUB SWAP1 REVERT JUMPDEST PUSH2 0x4215 PUSH32 0xD1E3539A8BFD4AAE400AE5D8055A5FCCF812096C04B416610BC366A0292AB653 PUSH1 0x0 SHL PUSH2 0x5A86 JUMP JUMPDEST PUSH2 0x4241 PUSH32 0x2E34E692B87AD72EBEB0C14D4AF3A5DE00F361DBAAB7DC659CE508EC3F6B2F7E PUSH1 0x0 SHL PUSH2 0x5A86 JUMP JUMPDEST PUSH2 0x426D PUSH32 0xEF43DA0F26AE566A87A4AAA20A03AF758EA04EDE79D9F203B5E48A7745AA773C PUSH1 0x0 SHL PUSH2 0x5A86 JUMP JUMPDEST PUSH2 0x4299 PUSH32 0xEB57AAC3338F386C1C266EDDA3724AA13FD2DEC570BC06C33FB4D0C3339573FE PUSH1 0x0 SHL PUSH2 0x5A86 JUMP JUMPDEST PUSH2 0x42C5 PUSH32 0x42B91E8C973483E4118FC701BE2519D7FC9C161715AF12D6AA735A63E4463CDE PUSH1 0x0 SHL PUSH2 0x5A86 JUMP JUMPDEST PUSH2 0x42F1 PUSH32 0xDE7A68B7AE86298389D7C585AA3564B7D5759FEA4C5816DEF1AE78618CC6A89A PUSH1 0x0 SHL PUSH2 0x5A86 JUMP JUMPDEST PUSH1 0x0 DUP1 SLOAD SWAP1 PUSH2 0x100 EXP SWAP1 DIV PUSH20 0xFFFFFFFFFFFFFFFFFFFFFFFFFFFFFFFFFFFFFFFF AND PUSH20 0xFFFFFFFFFFFFFFFFFFFFFFFFFFFFFFFFFFFFFFFF AND CALLER PUSH20 0xFFFFFFFFFFFFFFFFFFFFFFFFFFFFFFFFFFFFFFFF AND EQ PUSH2 0x437F JUMPI PUSH1 0x40 MLOAD PUSH32 0x8C379A000000000000000000000000000000000000000000000000000000000 DUP2 MSTORE PUSH1 0x4 ADD PUSH2 0x4376 SWAP1 PUSH2 0x6438 JUMP JUMPDEST PUSH1 0x40 MLOAD DUP1 SWAP2 SUB SWAP1 REVERT JUMPDEST PUSH2 0x43AB PUSH32 0x577A0E929DCAA0872C59B226F3852A0F31F735E02B3E8E73C85B60ABC06DF6E5 PUSH1 0x0 SHL PUSH2 0x5A86 JUMP JUMPDEST PUSH2 0x43D7 PUSH32 0x41E92CD776BEDBC688F7A26C9319DEBD60C194E394EE2B3AF0377B6F507A39D8 PUSH1 0x0 SHL PUSH2 0x5A86 JUMP JUMPDEST PUSH2 0x4403 PUSH32 0x9D51B7328499D944DEE7859DB866FFD5D92C186D8BE3C814DB9E241149E8A550 PUSH1 0x0 SHL PUSH2 0x5A86 JUMP JUMPDEST PUSH2 0x442F PUSH32 0xA0F247DB4A7DB407ACD414B81D0B553F2D27E6DBEC2FD71CE73986FE8A18B234 PUSH1 0x0 SHL PUSH2 0x5A86 JUMP JUMPDEST PUSH2 0x445B PUSH32 0x2828EF4F6EBFE4FA14450F8CE65E67572BA00868F2D3C6F4252EC75E7ACD1A0 PUSH1 0x0 SHL PUSH2 0x5A86 JUMP JUMPDEST PUSH1 0x0 PUSH1 0x5 PUSH1 0x0 PUSH2 0x100 EXP DUP2 SLOAD DUP2 PUSH1 0xFF MUL NOT AND SWAP1 DUP4 ISZERO ISZERO MUL OR SWAP1 SSTORE POP PUSH2 0x44A2 PUSH32 0x72A04522DA475A86044297CDD457C8A7A9D42162C361065398AB376853398854 PUSH1 0x0 SHL PUSH2 0x5A86 JUMP JUMPDEST PUSH2 0x44CE PUSH32 0x64E474C2489BFE0AE1340B8961AB6CF7DEB40C41548214ADBE05C0F5D8C379C5 PUSH1 0x0 SHL PUSH2 0x5A86 JUMP JUMPDEST PUSH32 0xD3DC25B085205A3D69D2D144A9F0A0767B54BE27B041BCBDB5308A676C1F3937 PUSH1 0x0 PUSH1 0x40 MLOAD PUSH2 0x44FE SWAP2 SWAP1 PUSH2 0x63AD JUMP JUMPDEST PUSH1 0x40 MLOAD DUP1 SWAP2 SUB SWAP1 LOG1 JUMP JUMPDEST PUSH2 0x4534 PUSH32 0x78ABAE2589ED62B24BC5B882058A6960E361110C35A60CACF35EE087FFCBC6B5 PUSH1 0x0 SHL PUSH2 0x5A86 JUMP JUMPDEST PUSH2 0x4560 PUSH32 0xE9E5FFE8AE06C4586EBD5D5285A6EDE0E1BE3A794A7150C96CE9C2C7C847F080 PUSH1 0x0 SHL PUSH2 0x5A86 JUMP JUMPDEST PUSH2 0x458C PUSH32 0xC96636AA72EFA6AA4D551142B67700C1B6FE4F3355A2D9C517167A1EB97446CF PUSH1 0x0 SHL PUSH2 0x5A86 JUMP JUMPDEST PUSH2 0x45B8 PUSH32 0xC391BF0BFFDA6D52AF6BB9FB59471AF917B63B86BFA3FA1D39CBA9BE7626285E PUSH1 0x0 SHL PUSH2 0x5A86 JUMP JUMPDEST PUSH1 0x1 ISZERO ISZERO PUSH1 0x5 PUSH1 0x0 SWAP1 SLOAD SWAP1 PUSH2 0x100 EXP SWAP1 DIV PUSH1 0xFF AND ISZERO ISZERO EQ PUSH2 0x45D8 JUMPI PUSH1 0x0 DUP1 REVERT JUMPDEST PUSH2 0x4604 PUSH32 0x3AE9FE378C81234CC4CD6FCC032C5981686646618A14573CBABB3D7A63E3A8CD PUSH1 0x0 SHL PUSH2 0x5A86 JUMP JUMPDEST PUSH2 0x4630 PUSH32 0x72F26E288D4C1928CCD040B451E85864AAD7ED424C9B3D0701F5A1CC2ED3F910 PUSH1 0x0 SHL PUSH2 0x5A86 JUMP JUMPDEST PUSH2 0x465C PUSH32 0x6A2DB2451BEA729C665AB016DBA44EC168C092F538FEE964692509C3630A12A7 PUSH1 0x0 SHL PUSH2 0x5A86 JUMP JUMPDEST PUSH2 0x4688 PUSH32 0x1B11E30CDB2CC4F74A025CC0D2E30DD09581B0930EB7E311DDEFB3CF2386FA5C PUSH1 0x0 SHL PUSH2 0x5A86 JUMP JUMPDEST PUSH2 0x46B4 PUSH32 0x7E39DA682E9FF02C1EE1D6ADD785B5EF228E5D8006771139E19729C757C16BB3 PUSH1 0x0 SHL PUSH2 0x5A86 JUMP JUMPDEST PUSH2 0x46E0 PUSH32 0x5437F81A5171C1803CBF9DFF3260F4A0811EBA0FEA2B2389657A015DE286EDB8 PUSH1 0x0 SHL PUSH2 0x5A86 JUMP JUMPDEST PUSH1 0x0 ISZERO ISZERO PUSH1 0x7 PUSH1 0x0 SWAP1 SLOAD SWAP1 PUSH2 0x100 EXP SWAP1 DIV PUSH1 0xFF AND ISZERO ISZERO EQ PUSH2 0x4736 JUMPI PUSH1 0x40 MLOAD PUSH32 0x8C379A000000000000000000000000000000000000000000000000000000000 DUP2 MSTORE PUSH1 0x4 ADD PUSH2 0x472D SWAP1 PUSH2 0x63F8 JUMP JUMPDEST PUSH1 0x40 MLOAD DUP1 SWAP2 SUB SWAP1 REVERT JUMPDEST PUSH2 0x4762 PUSH32 0xD1E3539A8BFD4AAE400AE5D8055A5FCCF812096C04B416610BC366A0292AB653 PUSH1 0x0 SHL PUSH2 0x5A86 JUMP JUMPDEST PUSH2 0x478E PUSH32 0x2E34E692B87AD72EBEB0C14D4AF3A5DE00F361DBAAB7DC659CE508EC3F6B2F7E PUSH1 0x0 SHL PUSH2 0x5A86 JUMP JUMPDEST PUSH2 0x47BA PUSH32 0x33E91C77643C44379C9E8A6B878504BF37AE1AB52270E444CAA1F7136D9FD299 PUSH1 0x0 SHL PUSH2 0x5A86 JUMP JUMPDEST PUSH2 0x47E6 PUSH32 0x9788F24291C3C1813CFD02F9406AC39A5CDE353B1DAA8D8741FBA6D0F542FF81 PUSH1 0x0 SHL PUSH2 0x5A86 JUMP JUMPDEST PUSH2 0x4812 PUSH32 0xBB606F1505DD49F830A81A0499CFB64828BB0434A4E47C69BDF34ED7CC6E60BF PUSH1 0x0 SHL PUSH2 0x5A86 JUMP JUMPDEST PUSH2 0x483E PUSH32 0x1F9676E906D3FE6EB21ABC126E8606E21BFA6FEA7C060A061445028BF01AFBD7 PUSH1 0x0 SHL PUSH2 0x5A86 JUMP JUMPDEST PUSH1 0x0 ISZERO ISZERO PUSH1 0x5 PUSH1 0x2 SWAP1 SLOAD SWAP1 PUSH2 0x100 EXP SWAP1 DIV PUSH1 0xFF AND ISZERO ISZERO EQ PUSH2 0x4894 JUMPI PUSH1 0x40 MLOAD PUSH32 0x8C379A000000000000000000000000000000000000000000000000000000000 DUP2 MSTORE PUSH1 0x4 ADD PUSH2 0x488B SWAP1 PUSH2 0x6418 JUMP JUMPDEST PUSH1 0x40 MLOAD DUP1 SWAP2 SUB SWAP1 REVERT JUMPDEST PUSH2 0x48C0 PUSH32 0xBAC16CF32FE761DCC6CF51DA1F5465412FAC92D3B4A48870C4F39D64F3388CB6 PUSH1 0x0 SHL PUSH2 0x5A86 JUMP JUMPDEST PUSH2 0x48EC PUSH32 0xCCABE23BB0401BE4BA2A22CCE0EE72D2AB64D1CCBB3452CC8B8CD2BCA30D1C07 PUSH1 0x0 SHL PUSH2 0x5A86 JUMP JUMPDEST PUSH2 0x4918 PUSH32 0x3D21E327E700131CA766557F261B10EBBE20E531732E40EC65A19DB5F73A795A PUSH1 0x0 SHL PUSH2 0x5A86 JUMP JUMPDEST PUSH2 0x4944 PUSH32 0x3AD50AFFEC7FF02D51F2DCF5D800DAE108D4C9376CD9DF6E0C8BA193E8AFB7B2 PUSH1 0x0 SHL PUSH2 0x5A86 JUMP JUMPDEST PUSH1 0x0 ISZERO ISZERO PUSH1 0x4 PUSH1 0x1 DUP4 PUSH2 0x4957 SWAP2 SWAP1 PUSH2 0x67B2 JUMP JUMPDEST DUP2 SLOAD DUP2 LT PUSH2 0x498E JUMPI PUSH32 0x4E487B7100000000000000000000000000000000000000000000000000000000 PUSH1 0x0 MSTORE PUSH1 0x32 PUSH1 0x4 MSTORE PUSH1 0x24 PUSH1 0x0 REVERT JUMPDEST SWAP1 PUSH1 0x0 MSTORE PUSH1 0x20 PUSH1 0x0 KECCAK256 SWAP1 PUSH1 0x4 MUL ADD PUSH1 0x3 ADD PUSH1 0x0 SWAP1 SLOAD SWAP1 PUSH2 0x100 EXP SWAP1 DIV PUSH1 0xFF AND ISZERO ISZERO EQ PUSH2 0x49EF JUMPI PUSH1 0x40 MLOAD PUSH32 0x8C379A000000000000000000000000000000000000000000000000000000000 DUP2 MSTORE PUSH1 0x4 ADD PUSH2 0x49E6 SWAP1 PUSH2 0x6498 JUMP JUMPDEST PUSH1 0x40 MLOAD DUP1 SWAP2 SUB SWAP1 REVERT JUMPDEST PUSH2 0x4A1B PUSH32 0xF7B72BEDAAEE2E8D0981DA6A627DA68B71425743E935E1EA9D023E14B5AFAEC4 PUSH1 0x0 SHL PUSH2 0x5A86 JUMP JUMPDEST PUSH2 0x4A47 PUSH32 0xD2F73A98B6328C1338F1DC33C1550BD40116017039A1D3BA01C237562F4F0554 PUSH1 0x0 SHL PUSH2 0x5A86 JUMP JUMPDEST PUSH2 0x4A73 PUSH32 0x78093B8959D2F4F414BF0D2F3CCDB9E4F4412A4086803CFA8BDD8A97F7F96FB1 PUSH1 0x0 SHL PUSH2 0x5A86 JUMP JUMPDEST PUSH1 0x1 PUSH1 0x4 PUSH1 0x1 DUP4 PUSH2 0x4A84 SWAP2 SWAP1 PUSH2 0x67B2 JUMP JUMPDEST DUP2 SLOAD DUP2 LT PUSH2 0x4ABB JUMPI PUSH32 0x4E487B7100000000000000000000000000000000000000000000000000000000 PUSH1 0x0 MSTORE PUSH1 0x32 PUSH1 0x4 MSTORE PUSH1 0x24 PUSH1 0x0 REVERT JUMPDEST SWAP1 PUSH1 0x0 MSTORE PUSH1 0x20 PUSH1 0x0 KECCAK256 SWAP1 PUSH1 0x4 MUL ADD PUSH1 0x3 ADD PUSH1 0x0 PUSH2 0x100 EXP DUP2 SLOAD DUP2 PUSH1 0xFF MUL NOT AND SWAP1 DUP4 ISZERO ISZERO MUL OR SWAP1 SSTORE POP PUSH2 0x4B0F PUSH32 0xA6A3D9A64888B31D55DFDB00315BEDD2A7F3E8CAF90C9FEF3FD580150C118B5D PUSH1 0x0 SHL PUSH2 0x5A86 JUMP JUMPDEST PUSH2 0x4B3B PUSH32 0x242FEF9BBC8934DEED3C034F83F87F933706D48B180CE6CF4BBF885ECDCACBE1 PUSH1 0x0 SHL PUSH2 0x5A86 JUMP JUMPDEST PUSH1 0x0 PUSH1 0x1 PUSH1 0x2 DUP1 SLOAD SWAP1 POP PUSH2 0x4B4F SWAP2 SWAP1 PUSH2 0x675C JUMP JUMPDEST SWAP1 POP PUSH2 0x4B7D PUSH32 0xF81A7D89AB0D3BDD61C04AEE523C1A55F27787BDD8403A6AC94A2FA83E035FD2 PUSH1 0x0 SHL PUSH2 0x5A86 JUMP JUMPDEST PUSH2 0x4BA9 PUSH32 0x3C7A5EB979172B40D9D8ED349A240451CA8160C77FD3A00D40E040CBBF9DE0EB PUSH1 0x0 SHL PUSH2 0x5A86 JUMP JUMPDEST PUSH1 0x2 PUSH1 0x40 MLOAD DUP1 PUSH1 0x40 ADD PUSH1 0x40 MSTORE DUP1 DUP4 DUP2 MSTORE PUSH1 0x20 ADD DUP6 DUP2 MSTORE POP SWAP1 DUP1 PUSH1 0x1 DUP2 SLOAD ADD DUP1 DUP3 SSTORE DUP1 SWAP2 POP POP PUSH1 0x1 SWAP1 SUB SWAP1 PUSH1 0x0 MSTORE PUSH1 0x20 PUSH1 0x0 KECCAK256 SWAP1 PUSH1 0x2 MUL ADD PUSH1 0x0 SWAP1 SWAP2 SWAP1 SWAP2 SWAP1 SWAP2 POP PUSH1 0x0 DUP3 ADD MLOAD DUP2 PUSH1 0x0 ADD SSTORE PUSH1 0x20 DUP3 ADD MLOAD DUP2 PUSH1 0x1 ADD SSTORE POP POP PUSH2 0x4C2B PUSH32 0x9E2D65B909ABFCCA3D1C4C6DADCECBDF5DDB6A42FC72218A009C88A297761EDA PUSH1 0x0 SHL PUSH2 0x5A86 JUMP JUMPDEST PUSH1 0x3 PUSH1 0x1 DUP5 PUSH2 0x4C3A SWAP2 SWAP1 PUSH2 0x67B2 JUMP JUMPDEST DUP2 SLOAD DUP2 LT PUSH2 0x4C71 JUMPI PUSH32 0x4E487B7100000000000000000000000000000000000000000000000000000000 PUSH1 0x0 MSTORE PUSH1 0x32 PUSH1 0x4 MSTORE PUSH1 0x24 PUSH1 0x0 REVERT JUMPDEST SWAP1 PUSH1 0x0 MSTORE PUSH1 0x20 PUSH1 0x0 KECCAK256 SWAP1 PUSH1 0x4 MUL ADD PUSH1 0x2 ADD PUSH1 0x0 DUP2 SLOAD DUP1 SWAP3 SWAP2 SWAP1 PUSH2 0x4C93 SWAP1 PUSH2 0x68B4 JUMP JUMPDEST SWAP2 SWAP1 POP SSTORE POP PUSH2 0x4CC4 PUSH32 0x97E35560F66015E8661F8F3C796D07C21415E11ACFE3F9F9B914E5E7253A3257 PUSH1 0x0 SHL PUSH2 0x5A86 JUMP JUMPDEST PUSH2 0x4CF0 PUSH32 0xAA3258CDA0A01CF0C4F984CA79800C19D80B5AEE52A01FBBF1E1D261714B41DB PUSH1 0x0 SHL PUSH2 0x5A86 JUMP JUMPDEST PUSH32 0x3894CCA7F62969F5F8326AAD1950B0CD936EB3C2B8E957265C4918D185A1F68F PUSH1 0x3 PUSH1 0x1 DUP6 PUSH2 0x4D20 SWAP2 SWAP1 PUSH2 0x67B2 JUMP JUMPDEST DUP2 SLOAD DUP2 LT PUSH2 0x4D57 JUMPI PUSH32 0x4E487B7100000000000000000000000000000000000000000000000000000000 PUSH1 0x0 MSTORE PUSH1 0x32 PUSH1 0x4 MSTORE PUSH1 0x24 PUSH1 0x0 REVERT JUMPDEST SWAP1 PUSH1 0x0 MSTORE PUSH1 0x20 PUSH1 0x0 KECCAK256 SWAP1 PUSH1 0x4 MUL ADD PUSH1 0x1 ADD DUP4 PUSH1 0x40 MLOAD PUSH2 0x4D77 SWAP3 SWAP2 SWAP1 PUSH2 0x63C8 JUMP JUMPDEST PUSH1 0x40 MLOAD DUP1 SWAP2 SUB SWAP1 LOG1 POP POP POP JUMP JUMPDEST PUSH1 0x6 SLOAD DUP2 JUMP JUMPDEST PUSH1 0x60 PUSH2 0x4DB8 PUSH32 0x6A2DB2451BEA729C665AB016DBA44EC168C092F538FEE964692509C3630A12A7 PUSH1 0x0 SHL PUSH2 0x5A86 JUMP JUMPDEST PUSH2 0x4DE4 PUSH32 0x1B11E30CDB2CC4F74A025CC0D2E30DD09581B0930EB7E311DDEFB3CF2386FA5C PUSH1 0x0 SHL PUSH2 0x5A86 JUMP JUMPDEST PUSH2 0x4E10 PUSH32 0x7E39DA682E9FF02C1EE1D6ADD785B5EF228E5D8006771139E19729C757C16BB3 PUSH1 0x0 SHL PUSH2 0x5A86 JUMP JUMPDEST PUSH2 0x4E3C PUSH32 0x5437F81A5171C1803CBF9DFF3260F4A0811EBA0FEA2B2389657A015DE286EDB8 PUSH1 0x0 SHL PUSH2 0x5A86 JUMP JUMPDEST PUSH1 0x0 ISZERO ISZERO PUSH1 0x7 PUSH1 0x0 SWAP1 SLOAD SWAP1 PUSH2 0x100 EXP SWAP1 DIV PUSH1 0xFF AND ISZERO ISZERO EQ PUSH2 0x4E92 JUMPI PUSH1 0x40 MLOAD PUSH32 0x8C379A000000000000000000000000000000000000000000000000000000000 DUP2 MSTORE PUSH1 0x4 ADD PUSH2 0x4E89 SWAP1 PUSH2 0x63F8 JUMP JUMPDEST PUSH1 0x40 MLOAD DUP1 SWAP2 SUB SWAP1 REVERT JUMPDEST PUSH2 0x4EBE PUSH32 0xD1E3539A8BFD4AAE400AE5D8055A5FCCF812096C04B416610BC366A0292AB653 PUSH1 0x0 SHL PUSH2 0x5A86 JUMP JUMPDEST PUSH2 0x4EEA PUSH32 0x2E34E692B87AD72EBEB0C14D4AF3A5DE00F361DBAAB7DC659CE508EC3F6B2F7E PUSH1 0x0 SHL PUSH2 0x5A86 JUMP JUMPDEST PUSH2 0x4F16 PUSH32 0x7217E6C3859B883505B9B02778494C35D2CC680AE6E8C050F9728B599C80D3CA PUSH1 0x0 SHL PUSH2 0x5A86 JUMP JUMPDEST PUSH2 0x4F42 PUSH32 0x2701327E6344864E75F84BBC53AA9EEC6DD084E6D6242E5B3917F60768BEA2A9 PUSH1 0x0 SHL PUSH2 0x5A86 JUMP JUMPDEST PUSH2 0x4F6E PUSH32 0x9B2D105F4E33975DDB688A9AB7EB7779B71208A8F810B5F476F1834DB04F53C4 PUSH1 0x0 SHL PUSH2 0x5A86 JUMP JUMPDEST PUSH1 0x3 DUP1 SLOAD DUP1 PUSH1 0x20 MUL PUSH1 0x20 ADD PUSH1 0x40 MLOAD SWAP1 DUP2 ADD PUSH1 0x40 MSTORE DUP1 SWAP3 SWAP2 SWAP1 DUP2 DUP2 MSTORE PUSH1 0x20 ADD PUSH1 0x0 SWAP1 JUMPDEST DUP3 DUP3 LT ISZERO PUSH2 0x5083 JUMPI DUP4 DUP3 SWAP1 PUSH1 0x0 MSTORE PUSH1 0x20 PUSH1 0x0 KECCAK256 SWAP1 PUSH1 0x4 MUL ADD PUSH1 0x40 MLOAD DUP1 PUSH1 0x80 ADD PUSH1 0x40 MSTORE SWAP1 DUP2 PUSH1 0x0 DUP3 ADD SLOAD DUP2 MSTORE PUSH1 0x20 ADD PUSH1 0x1 DUP3 ADD DUP1 SLOAD PUSH2 0x4FCD SWAP1 PUSH2 0x6882 JUMP JUMPDEST DUP1 PUSH1 0x1F ADD PUSH1 0x20 DUP1 SWAP2 DIV MUL PUSH1 0x20 ADD PUSH1 0x40 MLOAD SWAP1 DUP2 ADD PUSH1 0x40 MSTORE DUP1 SWAP3 SWAP2 SWAP1 DUP2 DUP2 MSTORE PUSH1 0x20 ADD DUP3 DUP1 SLOAD PUSH2 0x4FF9 SWAP1 PUSH2 0x6882 JUMP JUMPDEST DUP1 ISZERO PUSH2 0x5046 JUMPI DUP1 PUSH1 0x1F LT PUSH2 0x501B JUMPI PUSH2 0x100 DUP1 DUP4 SLOAD DIV MUL DUP4 MSTORE SWAP2 PUSH1 0x20 ADD SWAP2 PUSH2 0x5046 JUMP JUMPDEST DUP3 ADD SWAP2 SWAP1 PUSH1 0x0 MSTORE PUSH1 0x20 PUSH1 0x0 KECCAK256 SWAP1 JUMPDEST DUP2 SLOAD DUP2 MSTORE SWAP1 PUSH1 0x1 ADD SWAP1 PUSH1 0x20 ADD DUP1 DUP4 GT PUSH2 0x5029 JUMPI DUP3 SWAP1 SUB PUSH1 0x1F AND DUP3 ADD SWAP2 JUMPDEST POP POP POP POP POP DUP2 MSTORE PUSH1 0x20 ADD PUSH1 0x2 DUP3 ADD SLOAD DUP2 MSTORE PUSH1 0x20 ADD PUSH1 0x3 DUP3 ADD PUSH1 0x0 SWAP1 SLOAD SWAP1 PUSH2 0x100 EXP SWAP1 DIV PUSH1 0xFF AND ISZERO ISZERO ISZERO ISZERO DUP2 MSTORE POP POP DUP2 MSTORE PUSH1 0x20 ADD SWAP1 PUSH1 0x1 ADD SWAP1 PUSH2 0x4F90 JUMP JUMPDEST POP POP POP POP SWAP1 POP SWAP1 JUMP JUMPDEST PUSH1 0x0 PUSH2 0x50BA PUSH32 0x6A2DB2451BEA729C665AB016DBA44EC168C092F538FEE964692509C3630A12A7 PUSH1 0x0 SHL PUSH2 0x5A86 JUMP JUMPDEST PUSH2 0x50E6 PUSH32 0x1B11E30CDB2CC4F74A025CC0D2E30DD09581B0930EB7E311DDEFB3CF2386FA5C PUSH1 0x0 SHL PUSH2 0x5A86 JUMP JUMPDEST PUSH2 0x5112 PUSH32 0x7E39DA682E9FF02C1EE1D6ADD785B5EF228E5D8006771139E19729C757C16BB3 PUSH1 0x0 SHL PUSH2 0x5A86 JUMP JUMPDEST PUSH2 0x513E PUSH32 0x5437F81A5171C1803CBF9DFF3260F4A0811EBA0FEA2B2389657A015DE286EDB8 PUSH1 0x0 SHL PUSH2 0x5A86 JUMP JUMPDEST PUSH1 0x0 ISZERO ISZERO PUSH1 0x7 PUSH1 0x0 SWAP1 SLOAD SWAP1 PUSH2 0x100 EXP SWAP1 DIV PUSH1 0xFF AND ISZERO ISZERO EQ PUSH2 0x5194 JUMPI PUSH1 0x40 MLOAD PUSH32 0x8C379A000000000000000000000000000000000000000000000000000000000 DUP2 MSTORE PUSH1 0x4 ADD PUSH2 0x518B SWAP1 PUSH2 0x63F8 JUMP JUMPDEST PUSH1 0x40 MLOAD DUP1 SWAP2 SUB SWAP1 REVERT JUMPDEST PUSH2 0x51C0 PUSH32 0xD1E3539A8BFD4AAE400AE5D8055A5FCCF812096C04B416610BC366A0292AB653 PUSH1 0x0 SHL PUSH2 0x5A86 JUMP JUMPDEST PUSH2 0x51EC PUSH32 0x2E34E692B87AD72EBEB0C14D4AF3A5DE00F361DBAAB7DC659CE508EC3F6B2F7E PUSH1 0x0 SHL PUSH2 0x5A86 JUMP JUMPDEST PUSH2 0x5218 PUSH32 0x2821E01A5C932ECEF3CBE4719A1C736048F5320DCEEA6A5774B4FEDBAE9425B5 PUSH1 0x0 SHL PUSH2 0x5A86 JUMP JUMPDEST PUSH2 0x5244 PUSH32 0xB2CBCCDDD1BD7406E67F6C6DC01C4975CBB965707F05538366D7B0DE734BB9AE PUSH1 0x0 SHL PUSH2 0x5A86 JUMP JUMPDEST PUSH2 0x5270 PUSH32 0xFDD43DF2956E69A94D534AAC3448F77F1A666891D31F5A8CE3434985BCF56AA6 PUSH1 0x0 SHL PUSH2 0x5A86 JUMP JUMPDEST PUSH1 0x5 PUSH1 0x2 SWAP1 SLOAD SWAP1 PUSH2 0x100 EXP SWAP1 DIV PUSH1 0xFF AND SWAP1 POP SWAP1 JUMP JUMPDEST PUSH2 0x52B1 PUSH32 0x6A2DB2451BEA729C665AB016DBA44EC168C092F538FEE964692509C3630A12A7 PUSH1 0x0 SHL PUSH2 0x5A86 JUMP JUMPDEST PUSH2 0x52DD PUSH32 0x1B11E30CDB2CC4F74A025CC0D2E30DD09581B0930EB7E311DDEFB3CF2386FA5C PUSH1 0x0 SHL PUSH2 0x5A86 JUMP JUMPDEST PUSH2 0x5309 PUSH32 0x7E39DA682E9FF02C1EE1D6ADD785B5EF228E5D8006771139E19729C757C16BB3 PUSH1 0x0 SHL PUSH2 0x5A86 JUMP JUMPDEST PUSH2 0x5335 PUSH32 0x5437F81A5171C1803CBF9DFF3260F4A0811EBA0FEA2B2389657A015DE286EDB8 PUSH1 0x0 SHL PUSH2 0x5A86 JUMP JUMPDEST PUSH1 0x0 ISZERO ISZERO PUSH1 0x7 PUSH1 0x0 SWAP1 SLOAD SWAP1 PUSH2 0x100 EXP SWAP1 DIV PUSH1 0xFF AND ISZERO ISZERO EQ PUSH2 0x538B JUMPI PUSH1 0x40 MLOAD PUSH32 0x8C379A000000000000000000000000000000000000000000000000000000000 DUP2 MSTORE PUSH1 0x4 ADD PUSH2 0x5382 SWAP1 PUSH2 0x63F8 JUMP JUMPDEST PUSH1 0x40 MLOAD DUP1 SWAP2 SUB SWAP1 REVERT JUMPDEST PUSH2 0x53B7 PUSH32 0xD1E3539A8BFD4AAE400AE5D8055A5FCCF812096C04B416610BC366A0292AB653 PUSH1 0x0 SHL PUSH2 0x5A86 JUMP JUMPDEST PUSH2 0x53E3 PUSH32 0x2E34E692B87AD72EBEB0C14D4AF3A5DE00F361DBAAB7DC659CE508EC3F6B2F7E PUSH1 0x0 SHL PUSH2 0x5A86 JUMP JUMPDEST PUSH2 0x540F PUSH32 0x4878130BA92287A058BD7FC1D8817597F9A6BEECE4422A4DABA62D75CF6E2AEB PUSH1 0x0 SHL PUSH2 0x5A86 JUMP JUMPDEST PUSH2 0x543B PUSH32 0x42F997F384294EAFCCF6EF117A0435EDAA12B05DE6600155A65BEE1260BCEFFD PUSH1 0x0 SHL PUSH2 0x5A86 JUMP JUMPDEST PUSH2 0x5467 PUSH32 0x287A305594E469F7880E6E0AA4BB31DF7F1E9E7277259206F7618A77C04FE9AB PUSH1 0x0 SHL PUSH2 0x5A86 JUMP JUMPDEST PUSH1 0x0 PUSH1 0x1 PUSH1 0x3 DUP1 SLOAD SWAP1 POP PUSH2 0x547B SWAP2 SWAP1 PUSH2 0x675C JUMP JUMPDEST SWAP1 POP PUSH2 0x54A9 PUSH32 0x92366508A8B0084AB68A5DBEF981F89D769D8DAD22D8B7ABFE84C562C2406502 PUSH1 0x0 SHL PUSH2 0x5A86 JUMP JUMPDEST PUSH2 0x54D5 PUSH32 0x7DF029BA62ACEF9D6954F71C790C83D4FEB1C558DC4DB8AF3C2831EBA8F05E50 PUSH1 0x0 SHL PUSH2 0x5A86 JUMP JUMPDEST PUSH1 0x3 PUSH1 0x40 MLOAD DUP1 PUSH1 0x80 ADD PUSH1 0x40 MSTORE DUP1 DUP4 DUP2 MSTORE PUSH1 0x20 ADD DUP5 DUP2 MSTORE PUSH1 0x20 ADD PUSH1 0x0 DUP2 MSTORE PUSH1 0x20 ADD PUSH1 0x0 ISZERO ISZERO DUP2 MSTORE POP SWAP1 DUP1 PUSH1 0x1 DUP2 SLOAD ADD DUP1 DUP3 SSTORE DUP1 SWAP2 POP POP PUSH1 0x1 SWAP1 SUB SWAP1 PUSH1 0x0 MSTORE PUSH1 0x20 PUSH1 0x0 KECCAK256 SWAP1 PUSH1 0x4 MUL ADD PUSH1 0x0 SWAP1 SWAP2 SWAP1 SWAP2 SWAP1 SWAP2 POP PUSH1 0x0 DUP3 ADD MLOAD DUP2 PUSH1 0x0 ADD SSTORE PUSH1 0x20 DUP3 ADD MLOAD DUP2 PUSH1 0x1 ADD SWAP1 DUP1 MLOAD SWAP1 PUSH1 0x20 ADD SWAP1 PUSH2 0x554B SWAP3 SWAP2 SWAP1 PUSH2 0x5A89 JUMP JUMPDEST POP PUSH1 0x40 DUP3 ADD MLOAD DUP2 PUSH1 0x2 ADD SSTORE PUSH1 0x60 DUP3 ADD MLOAD DUP2 PUSH1 0x3 ADD PUSH1 0x0 PUSH2 0x100 EXP DUP2 SLOAD DUP2 PUSH1 0xFF MUL NOT AND SWAP1 DUP4 ISZERO ISZERO MUL OR SWAP1 SSTORE POP POP POP PUSH2 0x55A4 PUSH32 0xAE491AD1AE48AB4A285B6A0FFBCE5A89F9DA7824B2AA7A0759123EC5F1BD2AD4 PUSH1 0x0 SHL PUSH2 0x5A86 JUMP JUMPDEST PUSH2 0x55D0 PUSH32 0x5B34DA52C638F96DC0BDC15E44080B1B84E6F4CAC19B705A3D90D6D530B615C9 PUSH1 0x0 SHL PUSH2 0x5A86 JUMP JUMPDEST PUSH32 0x1D58EBD61D2B8DDD2F0EC09260E573E2048929D40687FB178F27634264A83716 DUP2 DUP4 PUSH1 0x0 DUP1 PUSH1 0x40 MLOAD PUSH2 0x5606 SWAP5 SWAP4 SWAP3 SWAP2 SWAP1 PUSH2 0x6538 JUMP JUMPDEST PUSH1 0x40 MLOAD DUP1 SWAP2 SUB SWAP1 LOG1 POP POP JUMP JUMPDEST PUSH1 0x0 PUSH2 0x5640 PUSH32 0x6A2DB2451BEA729C665AB016DBA44EC168C092F538FEE964692509C3630A12A7 PUSH1 0x0 SHL PUSH2 0x5A86 JUMP JUMPDEST PUSH2 0x566C PUSH32 0x1B11E30CDB2CC4F74A025CC0D2E30DD09581B0930EB7E311DDEFB3CF2386FA5C PUSH1 0x0 SHL PUSH2 0x5A86 JUMP JUMPDEST PUSH2 0x5698 PUSH32 0x7E39DA682E9FF02C1EE1D6ADD785B5EF228E5D8006771139E19729C757C16BB3 PUSH1 0x0 SHL PUSH2 0x5A86 JUMP JUMPDEST PUSH2 0x56C4 PUSH32 0x5437F81A5171C1803CBF9DFF3260F4A0811EBA0FEA2B2389657A015DE286EDB8 PUSH1 0x0 SHL PUSH2 0x5A86 JUMP JUMPDEST PUSH1 0x0 ISZERO ISZERO PUSH1 0x7 PUSH1 0x0 SWAP1 SLOAD SWAP1 PUSH2 0x100 EXP SWAP1 DIV PUSH1 0xFF AND ISZERO ISZERO EQ PUSH2 0x571A JUMPI PUSH1 0x40 MLOAD PUSH32 0x8C379A000000000000000000000000000000000000000000000000000000000 DUP2 MSTORE PUSH1 0x4 ADD PUSH2 0x5711 SWAP1 PUSH2 0x63F8 JUMP JUMPDEST PUSH1 0x40 MLOAD DUP1 SWAP2 SUB SWAP1 REVERT JUMPDEST PUSH2 0x5746 PUSH32 0xD1E3539A8BFD4AAE400AE5D8055A5FCCF812096C04B416610BC366A0292AB653 PUSH1 0x0 SHL PUSH2 0x5A86 JUMP JUMPDEST PUSH2 0x5772 PUSH32 0x2E34E692B87AD72EBEB0C14D4AF3A5DE00F361DBAAB7DC659CE508EC3F6B2F7E PUSH1 0x0 SHL PUSH2 0x5A86 JUMP JUMPDEST PUSH2 0x579E PUSH32 0x344DA0AFD607C87A2EDA4CB92C97683EC1BC5DD147B39C53A78B569067310ACC PUSH1 0x0 SHL PUSH2 0x5A86 JUMP JUMPDEST PUSH2 0x57CA PUSH32 0xC3F4BC849533D07991D89CF034B39CDCC0BDE712F3EEB30479BCD0541D623BB8 PUSH1 0x0 SHL PUSH2 0x5A86 JUMP JUMPDEST PUSH2 0x57F6 PUSH32 0xC4FD93E4623E2C289E95E03D4FCF16B71D8756EA22CC906A5C41A1273FE05DBD PUSH1 0x0 SHL PUSH2 0x5A86 JUMP JUMPDEST PUSH1 0x0 PUSH2 0x5824 PUSH32 0x4E7D5F66877F34D1EAA6E9FA1E6A915A00EAE5A9D1BF09B5EB8E2EA7A582CF00 PUSH1 0x0 SHL PUSH2 0x5A86 JUMP JUMPDEST PUSH2 0x5850 PUSH32 0x63F02BDC44F6DECB6A780362E6BC8686CCE60AACD244DB09D04AEBE397E726EE PUSH1 0x0 SHL PUSH2 0x5A86 JUMP JUMPDEST PUSH1 0x0 JUMPDEST PUSH1 0x4 DUP1 SLOAD SWAP1 POP DUP2 LT ISZERO PUSH2 0x5A24 JUMPI PUSH2 0x588C PUSH32 0x8828C26D6227B8CCB85327F40899C9BD9A86C55416CA1EF62B1AD50E74698131 PUSH1 0x0 SHL PUSH2 0x5A86 JUMP JUMPDEST PUSH2 0x58B8 PUSH32 0xFFCC61EB9EC98C7459839FCA47D10CFACB2B367A148878B5661AF2E3725C89BF PUSH1 0x0 SHL PUSH2 0x5A86 JUMP JUMPDEST DUP4 PUSH20 0xFFFFFFFFFFFFFFFFFFFFFFFFFFFFFFFFFFFFFFFF AND PUSH1 0x4 DUP3 DUP2 SLOAD DUP2 LT PUSH2 0x5909 JUMPI PUSH32 0x4E487B7100000000000000000000000000000000000000000000000000000000 PUSH1 0x0 MSTORE PUSH1 0x32 PUSH1 0x4 MSTORE PUSH1 0x24 PUSH1 0x0 REVERT JUMPDEST SWAP1 PUSH1 0x0 MSTORE PUSH1 0x20 PUSH1 0x0 KECCAK256 SWAP1 PUSH1 0x4 MUL ADD PUSH1 0x1 ADD PUSH1 0x0 SWAP1 SLOAD SWAP1 PUSH2 0x100 EXP SWAP1 DIV PUSH20 0xFFFFFFFFFFFFFFFFFFFFFFFFFFFFFFFFFFFFFFFF AND PUSH20 0xFFFFFFFFFFFFFFFFFFFFFFFFFFFFFFFFFFFFFFFF AND EQ ISZERO PUSH2 0x59E4 JUMPI PUSH2 0x5983 PUSH32 0x7FD679BAFB3BB65D9B7426595E76F4C6B9E2EAB6669C2EACE8C69240E430AB1C PUSH1 0x0 SHL PUSH2 0x5A86 JUMP JUMPDEST PUSH2 0x59AF PUSH32 0x4D0FCC1C93233D0AACAF8FFDE217F7F08AC1106D5997B0326356EDD862CA7D5A PUSH1 0x0 SHL PUSH2 0x5A86 JUMP JUMPDEST PUSH2 0x59DB PUSH32 0x38A0BECE505475D2FE6926CAC848630C63810859677B5E496055E98F71D48C5C PUSH1 0x0 SHL PUSH2 0x5A86 JUMP JUMPDEST PUSH1 0x1 SWAP2 POP PUSH2 0x5A11 JUMP JUMPDEST PUSH2 0x5A10 PUSH32 0x3B08E08FA0A61C62F0A5EC657BC5A240FF84823FD93FFCDD2C43754886AAEACE PUSH1 0x0 SHL PUSH2 0x5A86 JUMP JUMPDEST JUMPDEST DUP1 DUP1 PUSH2 0x5A1C SWAP1 PUSH2 0x68B4 JUMP JUMPDEST SWAP2 POP POP PUSH2 0x5853 JUMP JUMPDEST POP PUSH2 0x5A51 PUSH32 0xAF6C8528AFB60F13345D103B499BA954613F472E04E84E3CA9DD5509DA705034 PUSH1 0x0 SHL PUSH2 0x5A86 JUMP JUMPDEST PUSH2 0x5A7D PUSH32 0xE787AFFCEA928E404811A9485BB42104F559D2711CC057D9809EAE3836B42D69 PUSH1 0x0 SHL PUSH2 0x5A86 JUMP JUMPDEST DUP1 SWAP2 POP POP SWAP2 SWAP1 POP JUMP JUMPDEST POP JUMP JUMPDEST DUP3 DUP1 SLOAD PUSH2 0x5A95 SWAP1 PUSH2 0x6882 JUMP JUMPDEST SWAP1 PUSH1 0x0 MSTORE PUSH1 0x20 PUSH1 0x0 KECCAK256 SWAP1 PUSH1 0x1F ADD PUSH1 0x20 SWAP1 DIV DUP2 ADD SWAP3 DUP3 PUSH2 0x5AB7 JUMPI PUSH1 0x0 DUP6 SSTORE PUSH2 0x5AFE JUMP JUMPDEST DUP3 PUSH1 0x1F LT PUSH2 0x5AD0 JUMPI DUP1 MLOAD PUSH1 0xFF NOT AND DUP4 DUP1 ADD OR DUP6 SSTORE PUSH2 0x5AFE JUMP JUMPDEST DUP3 DUP1 ADD PUSH1 0x1 ADD DUP6 SSTORE DUP3 ISZERO PUSH2 0x5AFE JUMPI SWAP2 DUP3 ADD JUMPDEST DUP3 DUP2 GT ISZERO PUSH2 0x5AFD JUMPI DUP3 MLOAD DUP3 SSTORE SWAP2 PUSH1 0x20 ADD SWAP2 SWAP1 PUSH1 0x1 ADD SWAP1 PUSH2 0x5AE2 JUMP JUMPDEST JUMPDEST POP SWAP1 POP PUSH2 0x5B0B SWAP2 SWAP1 PUSH2 0x5B0F JUMP JUMPDEST POP SWAP1 JUMP JUMPDEST JUMPDEST DUP1 DUP3 GT ISZERO PUSH2 0x5B28 JUMPI PUSH1 0x0 DUP2 PUSH1 0x0 SWAP1 SSTORE POP PUSH1 0x1 ADD PUSH2 0x5B10 JUMP JUMPDEST POP SWAP1 JUMP JUMPDEST PUSH1 0x0 PUSH2 0x5B3F PUSH2 0x5B3A DUP5 PUSH2 0x663F JUMP JUMPDEST PUSH2 0x660E JUMP JUMPDEST SWAP1 POP DUP3 DUP2 MSTORE PUSH1 0x20 DUP2 ADD DUP5 DUP5 DUP5 ADD GT ISZERO PUSH2 0x5B57 JUMPI PUSH1 0x0 DUP1 REVERT JUMPDEST PUSH2 0x5B62 DUP5 DUP3 DUP6 PUSH2 0x6840 JUMP JUMPDEST POP SWAP4 SWAP3 POP POP POP JUMP JUMPDEST PUSH1 0x0 DUP2 CALLDATALOAD SWAP1 POP PUSH2 0x5B79 DUP2 PUSH2 0x699B JUMP JUMPDEST SWAP3 SWAP2 POP POP JUMP JUMPDEST PUSH1 0x0 DUP3 PUSH1 0x1F DUP4 ADD SLT PUSH2 0x5B90 JUMPI PUSH1 0x0 DUP1 REVERT JUMPDEST DUP2 CALLDATALOAD PUSH2 0x5BA0 DUP5 DUP3 PUSH1 0x20 DUP7 ADD PUSH2 0x5B2C JUMP JUMPDEST SWAP2 POP POP SWAP3 SWAP2 POP POP JUMP JUMPDEST PUSH1 0x0 DUP2 CALLDATALOAD SWAP1 POP PUSH2 0x5BB8 DUP2 PUSH2 0x69B2 JUMP JUMPDEST SWAP3 SWAP2 POP POP JUMP JUMPDEST PUSH1 0x0 PUSH1 0x20 DUP3 DUP5 SUB SLT ISZERO PUSH2 0x5BD0 JUMPI PUSH1 0x0 DUP1 REVERT JUMPDEST PUSH1 0x0 PUSH2 0x5BDE DUP5 DUP3 DUP6 ADD PUSH2 0x5B6A JUMP JUMPDEST SWAP2 POP POP SWAP3 SWAP2 POP POP JUMP JUMPDEST PUSH1 0x0 DUP1 PUSH1 0x40 DUP4 DUP6 SUB SLT ISZERO PUSH2 0x5BFA JUMPI PUSH1 0x0 DUP1 REVERT JUMPDEST PUSH1 0x0 PUSH2 0x5C08 DUP6 DUP3 DUP7 ADD PUSH2 0x5B6A JUMP JUMPDEST SWAP3 POP POP PUSH1 0x20 PUSH2 0x5C19 DUP6 DUP3 DUP7 ADD PUSH2 0x5BA9 JUMP JUMPDEST SWAP2 POP POP SWAP3 POP SWAP3 SWAP1 POP JUMP JUMPDEST PUSH1 0x0 PUSH1 0x20 DUP3 DUP5 SUB SLT ISZERO PUSH2 0x5C35 JUMPI PUSH1 0x0 DUP1 REVERT JUMPDEST PUSH1 0x0 DUP3 ADD CALLDATALOAD PUSH8 0xFFFFFFFFFFFFFFFF DUP2 GT ISZERO PUSH2 0x5C4F JUMPI PUSH1 0x0 DUP1 REVERT JUMPDEST PUSH2 0x5C5B DUP5 DUP3 DUP6 ADD PUSH2 0x5B7F JUMP JUMPDEST SWAP2 POP POP SWAP3 SWAP2 POP POP JUMP JUMPDEST PUSH1 0x0 PUSH1 0x20 DUP3 DUP5 SUB SLT ISZERO PUSH2 0x5C76 JUMPI PUSH1 0x0 DUP1 REVERT JUMPDEST PUSH1 0x0 PUSH2 0x5C84 DUP5 DUP3 DUP6 ADD PUSH2 0x5BA9 JUMP JUMPDEST SWAP2 POP POP SWAP3 SWAP2 POP POP JUMP JUMPDEST PUSH1 0x0 DUP1 PUSH1 0x40 DUP4 DUP6 SUB SLT ISZERO PUSH2 0x5CA0 JUMPI PUSH1 0x0 DUP1 REVERT JUMPDEST PUSH1 0x0 PUSH2 0x5CAE DUP6 DUP3 DUP7 ADD PUSH2 0x5BA9 JUMP JUMPDEST SWAP3 POP POP PUSH1 0x20 PUSH2 0x5CBF DUP6 DUP3 DUP7 ADD PUSH2 0x5BA9 JUMP JUMPDEST SWAP2 POP POP SWAP3 POP SWAP3 SWAP1 POP JUMP JUMPDEST PUSH1 0x0 PUSH2 0x5CD5 DUP4 DUP4 PUSH2 0x6234 JUMP JUMPDEST SWAP1 POP SWAP3 SWAP2 POP POP JUMP JUMPDEST PUSH1 0x0 PUSH2 0x5CE9 DUP4 DUP4 PUSH2 0x6297 JUMP JUMPDEST SWAP1 POP SWAP3 SWAP2 POP POP JUMP JUMPDEST PUSH1 0x0 PUSH2 0x5CFD DUP4 DUP4 PUSH2 0x62FA JUMP JUMPDEST PUSH1 0x40 DUP4 ADD SWAP1 POP SWAP3 SWAP2 POP POP JUMP JUMPDEST PUSH2 0x5D12 DUP2 PUSH2 0x67E6 JUMP JUMPDEST DUP3 MSTORE POP POP JUMP JUMPDEST PUSH2 0x5D21 DUP2 PUSH2 0x67E6 JUMP JUMPDEST DUP3 MSTORE POP POP JUMP JUMPDEST PUSH1 0x0 PUSH2 0x5D32 DUP3 PUSH2 0x66B4 JUMP JUMPDEST PUSH2 0x5D3C DUP2 DUP6 PUSH2 0x6707 JUMP JUMPDEST SWAP4 POP DUP4 PUSH1 0x20 DUP3 MUL DUP6 ADD PUSH2 0x5D4E DUP6 PUSH2 0x666F JUMP JUMPDEST DUP1 PUSH1 0x0 JUMPDEST DUP6 DUP2 LT ISZERO PUSH2 0x5D8A JUMPI DUP5 DUP5 SUB DUP10 MSTORE DUP2 MLOAD PUSH2 0x5D6B DUP6 DUP3 PUSH2 0x5CC9 JUMP JUMPDEST SWAP5 POP PUSH2 0x5D76 DUP4 PUSH2 0x66E0 JUMP JUMPDEST SWAP3 POP PUSH1 0x20 DUP11 ADD SWAP10 POP POP PUSH1 0x1 DUP2 ADD SWAP1 POP PUSH2 0x5D52 JUMP JUMPDEST POP DUP3 SWAP8 POP DUP8 SWAP6 POP POP POP POP POP POP SWAP3 SWAP2 POP POP JUMP JUMPDEST PUSH1 0x0 PUSH2 0x5DA7 DUP3 PUSH2 0x66BF JUMP JUMPDEST PUSH2 0x5DB1 DUP2 DUP6 PUSH2 0x6718 JUMP JUMPDEST SWAP4 POP DUP4 PUSH1 0x20 DUP3 MUL DUP6 ADD PUSH2 0x5DC3 DUP6 PUSH2 0x667F JUMP JUMPDEST DUP1 PUSH1 0x0 JUMPDEST DUP6 DUP2 LT ISZERO PUSH2 0x5DFF JUMPI DUP5 DUP5 SUB DUP10 MSTORE DUP2 MLOAD PUSH2 0x5DE0 DUP6 DUP3 PUSH2 0x5CDD JUMP JUMPDEST SWAP5 POP PUSH2 0x5DEB DUP4 PUSH2 0x66ED JUMP JUMPDEST SWAP3 POP PUSH1 0x20 DUP11 ADD SWAP10 POP POP PUSH1 0x1 DUP2 ADD SWAP1 POP PUSH2 0x5DC7 JUMP JUMPDEST POP DUP3 SWAP8 POP DUP8 SWAP6 POP POP POP POP POP POP SWAP3 SWAP2 POP POP JUMP JUMPDEST PUSH1 0x0 PUSH2 0x5E1C DUP3 PUSH2 0x66CA JUMP JUMPDEST PUSH2 0x5E26 DUP2 DUP6 PUSH2 0x6729 JUMP JUMPDEST SWAP4 POP PUSH2 0x5E31 DUP4 PUSH2 0x668F JUMP JUMPDEST DUP1 PUSH1 0x0 JUMPDEST DUP4 DUP2 LT ISZERO PUSH2 0x5E62 JUMPI DUP2 MLOAD PUSH2 0x5E49 DUP9 DUP3 PUSH2 0x5CF1 JUMP JUMPDEST SWAP8 POP PUSH2 0x5E54 DUP4 PUSH2 0x66FA JUMP JUMPDEST SWAP3 POP POP PUSH1 0x1 DUP2 ADD SWAP1 POP PUSH2 0x5E35 JUMP JUMPDEST POP DUP6 SWAP4 POP POP POP POP SWAP3 SWAP2 POP POP JUMP JUMPDEST PUSH2 0x5E78 DUP2 PUSH2 0x67F8 JUMP JUMPDEST DUP3 MSTORE POP POP JUMP JUMPDEST PUSH2 0x5E87 DUP2 PUSH2 0x67F8 JUMP JUMPDEST DUP3 MSTORE POP POP JUMP JUMPDEST PUSH2 0x5E96 DUP2 PUSH2 0x682E JUMP JUMPDEST DUP3 MSTORE POP POP JUMP JUMPDEST PUSH1 0x0 PUSH2 0x5EA7 DUP3 PUSH2 0x66D5 JUMP JUMPDEST PUSH2 0x5EB1 DUP2 DUP6 PUSH2 0x673A JUMP JUMPDEST SWAP4 POP PUSH2 0x5EC1 DUP2 DUP6 PUSH1 0x20 DUP7 ADD PUSH2 0x684F JUMP JUMPDEST PUSH2 0x5ECA DUP2 PUSH2 0x698A JUMP JUMPDEST DUP5 ADD SWAP2 POP POP SWAP3 SWAP2 POP POP JUMP JUMPDEST PUSH1 0x0 PUSH2 0x5EE0 DUP3 PUSH2 0x66D5 JUMP JUMPDEST PUSH2 0x5EEA DUP2 DUP6 PUSH2 0x674B JUMP JUMPDEST SWAP4 POP PUSH2 0x5EFA DUP2 DUP6 PUSH1 0x20 DUP7 ADD PUSH2 0x684F JUMP JUMPDEST PUSH2 0x5F03 DUP2 PUSH2 0x698A JUMP JUMPDEST DUP5 ADD SWAP2 POP POP SWAP3 SWAP2 POP POP JUMP JUMPDEST PUSH1 0x0 DUP2 SLOAD PUSH2 0x5F1B DUP2 PUSH2 0x6882 JUMP JUMPDEST PUSH2 0x5F25 DUP2 DUP7 PUSH2 0x674B JUMP JUMPDEST SWAP5 POP PUSH1 0x1 DUP3 AND PUSH1 0x0 DUP2 EQ PUSH2 0x5F40 JUMPI PUSH1 0x1 DUP2 EQ PUSH2 0x5F52 JUMPI PUSH2 0x5F85 JUMP JUMPDEST PUSH1 0xFF NOT DUP4 AND DUP7 MSTORE PUSH1 0x20 DUP7 ADD SWAP4 POP PUSH2 0x5F85 JUMP JUMPDEST PUSH2 0x5F5B DUP6 PUSH2 0x669F JUMP JUMPDEST PUSH1 0x0 JUMPDEST DUP4 DUP2 LT ISZERO PUSH2 0x5F7D JUMPI DUP2 SLOAD DUP2 DUP10 ADD MSTORE PUSH1 0x1 DUP3 ADD SWAP2 POP PUSH1 0x20 DUP2 ADD SWAP1 POP PUSH2 0x5F5E JUMP JUMPDEST DUP1 DUP9 ADD SWAP6 POP POP POP JUMPDEST POP POP POP SWAP3 SWAP2 POP POP JUMP JUMPDEST PUSH1 0x0 PUSH2 0x5F9B PUSH1 0xB DUP4 PUSH2 0x674B JUMP JUMPDEST SWAP2 POP PUSH32 0x426F6172644D656D626572000000000000000000000000000000000000000000 PUSH1 0x0 DUP4 ADD MSTORE PUSH1 0x20 DUP3 ADD SWAP1 POP SWAP2 SWAP1 POP JUMP JUMPDEST PUSH1 0x0 PUSH2 0x5FDB PUSH1 0x7 DUP4 PUSH2 0x674B JUMP JUMPDEST SWAP2 POP PUSH32 0x5465616368657200000000000000000000000000000000000000000000000000 PUSH1 0x0 DUP4 ADD MSTORE PUSH1 0x20 DUP3 ADD SWAP1 POP SWAP2 SWAP1 POP JUMP JUMPDEST PUSH1 0x0 PUSH2 0x601B PUSH1 0x1A DUP4 PUSH2 0x674B JUMP JUMPDEST SWAP2 POP PUSH32 0x436F6E747261637420686173206265656E2064697361626C6564000000000000 PUSH1 0x0 DUP4 ADD MSTORE PUSH1 0x20 DUP3 ADD SWAP1 POP SWAP2 SWAP1 POP JUMP JUMPDEST PUSH1 0x0 PUSH2 0x605B PUSH1 0x10 DUP4 PUSH2 0x674B JUMP JUMPDEST SWAP2 POP PUSH32 0x566F74696E672068617320656E64656400000000000000000000000000000000 PUSH1 0x0 DUP4 ADD MSTORE PUSH1 0x20 DUP3 ADD SWAP1 POP SWAP2 SWAP1 POP JUMP JUMPDEST PUSH1 0x0 PUSH2 0x609B PUSH1 0x26 DUP4 PUSH2 0x674B JUMP JUMPDEST SWAP2 POP PUSH32 0x4F6E6C79207468652063686169726D616E20697320616C6C6F77656420746F20 PUSH1 0x0 DUP4 ADD MSTORE PUSH32 0x6D6F646966790000000000000000000000000000000000000000000000000000 PUSH1 0x20 DUP4 ADD MSTORE PUSH1 0x40 DUP3 ADD SWAP1 POP SWAP2 SWAP1 POP JUMP JUMPDEST PUSH1 0x0 PUSH2 0x6101 PUSH1 0x1A DUP4 PUSH2 0x674B JUMP JUMPDEST SWAP2 POP PUSH32 0x596F752063616E6E6F742075706461746520796F757273656C66000000000000 PUSH1 0x0 DUP4 ADD MSTORE PUSH1 0x20 DUP3 ADD SWAP1 POP SWAP2 SWAP1 POP JUMP JUMPDEST PUSH1 0x0 PUSH2 0x6141 PUSH1 0x16 DUP4 PUSH2 0x674B JUMP JUMPDEST SWAP2 POP PUSH32 0x596F7520617265206E6F7420617574686F72697A656400000000000000000000 PUSH1 0x0 DUP4 ADD MSTORE PUSH1 0x20 DUP3 ADD SWAP1 POP SWAP2 SWAP1 POP JUMP JUMPDEST PUSH1 0x0 PUSH2 0x6181 PUSH1 0x15 DUP4 PUSH2 0x674B JUMP JUMPDEST SWAP2 POP PUSH32 0x596F752063616E6E6F7420766F74652074776963650000000000000000000000 PUSH1 0x0 DUP4 ADD MSTORE PUSH1 0x20 DUP3 ADD SWAP1 POP SWAP2 SWAP1 POP JUMP JUMPDEST PUSH1 0x0 PUSH2 0x61C1 PUSH1 0x18 DUP4 PUSH2 0x674B JUMP JUMPDEST SWAP2 POP PUSH32 0x55736572207479706520646F6573206E6F742065786973740000000000000000 PUSH1 0x0 DUP4 ADD MSTORE PUSH1 0x20 DUP3 ADD SWAP1 POP SWAP2 SWAP1 POP JUMP JUMPDEST PUSH1 0x0 PUSH2 0x6201 PUSH1 0x7 DUP4 PUSH2 0x674B JUMP JUMPDEST SWAP2 POP PUSH32 0x53747564656E7400000000000000000000000000000000000000000000000000 PUSH1 0x0 DUP4 ADD MSTORE PUSH1 0x20 DUP3 ADD SWAP1 POP SWAP2 SWAP1 POP JUMP JUMPDEST PUSH1 0x0 PUSH1 0x80 DUP4 ADD PUSH1 0x0 DUP4 ADD MLOAD PUSH2 0x624C PUSH1 0x0 DUP7 ADD DUP3 PUSH2 0x6329 JUMP JUMPDEST POP PUSH1 0x20 DUP4 ADD MLOAD DUP5 DUP3 SUB PUSH1 0x20 DUP7 ADD MSTORE PUSH2 0x6264 DUP3 DUP3 PUSH2 0x5E9C JUMP JUMPDEST SWAP2 POP POP PUSH1 0x40 DUP4 ADD MLOAD PUSH2 0x6279 PUSH1 0x40 DUP7 ADD DUP3 PUSH2 0x6329 JUMP JUMPDEST POP PUSH1 0x60 DUP4 ADD MLOAD PUSH2 0x628C PUSH1 0x60 DUP7 ADD DUP3 PUSH2 0x5E6F JUMP JUMPDEST POP DUP1 SWAP2 POP POP SWAP3 SWAP2 POP POP JUMP JUMPDEST PUSH1 0x0 PUSH1 0x80 DUP4 ADD PUSH1 0x0 DUP4 ADD MLOAD PUSH2 0x62AF PUSH1 0x0 DUP7 ADD DUP3 PUSH2 0x6329 JUMP JUMPDEST POP PUSH1 0x20 DUP4 ADD MLOAD PUSH2 0x62C2 PUSH1 0x20 DUP7 ADD DUP3 PUSH2 0x5D09 JUMP JUMPDEST POP PUSH1 0x40 DUP4 ADD MLOAD DUP5 DUP3 SUB PUSH1 0x40 DUP7 ADD MSTORE PUSH2 0x62DA DUP3 DUP3 PUSH2 0x5E9C JUMP JUMPDEST SWAP2 POP POP PUSH1 0x60 DUP4 ADD MLOAD PUSH2 0x62EF PUSH1 0x60 DUP7 ADD DUP3 PUSH2 0x5E6F JUMP JUMPDEST POP DUP1 SWAP2 POP POP SWAP3 SWAP2 POP POP JUMP JUMPDEST PUSH1 0x40 DUP3 ADD PUSH1 0x0 DUP3 ADD MLOAD PUSH2 0x6310 PUSH1 0x0 DUP6 ADD DUP3 PUSH2 0x6329 JUMP JUMPDEST POP PUSH1 0x20 DUP3 ADD MLOAD PUSH2 0x6323 PUSH1 0x20 DUP6 ADD DUP3 PUSH2 0x6329 JUMP JUMPDEST POP POP POP POP JUMP JUMPDEST PUSH2 0x6332 DUP2 PUSH2 0x6824 JUMP JUMPDEST DUP3 MSTORE POP POP JUMP JUMPDEST PUSH2 0x6341 DUP2 PUSH2 0x6824 JUMP JUMPDEST DUP3 MSTORE POP POP JUMP JUMPDEST PUSH1 0x0 PUSH1 0x20 DUP3 ADD SWAP1 POP DUP2 DUP2 SUB PUSH1 0x0 DUP4 ADD MSTORE PUSH2 0x6361 DUP2 DUP5 PUSH2 0x5D27 JUMP JUMPDEST SWAP1 POP SWAP3 SWAP2 POP POP JUMP JUMPDEST PUSH1 0x0 PUSH1 0x20 DUP3 ADD SWAP1 POP DUP2 DUP2 SUB PUSH1 0x0 DUP4 ADD MSTORE PUSH2 0x6383 DUP2 DUP5 PUSH2 0x5D9C JUMP JUMPDEST SWAP1 POP SWAP3 SWAP2 POP POP JUMP JUMPDEST PUSH1 0x0 PUSH1 0x20 DUP3 ADD SWAP1 POP DUP2 DUP2 SUB PUSH1 0x0 DUP4 ADD MSTORE PUSH2 0x63A5 DUP2 DUP5 PUSH2 0x5E11 JUMP JUMPDEST SWAP1 POP SWAP3 SWAP2 POP POP JUMP JUMPDEST PUSH1 0x0 PUSH1 0x20 DUP3 ADD SWAP1 POP PUSH2 0x63C2 PUSH1 0x0 DUP4 ADD DUP5 PUSH2 0x5E7E JUMP JUMPDEST SWAP3 SWAP2 POP POP JUMP JUMPDEST PUSH1 0x0 PUSH1 0x40 DUP3 ADD SWAP1 POP DUP2 DUP2 SUB PUSH1 0x0 DUP4 ADD MSTORE PUSH2 0x63E2 DUP2 DUP6 PUSH2 0x5F0E JUMP JUMPDEST SWAP1 POP PUSH2 0x63F1 PUSH1 0x20 DUP4 ADD DUP5 PUSH2 0x6338 JUMP JUMPDEST SWAP4 SWAP3 POP POP POP JUMP JUMPDEST PUSH1 0x0 PUSH1 0x20 DUP3 ADD SWAP1 POP DUP2 DUP2 SUB PUSH1 0x0 DUP4 ADD MSTORE PUSH2 0x6411 DUP2 PUSH2 0x600E JUMP JUMPDEST SWAP1 POP SWAP2 SWAP1 POP JUMP JUMPDEST PUSH1 0x0 PUSH1 0x20 DUP3 ADD SWAP1 POP DUP2 DUP2 SUB PUSH1 0x0 DUP4 ADD MSTORE PUSH2 0x6431 DUP2 PUSH2 0x604E JUMP JUMPDEST SWAP1 POP SWAP2 SWAP1 POP JUMP JUMPDEST PUSH1 0x0 PUSH1 0x20 DUP3 ADD SWAP1 POP DUP2 DUP2 SUB PUSH1 0x0 DUP4 ADD MSTORE PUSH2 0x6451 DUP2 PUSH2 0x608E JUMP JUMPDEST SWAP1 POP SWAP2 SWAP1 POP JUMP JUMPDEST PUSH1 0x0 PUSH1 0x20 DUP3 ADD SWAP1 POP DUP2 DUP2 SUB PUSH1 0x0 DUP4 ADD MSTORE PUSH2 0x6471 DUP2 PUSH2 0x60F4 JUMP JUMPDEST SWAP1 POP SWAP2 SWAP1 POP JUMP JUMPDEST PUSH1 0x0 PUSH1 0x20 DUP3 ADD SWAP1 POP DUP2 DUP2 SUB PUSH1 0x0 DUP4 ADD MSTORE PUSH2 0x6491 DUP2 PUSH2 0x6134 JUMP JUMPDEST SWAP1 POP SWAP2 SWAP1 POP JUMP JUMPDEST PUSH1 0x0 PUSH1 0x20 DUP3 ADD SWAP1 POP DUP2 DUP2 SUB PUSH1 0x0 DUP4 ADD MSTORE PUSH2 0x64B1 DUP2 PUSH2 0x6174 JUMP JUMPDEST SWAP1 POP SWAP2 SWAP1 POP JUMP JUMPDEST PUSH1 0x0 PUSH1 0x20 DUP3 ADD SWAP1 POP DUP2 DUP2 SUB PUSH1 0x0 DUP4 ADD MSTORE PUSH2 0x64D1 DUP2 PUSH2 0x61B4 JUMP JUMPDEST SWAP1 POP SWAP2 SWAP1 POP JUMP JUMPDEST PUSH1 0x0 PUSH1 0x20 DUP3 ADD SWAP1 POP PUSH2 0x64ED PUSH1 0x0 DUP4 ADD DUP5 PUSH2 0x6338 JUMP JUMPDEST SWAP3 SWAP2 POP POP JUMP JUMPDEST PUSH1 0x0 PUSH1 0x80 DUP3 ADD SWAP1 POP PUSH2 0x6508 PUSH1 0x0 DUP4 ADD DUP8 PUSH2 0x6338 JUMP JUMPDEST PUSH2 0x6515 PUSH1 0x20 DUP4 ADD DUP7 PUSH2 0x5D18 JUMP JUMPDEST PUSH2 0x6522 PUSH1 0x40 DUP4 ADD DUP6 PUSH2 0x6338 JUMP JUMPDEST PUSH2 0x652F PUSH1 0x60 DUP4 ADD DUP5 PUSH2 0x5E7E JUMP JUMPDEST SWAP6 SWAP5 POP POP POP POP POP JUMP JUMPDEST PUSH1 0x0 PUSH1 0x80 DUP3 ADD SWAP1 POP PUSH2 0x654D PUSH1 0x0 DUP4 ADD DUP8 PUSH2 0x6338 JUMP JUMPDEST DUP2 DUP2 SUB PUSH1 0x20 DUP4 ADD MSTORE PUSH2 0x655F DUP2 DUP7 PUSH2 0x5ED5 JUMP JUMPDEST SWAP1 POP PUSH2 0x656E PUSH1 0x40 DUP4 ADD DUP6 PUSH2 0x5E8D JUMP JUMPDEST PUSH2 0x657B PUSH1 0x60 DUP4 ADD DUP5 PUSH2 0x5E7E JUMP JUMPDEST SWAP6 SWAP5 POP POP POP POP POP JUMP JUMPDEST PUSH1 0x0 PUSH1 0x40 DUP3 ADD SWAP1 POP PUSH2 0x6599 PUSH1 0x0 DUP4 ADD DUP5 PUSH2 0x6338 JUMP JUMPDEST DUP2 DUP2 SUB PUSH1 0x20 DUP4 ADD MSTORE PUSH2 0x65AA DUP2 PUSH2 0x5F8E JUMP JUMPDEST SWAP1 POP SWAP3 SWAP2 POP POP JUMP JUMPDEST PUSH1 0x0 PUSH1 0x40 DUP3 ADD SWAP1 POP PUSH2 0x65C7 PUSH1 0x0 DUP4 ADD DUP5 PUSH2 0x6338 JUMP JUMPDEST DUP2 DUP2 SUB PUSH1 0x20 DUP4 ADD MSTORE PUSH2 0x65D8 DUP2 PUSH2 0x5FCE JUMP JUMPDEST SWAP1 POP SWAP3 SWAP2 POP POP JUMP JUMPDEST PUSH1 0x0 PUSH1 0x40 DUP3 ADD SWAP1 POP PUSH2 0x65F5 PUSH1 0x0 DUP4 ADD DUP5 PUSH2 0x6338 JUMP JUMPDEST DUP2 DUP2 SUB PUSH1 0x20 DUP4 ADD MSTORE PUSH2 0x6606 DUP2 PUSH2 0x61F4 JUMP JUMPDEST SWAP1 POP SWAP3 SWAP2 POP POP JUMP JUMPDEST PUSH1 0x0 PUSH1 0x40 MLOAD SWAP1 POP DUP2 DUP2 ADD DUP2 DUP2 LT PUSH8 0xFFFFFFFFFFFFFFFF DUP3 GT OR ISZERO PUSH2 0x6635 JUMPI PUSH2 0x6634 PUSH2 0x695B JUMP JUMPDEST JUMPDEST DUP1 PUSH1 0x40 MSTORE POP SWAP2 SWAP1 POP JUMP JUMPDEST PUSH1 0x0 PUSH8 0xFFFFFFFFFFFFFFFF DUP3 GT ISZERO PUSH2 0x665A JUMPI PUSH2 0x6659 PUSH2 0x695B JUMP JUMPDEST JUMPDEST PUSH1 0x1F NOT PUSH1 0x1F DUP4 ADD AND SWAP1 POP PUSH1 0x20 DUP2 ADD SWAP1 POP SWAP2 SWAP1 POP JUMP JUMPDEST PUSH1 0x0 DUP2 SWAP1 POP PUSH1 0x20 DUP3 ADD SWAP1 POP SWAP2 SWAP1 POP JUMP JUMPDEST PUSH1 0x0 DUP2 SWAP1 POP PUSH1 0x20 DUP3 ADD SWAP1 POP SWAP2 SWAP1 POP JUMP JUMPDEST PUSH1 0x0 DUP2 SWAP1 POP PUSH1 0x20 DUP3 ADD SWAP1 POP SWAP2 SWAP1 POP JUMP JUMPDEST PUSH1 0x0 DUP2 SWAP1 POP DUP2 PUSH1 0x0 MSTORE PUSH1 0x20 PUSH1 0x0 KECCAK256 SWAP1 POP SWAP2 SWAP1 POP JUMP JUMPDEST PUSH1 0x0 DUP2 MLOAD SWAP1 POP SWAP2 SWAP1 POP JUMP JUMPDEST PUSH1 0x0 DUP2 MLOAD SWAP1 POP SWAP2 SWAP1 POP JUMP JUMPDEST PUSH1 0x0 DUP2 MLOAD SWAP1 POP SWAP2 SWAP1 POP JUMP JUMPDEST PUSH1 0x0 DUP2 MLOAD SWAP1 POP SWAP2 SWAP1 POP JUMP JUMPDEST PUSH1 0x0 PUSH1 0x20 DUP3 ADD SWAP1 POP SWAP2 SWAP1 POP JUMP JUMPDEST PUSH1 0x0 PUSH1 0x20 DUP3 ADD SWAP1 POP SWAP2 SWAP1 POP JUMP JUMPDEST PUSH1 0x0 PUSH1 0x20 DUP3 ADD SWAP1 POP SWAP2 SWAP1 POP JUMP JUMPDEST PUSH1 0x0 DUP3 DUP3 MSTORE PUSH1 0x20 DUP3 ADD SWAP1 POP SWAP3 SWAP2 POP POP JUMP JUMPDEST PUSH1 0x0 DUP3 DUP3 MSTORE PUSH1 0x20 DUP3 ADD SWAP1 POP SWAP3 SWAP2 POP POP JUMP JUMPDEST PUSH1 0x0 DUP3 DUP3 MSTORE PUSH1 0x20 DUP3 ADD SWAP1 POP SWAP3 SWAP2 POP POP JUMP JUMPDEST PUSH1 0x0 DUP3 DUP3 MSTORE PUSH1 0x20 DUP3 ADD SWAP1 POP SWAP3 SWAP2 POP POP JUMP JUMPDEST PUSH1 0x0 DUP3 DUP3 MSTORE PUSH1 0x20 DUP3 ADD SWAP1 POP SWAP3 SWAP2 POP POP JUMP JUMPDEST PUSH1 0x0 PUSH2 0x6767 DUP3 PUSH2 0x6824 JUMP JUMPDEST SWAP2 POP PUSH2 0x6772 DUP4 PUSH2 0x6824 JUMP JUMPDEST SWAP3 POP DUP3 PUSH32 0xFFFFFFFFFFFFFFFFFFFFFFFFFFFFFFFFFFFFFFFFFFFFFFFFFFFFFFFFFFFFFFFF SUB DUP3 GT ISZERO PUSH2 0x67A7 JUMPI PUSH2 0x67A6 PUSH2 0x68FD JUMP JUMPDEST JUMPDEST DUP3 DUP3 ADD SWAP1 POP SWAP3 SWAP2 POP POP JUMP JUMPDEST PUSH1 0x0 PUSH2 0x67BD DUP3 PUSH2 0x6824 JUMP JUMPDEST SWAP2 POP PUSH2 0x67C8 DUP4 PUSH2 0x6824 JUMP JUMPDEST SWAP3 POP DUP3 DUP3 LT ISZERO PUSH2 0x67DB JUMPI PUSH2 0x67DA PUSH2 0x68FD JUMP JUMPDEST JUMPDEST DUP3 DUP3 SUB SWAP1 POP SWAP3 SWAP2 POP POP JUMP JUMPDEST PUSH1 0x0 PUSH2 0x67F1 DUP3 PUSH2 0x6804 JUMP JUMPDEST SWAP1 POP SWAP2 SWAP1 POP JUMP JUMPDEST PUSH1 0x0 DUP2 ISZERO ISZERO SWAP1 POP SWAP2 SWAP1 POP JUMP JUMPDEST PUSH1 0x0 PUSH20 0xFFFFFFFFFFFFFFFFFFFFFFFFFFFFFFFFFFFFFFFF DUP3 AND SWAP1 POP SWAP2 SWAP1 POP JUMP JUMPDEST PUSH1 0x0 DUP2 SWAP1 POP SWAP2 SWAP1 POP JUMP JUMPDEST PUSH1 0x0 PUSH2 0x6839 DUP3 PUSH2 0x6824 JUMP JUMPDEST SWAP1 POP SWAP2 SWAP1 POP JUMP JUMPDEST DUP3 DUP2 DUP4 CALLDATACOPY PUSH1 0x0 DUP4 DUP4 ADD MSTORE POP POP POP JUMP JUMPDEST PUSH1 0x0 JUMPDEST DUP4 DUP2 LT ISZERO PUSH2 0x686D JUMPI DUP1 DUP3 ADD MLOAD DUP2 DUP5 ADD MSTORE PUSH1 0x20 DUP2 ADD SWAP1 POP PUSH2 0x6852 JUMP JUMPDEST DUP4 DUP2 GT ISZERO PUSH2 0x687C JUMPI PUSH1 0x0 DUP5 DUP5 ADD MSTORE JUMPDEST POP POP POP POP JUMP JUMPDEST PUSH1 0x0 PUSH1 0x2 DUP3 DIV SWAP1 POP PUSH1 0x1 DUP3 AND DUP1 PUSH2 0x689A JUMPI PUSH1 0x7F DUP3 AND SWAP2 POP JUMPDEST PUSH1 0x20 DUP3 LT DUP2 EQ ISZERO PUSH2 0x68AE JUMPI PUSH2 0x68AD PUSH2 0x692C JUMP JUMPDEST JUMPDEST POP SWAP2 SWAP1 POP JUMP JUMPDEST PUSH1 0x0 PUSH2 0x68BF DUP3 PUSH2 0x6824 JUMP JUMPDEST SWAP2 POP PUSH32 0xFFFFFFFFFFFFFFFFFFFFFFFFFFFFFFFFFFFFFFFFFFFFFFFFFFFFFFFFFFFFFFFF DUP3 EQ ISZERO PUSH2 0x68F2 JUMPI PUSH2 0x68F1 PUSH2 0x68FD JUMP JUMPDEST JUMPDEST PUSH1 0x1 DUP3 ADD SWAP1 POP SWAP2 SWAP1 POP JUMP JUMPDEST PUSH32 0x4E487B7100000000000000000000000000000000000000000000000000000000 PUSH1 0x0 MSTORE PUSH1 0x11 PUSH1 0x4 MSTORE PUSH1 0x24 PUSH1 0x0 REVERT JUMPDEST PUSH32 0x4E487B7100000000000000000000000000000000000000000000000000000000 PUSH1 0x0 MSTORE PUSH1 0x22 PUSH1 0x4 MSTORE PUSH1 0x24 PUSH1 0x0 REVERT JUMPDEST PUSH32 0x4E487B7100000000000000000000000000000000000000000000000000000000 PUSH1 0x0 MSTORE PUSH1 0x41 PUSH1 0x4 MSTORE PUSH1 0x24 PUSH1 0x0 REVERT JUMPDEST PUSH1 0x0 PUSH1 0x1F NOT PUSH1 0x1F DUP4 ADD AND SWAP1 POP SWAP2 SWAP1 POP JUMP JUMPDEST PUSH2 0x69A4 DUP2 PUSH2 0x67E6 JUMP JUMPDEST DUP2 EQ PUSH2 0x69AF JUMPI PUSH1 0x0 DUP1 REVERT JUMPDEST POP JUMP JUMPDEST PUSH2 0x69BB DUP2 PUSH2 0x6824 JUMP JUMPDEST DUP2 EQ PUSH2 0x69C6 JUMPI PUSH1 0x0 DUP1 REVERT JUMPDEST POP JUMP INVALID LOG2 PUSH5 0x6970667358 0x22 SLT KECCAK256 0x48 0xCA PUSH11 0x48B4E1ABE641D89F7A2514 SWAP9 MSTORE8 SWAP15 PUSH31 0x8B7091039065FBE3DBF2C3F0F5964736F6C63430008000033000000000000 "
        },
        "methodIdentifiers": {
          "_canVote()": "7d467dcb",
          "_isVoteVisible()": "512e711e",
          "_isVotingEnded()": "794566d7",
          "changeUserType(uint256,uint256)": "811094e4",
          "checkIfChairman(address)": "7a89281e",
          "collateResults(uint256)": "7cba25da",
          "contractDisabled()": "313cedf0",
          "createContestant(string)": "d962aa3d",
          "createUser(address,uint256)": "93dfc8eb",
          "disableContract()": "894ba833",
          "disbaleVote()": "9f88a0cf",
          "enableContract()": "367edd32",
          "enableVote()": "5ca2797c",
          "fetchVotes()": "19abe7b8",
          "getContestants()": "c10196fa",
          "getUsers()": "00ce8e3e",
          "hideVotesVisibility(uint256)": "5b2585d6",
          "highestVote()": "b3a4dc2f",
          "isContractDisabled()": "421ac42e",
          "isValidUser(address)": "f3c95c60",
          "isVotingEnabled()": "41ecf700",
          "isVotingEnded()": "c857ecbe",
          "isVotingVisible()": "5b3e5cd3",
          "showVotesVisibility(uint256)": "410de7a6",
          "vote(uint256,uint256)": "b384abef"
        }
      }
    }
  }
}