{
  "_format": "hh-sol-artifact-1",
  "contractName": "Voting",
  "sourceName": "contracts/Voting.sol",
  "abi": [
    {
      "inputs": [],
      "stateMutability": "nonpayable",
      "type": "constructor"
    },
    {
      "anonymous": false,
      "inputs": [
        {
          "indexed": false,
          "internalType": "string",
          "name": "contestantName_",
          "type": "string"
        },
        {
          "indexed": false,
          "internalType": "uint256",
          "name": "userId_",
          "type": "uint256"
        }
      ],
      "name": "VoteOccurred",
      "type": "event"
    },
    {
      "anonymous": false,
      "inputs": [
        {
          "indexed": false,
          "internalType": "bool",
          "name": "status",
          "type": "bool"
        }
      ],
      "name": "VotesVisibility",
      "type": "event"
    },
    {
      "anonymous": false,
      "inputs": [
        {
          "indexed": false,
          "internalType": "bool",
          "name": "status",
          "type": "bool"
        }
      ],
      "name": "VotingDisabled",
      "type": "event"
    },
    {
      "anonymous": false,
      "inputs": [
        {
          "indexed": false,
          "internalType": "bool",
          "name": "status",
          "type": "bool"
        }
      ],
      "name": "VotingEnabled",
      "type": "event"
    },
    {
      "anonymous": false,
      "inputs": [
        {
          "indexed": false,
          "internalType": "uint256",
          "name": "contestantId",
          "type": "uint256"
        },
        {
          "indexed": false,
          "internalType": "string",
          "name": "name",
          "type": "string"
        },
        {
          "indexed": false,
          "internalType": "uint256",
          "name": "numberOfVotes",
          "type": "uint256"
        },
        {
          "indexed": false,
          "internalType": "bool",
          "name": "hasWon",
          "type": "bool"
        }
      ],
      "name": "contestantCreated",
      "type": "event"
    },
    {
      "anonymous": false,
      "inputs": [
        {
          "indexed": false,
          "internalType": "uint256",
          "name": "userId",
          "type": "uint256"
        },
        {
          "indexed": false,
          "internalType": "address",
          "name": "userAddress",
          "type": "address"
        },
        {
          "indexed": false,
          "internalType": "uint256",
          "name": "userType",
          "type": "uint256"
        },
        {
          "indexed": false,
          "internalType": "bool",
          "name": "hasVoted",
          "type": "bool"
        }
      ],
      "name": "userCreated",
      "type": "event"
    },
    {
      "anonymous": false,
      "inputs": [
        {
          "indexed": false,
          "internalType": "string",
          "name": "message",
          "type": "string"
        }
      ],
      "name": "userCreationFailed",
      "type": "event"
    },
    {
      "anonymous": false,
      "inputs": [
        {
          "indexed": false,
          "internalType": "string",
          "name": "message",
          "type": "string"
        }
      ],
      "name": "userTypeUpdateFailure",
      "type": "event"
    },
    {
      "anonymous": false,
      "inputs": [
        {
          "indexed": false,
          "internalType": "uint256",
          "name": "userId_",
          "type": "uint256"
        },
        {
          "indexed": false,
          "internalType": "string",
          "name": "userType_",
          "type": "string"
        }
      ],
      "name": "userTypeUpdated",
      "type": "event"
    },
    {
      "inputs": [],
      "name": "_canVote",
      "outputs": [
        {
          "internalType": "bool",
          "name": "",
          "type": "bool"
        }
      ],
      "stateMutability": "view",
      "type": "function"
    },
    {
      "inputs": [],
      "name": "_isVoteVisible",
      "outputs": [
        {
          "internalType": "bool",
          "name": "",
          "type": "bool"
        }
      ],
      "stateMutability": "view",
      "type": "function"
    },
    {
      "inputs": [
        {
          "internalType": "uint256",
          "name": "userId_",
          "type": "uint256"
        },
        {
          "internalType": "uint256",
          "name": "_userType",
          "type": "uint256"
        }
      ],
      "name": "changeUserType",
      "outputs": [],
      "stateMutability": "nonpayable",
      "type": "function"
    },
    {
      "inputs": [
        {
          "internalType": "address",
          "name": "user",
          "type": "address"
        }
      ],
      "name": "checkIfChairman",
      "outputs": [
        {
          "internalType": "bool",
          "name": "",
          "type": "bool"
        }
      ],
      "stateMutability": "view",
      "type": "function"
    },
    {
      "inputs": [
        {
          "internalType": "string",
          "name": "_name",
          "type": "string"
        }
      ],
      "name": "createContestant",
      "outputs": [],
      "stateMutability": "nonpayable",
      "type": "function"
    },
    {
      "inputs": [
        {
          "internalType": "address",
          "name": "_userAddress",
          "type": "address"
        },
        {
          "internalType": "uint256",
          "name": "_userType",
          "type": "uint256"
        }
      ],
      "name": "createUser",
      "outputs": [],
      "stateMutability": "nonpayable",
      "type": "function"
    },
    {
      "inputs": [],
      "name": "disbaleVote",
      "outputs": [],
      "stateMutability": "nonpayable",
      "type": "function"
    },
    {
      "inputs": [],
      "name": "enableVote",
      "outputs": [],
      "stateMutability": "nonpayable",
      "type": "function"
    },
    {
      "inputs": [],
      "name": "getContestants",
      "outputs": [
        {
          "components": [
            {
              "internalType": "uint256",
              "name": "id",
              "type": "uint256"
            },
            {
              "internalType": "string",
              "name": "name",
              "type": "string"
            },
            {
              "internalType": "uint256",
              "name": "numberOfVotes",
              "type": "uint256"
            },
            {
              "internalType": "bool",
              "name": "hasWon",
              "type": "bool"
            }
          ],
          "internalType": "struct Voting.contestantInfo[]",
          "name": "",
          "type": "tuple[]"
        }
      ],
      "stateMutability": "view",
      "type": "function"
    },
    {
      "inputs": [],
      "name": "getUsers",
      "outputs": [
        {
          "components": [
            {
              "internalType": "uint256",
              "name": "userId",
              "type": "uint256"
            },
            {
              "internalType": "address",
              "name": "userAddress",
              "type": "address"
            },
            {
              "internalType": "string",
              "name": "userType",
              "type": "string"
            },
            {
              "internalType": "bool",
              "name": "hasVoted",
              "type": "bool"
            }
          ],
          "internalType": "struct Voting.userInfo[]",
          "name": "",
          "type": "tuple[]"
        }
      ],
      "stateMutability": "view",
      "type": "function"
    },
    {
      "inputs": [
        {
          "internalType": "uint256",
          "name": "_userType",
          "type": "uint256"
        }
      ],
      "name": "hideVotesVisibility",
      "outputs": [],
      "stateMutability": "nonpayable",
      "type": "function"
    },
    {
      "inputs": [],
      "name": "highestVote",
      "outputs": [
        {
          "internalType": "uint256",
          "name": "",
          "type": "uint256"
        }
      ],
      "stateMutability": "view",
      "type": "function"
    },
    {
      "inputs": [
        {
          "internalType": "address",
          "name": "userAddress",
          "type": "address"
        }
      ],
      "name": "isValidUser",
      "outputs": [
        {
          "internalType": "bool",
          "name": "",
          "type": "bool"
        }
      ],
      "stateMutability": "view",
      "type": "function"
    },
    {
      "inputs": [],
      "name": "isVotingEnabled",
      "outputs": [
        {
          "internalType": "bool",
          "name": "",
          "type": "bool"
        }
      ],
      "stateMutability": "view",
      "type": "function"
    },
    {
      "inputs": [],
      "name": "isVotingVisible",
      "outputs": [
        {
          "internalType": "bool",
          "name": "",
          "type": "bool"
        }
      ],
      "stateMutability": "view",
      "type": "function"
    },
    {
      "inputs": [
        {
          "internalType": "uint256",
          "name": "_userType",
          "type": "uint256"
        }
      ],
      "name": "showVotesVisibility",
      "outputs": [],
      "stateMutability": "nonpayable",
      "type": "function"
    },
    {
      "inputs": [
        {
          "internalType": "uint256",
          "name": "contestantId_",
          "type": "uint256"
        },
        {
          "internalType": "uint256",
          "name": "userId_",
          "type": "uint256"
        }
      ],
      "name": "vote",
      "outputs": [],
      "stateMutability": "nonpayable",
      "type": "function"
    }
  ],
  "bytecode": "0x60806040523480156200001157600080fd5b50336000806101000a81548173ffffffffffffffffffffffffffffffffffffffff021916908373ffffffffffffffffffffffffffffffffffffffff1602179055506001600560006101000a81548160ff021916908315150217905550620000803360006200008660201b60201c565b6200099f565b60008054906101000a900473ffffffffffffffffffffffffffffffffffffffff1673ffffffffffffffffffffffffffffffffffffffff163373ffffffffffffffffffffffffffffffffffffffff161462000117576040517f08c379a00000000000000000000000000000000000000000000000000000000081526004016200010e90620007c2565b60405180910390fd5b6000811480620001275750600181145b80620001335750600281145b62000175576040517f08c379a00000000000000000000000000000000000000000000000000000000081526004016200016c90620007e4565b60405180910390fd5b60008114156200030a576000600160048054905062000195919062000864565b9050600460405180608001604052808381526020018573ffffffffffffffffffffffffffffffffffffffff1681526020016040518060400160405280600b81526020017f426f6172644d656d62657200000000000000000000000000000000000000000081525081526020016000151581525090806001815401808255809150506001900390600052602060002090600402016000909190919091506000820151816000015560208201518160010160006101000a81548173ffffffffffffffffffffffffffffffffffffffff021916908373ffffffffffffffffffffffffffffffffffffffff1602179055506040820151816002019080519060200190620002a092919062000635565b5060608201518160030160006101000a81548160ff02191690831515021790555050507f6b20eb62f1298cad3d3fe78b79d9d03ed50788e17184c1c0b61a05291ea520d88184846000604051620002fb949392919062000806565b60405180910390a15062000631565b60018114156200049f57600060016004805490506200032a919062000864565b9050600460405180608001604052808381526020018573ffffffffffffffffffffffffffffffffffffffff1681526020016040518060400160405280600781526020017f546561636865720000000000000000000000000000000000000000000000000081525081526020016000151581525090806001815401808255809150506001900390600052602060002090600402016000909190919091506000820151816000015560208201518160010160006101000a81548173ffffffffffffffffffffffffffffffffffffffff021916908373ffffffffffffffffffffffffffffffffffffffff16021790555060408201518160020190805190602001906200043592919062000635565b5060608201518160030160006101000a81548160ff02191690831515021790555050507f6b20eb62f1298cad3d3fe78b79d9d03ed50788e17184c1c0b61a05291ea520d8818484600060405162000490949392919062000806565b60405180910390a15062000630565b60028114156200062f5760006001600480549050620004bf919062000864565b9050600460405180608001604052808381526020018573ffffffffffffffffffffffffffffffffffffffff1681526020016040518060400160405280600781526020017f53747564656e740000000000000000000000000000000000000000000000000081525081526020016000151581525090806001815401808255809150506001900390600052602060002090600402016000909190919091506000820151816000015560208201518160010160006101000a81548173ffffffffffffffffffffffffffffffffffffffff021916908373ffffffffffffffffffffffffffffffffffffffff1602179055506040820151816002019080519060200190620005ca92919062000635565b5060608201518160030160006101000a81548160ff02191690831515021790555050507f6b20eb62f1298cad3d3fe78b79d9d03ed50788e17184c1c0b61a05291ea520d8818484600060405162000625949392919062000806565b60405180910390a1505b5b5b5050565b82805462000643906200090b565b90600052602060002090601f016020900481019282620006675760008555620006b3565b82601f106200068257805160ff1916838001178555620006b3565b82800160010185558215620006b3579182015b82811115620006b257825182559160200191906001019062000695565b5b509050620006c29190620006c6565b5090565b5b80821115620006e1576000816000905550600101620006c7565b5090565b620006f081620008c1565b82525050565b6200070181620008d5565b82525050565b60006200071660268362000853565b91507f4f6e6c79207468652063686169726d616e20697320616c6c6f77656420746f2060008301527f6d6f6469667900000000000000000000000000000000000000000000000000006020830152604082019050919050565b60006200077e60188362000853565b91507f55736572207479706520646f6573206e6f7420657869737400000000000000006000830152602082019050919050565b620007bc8162000901565b82525050565b60006020820190508181036000830152620007dd8162000707565b9050919050565b60006020820190508181036000830152620007ff816200076f565b9050919050565b60006080820190506200081d6000830187620007b1565b6200082c6020830186620006e5565b6200083b6040830185620007b1565b6200084a6060830184620006f6565b95945050505050565b600082825260208201905092915050565b6000620008718262000901565b91506200087e8362000901565b9250827fffffffffffffffffffffffffffffffffffffffffffffffffffffffffffffffff03821115620008b657620008b562000941565b5b828201905092915050565b6000620008ce82620008e1565b9050919050565b60008115159050919050565b600073ffffffffffffffffffffffffffffffffffffffff82169050919050565b6000819050919050565b600060028204905060018216806200092457607f821691505b602082108114156200093b576200093a62000970565b5b50919050565b7f4e487b7100000000000000000000000000000000000000000000000000000000600052601160045260246000fd5b7f4e487b7100000000000000000000000000000000000000000000000000000000600052602260045260246000fd5b61244980620009af6000396000f3fe608060405234801561001057600080fd5b506004361061010a5760003560e01c80637d467dcb116100a2578063b384abef11610071578063b384abef14610259578063b3a4dc2f14610275578063c10196fa14610293578063d962aa3d146102b1578063f3c95c60146102cd5761010a565b80637d467dcb146101f9578063811094e41461021757806393dfc8eb146102335780639f88a0cf1461024f5761010a565b80635b2585d6116100de5780635b2585d6146101855780635b3e5cd3146101a15780635ca2797c146101bf5780637a89281e146101c95761010a565b8062ce8e3e1461010f578063410de7a61461012d57806341ecf70014610149578063512e711e14610167575b600080fd5b6101176102fd565b6040516101249190611e6e565b60405180910390f35b610147600480360381019061014291906118ce565b610469565b005b61015161050f565b60405161015e9190611e90565b60405180910390f35b61016f610526565b60405161017c9190611e90565b60405180910390f35b61019f600480360381019061019a91906118ce565b610539565b005b6101a96105df565b6040516101b69190611e90565b60405180910390f35b6101c76105f6565b005b6101e360048036038101906101de9190611828565b6106d9565b6040516101f09190611e90565b60405180910390f35b610201610731565b60405161020e9190611e90565b60405180910390f35b610231600480360381019061022c91906118f7565b610744565b005b61024d60048036038101906102489190611851565b610adf565b005b61025761106f565b005b610273600480360381019061026e91906118f7565b611152565b005b61027d6113fa565b60405161028a9190611f5b565b60405180910390f35b61029b611400565b6040516102a89190611e4c565b60405180910390f35b6102cb60048036038101906102c6919061188d565b611520565b005b6102e760048036038101906102e29190611828565b61161b565b6040516102f49190611e90565b60405180910390f35b60606004805480602002602001604051908101604052809291908181526020016000905b828210156104605783829060005260206000209060040201604051806080016040529081600082015481526020016001820160009054906101000a900473ffffffffffffffffffffffffffffffffffffffff1673ffffffffffffffffffffffffffffffffffffffff1673ffffffffffffffffffffffffffffffffffffffff1681526020016002820180546103b4906122cc565b80601f01602080910402602001604051908101604052809291908181526020018280546103e0906122cc565b801561042d5780601f106104025761010080835404028352916020019161042d565b820191906000526020600020905b81548152906001019060200180831161041057829003601f168201915b505050505081526020016003820160009054906101000a900460ff16151515158152505081526020019060010190610321565b50505050905090565b8060008114806104795750600181145b6104b8576040517f08c379a00000000000000000000000000000000000000000000000000000000081526004016104af90611efb565b60405180910390fd5b6001600560016101000a81548160ff0219169083151502179055507f7391a69cbe7f7d60dcd848427cf512560c21aff11e6012a0eb9d42aa07dcfbfe60016040516105039190611e90565b60405180910390a15050565b6000600560009054906101000a900460ff16905090565b600560019054906101000a900460ff1681565b8060008114806105495750600181145b610588576040517f08c379a000000000000000000000000000000000000000000000000000000000815260040161057f90611efb565b60405180910390fd5b6000600560016101000a81548160ff0219169083151502179055507f7391a69cbe7f7d60dcd848427cf512560c21aff11e6012a0eb9d42aa07dcfbfe60006040516105d39190611e90565b60405180910390a15050565b6000600560019054906101000a900460ff16905090565b60008054906101000a900473ffffffffffffffffffffffffffffffffffffffff1673ffffffffffffffffffffffffffffffffffffffff163373ffffffffffffffffffffffffffffffffffffffff1614610684576040517f08c379a000000000000000000000000000000000000000000000000000000000815260040161067b90611edb565b60405180910390fd5b6001600560006101000a81548160ff0219169083151502179055507f24505c2a690f21afd3a9d6fd8280e5a12ad3fcf5edee69a44d19537561a85ad860016040516106cf9190611e90565b60405180910390a1565b60008173ffffffffffffffffffffffffffffffffffffffff1660008054906101000a900473ffffffffffffffffffffffffffffffffffffffff1673ffffffffffffffffffffffffffffffffffffffff16149050919050565b600560009054906101000a900460ff1681565b60008054906101000a900473ffffffffffffffffffffffffffffffffffffffff1673ffffffffffffffffffffffffffffffffffffffff163373ffffffffffffffffffffffffffffffffffffffff16146107d2576040517f08c379a00000000000000000000000000000000000000000000000000000000081526004016107c990611edb565b60405180910390fd5b60008114806107e15750600181145b806107ec5750600281145b61082b576040517f08c379a000000000000000000000000000000000000000000000000000000000815260040161082290611f3b565b60405180910390fd5b6000811415610911576040518060400160405280600b81526020017f426f6172644d656d626572000000000000000000000000000000000000000000815250600460018461087991906121fc565b815481106108b0577f4e487b7100000000000000000000000000000000000000000000000000000000600052603260045260246000fd5b906000526020600020906004020160020190805190602001906108d49291906116f3565b507f12523f2a740b8fc93b2bdc49d3e14b8198f975653db12a894ab58b4be45b7e72826040516109049190612007565b60405180910390a1610adb565b60018114156109f7576040518060400160405280600781526020017f5465616368657200000000000000000000000000000000000000000000000000815250600460018461095f91906121fc565b81548110610996577f4e487b7100000000000000000000000000000000000000000000000000000000600052603260045260246000fd5b906000526020600020906004020160020190805190602001906109ba9291906116f3565b507f12523f2a740b8fc93b2bdc49d3e14b8198f975653db12a894ab58b4be45b7e72826040516109ea9190612035565b60405180910390a1610ada565b6002811415610ad9576040518060400160405280600781526020017f53747564656e74000000000000000000000000000000000000000000000000008152506004600184610a4591906121fc565b81548110610a7c577f4e487b7100000000000000000000000000000000000000000000000000000000600052603260045260246000fd5b90600052602060002090600402016002019080519060200190610aa09291906116f3565b507f12523f2a740b8fc93b2bdc49d3e14b8198f975653db12a894ab58b4be45b7e7282604051610ad09190612063565b60405180910390a15b5b5b5050565b60008054906101000a900473ffffffffffffffffffffffffffffffffffffffff1673ffffffffffffffffffffffffffffffffffffffff163373ffffffffffffffffffffffffffffffffffffffff1614610b6d576040517f08c379a0000000000000000000000000000000000000000000000000000000008152600401610b6490611edb565b60405180910390fd5b6000811480610b7c5750600181145b80610b875750600281145b610bc6576040517f08c379a0000000000000000000000000000000000000000000000000000000008152600401610bbd90611f3b565b60405180910390fd5b6000811415610d535760006001600480549050610be391906121a6565b9050600460405180608001604052808381526020018573ffffffffffffffffffffffffffffffffffffffff1681526020016040518060400160405280600b81526020017f426f6172644d656d62657200000000000000000000000000000000000000000081525081526020016000151581525090806001815401808255809150506001900390600052602060002090600402016000909190919091506000820151816000015560208201518160010160006101000a81548173ffffffffffffffffffffffffffffffffffffffff021916908373ffffffffffffffffffffffffffffffffffffffff1602179055506040820151816002019080519060200190610cec9291906116f3565b5060608201518160030160006101000a81548160ff02191690831515021790555050507f6b20eb62f1298cad3d3fe78b79d9d03ed50788e17184c1c0b61a05291ea520d88184846000604051610d459493929190611f76565b60405180910390a15061106b565b6001811415610ee05760006001600480549050610d7091906121a6565b9050600460405180608001604052808381526020018573ffffffffffffffffffffffffffffffffffffffff1681526020016040518060400160405280600781526020017f546561636865720000000000000000000000000000000000000000000000000081525081526020016000151581525090806001815401808255809150506001900390600052602060002090600402016000909190919091506000820151816000015560208201518160010160006101000a81548173ffffffffffffffffffffffffffffffffffffffff021916908373ffffffffffffffffffffffffffffffffffffffff1602179055506040820151816002019080519060200190610e799291906116f3565b5060608201518160030160006101000a81548160ff02191690831515021790555050507f6b20eb62f1298cad3d3fe78b79d9d03ed50788e17184c1c0b61a05291ea520d88184846000604051610ed29493929190611f76565b60405180910390a15061106a565b60028114156110695760006001600480549050610efd91906121a6565b9050600460405180608001604052808381526020018573ffffffffffffffffffffffffffffffffffffffff1681526020016040518060400160405280600781526020017f53747564656e740000000000000000000000000000000000000000000000000081525081526020016000151581525090806001815401808255809150506001900390600052602060002090600402016000909190919091506000820151816000015560208201518160010160006101000a81548173ffffffffffffffffffffffffffffffffffffffff021916908373ffffffffffffffffffffffffffffffffffffffff16021790555060408201518160020190805190602001906110069291906116f3565b5060608201518160030160006101000a81548160ff02191690831515021790555050507f6b20eb62f1298cad3d3fe78b79d9d03ed50788e17184c1c0b61a05291ea520d8818484600060405161105f9493929190611f76565b60405180910390a1505b5b5b5050565b60008054906101000a900473ffffffffffffffffffffffffffffffffffffffff1673ffffffffffffffffffffffffffffffffffffffff163373ffffffffffffffffffffffffffffffffffffffff16146110fd576040517f08c379a00000000000000000000000000000000000000000000000000000000081526004016110f490611edb565b60405180910390fd5b6000600560006101000a81548160ff0219169083151502179055507fd3dc25b085205a3d69d2d144a9f0a0767b54be27b041bcbdb5308a676c1f393760006040516111489190611e90565b60405180910390a1565b60011515600560009054906101000a900460ff1615151461117257600080fd5b60001515600460018361118591906121fc565b815481106111bc577f4e487b7100000000000000000000000000000000000000000000000000000000600052603260045260246000fd5b906000526020600020906004020160030160009054906101000a900460ff1615151461121d576040517f08c379a000000000000000000000000000000000000000000000000000000000815260040161121490611f1b565b60405180910390fd5b6001600460018361122e91906121fc565b81548110611265577f4e487b7100000000000000000000000000000000000000000000000000000000600052603260045260246000fd5b906000526020600020906004020160030160006101000a81548160ff021916908315150217905550600060016002805490506112a191906121a6565b90506002604051806040016040528083815260200185815250908060018154018082558091505060019003906000526020600020906002020160009091909190915060008201518160000155602082015181600101555050600360018461130891906121fc565b8154811061133f577f4e487b7100000000000000000000000000000000000000000000000000000000600052603260045260246000fd5b90600052602060002090600402016002016000815480929190611361906122fe565b91905055507f3894cca7f62969f5f8326aad1950b0cd936eb3c2b8e957265c4918d185a1f68f600360018561139691906121fc565b815481106113cd577f4e487b7100000000000000000000000000000000000000000000000000000000600052603260045260246000fd5b9060005260206000209060040201600101836040516113ed929190611eab565b60405180910390a1505050565b60065481565b60606003805480602002602001604051908101604052809291908181526020016000905b82821015611517578382906000526020600020906004020160405180608001604052908160008201548152602001600182018054611461906122cc565b80601f016020809104026020016040519081016040528092919081815260200182805461148d906122cc565b80156114da5780601f106114af576101008083540402835291602001916114da565b820191906000526020600020905b8154815290600101906020018083116114bd57829003601f168201915b50505050508152602001600282015481526020016003820160009054906101000a900460ff16151515158152505081526020019060010190611424565b50505050905090565b6000600160038054905061153491906121a6565b905060036040518060800160405280838152602001848152602001600081526020016000151581525090806001815401808255809150506001900390600052602060002090600402016000909190919091506000820151816000015560208201518160010190805190602001906115ac9291906116f3565b506040820151816002015560608201518160030160006101000a81548160ff02191690831515021790555050507f1d58ebd61d2b8ddd2f0ec09260e573e2048929d40687fb178f27634264a83716818360008060405161160f9493929190611fbb565b60405180910390a15050565b6000806000905060005b6004805490508110156116e9578373ffffffffffffffffffffffffffffffffffffffff1660048281548110611683577f4e487b7100000000000000000000000000000000000000000000000000000000600052603260045260246000fd5b906000526020600020906004020160010160009054906101000a900473ffffffffffffffffffffffffffffffffffffffff1673ffffffffffffffffffffffffffffffffffffffff1614156116d657600191505b80806116e1906122fe565b915050611625565b5080915050919050565b8280546116ff906122cc565b90600052602060002090601f0160209004810192826117215760008555611768565b82601f1061173a57805160ff1916838001178555611768565b82800160010185558215611768579182015b8281111561176757825182559160200191906001019061174c565b5b5090506117759190611779565b5090565b5b8082111561179257600081600090555060010161177a565b5090565b60006117a96117a4846120c2565b612091565b9050828152602081018484840111156117c157600080fd5b6117cc84828561228a565b509392505050565b6000813590506117e3816123e5565b92915050565b600082601f8301126117fa57600080fd5b813561180a848260208601611796565b91505092915050565b600081359050611822816123fc565b92915050565b60006020828403121561183a57600080fd5b6000611848848285016117d4565b91505092915050565b6000806040838503121561186457600080fd5b6000611872858286016117d4565b925050602061188385828601611813565b9150509250929050565b60006020828403121561189f57600080fd5b600082013567ffffffffffffffff8111156118b957600080fd5b6118c5848285016117e9565b91505092915050565b6000602082840312156118e057600080fd5b60006118ee84828501611813565b91505092915050565b6000806040838503121561190a57600080fd5b600061191885828601611813565b925050602061192985828601611813565b9150509250929050565b600061193f8383611d68565b905092915050565b60006119538383611dcb565b905092915050565b61196481612230565b82525050565b61197381612230565b82525050565b600061198482612127565b61198e8185612162565b9350836020820285016119a0856120f2565b8060005b858110156119dc57848403895281516119bd8582611933565b94506119c883612148565b925060208a019950506001810190506119a4565b50829750879550505050505092915050565b60006119f982612132565b611a038185612173565b935083602082028501611a1585612102565b8060005b85811015611a515784840389528151611a328582611947565b9450611a3d83612155565b925060208a01995050600181019050611a19565b50829750879550505050505092915050565b611a6c81612242565b82525050565b611a7b81612242565b82525050565b611a8a81612278565b82525050565b6000611a9b8261213d565b611aa58185612184565b9350611ab5818560208601612299565b611abe816123d4565b840191505092915050565b6000611ad48261213d565b611ade8185612195565b9350611aee818560208601612299565b611af7816123d4565b840191505092915050565b60008154611b0f816122cc565b611b198186612195565b94506001821660008114611b345760018114611b4657611b79565b60ff1983168652602086019350611b79565b611b4f85612112565b60005b83811015611b7157815481890152600182019150602081019050611b52565b808801955050505b50505092915050565b6000611b8f600b83612195565b91507f426f6172644d656d6265720000000000000000000000000000000000000000006000830152602082019050919050565b6000611bcf600783612195565b91507f54656163686572000000000000000000000000000000000000000000000000006000830152602082019050919050565b6000611c0f602683612195565b91507f4f6e6c79207468652063686169726d616e20697320616c6c6f77656420746f2060008301527f6d6f6469667900000000000000000000000000000000000000000000000000006020830152604082019050919050565b6000611c75601683612195565b91507f596f7520617265206e6f7420617574686f72697a6564000000000000000000006000830152602082019050919050565b6000611cb5601583612195565b91507f596f752063616e6e6f7420766f746520747769636500000000000000000000006000830152602082019050919050565b6000611cf5601883612195565b91507f55736572207479706520646f6573206e6f7420657869737400000000000000006000830152602082019050919050565b6000611d35600783612195565b91507f53747564656e74000000000000000000000000000000000000000000000000006000830152602082019050919050565b6000608083016000830151611d806000860182611e2e565b5060208301518482036020860152611d988282611a90565b9150506040830151611dad6040860182611e2e565b506060830151611dc06060860182611a63565b508091505092915050565b6000608083016000830151611de36000860182611e2e565b506020830151611df6602086018261195b565b5060408301518482036040860152611e0e8282611a90565b9150506060830151611e236060860182611a63565b508091505092915050565b611e378161226e565b82525050565b611e468161226e565b82525050565b60006020820190508181036000830152611e668184611979565b905092915050565b60006020820190508181036000830152611e8881846119ee565b905092915050565b6000602082019050611ea56000830184611a72565b92915050565b60006040820190508181036000830152611ec58185611b02565b9050611ed46020830184611e3d565b9392505050565b60006020820190508181036000830152611ef481611c02565b9050919050565b60006020820190508181036000830152611f1481611c68565b9050919050565b60006020820190508181036000830152611f3481611ca8565b9050919050565b60006020820190508181036000830152611f5481611ce8565b9050919050565b6000602082019050611f706000830184611e3d565b92915050565b6000608082019050611f8b6000830187611e3d565b611f98602083018661196a565b611fa56040830185611e3d565b611fb26060830184611a72565b95945050505050565b6000608082019050611fd06000830187611e3d565b8181036020830152611fe28186611ac9565b9050611ff16040830185611a81565b611ffe6060830184611a72565b95945050505050565b600060408201905061201c6000830184611e3d565b818103602083015261202d81611b82565b905092915050565b600060408201905061204a6000830184611e3d565b818103602083015261205b81611bc2565b905092915050565b60006040820190506120786000830184611e3d565b818103602083015261208981611d28565b905092915050565b6000604051905081810181811067ffffffffffffffff821117156120b8576120b76123a5565b5b8060405250919050565b600067ffffffffffffffff8211156120dd576120dc6123a5565b5b601f19601f8301169050602081019050919050565b6000819050602082019050919050565b6000819050602082019050919050565b60008190508160005260206000209050919050565b600081519050919050565b600081519050919050565b600081519050919050565b6000602082019050919050565b6000602082019050919050565b600082825260208201905092915050565b600082825260208201905092915050565b600082825260208201905092915050565b600082825260208201905092915050565b60006121b18261226e565b91506121bc8361226e565b9250827fffffffffffffffffffffffffffffffffffffffffffffffffffffffffffffffff038211156121f1576121f0612347565b5b828201905092915050565b60006122078261226e565b91506122128361226e565b92508282101561222557612224612347565b5b828203905092915050565b600061223b8261224e565b9050919050565b60008115159050919050565b600073ffffffffffffffffffffffffffffffffffffffff82169050919050565b6000819050919050565b60006122838261226e565b9050919050565b82818337600083830152505050565b60005b838110156122b757808201518184015260208101905061229c565b838111156122c6576000848401525b50505050565b600060028204905060018216806122e457607f821691505b602082108114156122f8576122f7612376565b5b50919050565b60006123098261226e565b91507fffffffffffffffffffffffffffffffffffffffffffffffffffffffffffffffff82141561233c5761233b612347565b5b600182019050919050565b7f4e487b7100000000000000000000000000000000000000000000000000000000600052601160045260246000fd5b7f4e487b7100000000000000000000000000000000000000000000000000000000600052602260045260246000fd5b7f4e487b7100000000000000000000000000000000000000000000000000000000600052604160045260246000fd5b6000601f19601f8301169050919050565b6123ee81612230565b81146123f957600080fd5b50565b6124058161226e565b811461241057600080fd5b5056fea2646970667358221220bebc675acb121c528c2c384a86804f76cb0f2d264c06ac398b7839dcbd79836c64736f6c63430008000033",
  "linkReferences": {},
  "deployedLinkReferences": {}
}