{
  "_format": "hh-sol-artifact-1",
  "contractName": "Voting",
  "sourceName": "contracts/Voting.sol",
  "abi": [
    {
      "inputs": [],
      "stateMutability": "nonpayable",
      "type": "constructor"
    },
    {
      "anonymous": false,
      "inputs": [
        {
          "indexed": false,
          "internalType": "bool",
          "name": "status",
          "type": "bool"
        }
      ],
      "name": "ContractDisabled",
      "type": "event"
    },
    {
      "anonymous": false,
      "inputs": [
        {
          "indexed": false,
          "internalType": "bool",
          "name": "status",
          "type": "bool"
        }
      ],
      "name": "ContractEnabled",
      "type": "event"
    },
    {
      "anonymous": false,
      "inputs": [
        {
          "indexed": false,
          "internalType": "string",
          "name": "contestantName_",
          "type": "string"
        },
        {
          "indexed": false,
          "internalType": "uint256",
          "name": "userId_",
          "type": "uint256"
        }
      ],
      "name": "VoteOccurred",
      "type": "event"
    },
    {
      "anonymous": false,
      "inputs": [
        {
          "indexed": false,
          "internalType": "bool",
          "name": "status",
          "type": "bool"
        }
      ],
      "name": "VotesVisibility",
      "type": "event"
    },
    {
      "anonymous": false,
      "inputs": [
        {
          "indexed": false,
          "internalType": "bool",
          "name": "status",
          "type": "bool"
        }
      ],
      "name": "VotingDisabled",
      "type": "event"
    },
    {
      "anonymous": false,
      "inputs": [
        {
          "indexed": false,
          "internalType": "bool",
          "name": "status",
          "type": "bool"
        }
      ],
      "name": "VotingEnabled",
      "type": "event"
    },
    {
      "anonymous": false,
      "inputs": [],
      "name": "VotingEnded",
      "type": "event"
    },
    {
      "anonymous": false,
      "inputs": [
        {
          "indexed": false,
          "internalType": "uint256",
          "name": "contestantId",
          "type": "uint256"
        },
        {
          "indexed": false,
          "internalType": "string",
          "name": "name",
          "type": "string"
        },
        {
          "indexed": false,
          "internalType": "uint256",
          "name": "numberOfVotes",
          "type": "uint256"
        },
        {
          "indexed": false,
          "internalType": "bool",
          "name": "hasWon",
          "type": "bool"
        }
      ],
      "name": "contestantCreated",
      "type": "event"
    },
    {
      "anonymous": false,
      "inputs": [
        {
          "indexed": false,
          "internalType": "uint256",
          "name": "userId",
          "type": "uint256"
        },
        {
          "indexed": false,
          "internalType": "address",
          "name": "userAddress",
          "type": "address"
        },
        {
          "indexed": false,
          "internalType": "uint256",
          "name": "userType",
          "type": "uint256"
        },
        {
          "indexed": false,
          "internalType": "bool",
          "name": "hasVoted",
          "type": "bool"
        }
      ],
      "name": "userCreated",
      "type": "event"
    },
    {
      "anonymous": false,
      "inputs": [
        {
          "indexed": false,
          "internalType": "string",
          "name": "message",
          "type": "string"
        }
      ],
      "name": "userCreationFailed",
      "type": "event"
    },
    {
      "anonymous": false,
      "inputs": [
        {
          "indexed": false,
          "internalType": "string",
          "name": "message",
          "type": "string"
        }
      ],
      "name": "userTypeUpdateFailure",
      "type": "event"
    },
    {
      "anonymous": false,
      "inputs": [
        {
          "indexed": false,
          "internalType": "uint256",
          "name": "userId_",
          "type": "uint256"
        },
        {
          "indexed": false,
          "internalType": "string",
          "name": "userType_",
          "type": "string"
        }
      ],
      "name": "userTypeUpdated",
      "type": "event"
    },
    {
      "inputs": [],
      "name": "_canVote",
      "outputs": [
        {
          "internalType": "bool",
          "name": "",
          "type": "bool"
        }
      ],
      "stateMutability": "view",
      "type": "function"
    },
    {
      "inputs": [],
      "name": "_isVoteVisible",
      "outputs": [
        {
          "internalType": "bool",
          "name": "",
          "type": "bool"
        }
      ],
      "stateMutability": "view",
      "type": "function"
    },
    {
      "inputs": [],
      "name": "_isVotingEnded",
      "outputs": [
        {
          "internalType": "bool",
          "name": "",
          "type": "bool"
        }
      ],
      "stateMutability": "view",
      "type": "function"
    },
    {
      "inputs": [
        {
          "internalType": "uint256",
          "name": "userId_",
          "type": "uint256"
        },
        {
          "internalType": "uint256",
          "name": "_userType",
          "type": "uint256"
        }
      ],
      "name": "changeUserType",
      "outputs": [],
      "stateMutability": "nonpayable",
      "type": "function"
    },
    {
      "inputs": [
        {
          "internalType": "address",
          "name": "user",
          "type": "address"
        }
      ],
      "name": "checkIfChairman",
      "outputs": [
        {
          "internalType": "bool",
          "name": "",
          "type": "bool"
        }
      ],
      "stateMutability": "view",
      "type": "function"
    },
    {
      "inputs": [
        {
          "internalType": "uint256",
          "name": "_userType",
          "type": "uint256"
        }
      ],
      "name": "collateResults",
      "outputs": [],
      "stateMutability": "nonpayable",
      "type": "function"
    },
    {
      "inputs": [],
      "name": "contractDisabled",
      "outputs": [
        {
          "internalType": "bool",
          "name": "",
          "type": "bool"
        }
      ],
      "stateMutability": "view",
      "type": "function"
    },
    {
      "inputs": [
        {
          "internalType": "string",
          "name": "_name",
          "type": "string"
        }
      ],
      "name": "createContestant",
      "outputs": [],
      "stateMutability": "nonpayable",
      "type": "function"
    },
    {
      "inputs": [
        {
          "internalType": "address",
          "name": "_userAddress",
          "type": "address"
        },
        {
          "internalType": "uint256",
          "name": "_userType",
          "type": "uint256"
        }
      ],
      "name": "createUser",
      "outputs": [],
      "stateMutability": "nonpayable",
      "type": "function"
    },
    {
      "inputs": [],
      "name": "disableContract",
      "outputs": [],
      "stateMutability": "nonpayable",
      "type": "function"
    },
    {
      "inputs": [],
      "name": "disbaleVote",
      "outputs": [],
      "stateMutability": "nonpayable",
      "type": "function"
    },
    {
      "inputs": [],
      "name": "enableContract",
      "outputs": [],
      "stateMutability": "nonpayable",
      "type": "function"
    },
    {
      "inputs": [],
      "name": "enableVote",
      "outputs": [],
      "stateMutability": "nonpayable",
      "type": "function"
    },
    {
      "inputs": [],
      "name": "fetchVotes",
      "outputs": [
        {
          "components": [
            {
              "internalType": "uint256",
              "name": "id",
              "type": "uint256"
            },
            {
              "internalType": "uint256",
              "name": "contestantId",
              "type": "uint256"
            }
          ],
          "internalType": "struct Voting.voteInfo[]",
          "name": "",
          "type": "tuple[]"
        }
      ],
      "stateMutability": "view",
      "type": "function"
    },
    {
      "inputs": [],
      "name": "getContestants",
      "outputs": [
        {
          "components": [
            {
              "internalType": "uint256",
              "name": "id",
              "type": "uint256"
            },
            {
              "internalType": "string",
              "name": "name",
              "type": "string"
            },
            {
              "internalType": "uint256",
              "name": "numberOfVotes",
              "type": "uint256"
            },
            {
              "internalType": "bool",
              "name": "hasWon",
              "type": "bool"
            }
          ],
          "internalType": "struct Voting.contestantInfo[]",
          "name": "",
          "type": "tuple[]"
        }
      ],
      "stateMutability": "view",
      "type": "function"
    },
    {
      "inputs": [],
      "name": "getUsers",
      "outputs": [
        {
          "components": [
            {
              "internalType": "uint256",
              "name": "userId",
              "type": "uint256"
            },
            {
              "internalType": "address",
              "name": "userAddress",
              "type": "address"
            },
            {
              "internalType": "string",
              "name": "userType",
              "type": "string"
            },
            {
              "internalType": "bool",
              "name": "hasVoted",
              "type": "bool"
            }
          ],
          "internalType": "struct Voting.userInfo[]",
          "name": "",
          "type": "tuple[]"
        }
      ],
      "stateMutability": "view",
      "type": "function"
    },
    {
      "inputs": [
        {
          "internalType": "uint256",
          "name": "_userType",
          "type": "uint256"
        }
      ],
      "name": "hideVotesVisibility",
      "outputs": [],
      "stateMutability": "nonpayable",
      "type": "function"
    },
    {
      "inputs": [],
      "name": "highestVote",
      "outputs": [
        {
          "internalType": "uint256",
          "name": "",
          "type": "uint256"
        }
      ],
      "stateMutability": "view",
      "type": "function"
    },
    {
      "inputs": [],
      "name": "isContractDisabled",
      "outputs": [
        {
          "internalType": "bool",
          "name": "",
          "type": "bool"
        }
      ],
      "stateMutability": "view",
      "type": "function"
    },
    {
      "inputs": [
        {
          "internalType": "address",
          "name": "userAddress",
          "type": "address"
        }
      ],
      "name": "isValidUser",
      "outputs": [
        {
          "internalType": "bool",
          "name": "",
          "type": "bool"
        }
      ],
      "stateMutability": "view",
      "type": "function"
    },
    {
      "inputs": [],
      "name": "isVotingEnabled",
      "outputs": [
        {
          "internalType": "bool",
          "name": "",
          "type": "bool"
        }
      ],
      "stateMutability": "view",
      "type": "function"
    },
    {
      "inputs": [],
      "name": "isVotingEnded",
      "outputs": [
        {
          "internalType": "bool",
          "name": "",
          "type": "bool"
        }
      ],
      "stateMutability": "view",
      "type": "function"
    },
    {
      "inputs": [],
      "name": "isVotingVisible",
      "outputs": [
        {
          "internalType": "bool",
          "name": "",
          "type": "bool"
        }
      ],
      "stateMutability": "view",
      "type": "function"
    },
    {
      "inputs": [
        {
          "internalType": "uint256",
          "name": "_userType",
          "type": "uint256"
        }
      ],
      "name": "showVotesVisibility",
      "outputs": [],
      "stateMutability": "nonpayable",
      "type": "function"
    },
    {
      "inputs": [
        {
          "internalType": "uint256",
          "name": "contestantId_",
          "type": "uint256"
        },
        {
          "internalType": "uint256",
          "name": "userId_",
          "type": "uint256"
        }
      ],
      "name": "vote",
      "outputs": [],
      "stateMutability": "nonpayable",
      "type": "function"
    }
  ],
  "bytecode": "0x60806040523480156200001157600080fd5b50336000806101000a81548173ffffffffffffffffffffffffffffffffffffffff021916908373ffffffffffffffffffffffffffffffffffffffff1602179055506001600560006101000a81548160ff0219169083151502179055506000600560026101000a81548160ff0219169083151502179055506000600760006101000a81548160ff021916908315150217905550620000b6336000620000bc60201b60201c565b62000a92565b60008054906101000a900473ffffffffffffffffffffffffffffffffffffffff1673ffffffffffffffffffffffffffffffffffffffff163373ffffffffffffffffffffffffffffffffffffffff16146200014d576040517f08c379a00000000000000000000000000000000000000000000000000000000081526004016200014490620008b5565b60405180910390fd5b60001515600760009054906101000a900460ff16151514620001a6576040517f08c379a00000000000000000000000000000000000000000000000000000000081526004016200019d9062000893565b60405180910390fd5b6000811480620001b65750600181145b80620001c25750600281145b62000204576040517f08c379a0000000000000000000000000000000000000000000000000000000008152600401620001fb90620008d7565b60405180910390fd5b600081141562000399576000600160048054905062000224919062000957565b9050600460405180608001604052808381526020018573ffffffffffffffffffffffffffffffffffffffff1681526020016040518060400160405280600b81526020017f426f6172644d656d62657200000000000000000000000000000000000000000081525081526020016000151581525090806001815401808255809150506001900390600052602060002090600402016000909190919091506000820151816000015560208201518160010160006101000a81548173ffffffffffffffffffffffffffffffffffffffff021916908373ffffffffffffffffffffffffffffffffffffffff16021790555060408201518160020190805190602001906200032f929190620006c4565b5060608201518160030160006101000a81548160ff02191690831515021790555050507f6b20eb62f1298cad3d3fe78b79d9d03ed50788e17184c1c0b61a05291ea520d881848460006040516200038a9493929190620008f9565b60405180910390a150620006c0565b60018114156200052e5760006001600480549050620003b9919062000957565b9050600460405180608001604052808381526020018573ffffffffffffffffffffffffffffffffffffffff1681526020016040518060400160405280600781526020017f546561636865720000000000000000000000000000000000000000000000000081525081526020016000151581525090806001815401808255809150506001900390600052602060002090600402016000909190919091506000820151816000015560208201518160010160006101000a81548173ffffffffffffffffffffffffffffffffffffffff021916908373ffffffffffffffffffffffffffffffffffffffff1602179055506040820151816002019080519060200190620004c4929190620006c4565b5060608201518160030160006101000a81548160ff02191690831515021790555050507f6b20eb62f1298cad3d3fe78b79d9d03ed50788e17184c1c0b61a05291ea520d881848460006040516200051f9493929190620008f9565b60405180910390a150620006bf565b6002811415620006be57600060016004805490506200054e919062000957565b9050600460405180608001604052808381526020018573ffffffffffffffffffffffffffffffffffffffff1681526020016040518060400160405280600781526020017f53747564656e740000000000000000000000000000000000000000000000000081525081526020016000151581525090806001815401808255809150506001900390600052602060002090600402016000909190919091506000820151816000015560208201518160010160006101000a81548173ffffffffffffffffffffffffffffffffffffffff021916908373ffffffffffffffffffffffffffffffffffffffff160217905550604082015181600201908051906020019062000659929190620006c4565b5060608201518160030160006101000a81548160ff02191690831515021790555050507f6b20eb62f1298cad3d3fe78b79d9d03ed50788e17184c1c0b61a05291ea520d88184846000604051620006b49493929190620008f9565b60405180910390a1505b5b5b5050565b828054620006d290620009fe565b90600052602060002090601f016020900481019282620006f6576000855562000742565b82601f106200071157805160ff191683800117855562000742565b8280016001018555821562000742579182015b828111156200074157825182559160200191906001019062000724565b5b50905062000751919062000755565b5090565b5b808211156200077057600081600090555060010162000756565b5090565b6200077f81620009b4565b82525050565b6200079081620009c8565b82525050565b6000620007a5601a8362000946565b91507f436f6e747261637420686173206265656e2064697361626c65640000000000006000830152602082019050919050565b6000620007e760268362000946565b91507f4f6e6c79207468652063686169726d616e20697320616c6c6f77656420746f2060008301527f6d6f6469667900000000000000000000000000000000000000000000000000006020830152604082019050919050565b60006200084f60188362000946565b91507f55736572207479706520646f6573206e6f7420657869737400000000000000006000830152602082019050919050565b6200088d81620009f4565b82525050565b60006020820190508181036000830152620008ae8162000796565b9050919050565b60006020820190508181036000830152620008d081620007d8565b9050919050565b60006020820190508181036000830152620008f28162000840565b9050919050565b600060808201905062000910600083018762000882565b6200091f602083018662000774565b6200092e604083018562000882565b6200093d606083018462000785565b95945050505050565b600082825260208201905092915050565b60006200096482620009f4565b91506200097183620009f4565b9250827fffffffffffffffffffffffffffffffffffffffffffffffffffffffffffffffff03821115620009a957620009a862000a34565b5b828201905092915050565b6000620009c182620009d4565b9050919050565b60008115159050919050565b600073ffffffffffffffffffffffffffffffffffffffff82169050919050565b6000819050919050565b6000600282049050600182168062000a1757607f821691505b6020821081141562000a2e5762000a2d62000a63565b5b50919050565b7f4e487b7100000000000000000000000000000000000000000000000000000000600052601160045260246000fd5b7f4e487b7100000000000000000000000000000000000000000000000000000000600052602260045260246000fd5b61315b8062000aa26000396000f3fe608060405234801561001057600080fd5b50600436106101725760003560e01c80637a89281e116100de5780639f88a0cf11610097578063c10196fa11610071578063c10196fa146103a3578063c857ecbe146103c1578063d962aa3d146103df578063f3c95c60146103fb57610172565b80639f88a0cf1461035f578063b384abef14610369578063b3a4dc2f1461038557610172565b80637a89281e146102b35780637cba25da146102e35780637d467dcb146102ff578063811094e41461031d578063894ba8331461033957806393dfc8eb1461034357610172565b8063421ac42e11610130578063421ac42e14610215578063512e711e146102335780635b2585d6146102515780635b3e5cd31461026d5780635ca2797c1461028b578063794566d71461029557610172565b8062ce8e3e1461017757806319abe7b814610195578063313cedf0146101b3578063367edd32146101d1578063410de7a6146101db57806341ecf700146101f7575b600080fd5b61017f61042b565b60405161018c9190612ac5565b60405180910390f35b61019d6105ed565b6040516101aa9190612ae7565b60405180910390f35b6101bb6106b6565b6040516101c89190612b09565b60405180910390f35b6101d96106cd565b005b6101f560048036038101906101f091906123c0565b6107b0565b005b6101ff6108ac565b60405161020c9190612b09565b60405180910390f35b61021d610918565b60405161022a9190612b09565b60405180910390f35b61023b61092b565b6040516102489190612b09565b60405180910390f35b61026b600480360381019061026691906123c0565b61093e565b005b610275610a3a565b6040516102829190612b09565b60405180910390f35b610293610aa6565b005b61029d610bdf565b6040516102aa9190612b09565b60405180910390f35b6102cd60048036038101906102c8919061231a565b610bf2565b6040516102da9190612b09565b60405180910390f35b6102fd60048036038101906102f891906123c0565b610c9f565b005b610307610d8f565b6040516103149190612b09565b60405180910390f35b610337600480360381019061033291906123e9565b610da2565b005b6103416111d7565b005b61035d60048036038101906103589190612343565b611310565b005b6103676118f6565b005b610383600480360381019061037e91906123e9565b611a2f565b005b61038d611d83565b60405161039a9190612c34565b60405180910390f35b6103ab611d89565b6040516103b89190612aa3565b60405180910390f35b6103c9611eff565b6040516103d69190612b09565b60405180910390f35b6103f960048036038101906103f4919061237f565b611f6b565b005b6104156004803603810190610410919061231a565b6120bc565b6040516104229190612b09565b60405180910390f35b606060001515600760009054906101000a900460ff16151514610483576040517f08c379a000000000000000000000000000000000000000000000000000000000815260040161047a90612b54565b60405180910390fd5b6004805480602002602001604051908101604052809291908181526020016000905b828210156105e45783829060005260206000209060040201604051806080016040529081600082015481526020016001820160009054906101000a900473ffffffffffffffffffffffffffffffffffffffff1673ffffffffffffffffffffffffffffffffffffffff1673ffffffffffffffffffffffffffffffffffffffff16815260200160028201805461053890612fde565b80601f016020809104026020016040519081016040528092919081815260200182805461056490612fde565b80156105b15780601f10610586576101008083540402835291602001916105b1565b820191906000526020600020905b81548152906001019060200180831161059457829003601f168201915b505050505081526020016003820160009054906101000a900460ff161515151581525050815260200190600101906104a5565b50505050905090565b606060001515600760009054906101000a900460ff16151514610645576040517f08c379a000000000000000000000000000000000000000000000000000000000815260040161063c90612b54565b60405180910390fd5b6002805480602002602001604051908101604052809291908181526020016000905b828210156106ad57838290600052602060002090600202016040518060400160405290816000820154815260200160018201548152505081526020019060010190610667565b50505050905090565b6000600760009054906101000a900460ff16905090565b60008054906101000a900473ffffffffffffffffffffffffffffffffffffffff1673ffffffffffffffffffffffffffffffffffffffff163373ffffffffffffffffffffffffffffffffffffffff161461075b576040517f08c379a000000000000000000000000000000000000000000000000000000000815260040161075290612b94565b60405180910390fd5b6000600760006101000a81548160ff0219169083151502179055507fb332ca16caa1c4a06e0ac387e6f16243ed23af2575eb84c3417d16dbbfa3f34360006040516107a69190612b09565b60405180910390a1565b60001515600760009054906101000a900460ff16151514610806576040517f08c379a00000000000000000000000000000000000000000000000000000000081526004016107fd90612b54565b60405180910390fd5b8060008114806108165750600181145b610855576040517f08c379a000000000000000000000000000000000000000000000000000000000815260040161084c90612bd4565b60405180910390fd5b6001600560016101000a81548160ff0219169083151502179055507f7391a69cbe7f7d60dcd848427cf512560c21aff11e6012a0eb9d42aa07dcfbfe60016040516108a09190612b09565b60405180910390a15050565b6000801515600760009054906101000a900460ff16151514610903576040517f08c379a00000000000000000000000000000000000000000000000000000000081526004016108fa90612b54565b60405180910390fd5b600560009054906101000a900460ff16905090565b600760009054906101000a900460ff1681565b600560019054906101000a900460ff1681565b60001515600760009054906101000a900460ff16151514610994576040517f08c379a000000000000000000000000000000000000000000000000000000000815260040161098b90612b54565b60405180910390fd5b8060008114806109a45750600181145b6109e3576040517f08c379a00000000000000000000000000000000000000000000000000000000081526004016109da90612bd4565b60405180910390fd5b6000600560016101000a81548160ff0219169083151502179055507f7391a69cbe7f7d60dcd848427cf512560c21aff11e6012a0eb9d42aa07dcfbfe6000604051610a2e9190612b09565b60405180910390a15050565b6000801515600760009054906101000a900460ff16151514610a91576040517f08c379a0000000000000000000000000000000000000000000000000000000008152600401610a8890612b54565b60405180910390fd5b600560019054906101000a900460ff16905090565b60001515600760009054906101000a900460ff16151514610afc576040517f08c379a0000000000000000000000000000000000000000000000000000000008152600401610af390612b54565b60405180910390fd5b60008054906101000a900473ffffffffffffffffffffffffffffffffffffffff1673ffffffffffffffffffffffffffffffffffffffff163373ffffffffffffffffffffffffffffffffffffffff1614610b8a576040517f08c379a0000000000000000000000000000000000000000000000000000000008152600401610b8190612b94565b60405180910390fd5b6001600560006101000a81548160ff0219169083151502179055507f24505c2a690f21afd3a9d6fd8280e5a12ad3fcf5edee69a44d19537561a85ad86001604051610bd59190612b09565b60405180910390a1565b600560029054906101000a900460ff1681565b6000801515600760009054906101000a900460ff16151514610c49576040517f08c379a0000000000000000000000000000000000000000000000000000000008152600401610c4090612b54565b60405180910390fd5b8173ffffffffffffffffffffffffffffffffffffffff1660008054906101000a900473ffffffffffffffffffffffffffffffffffffffff1673ffffffffffffffffffffffffffffffffffffffff16149050919050565b806000811480610caf5750600181145b610cee576040517f08c379a0000000000000000000000000000000000000000000000000000000008152600401610ce590612bd4565b60405180910390fd5b60001515600760009054906101000a900460ff16151514610d44576040517f08c379a0000000000000000000000000000000000000000000000000000000008152600401610d3b90612b54565b60405180910390fd5b6001600560026101000a81548160ff0219169083151502179055507f7a19ed057db79e3c2fa0b97a54b43bef4fce74b31bb6c01af514b9a18a7f70ab60405160405180910390a15050565b600560009054906101000a900460ff1681565b60008054906101000a900473ffffffffffffffffffffffffffffffffffffffff1673ffffffffffffffffffffffffffffffffffffffff163373ffffffffffffffffffffffffffffffffffffffff1614610e30576040517f08c379a0000000000000000000000000000000000000000000000000000000008152600401610e2790612b94565b60405180910390fd5b60001515600760009054906101000a900460ff16151514610e86576040517f08c379a0000000000000000000000000000000000000000000000000000000008152600401610e7d90612b54565b60405180910390fd5b6001821415610eca576040517f08c379a0000000000000000000000000000000000000000000000000000000008152600401610ec190612bb4565b60405180910390fd5b6000811480610ed95750600181145b80610ee45750600281145b610f23576040517f08c379a0000000000000000000000000000000000000000000000000000000008152600401610f1a90612c14565b60405180910390fd5b6000811415611009576040518060400160405280600b81526020017f426f6172644d656d6265720000000000000000000000000000000000000000008152506004600184610f719190612f0e565b81548110610fa8577f4e487b7100000000000000000000000000000000000000000000000000000000600052603260045260246000fd5b90600052602060002090600402016002019080519060200190610fcc9291906121e5565b507f12523f2a740b8fc93b2bdc49d3e14b8198f975653db12a894ab58b4be45b7e7282604051610ffc9190612ce0565b60405180910390a16111d3565b60018114156110ef576040518060400160405280600781526020017f546561636865720000000000000000000000000000000000000000000000000081525060046001846110579190612f0e565b8154811061108e577f4e487b7100000000000000000000000000000000000000000000000000000000600052603260045260246000fd5b906000526020600020906004020160020190805190602001906110b29291906121e5565b507f12523f2a740b8fc93b2bdc49d3e14b8198f975653db12a894ab58b4be45b7e72826040516110e29190612d0e565b60405180910390a16111d2565b60028114156111d1576040518060400160405280600781526020017f53747564656e7400000000000000000000000000000000000000000000000000815250600460018461113d9190612f0e565b81548110611174577f4e487b7100000000000000000000000000000000000000000000000000000000600052603260045260246000fd5b906000526020600020906004020160020190805190602001906111989291906121e5565b507f12523f2a740b8fc93b2bdc49d3e14b8198f975653db12a894ab58b4be45b7e72826040516111c89190612d3c565b60405180910390a15b5b5b5050565b60001515600760009054906101000a900460ff1615151461122d576040517f08c379a000000000000000000000000000000000000000000000000000000000815260040161122490612b54565b60405180910390fd5b60008054906101000a900473ffffffffffffffffffffffffffffffffffffffff1673ffffffffffffffffffffffffffffffffffffffff163373ffffffffffffffffffffffffffffffffffffffff16146112bb576040517f08c379a00000000000000000000000000000000000000000000000000000000081526004016112b290612b94565b60405180910390fd5b6001600760006101000a81548160ff0219169083151502179055507f46a78bf7ff8f677ad559c47d73bbd80cc457eaa9e07d76e336d61cac18fee98b60016040516113069190612b09565b60405180910390a1565b60008054906101000a900473ffffffffffffffffffffffffffffffffffffffff1673ffffffffffffffffffffffffffffffffffffffff163373ffffffffffffffffffffffffffffffffffffffff161461139e576040517f08c379a000000000000000000000000000000000000000000000000000000000815260040161139590612b94565b60405180910390fd5b60001515600760009054906101000a900460ff161515146113f4576040517f08c379a00000000000000000000000000000000000000000000000000000000081526004016113eb90612b54565b60405180910390fd5b60008114806114035750600181145b8061140e5750600281145b61144d576040517f08c379a000000000000000000000000000000000000000000000000000000000815260040161144490612c14565b60405180910390fd5b60008114156115da576000600160048054905061146a9190612eb8565b9050600460405180608001604052808381526020018573ffffffffffffffffffffffffffffffffffffffff1681526020016040518060400160405280600b81526020017f426f6172644d656d62657200000000000000000000000000000000000000000081525081526020016000151581525090806001815401808255809150506001900390600052602060002090600402016000909190919091506000820151816000015560208201518160010160006101000a81548173ffffffffffffffffffffffffffffffffffffffff021916908373ffffffffffffffffffffffffffffffffffffffff16021790555060408201518160020190805190602001906115739291906121e5565b5060608201518160030160006101000a81548160ff02191690831515021790555050507f6b20eb62f1298cad3d3fe78b79d9d03ed50788e17184c1c0b61a05291ea520d881848460006040516115cc9493929190612c4f565b60405180910390a1506118f2565b600181141561176757600060016004805490506115f79190612eb8565b9050600460405180608001604052808381526020018573ffffffffffffffffffffffffffffffffffffffff1681526020016040518060400160405280600781526020017f546561636865720000000000000000000000000000000000000000000000000081525081526020016000151581525090806001815401808255809150506001900390600052602060002090600402016000909190919091506000820151816000015560208201518160010160006101000a81548173ffffffffffffffffffffffffffffffffffffffff021916908373ffffffffffffffffffffffffffffffffffffffff16021790555060408201518160020190805190602001906117009291906121e5565b5060608201518160030160006101000a81548160ff02191690831515021790555050507f6b20eb62f1298cad3d3fe78b79d9d03ed50788e17184c1c0b61a05291ea520d881848460006040516117599493929190612c4f565b60405180910390a1506118f1565b60028114156118f057600060016004805490506117849190612eb8565b9050600460405180608001604052808381526020018573ffffffffffffffffffffffffffffffffffffffff1681526020016040518060400160405280600781526020017f53747564656e740000000000000000000000000000000000000000000000000081525081526020016000151581525090806001815401808255809150506001900390600052602060002090600402016000909190919091506000820151816000015560208201518160010160006101000a81548173ffffffffffffffffffffffffffffffffffffffff021916908373ffffffffffffffffffffffffffffffffffffffff160217905550604082015181600201908051906020019061188d9291906121e5565b5060608201518160030160006101000a81548160ff02191690831515021790555050507f6b20eb62f1298cad3d3fe78b79d9d03ed50788e17184c1c0b61a05291ea520d881848460006040516118e69493929190612c4f565b60405180910390a1505b5b5b5050565b60001515600760009054906101000a900460ff1615151461194c576040517f08c379a000000000000000000000000000000000000000000000000000000000815260040161194390612b54565b60405180910390fd5b60008054906101000a900473ffffffffffffffffffffffffffffffffffffffff1673ffffffffffffffffffffffffffffffffffffffff163373ffffffffffffffffffffffffffffffffffffffff16146119da576040517f08c379a00000000000000000000000000000000000000000000000000000000081526004016119d190612b94565b60405180910390fd5b6000600560006101000a81548160ff0219169083151502179055507fd3dc25b085205a3d69d2d144a9f0a0767b54be27b041bcbdb5308a676c1f39376000604051611a259190612b09565b60405180910390a1565b60011515600560009054906101000a900460ff16151514611a4f57600080fd5b60001515600760009054906101000a900460ff16151514611aa5576040517f08c379a0000000000000000000000000000000000000000000000000000000008152600401611a9c90612b54565b60405180910390fd5b60001515600560029054906101000a900460ff16151514611afb576040517f08c379a0000000000000000000000000000000000000000000000000000000008152600401611af290612b74565b60405180910390fd5b600015156004600183611b0e9190612f0e565b81548110611b45577f4e487b7100000000000000000000000000000000000000000000000000000000600052603260045260246000fd5b906000526020600020906004020160030160009054906101000a900460ff16151514611ba6576040517f08c379a0000000000000000000000000000000000000000000000000000000008152600401611b9d90612bf4565b60405180910390fd5b60016004600183611bb79190612f0e565b81548110611bee577f4e487b7100000000000000000000000000000000000000000000000000000000600052603260045260246000fd5b906000526020600020906004020160030160006101000a81548160ff02191690831515021790555060006001600280549050611c2a9190612eb8565b905060026040518060400160405280838152602001858152509080600181540180825580915050600190039060005260206000209060020201600090919091909150600082015181600001556020820151816001015550506003600184611c919190612f0e565b81548110611cc8577f4e487b7100000000000000000000000000000000000000000000000000000000600052603260045260246000fd5b90600052602060002090600402016002016000815480929190611cea90613010565b91905055507f3894cca7f62969f5f8326aad1950b0cd936eb3c2b8e957265c4918d185a1f68f6003600185611d1f9190612f0e565b81548110611d56577f4e487b7100000000000000000000000000000000000000000000000000000000600052603260045260246000fd5b906000526020600020906004020160010183604051611d76929190612b24565b60405180910390a1505050565b60065481565b606060001515600760009054906101000a900460ff16151514611de1576040517f08c379a0000000000000000000000000000000000000000000000000000000008152600401611dd890612b54565b60405180910390fd5b6003805480602002602001604051908101604052809291908181526020016000905b82821015611ef6578382906000526020600020906004020160405180608001604052908160008201548152602001600182018054611e4090612fde565b80601f0160208091040260200160405190810160405280929190818152602001828054611e6c90612fde565b8015611eb95780601f10611e8e57610100808354040283529160200191611eb9565b820191906000526020600020905b815481529060010190602001808311611e9c57829003601f168201915b50505050508152602001600282015481526020016003820160009054906101000a900460ff16151515158152505081526020019060010190611e03565b50505050905090565b6000801515600760009054906101000a900460ff16151514611f56576040517f08c379a0000000000000000000000000000000000000000000000000000000008152600401611f4d90612b54565b60405180910390fd5b600560029054906101000a900460ff16905090565b60001515600760009054906101000a900460ff16151514611fc1576040517f08c379a0000000000000000000000000000000000000000000000000000000008152600401611fb890612b54565b60405180910390fd5b60006001600380549050611fd59190612eb8565b9050600360405180608001604052808381526020018481526020016000815260200160001515815250908060018154018082558091505060019003906000526020600020906004020160009091909190915060008201518160000155602082015181600101908051906020019061204d9291906121e5565b506040820151816002015560608201518160030160006101000a81548160ff02191690831515021790555050507f1d58ebd61d2b8ddd2f0ec09260e573e2048929d40687fb178f27634264a8371681836000806040516120b09493929190612c94565b60405180910390a15050565b6000801515600760009054906101000a900460ff16151514612113576040517f08c379a000000000000000000000000000000000000000000000000000000000815260040161210a90612b54565b60405180910390fd5b6000805b6004805490508110156121db578373ffffffffffffffffffffffffffffffffffffffff1660048281548110612175577f4e487b7100000000000000000000000000000000000000000000000000000000600052603260045260246000fd5b906000526020600020906004020160010160009054906101000a900473ffffffffffffffffffffffffffffffffffffffff1673ffffffffffffffffffffffffffffffffffffffff1614156121c857600191505b80806121d390613010565b915050612117565b5080915050919050565b8280546121f190612fde565b90600052602060002090601f016020900481019282612213576000855561225a565b82601f1061222c57805160ff191683800117855561225a565b8280016001018555821561225a579182015b8281111561225957825182559160200191906001019061223e565b5b509050612267919061226b565b5090565b5b8082111561228457600081600090555060010161226c565b5090565b600061229b61229684612d9b565b612d6a565b9050828152602081018484840111156122b357600080fd5b6122be848285612f9c565b509392505050565b6000813590506122d5816130f7565b92915050565b600082601f8301126122ec57600080fd5b81356122fc848260208601612288565b91505092915050565b6000813590506123148161310e565b92915050565b60006020828403121561232c57600080fd5b600061233a848285016122c6565b91505092915050565b6000806040838503121561235657600080fd5b6000612364858286016122c6565b925050602061237585828601612305565b9150509250929050565b60006020828403121561239157600080fd5b600082013567ffffffffffffffff8111156123ab57600080fd5b6123b7848285016122db565b91505092915050565b6000602082840312156123d257600080fd5b60006123e084828501612305565b91505092915050565b600080604083850312156123fc57600080fd5b600061240a85828601612305565b925050602061241b85828601612305565b9150509250929050565b60006124318383612990565b905092915050565b600061244583836129f3565b905092915050565b60006124598383612a56565b60408301905092915050565b61246e81612f42565b82525050565b61247d81612f42565b82525050565b600061248e82612e10565b6124988185612e63565b9350836020820285016124aa85612dcb565b8060005b858110156124e657848403895281516124c78582612425565b94506124d283612e3c565b925060208a019950506001810190506124ae565b50829750879550505050505092915050565b600061250382612e1b565b61250d8185612e74565b93508360208202850161251f85612ddb565b8060005b8581101561255b578484038952815161253c8582612439565b945061254783612e49565b925060208a01995050600181019050612523565b50829750879550505050505092915050565b600061257882612e26565b6125828185612e85565b935061258d83612deb565b8060005b838110156125be5781516125a5888261244d565b97506125b083612e56565b925050600181019050612591565b5085935050505092915050565b6125d481612f54565b82525050565b6125e381612f54565b82525050565b6125f281612f8a565b82525050565b600061260382612e31565b61260d8185612e96565b935061261d818560208601612fab565b612626816130e6565b840191505092915050565b600061263c82612e31565b6126468185612ea7565b9350612656818560208601612fab565b61265f816130e6565b840191505092915050565b6000815461267781612fde565b6126818186612ea7565b9450600182166000811461269c57600181146126ae576126e1565b60ff19831686526020860193506126e1565b6126b785612dfb565b60005b838110156126d9578154818901526001820191506020810190506126ba565b808801955050505b50505092915050565b60006126f7600b83612ea7565b91507f426f6172644d656d6265720000000000000000000000000000000000000000006000830152602082019050919050565b6000612737600783612ea7565b91507f54656163686572000000000000000000000000000000000000000000000000006000830152602082019050919050565b6000612777601a83612ea7565b91507f436f6e747261637420686173206265656e2064697361626c65640000000000006000830152602082019050919050565b60006127b7601083612ea7565b91507f566f74696e672068617320656e646564000000000000000000000000000000006000830152602082019050919050565b60006127f7602683612ea7565b91507f4f6e6c79207468652063686169726d616e20697320616c6c6f77656420746f2060008301527f6d6f6469667900000000000000000000000000000000000000000000000000006020830152604082019050919050565b600061285d601a83612ea7565b91507f596f752063616e6e6f742075706461746520796f757273656c660000000000006000830152602082019050919050565b600061289d601683612ea7565b91507f596f7520617265206e6f7420617574686f72697a6564000000000000000000006000830152602082019050919050565b60006128dd601583612ea7565b91507f596f752063616e6e6f7420766f746520747769636500000000000000000000006000830152602082019050919050565b600061291d601883612ea7565b91507f55736572207479706520646f6573206e6f7420657869737400000000000000006000830152602082019050919050565b600061295d600783612ea7565b91507f53747564656e74000000000000000000000000000000000000000000000000006000830152602082019050919050565b60006080830160008301516129a86000860182612a85565b50602083015184820360208601526129c082826125f8565b91505060408301516129d56040860182612a85565b5060608301516129e860608601826125cb565b508091505092915050565b6000608083016000830151612a0b6000860182612a85565b506020830151612a1e6020860182612465565b5060408301518482036040860152612a3682826125f8565b9150506060830151612a4b60608601826125cb565b508091505092915050565b604082016000820151612a6c6000850182612a85565b506020820151612a7f6020850182612a85565b50505050565b612a8e81612f80565b82525050565b612a9d81612f80565b82525050565b60006020820190508181036000830152612abd8184612483565b905092915050565b60006020820190508181036000830152612adf81846124f8565b905092915050565b60006020820190508181036000830152612b01818461256d565b905092915050565b6000602082019050612b1e60008301846125da565b92915050565b60006040820190508181036000830152612b3e818561266a565b9050612b4d6020830184612a94565b9392505050565b60006020820190508181036000830152612b6d8161276a565b9050919050565b60006020820190508181036000830152612b8d816127aa565b9050919050565b60006020820190508181036000830152612bad816127ea565b9050919050565b60006020820190508181036000830152612bcd81612850565b9050919050565b60006020820190508181036000830152612bed81612890565b9050919050565b60006020820190508181036000830152612c0d816128d0565b9050919050565b60006020820190508181036000830152612c2d81612910565b9050919050565b6000602082019050612c496000830184612a94565b92915050565b6000608082019050612c646000830187612a94565b612c716020830186612474565b612c7e6040830185612a94565b612c8b60608301846125da565b95945050505050565b6000608082019050612ca96000830187612a94565b8181036020830152612cbb8186612631565b9050612cca60408301856125e9565b612cd760608301846125da565b95945050505050565b6000604082019050612cf56000830184612a94565b8181036020830152612d06816126ea565b905092915050565b6000604082019050612d236000830184612a94565b8181036020830152612d348161272a565b905092915050565b6000604082019050612d516000830184612a94565b8181036020830152612d6281612950565b905092915050565b6000604051905081810181811067ffffffffffffffff82111715612d9157612d906130b7565b5b8060405250919050565b600067ffffffffffffffff821115612db657612db56130b7565b5b601f19601f8301169050602081019050919050565b6000819050602082019050919050565b6000819050602082019050919050565b6000819050602082019050919050565b60008190508160005260206000209050919050565b600081519050919050565b600081519050919050565b600081519050919050565b600081519050919050565b6000602082019050919050565b6000602082019050919050565b6000602082019050919050565b600082825260208201905092915050565b600082825260208201905092915050565b600082825260208201905092915050565b600082825260208201905092915050565b600082825260208201905092915050565b6000612ec382612f80565b9150612ece83612f80565b9250827fffffffffffffffffffffffffffffffffffffffffffffffffffffffffffffffff03821115612f0357612f02613059565b5b828201905092915050565b6000612f1982612f80565b9150612f2483612f80565b925082821015612f3757612f36613059565b5b828203905092915050565b6000612f4d82612f60565b9050919050565b60008115159050919050565b600073ffffffffffffffffffffffffffffffffffffffff82169050919050565b6000819050919050565b6000612f9582612f80565b9050919050565b82818337600083830152505050565b60005b83811015612fc9578082015181840152602081019050612fae565b83811115612fd8576000848401525b50505050565b60006002820490506001821680612ff657607f821691505b6020821081141561300a57613009613088565b5b50919050565b600061301b82612f80565b91507fffffffffffffffffffffffffffffffffffffffffffffffffffffffffffffffff82141561304e5761304d613059565b5b600182019050919050565b7f4e487b7100000000000000000000000000000000000000000000000000000000600052601160045260246000fd5b7f4e487b7100000000000000000000000000000000000000000000000000000000600052602260045260246000fd5b7f4e487b7100000000000000000000000000000000000000000000000000000000600052604160045260246000fd5b6000601f19601f8301169050919050565b61310081612f42565b811461310b57600080fd5b50565b61311781612f80565b811461312257600080fd5b5056fea264697066735822122082d648cdc0650b0960ff37aa84fda34e9307b2585c62391345e70f7a3d0a9d4d64736f6c63430008000033",
  "linkReferences": {},
  "deployedLinkReferences": {}
}