{
  "_format": "hh-sol-artifact-1",
  "contractName": "Voting",
  "sourceName": "contracts/Voting.sol",
  "abi": [
    {
      "inputs": [],
      "stateMutability": "nonpayable",
      "type": "constructor"
    },
    {
      "anonymous": false,
      "inputs": [
        {
          "indexed": false,
          "internalType": "string",
          "name": "contestantName_",
          "type": "string"
        },
        {
          "indexed": false,
          "internalType": "uint256",
          "name": "userId_",
          "type": "uint256"
        }
      ],
      "name": "VoteOccurred",
      "type": "event"
    },
    {
      "anonymous": false,
      "inputs": [
        {
          "indexed": false,
          "internalType": "bool",
          "name": "status",
          "type": "bool"
        }
      ],
      "name": "VotesVisibility",
      "type": "event"
    },
    {
      "anonymous": false,
      "inputs": [
        {
          "indexed": false,
          "internalType": "bool",
          "name": "status",
          "type": "bool"
        }
      ],
      "name": "VotingDisabled",
      "type": "event"
    },
    {
      "anonymous": false,
      "inputs": [
        {
          "indexed": false,
          "internalType": "bool",
          "name": "status",
          "type": "bool"
        }
      ],
      "name": "VotingEnabled",
      "type": "event"
    },
    {
      "anonymous": false,
      "inputs": [
        {
          "indexed": false,
          "internalType": "uint256",
          "name": "contestantId",
          "type": "uint256"
        },
        {
          "indexed": false,
          "internalType": "string",
          "name": "name",
          "type": "string"
        },
        {
          "indexed": false,
          "internalType": "uint256",
          "name": "numberOfVotes",
          "type": "uint256"
        },
        {
          "indexed": false,
          "internalType": "bool",
          "name": "hasWon",
          "type": "bool"
        }
      ],
      "name": "contestantCreated",
      "type": "event"
    },
    {
      "anonymous": false,
      "inputs": [
        {
          "indexed": false,
          "internalType": "uint256",
          "name": "userId",
          "type": "uint256"
        },
        {
          "indexed": false,
          "internalType": "address",
          "name": "userAddress",
          "type": "address"
        },
        {
          "indexed": false,
          "internalType": "uint256",
          "name": "userType",
          "type": "uint256"
        },
        {
          "indexed": false,
          "internalType": "bool",
          "name": "hasVoted",
          "type": "bool"
        }
      ],
      "name": "userCreated",
      "type": "event"
    },
    {
      "anonymous": false,
      "inputs": [
        {
          "indexed": false,
          "internalType": "string",
          "name": "message",
          "type": "string"
        }
      ],
      "name": "userCreationFailed",
      "type": "event"
    },
    {
      "anonymous": false,
      "inputs": [
        {
          "indexed": false,
          "internalType": "string",
          "name": "message",
          "type": "string"
        }
      ],
      "name": "userTypeUpdateFailure",
      "type": "event"
    },
    {
      "anonymous": false,
      "inputs": [
        {
          "indexed": false,
          "internalType": "uint256",
          "name": "userId_",
          "type": "uint256"
        },
        {
          "indexed": false,
          "internalType": "string",
          "name": "userType_",
          "type": "string"
        }
      ],
      "name": "userTypeUpdated",
      "type": "event"
    },
    {
      "inputs": [],
      "name": "_canVote",
      "outputs": [
        {
          "internalType": "bool",
          "name": "",
          "type": "bool"
        }
      ],
      "stateMutability": "view",
      "type": "function"
    },
    {
      "inputs": [],
      "name": "_isVoteVisible",
      "outputs": [
        {
          "internalType": "bool",
          "name": "",
          "type": "bool"
        }
      ],
      "stateMutability": "view",
      "type": "function"
    },
    {
      "inputs": [
        {
          "internalType": "uint256",
          "name": "userId_",
          "type": "uint256"
        },
        {
          "internalType": "uint256",
          "name": "_userType",
          "type": "uint256"
        }
      ],
      "name": "changeUserType",
      "outputs": [],
      "stateMutability": "nonpayable",
      "type": "function"
    },
    {
      "inputs": [
        {
          "internalType": "address",
          "name": "user",
          "type": "address"
        }
      ],
      "name": "checkIfChairman",
      "outputs": [
        {
          "internalType": "bool",
          "name": "",
          "type": "bool"
        }
      ],
      "stateMutability": "view",
      "type": "function"
    },
    {
      "inputs": [
        {
          "internalType": "string",
          "name": "_name",
          "type": "string"
        }
      ],
      "name": "createContestant",
      "outputs": [],
      "stateMutability": "nonpayable",
      "type": "function"
    },
    {
      "inputs": [
        {
          "internalType": "address",
          "name": "_userAddress",
          "type": "address"
        },
        {
          "internalType": "uint256",
          "name": "_userType",
          "type": "uint256"
        }
      ],
      "name": "createUser",
      "outputs": [],
      "stateMutability": "nonpayable",
      "type": "function"
    },
    {
      "inputs": [],
      "name": "disbaleVote",
      "outputs": [],
      "stateMutability": "nonpayable",
      "type": "function"
    },
    {
      "inputs": [],
      "name": "enableVote",
      "outputs": [],
      "stateMutability": "nonpayable",
      "type": "function"
    },
    {
      "inputs": [],
      "name": "getContestants",
      "outputs": [
        {
          "components": [
            {
              "internalType": "uint256",
              "name": "id",
              "type": "uint256"
            },
            {
              "internalType": "string",
              "name": "name",
              "type": "string"
            },
            {
              "internalType": "uint256",
              "name": "numberOfVotes",
              "type": "uint256"
            },
            {
              "internalType": "bool",
              "name": "hasWon",
              "type": "bool"
            }
          ],
          "internalType": "struct Voting.contestantInfo[]",
          "name": "",
          "type": "tuple[]"
        }
      ],
      "stateMutability": "view",
      "type": "function"
    },
    {
      "inputs": [],
      "name": "getUsers",
      "outputs": [
        {
          "components": [
            {
              "internalType": "uint256",
              "name": "userId",
              "type": "uint256"
            },
            {
              "internalType": "address",
              "name": "userAddress",
              "type": "address"
            },
            {
              "internalType": "string",
              "name": "userType",
              "type": "string"
            },
            {
              "internalType": "bool",
              "name": "hasVoted",
              "type": "bool"
            }
          ],
          "internalType": "struct Voting.userInfo[]",
          "name": "",
          "type": "tuple[]"
        }
      ],
      "stateMutability": "view",
      "type": "function"
    },
    {
      "inputs": [
        {
          "internalType": "uint256",
          "name": "_userType",
          "type": "uint256"
        }
      ],
      "name": "hideVotesVisibility",
      "outputs": [],
      "stateMutability": "nonpayable",
      "type": "function"
    },
    {
      "inputs": [],
      "name": "highestVote",
      "outputs": [
        {
          "internalType": "uint256",
          "name": "",
          "type": "uint256"
        }
      ],
      "stateMutability": "view",
      "type": "function"
    },
    {
      "inputs": [],
      "name": "isVotingEnabled",
      "outputs": [
        {
          "internalType": "bool",
          "name": "",
          "type": "bool"
        }
      ],
      "stateMutability": "view",
      "type": "function"
    },
    {
      "inputs": [
        {
          "internalType": "uint256",
          "name": "_userType",
          "type": "uint256"
        }
      ],
      "name": "showVotesVisibility",
      "outputs": [],
      "stateMutability": "nonpayable",
      "type": "function"
    },
    {
      "inputs": [
        {
          "internalType": "uint256",
          "name": "contestantId_",
          "type": "uint256"
        },
        {
          "internalType": "uint256",
          "name": "userId_",
          "type": "uint256"
        }
      ],
      "name": "vote",
      "outputs": [],
      "stateMutability": "nonpayable",
      "type": "function"
    }
  ],
  "bytecode": "0x60806040523480156200001157600080fd5b50336000806101000a81548173ffffffffffffffffffffffffffffffffffffffff021916908373ffffffffffffffffffffffffffffffffffffffff1602179055506001600560006101000a81548160ff021916908315150217905550620000803360006200008660201b60201c565b6200099f565b60008054906101000a900473ffffffffffffffffffffffffffffffffffffffff1673ffffffffffffffffffffffffffffffffffffffff163373ffffffffffffffffffffffffffffffffffffffff161462000117576040517f08c379a00000000000000000000000000000000000000000000000000000000081526004016200010e90620007c2565b60405180910390fd5b6000811480620001275750600181145b80620001335750600281145b62000175576040517f08c379a00000000000000000000000000000000000000000000000000000000081526004016200016c90620007e4565b60405180910390fd5b60008114156200030a576000600160048054905062000195919062000864565b9050600460405180608001604052808381526020018573ffffffffffffffffffffffffffffffffffffffff1681526020016040518060400160405280600b81526020017f426f6172644d656d62657200000000000000000000000000000000000000000081525081526020016000151581525090806001815401808255809150506001900390600052602060002090600402016000909190919091506000820151816000015560208201518160010160006101000a81548173ffffffffffffffffffffffffffffffffffffffff021916908373ffffffffffffffffffffffffffffffffffffffff1602179055506040820151816002019080519060200190620002a092919062000635565b5060608201518160030160006101000a81548160ff02191690831515021790555050507f6b20eb62f1298cad3d3fe78b79d9d03ed50788e17184c1c0b61a05291ea520d88184846000604051620002fb949392919062000806565b60405180910390a15062000631565b60018114156200049f57600060016004805490506200032a919062000864565b9050600460405180608001604052808381526020018573ffffffffffffffffffffffffffffffffffffffff1681526020016040518060400160405280600781526020017f546561636865720000000000000000000000000000000000000000000000000081525081526020016000151581525090806001815401808255809150506001900390600052602060002090600402016000909190919091506000820151816000015560208201518160010160006101000a81548173ffffffffffffffffffffffffffffffffffffffff021916908373ffffffffffffffffffffffffffffffffffffffff16021790555060408201518160020190805190602001906200043592919062000635565b5060608201518160030160006101000a81548160ff02191690831515021790555050507f6b20eb62f1298cad3d3fe78b79d9d03ed50788e17184c1c0b61a05291ea520d8818484600060405162000490949392919062000806565b60405180910390a15062000630565b60028114156200062f5760006001600480549050620004bf919062000864565b9050600460405180608001604052808381526020018573ffffffffffffffffffffffffffffffffffffffff1681526020016040518060400160405280600781526020017f53747564656e740000000000000000000000000000000000000000000000000081525081526020016000151581525090806001815401808255809150506001900390600052602060002090600402016000909190919091506000820151816000015560208201518160010160006101000a81548173ffffffffffffffffffffffffffffffffffffffff021916908373ffffffffffffffffffffffffffffffffffffffff1602179055506040820151816002019080519060200190620005ca92919062000635565b5060608201518160030160006101000a81548160ff02191690831515021790555050507f6b20eb62f1298cad3d3fe78b79d9d03ed50788e17184c1c0b61a05291ea520d8818484600060405162000625949392919062000806565b60405180910390a1505b5b5b5050565b82805462000643906200090b565b90600052602060002090601f016020900481019282620006675760008555620006b3565b82601f106200068257805160ff1916838001178555620006b3565b82800160010185558215620006b3579182015b82811115620006b257825182559160200191906001019062000695565b5b509050620006c29190620006c6565b5090565b5b80821115620006e1576000816000905550600101620006c7565b5090565b620006f081620008c1565b82525050565b6200070181620008d5565b82525050565b60006200071660268362000853565b91507f4f6e6c79207468652063686169726d616e20697320616c6c6f77656420746f2060008301527f6d6f6469667900000000000000000000000000000000000000000000000000006020830152604082019050919050565b60006200077e60188362000853565b91507f55736572207479706520646f6573206e6f7420657869737400000000000000006000830152602082019050919050565b620007bc8162000901565b82525050565b60006020820190508181036000830152620007dd8162000707565b9050919050565b60006020820190508181036000830152620007ff816200076f565b9050919050565b60006080820190506200081d6000830187620007b1565b6200082c6020830186620006e5565b6200083b6040830185620007b1565b6200084a6060830184620006f6565b95945050505050565b600082825260208201905092915050565b6000620008718262000901565b91506200087e8362000901565b9250827fffffffffffffffffffffffffffffffffffffffffffffffffffffffffffffffff03821115620008b657620008b562000941565b5b828201905092915050565b6000620008ce82620008e1565b9050919050565b60008115159050919050565b600073ffffffffffffffffffffffffffffffffffffffff82169050919050565b6000819050919050565b600060028204905060018216806200092457607f821691505b602082108114156200093b576200093a62000970565b5b50919050565b7f4e487b7100000000000000000000000000000000000000000000000000000000600052601160045260246000fd5b7f4e487b7100000000000000000000000000000000000000000000000000000000600052602260045260246000fd5b6122f680620009af6000396000f3fe608060405234801561001057600080fd5b50600436106100f45760003560e01c80637d467dcb11610097578063b384abef11610066578063b384abef14610225578063b3a4dc2f14610241578063c10196fa1461025f578063d962aa3d1461027d576100f4565b80637d467dcb146101c5578063811094e4146101e357806393dfc8eb146101ff5780639f88a0cf1461021b576100f4565b8063512e711e116100d3578063512e711e146101515780635b2585d61461016f5780635ca2797c1461018b5780637a89281e14610195576100f4565b8062ce8e3e146100f9578063410de7a61461011757806341ecf70014610133575b600080fd5b610101610299565b60405161010e9190611d1b565b60405180910390f35b610131600480360381019061012c919061177b565b610405565b005b61013b6104ab565b6040516101489190611d3d565b60405180910390f35b6101596104c2565b6040516101669190611d3d565b60405180910390f35b6101896004803603810190610184919061177b565b6104d5565b005b61019361057b565b005b6101af60048036038101906101aa91906116d5565b61065e565b6040516101bc9190611d3d565b60405180910390f35b6101cd6106b6565b6040516101da9190611d3d565b60405180910390f35b6101fd60048036038101906101f891906117a4565b6106c9565b005b610219600480360381019061021491906116fe565b610a64565b005b610223610ff4565b005b61023f600480360381019061023a91906117a4565b6110d7565b005b61024961137f565b6040516102569190611e08565b60405180910390f35b610267611385565b6040516102749190611cf9565b60405180910390f35b6102976004803603810190610292919061173a565b6114a5565b005b60606004805480602002602001604051908101604052809291908181526020016000905b828210156103fc5783829060005260206000209060040201604051806080016040529081600082015481526020016001820160009054906101000a900473ffffffffffffffffffffffffffffffffffffffff1673ffffffffffffffffffffffffffffffffffffffff1673ffffffffffffffffffffffffffffffffffffffff16815260200160028201805461035090612179565b80601f016020809104026020016040519081016040528092919081815260200182805461037c90612179565b80156103c95780601f1061039e576101008083540402835291602001916103c9565b820191906000526020600020905b8154815290600101906020018083116103ac57829003601f168201915b505050505081526020016003820160009054906101000a900460ff161515151581525050815260200190600101906102bd565b50505050905090565b8060008114806104155750600181145b610454576040517f08c379a000000000000000000000000000000000000000000000000000000000815260040161044b90611da8565b60405180910390fd5b6001600560016101000a81548160ff0219169083151502179055507f7391a69cbe7f7d60dcd848427cf512560c21aff11e6012a0eb9d42aa07dcfbfe600160405161049f9190611d3d565b60405180910390a15050565b6000600560009054906101000a900460ff16905090565b600560019054906101000a900460ff1681565b8060008114806104e55750600181145b610524576040517f08c379a000000000000000000000000000000000000000000000000000000000815260040161051b90611da8565b60405180910390fd5b6000600560016101000a81548160ff0219169083151502179055507f7391a69cbe7f7d60dcd848427cf512560c21aff11e6012a0eb9d42aa07dcfbfe600060405161056f9190611d3d565b60405180910390a15050565b60008054906101000a900473ffffffffffffffffffffffffffffffffffffffff1673ffffffffffffffffffffffffffffffffffffffff163373ffffffffffffffffffffffffffffffffffffffff1614610609576040517f08c379a000000000000000000000000000000000000000000000000000000000815260040161060090611d88565b60405180910390fd5b6001600560006101000a81548160ff0219169083151502179055507f24505c2a690f21afd3a9d6fd8280e5a12ad3fcf5edee69a44d19537561a85ad860016040516106549190611d3d565b60405180910390a1565b60008173ffffffffffffffffffffffffffffffffffffffff1660008054906101000a900473ffffffffffffffffffffffffffffffffffffffff1673ffffffffffffffffffffffffffffffffffffffff16149050919050565b600560009054906101000a900460ff1681565b60008054906101000a900473ffffffffffffffffffffffffffffffffffffffff1673ffffffffffffffffffffffffffffffffffffffff163373ffffffffffffffffffffffffffffffffffffffff1614610757576040517f08c379a000000000000000000000000000000000000000000000000000000000815260040161074e90611d88565b60405180910390fd5b60008114806107665750600181145b806107715750600281145b6107b0576040517f08c379a00000000000000000000000000000000000000000000000000000000081526004016107a790611de8565b60405180910390fd5b6000811415610896576040518060400160405280600b81526020017f426f6172644d656d62657200000000000000000000000000000000000000000081525060046001846107fe91906120a9565b81548110610835577f4e487b7100000000000000000000000000000000000000000000000000000000600052603260045260246000fd5b906000526020600020906004020160020190805190602001906108599291906115a0565b507f12523f2a740b8fc93b2bdc49d3e14b8198f975653db12a894ab58b4be45b7e72826040516108899190611eb4565b60405180910390a1610a60565b600181141561097c576040518060400160405280600781526020017f546561636865720000000000000000000000000000000000000000000000000081525060046001846108e491906120a9565b8154811061091b577f4e487b7100000000000000000000000000000000000000000000000000000000600052603260045260246000fd5b9060005260206000209060040201600201908051906020019061093f9291906115a0565b507f12523f2a740b8fc93b2bdc49d3e14b8198f975653db12a894ab58b4be45b7e728260405161096f9190611ee2565b60405180910390a1610a5f565b6002811415610a5e576040518060400160405280600781526020017f53747564656e740000000000000000000000000000000000000000000000000081525060046001846109ca91906120a9565b81548110610a01577f4e487b7100000000000000000000000000000000000000000000000000000000600052603260045260246000fd5b90600052602060002090600402016002019080519060200190610a259291906115a0565b507f12523f2a740b8fc93b2bdc49d3e14b8198f975653db12a894ab58b4be45b7e7282604051610a559190611f10565b60405180910390a15b5b5b5050565b60008054906101000a900473ffffffffffffffffffffffffffffffffffffffff1673ffffffffffffffffffffffffffffffffffffffff163373ffffffffffffffffffffffffffffffffffffffff1614610af2576040517f08c379a0000000000000000000000000000000000000000000000000000000008152600401610ae990611d88565b60405180910390fd5b6000811480610b015750600181145b80610b0c5750600281145b610b4b576040517f08c379a0000000000000000000000000000000000000000000000000000000008152600401610b4290611de8565b60405180910390fd5b6000811415610cd85760006001600480549050610b689190612053565b9050600460405180608001604052808381526020018573ffffffffffffffffffffffffffffffffffffffff1681526020016040518060400160405280600b81526020017f426f6172644d656d62657200000000000000000000000000000000000000000081525081526020016000151581525090806001815401808255809150506001900390600052602060002090600402016000909190919091506000820151816000015560208201518160010160006101000a81548173ffffffffffffffffffffffffffffffffffffffff021916908373ffffffffffffffffffffffffffffffffffffffff1602179055506040820151816002019080519060200190610c719291906115a0565b5060608201518160030160006101000a81548160ff02191690831515021790555050507f6b20eb62f1298cad3d3fe78b79d9d03ed50788e17184c1c0b61a05291ea520d88184846000604051610cca9493929190611e23565b60405180910390a150610ff0565b6001811415610e655760006001600480549050610cf59190612053565b9050600460405180608001604052808381526020018573ffffffffffffffffffffffffffffffffffffffff1681526020016040518060400160405280600781526020017f546561636865720000000000000000000000000000000000000000000000000081525081526020016000151581525090806001815401808255809150506001900390600052602060002090600402016000909190919091506000820151816000015560208201518160010160006101000a81548173ffffffffffffffffffffffffffffffffffffffff021916908373ffffffffffffffffffffffffffffffffffffffff1602179055506040820151816002019080519060200190610dfe9291906115a0565b5060608201518160030160006101000a81548160ff02191690831515021790555050507f6b20eb62f1298cad3d3fe78b79d9d03ed50788e17184c1c0b61a05291ea520d88184846000604051610e579493929190611e23565b60405180910390a150610fef565b6002811415610fee5760006001600480549050610e829190612053565b9050600460405180608001604052808381526020018573ffffffffffffffffffffffffffffffffffffffff1681526020016040518060400160405280600781526020017f53747564656e740000000000000000000000000000000000000000000000000081525081526020016000151581525090806001815401808255809150506001900390600052602060002090600402016000909190919091506000820151816000015560208201518160010160006101000a81548173ffffffffffffffffffffffffffffffffffffffff021916908373ffffffffffffffffffffffffffffffffffffffff1602179055506040820151816002019080519060200190610f8b9291906115a0565b5060608201518160030160006101000a81548160ff02191690831515021790555050507f6b20eb62f1298cad3d3fe78b79d9d03ed50788e17184c1c0b61a05291ea520d88184846000604051610fe49493929190611e23565b60405180910390a1505b5b5b5050565b60008054906101000a900473ffffffffffffffffffffffffffffffffffffffff1673ffffffffffffffffffffffffffffffffffffffff163373ffffffffffffffffffffffffffffffffffffffff1614611082576040517f08c379a000000000000000000000000000000000000000000000000000000000815260040161107990611d88565b60405180910390fd5b6000600560006101000a81548160ff0219169083151502179055507fd3dc25b085205a3d69d2d144a9f0a0767b54be27b041bcbdb5308a676c1f393760006040516110cd9190611d3d565b60405180910390a1565b60011515600560009054906101000a900460ff161515146110f757600080fd5b60001515600460018361110a91906120a9565b81548110611141577f4e487b7100000000000000000000000000000000000000000000000000000000600052603260045260246000fd5b906000526020600020906004020160030160009054906101000a900460ff161515146111a2576040517f08c379a000000000000000000000000000000000000000000000000000000000815260040161119990611dc8565b60405180910390fd5b600160046001836111b391906120a9565b815481106111ea577f4e487b7100000000000000000000000000000000000000000000000000000000600052603260045260246000fd5b906000526020600020906004020160030160006101000a81548160ff021916908315150217905550600060016002805490506112269190612053565b90506002604051806040016040528083815260200185815250908060018154018082558091505060019003906000526020600020906002020160009091909190915060008201518160000155602082015181600101555050600360018461128d91906120a9565b815481106112c4577f4e487b7100000000000000000000000000000000000000000000000000000000600052603260045260246000fd5b906000526020600020906004020160020160008154809291906112e6906121ab565b91905055507f3894cca7f62969f5f8326aad1950b0cd936eb3c2b8e957265c4918d185a1f68f600360018561131b91906120a9565b81548110611352577f4e487b7100000000000000000000000000000000000000000000000000000000600052603260045260246000fd5b906000526020600020906004020160010183604051611372929190611d58565b60405180910390a1505050565b60065481565b60606003805480602002602001604051908101604052809291908181526020016000905b8282101561149c5783829060005260206000209060040201604051806080016040529081600082015481526020016001820180546113e690612179565b80601f016020809104026020016040519081016040528092919081815260200182805461141290612179565b801561145f5780601f106114345761010080835404028352916020019161145f565b820191906000526020600020905b81548152906001019060200180831161144257829003601f168201915b50505050508152602001600282015481526020016003820160009054906101000a900460ff161515151581525050815260200190600101906113a9565b50505050905090565b600060016003805490506114b99190612053565b905060036040518060800160405280838152602001848152602001600081526020016000151581525090806001815401808255809150506001900390600052602060002090600402016000909190919091506000820151816000015560208201518160010190805190602001906115319291906115a0565b506040820151816002015560608201518160030160006101000a81548160ff02191690831515021790555050507f1d58ebd61d2b8ddd2f0ec09260e573e2048929d40687fb178f27634264a8371681836000806040516115949493929190611e68565b60405180910390a15050565b8280546115ac90612179565b90600052602060002090601f0160209004810192826115ce5760008555611615565b82601f106115e757805160ff1916838001178555611615565b82800160010185558215611615579182015b828111156116145782518255916020019190600101906115f9565b5b5090506116229190611626565b5090565b5b8082111561163f576000816000905550600101611627565b5090565b600061165661165184611f6f565b611f3e565b90508281526020810184848401111561166e57600080fd5b611679848285612137565b509392505050565b60008135905061169081612292565b92915050565b600082601f8301126116a757600080fd5b81356116b7848260208601611643565b91505092915050565b6000813590506116cf816122a9565b92915050565b6000602082840312156116e757600080fd5b60006116f584828501611681565b91505092915050565b6000806040838503121561171157600080fd5b600061171f85828601611681565b9250506020611730858286016116c0565b9150509250929050565b60006020828403121561174c57600080fd5b600082013567ffffffffffffffff81111561176657600080fd5b61177284828501611696565b91505092915050565b60006020828403121561178d57600080fd5b600061179b848285016116c0565b91505092915050565b600080604083850312156117b757600080fd5b60006117c5858286016116c0565b92505060206117d6858286016116c0565b9150509250929050565b60006117ec8383611c15565b905092915050565b60006118008383611c78565b905092915050565b611811816120dd565b82525050565b611820816120dd565b82525050565b600061183182611fd4565b61183b818561200f565b93508360208202850161184d85611f9f565b8060005b85811015611889578484038952815161186a85826117e0565b945061187583611ff5565b925060208a01995050600181019050611851565b50829750879550505050505092915050565b60006118a682611fdf565b6118b08185612020565b9350836020820285016118c285611faf565b8060005b858110156118fe57848403895281516118df85826117f4565b94506118ea83612002565b925060208a019950506001810190506118c6565b50829750879550505050505092915050565b611919816120ef565b82525050565b611928816120ef565b82525050565b61193781612125565b82525050565b600061194882611fea565b6119528185612031565b9350611962818560208601612146565b61196b81612281565b840191505092915050565b600061198182611fea565b61198b8185612042565b935061199b818560208601612146565b6119a481612281565b840191505092915050565b600081546119bc81612179565b6119c68186612042565b945060018216600081146119e157600181146119f357611a26565b60ff1983168652602086019350611a26565b6119fc85611fbf565b60005b83811015611a1e578154818901526001820191506020810190506119ff565b808801955050505b50505092915050565b6000611a3c600b83612042565b91507f426f6172644d656d6265720000000000000000000000000000000000000000006000830152602082019050919050565b6000611a7c600783612042565b91507f54656163686572000000000000000000000000000000000000000000000000006000830152602082019050919050565b6000611abc602683612042565b91507f4f6e6c79207468652063686169726d616e20697320616c6c6f77656420746f2060008301527f6d6f6469667900000000000000000000000000000000000000000000000000006020830152604082019050919050565b6000611b22601683612042565b91507f596f7520617265206e6f7420617574686f72697a6564000000000000000000006000830152602082019050919050565b6000611b62601583612042565b91507f596f752063616e6e6f7420766f746520747769636500000000000000000000006000830152602082019050919050565b6000611ba2601883612042565b91507f55736572207479706520646f6573206e6f7420657869737400000000000000006000830152602082019050919050565b6000611be2600783612042565b91507f53747564656e74000000000000000000000000000000000000000000000000006000830152602082019050919050565b6000608083016000830151611c2d6000860182611cdb565b5060208301518482036020860152611c45828261193d565b9150506040830151611c5a6040860182611cdb565b506060830151611c6d6060860182611910565b508091505092915050565b6000608083016000830151611c906000860182611cdb565b506020830151611ca36020860182611808565b5060408301518482036040860152611cbb828261193d565b9150506060830151611cd06060860182611910565b508091505092915050565b611ce48161211b565b82525050565b611cf38161211b565b82525050565b60006020820190508181036000830152611d138184611826565b905092915050565b60006020820190508181036000830152611d35818461189b565b905092915050565b6000602082019050611d52600083018461191f565b92915050565b60006040820190508181036000830152611d7281856119af565b9050611d816020830184611cea565b9392505050565b60006020820190508181036000830152611da181611aaf565b9050919050565b60006020820190508181036000830152611dc181611b15565b9050919050565b60006020820190508181036000830152611de181611b55565b9050919050565b60006020820190508181036000830152611e0181611b95565b9050919050565b6000602082019050611e1d6000830184611cea565b92915050565b6000608082019050611e386000830187611cea565b611e456020830186611817565b611e526040830185611cea565b611e5f606083018461191f565b95945050505050565b6000608082019050611e7d6000830187611cea565b8181036020830152611e8f8186611976565b9050611e9e604083018561192e565b611eab606083018461191f565b95945050505050565b6000604082019050611ec96000830184611cea565b8181036020830152611eda81611a2f565b905092915050565b6000604082019050611ef76000830184611cea565b8181036020830152611f0881611a6f565b905092915050565b6000604082019050611f256000830184611cea565b8181036020830152611f3681611bd5565b905092915050565b6000604051905081810181811067ffffffffffffffff82111715611f6557611f64612252565b5b8060405250919050565b600067ffffffffffffffff821115611f8a57611f89612252565b5b601f19601f8301169050602081019050919050565b6000819050602082019050919050565b6000819050602082019050919050565b60008190508160005260206000209050919050565b600081519050919050565b600081519050919050565b600081519050919050565b6000602082019050919050565b6000602082019050919050565b600082825260208201905092915050565b600082825260208201905092915050565b600082825260208201905092915050565b600082825260208201905092915050565b600061205e8261211b565b91506120698361211b565b9250827fffffffffffffffffffffffffffffffffffffffffffffffffffffffffffffffff0382111561209e5761209d6121f4565b5b828201905092915050565b60006120b48261211b565b91506120bf8361211b565b9250828210156120d2576120d16121f4565b5b828203905092915050565b60006120e8826120fb565b9050919050565b60008115159050919050565b600073ffffffffffffffffffffffffffffffffffffffff82169050919050565b6000819050919050565b60006121308261211b565b9050919050565b82818337600083830152505050565b60005b83811015612164578082015181840152602081019050612149565b83811115612173576000848401525b50505050565b6000600282049050600182168061219157607f821691505b602082108114156121a5576121a4612223565b5b50919050565b60006121b68261211b565b91507fffffffffffffffffffffffffffffffffffffffffffffffffffffffffffffffff8214156121e9576121e86121f4565b5b600182019050919050565b7f4e487b7100000000000000000000000000000000000000000000000000000000600052601160045260246000fd5b7f4e487b7100000000000000000000000000000000000000000000000000000000600052602260045260246000fd5b7f4e487b7100000000000000000000000000000000000000000000000000000000600052604160045260246000fd5b6000601f19601f8301169050919050565b61229b816120dd565b81146122a657600080fd5b50565b6122b28161211b565b81146122bd57600080fd5b5056fea26469706673582212209ad295394e229c9abc1de008fb6b5f984c3beca5c559ac5d7513c963d62ff59964736f6c63430008000033",
  "linkReferences": {},
  "deployedLinkReferences": {}
}