{
  "_format": "hh-sol-artifact-1",
  "contractName": "Voting",
  "sourceName": "contracts/Voting.sol",
  "abi": [
    {
      "inputs": [],
      "stateMutability": "nonpayable",
      "type": "constructor"
    },
    {
      "anonymous": false,
      "inputs": [
        {
          "indexed": false,
          "internalType": "string",
          "name": "contestantName_",
          "type": "string"
        },
        {
          "indexed": false,
          "internalType": "uint256",
          "name": "userId_",
          "type": "uint256"
        }
      ],
      "name": "VoteOccurred",
      "type": "event"
    },
    {
      "anonymous": false,
      "inputs": [
        {
          "indexed": false,
          "internalType": "bool",
          "name": "status",
          "type": "bool"
        }
      ],
      "name": "VotesVisibility",
      "type": "event"
    },
    {
      "anonymous": false,
      "inputs": [
        {
          "indexed": false,
          "internalType": "bool",
          "name": "status",
          "type": "bool"
        }
      ],
      "name": "VotingDisabled",
      "type": "event"
    },
    {
      "anonymous": false,
      "inputs": [
        {
          "indexed": false,
          "internalType": "bool",
          "name": "status",
          "type": "bool"
        }
      ],
      "name": "VotingEnabled",
      "type": "event"
    },
    {
      "anonymous": false,
      "inputs": [],
      "name": "VotingEnded",
      "type": "event"
    },
    {
      "anonymous": false,
      "inputs": [
        {
          "indexed": false,
          "internalType": "uint256",
          "name": "contestantId",
          "type": "uint256"
        },
        {
          "indexed": false,
          "internalType": "string",
          "name": "name",
          "type": "string"
        },
        {
          "indexed": false,
          "internalType": "uint256",
          "name": "numberOfVotes",
          "type": "uint256"
        },
        {
          "indexed": false,
          "internalType": "bool",
          "name": "hasWon",
          "type": "bool"
        }
      ],
      "name": "contestantCreated",
      "type": "event"
    },
    {
      "anonymous": false,
      "inputs": [
        {
          "indexed": false,
          "internalType": "uint256",
          "name": "userId",
          "type": "uint256"
        },
        {
          "indexed": false,
          "internalType": "address",
          "name": "userAddress",
          "type": "address"
        },
        {
          "indexed": false,
          "internalType": "uint256",
          "name": "userType",
          "type": "uint256"
        },
        {
          "indexed": false,
          "internalType": "bool",
          "name": "hasVoted",
          "type": "bool"
        }
      ],
      "name": "userCreated",
      "type": "event"
    },
    {
      "anonymous": false,
      "inputs": [
        {
          "indexed": false,
          "internalType": "string",
          "name": "message",
          "type": "string"
        }
      ],
      "name": "userCreationFailed",
      "type": "event"
    },
    {
      "anonymous": false,
      "inputs": [
        {
          "indexed": false,
          "internalType": "string",
          "name": "message",
          "type": "string"
        }
      ],
      "name": "userTypeUpdateFailure",
      "type": "event"
    },
    {
      "anonymous": false,
      "inputs": [
        {
          "indexed": false,
          "internalType": "uint256",
          "name": "userId_",
          "type": "uint256"
        },
        {
          "indexed": false,
          "internalType": "string",
          "name": "userType_",
          "type": "string"
        }
      ],
      "name": "userTypeUpdated",
      "type": "event"
    },
    {
      "inputs": [],
      "name": "_canVote",
      "outputs": [
        {
          "internalType": "bool",
          "name": "",
          "type": "bool"
        }
      ],
      "stateMutability": "view",
      "type": "function"
    },
    {
      "inputs": [],
      "name": "_isVoteVisible",
      "outputs": [
        {
          "internalType": "bool",
          "name": "",
          "type": "bool"
        }
      ],
      "stateMutability": "view",
      "type": "function"
    },
    {
      "inputs": [],
      "name": "_isVotingEnded",
      "outputs": [
        {
          "internalType": "bool",
          "name": "",
          "type": "bool"
        }
      ],
      "stateMutability": "view",
      "type": "function"
    },
    {
      "inputs": [
        {
          "internalType": "uint256",
          "name": "userId_",
          "type": "uint256"
        },
        {
          "internalType": "uint256",
          "name": "_userType",
          "type": "uint256"
        }
      ],
      "name": "changeUserType",
      "outputs": [],
      "stateMutability": "nonpayable",
      "type": "function"
    },
    {
      "inputs": [
        {
          "internalType": "address",
          "name": "user",
          "type": "address"
        }
      ],
      "name": "checkIfChairman",
      "outputs": [
        {
          "internalType": "bool",
          "name": "",
          "type": "bool"
        }
      ],
      "stateMutability": "view",
      "type": "function"
    },
    {
      "inputs": [
        {
          "internalType": "uint256",
          "name": "_userType",
          "type": "uint256"
        }
      ],
      "name": "collateResults",
      "outputs": [],
      "stateMutability": "nonpayable",
      "type": "function"
    },
    {
      "inputs": [
        {
          "internalType": "string",
          "name": "_name",
          "type": "string"
        }
      ],
      "name": "createContestant",
      "outputs": [],
      "stateMutability": "nonpayable",
      "type": "function"
    },
    {
      "inputs": [
        {
          "internalType": "address",
          "name": "_userAddress",
          "type": "address"
        },
        {
          "internalType": "uint256",
          "name": "_userType",
          "type": "uint256"
        }
      ],
      "name": "createUser",
      "outputs": [],
      "stateMutability": "nonpayable",
      "type": "function"
    },
    {
      "inputs": [],
      "name": "disbaleVote",
      "outputs": [],
      "stateMutability": "nonpayable",
      "type": "function"
    },
    {
      "inputs": [],
      "name": "enableVote",
      "outputs": [],
      "stateMutability": "nonpayable",
      "type": "function"
    },
    {
      "inputs": [],
      "name": "fetchVotes",
      "outputs": [
        {
          "components": [
            {
              "internalType": "uint256",
              "name": "id",
              "type": "uint256"
            },
            {
              "internalType": "uint256",
              "name": "contestantId",
              "type": "uint256"
            }
          ],
          "internalType": "struct Voting.voteInfo[]",
          "name": "",
          "type": "tuple[]"
        }
      ],
      "stateMutability": "view",
      "type": "function"
    },
    {
      "inputs": [],
      "name": "getContestants",
      "outputs": [
        {
          "components": [
            {
              "internalType": "uint256",
              "name": "id",
              "type": "uint256"
            },
            {
              "internalType": "string",
              "name": "name",
              "type": "string"
            },
            {
              "internalType": "uint256",
              "name": "numberOfVotes",
              "type": "uint256"
            },
            {
              "internalType": "bool",
              "name": "hasWon",
              "type": "bool"
            }
          ],
          "internalType": "struct Voting.contestantInfo[]",
          "name": "",
          "type": "tuple[]"
        }
      ],
      "stateMutability": "view",
      "type": "function"
    },
    {
      "inputs": [],
      "name": "getUsers",
      "outputs": [
        {
          "components": [
            {
              "internalType": "uint256",
              "name": "userId",
              "type": "uint256"
            },
            {
              "internalType": "address",
              "name": "userAddress",
              "type": "address"
            },
            {
              "internalType": "string",
              "name": "userType",
              "type": "string"
            },
            {
              "internalType": "bool",
              "name": "hasVoted",
              "type": "bool"
            }
          ],
          "internalType": "struct Voting.userInfo[]",
          "name": "",
          "type": "tuple[]"
        }
      ],
      "stateMutability": "view",
      "type": "function"
    },
    {
      "inputs": [
        {
          "internalType": "uint256",
          "name": "_userType",
          "type": "uint256"
        }
      ],
      "name": "hideVotesVisibility",
      "outputs": [],
      "stateMutability": "nonpayable",
      "type": "function"
    },
    {
      "inputs": [],
      "name": "highestVote",
      "outputs": [
        {
          "internalType": "uint256",
          "name": "",
          "type": "uint256"
        }
      ],
      "stateMutability": "view",
      "type": "function"
    },
    {
      "inputs": [
        {
          "internalType": "address",
          "name": "userAddress",
          "type": "address"
        }
      ],
      "name": "isValidUser",
      "outputs": [
        {
          "internalType": "bool",
          "name": "",
          "type": "bool"
        }
      ],
      "stateMutability": "view",
      "type": "function"
    },
    {
      "inputs": [],
      "name": "isVotingEnabled",
      "outputs": [
        {
          "internalType": "bool",
          "name": "",
          "type": "bool"
        }
      ],
      "stateMutability": "view",
      "type": "function"
    },
    {
      "inputs": [],
      "name": "isVotingEnded",
      "outputs": [
        {
          "internalType": "bool",
          "name": "",
          "type": "bool"
        }
      ],
      "stateMutability": "view",
      "type": "function"
    },
    {
      "inputs": [],
      "name": "isVotingVisible",
      "outputs": [
        {
          "internalType": "bool",
          "name": "",
          "type": "bool"
        }
      ],
      "stateMutability": "view",
      "type": "function"
    },
    {
      "inputs": [
        {
          "internalType": "uint256",
          "name": "_userType",
          "type": "uint256"
        }
      ],
      "name": "showVotesVisibility",
      "outputs": [],
      "stateMutability": "nonpayable",
      "type": "function"
    },
    {
      "inputs": [
        {
          "internalType": "uint256",
          "name": "contestantId_",
          "type": "uint256"
        },
        {
          "internalType": "uint256",
          "name": "userId_",
          "type": "uint256"
        }
      ],
      "name": "vote",
      "outputs": [],
      "stateMutability": "nonpayable",
      "type": "function"
    }
  ],
  "bytecode": "0x60806040523480156200001157600080fd5b50336000806101000a81548173ffffffffffffffffffffffffffffffffffffffff021916908373ffffffffffffffffffffffffffffffffffffffff1602179055506001600560006101000a81548160ff0219169083151502179055506000600560026101000a81548160ff0219169083151502179055506200009b336000620000a160201b60201c565b620009ba565b60008054906101000a900473ffffffffffffffffffffffffffffffffffffffff1673ffffffffffffffffffffffffffffffffffffffff163373ffffffffffffffffffffffffffffffffffffffff161462000132576040517f08c379a00000000000000000000000000000000000000000000000000000000081526004016200012990620007dd565b60405180910390fd5b6000811480620001425750600181145b806200014e5750600281145b62000190576040517f08c379a00000000000000000000000000000000000000000000000000000000081526004016200018790620007ff565b60405180910390fd5b6000811415620003255760006001600480549050620001b091906200087f565b9050600460405180608001604052808381526020018573ffffffffffffffffffffffffffffffffffffffff1681526020016040518060400160405280600b81526020017f426f6172644d656d62657200000000000000000000000000000000000000000081525081526020016000151581525090806001815401808255809150506001900390600052602060002090600402016000909190919091506000820151816000015560208201518160010160006101000a81548173ffffffffffffffffffffffffffffffffffffffff021916908373ffffffffffffffffffffffffffffffffffffffff1602179055506040820151816002019080519060200190620002bb92919062000650565b5060608201518160030160006101000a81548160ff02191690831515021790555050507f6b20eb62f1298cad3d3fe78b79d9d03ed50788e17184c1c0b61a05291ea520d8818484600060405162000316949392919062000821565b60405180910390a1506200064c565b6001811415620004ba57600060016004805490506200034591906200087f565b9050600460405180608001604052808381526020018573ffffffffffffffffffffffffffffffffffffffff1681526020016040518060400160405280600781526020017f546561636865720000000000000000000000000000000000000000000000000081525081526020016000151581525090806001815401808255809150506001900390600052602060002090600402016000909190919091506000820151816000015560208201518160010160006101000a81548173ffffffffffffffffffffffffffffffffffffffff021916908373ffffffffffffffffffffffffffffffffffffffff16021790555060408201518160020190805190602001906200045092919062000650565b5060608201518160030160006101000a81548160ff02191690831515021790555050507f6b20eb62f1298cad3d3fe78b79d9d03ed50788e17184c1c0b61a05291ea520d88184846000604051620004ab949392919062000821565b60405180910390a1506200064b565b60028114156200064a5760006001600480549050620004da91906200087f565b9050600460405180608001604052808381526020018573ffffffffffffffffffffffffffffffffffffffff1681526020016040518060400160405280600781526020017f53747564656e740000000000000000000000000000000000000000000000000081525081526020016000151581525090806001815401808255809150506001900390600052602060002090600402016000909190919091506000820151816000015560208201518160010160006101000a81548173ffffffffffffffffffffffffffffffffffffffff021916908373ffffffffffffffffffffffffffffffffffffffff1602179055506040820151816002019080519060200190620005e592919062000650565b5060608201518160030160006101000a81548160ff02191690831515021790555050507f6b20eb62f1298cad3d3fe78b79d9d03ed50788e17184c1c0b61a05291ea520d8818484600060405162000640949392919062000821565b60405180910390a1505b5b5b5050565b8280546200065e9062000926565b90600052602060002090601f016020900481019282620006825760008555620006ce565b82601f106200069d57805160ff1916838001178555620006ce565b82800160010185558215620006ce579182015b82811115620006cd578251825591602001919060010190620006b0565b5b509050620006dd9190620006e1565b5090565b5b80821115620006fc576000816000905550600101620006e2565b5090565b6200070b81620008dc565b82525050565b6200071c81620008f0565b82525050565b6000620007316026836200086e565b91507f4f6e6c79207468652063686169726d616e20697320616c6c6f77656420746f2060008301527f6d6f6469667900000000000000000000000000000000000000000000000000006020830152604082019050919050565b6000620007996018836200086e565b91507f55736572207479706520646f6573206e6f7420657869737400000000000000006000830152602082019050919050565b620007d7816200091c565b82525050565b60006020820190508181036000830152620007f88162000722565b9050919050565b600060208201905081810360008301526200081a816200078a565b9050919050565b6000608082019050620008386000830187620007cc565b62000847602083018662000700565b620008566040830185620007cc565b62000865606083018462000711565b95945050505050565b600082825260208201905092915050565b60006200088c826200091c565b915062000899836200091c565b9250827fffffffffffffffffffffffffffffffffffffffffffffffffffffffffffffffff03821115620008d157620008d06200095c565b5b828201905092915050565b6000620008e982620008fc565b9050919050565b60008115159050919050565b600073ffffffffffffffffffffffffffffffffffffffff82169050919050565b6000819050919050565b600060028204905060018216806200093f57607f821691505b602082108114156200095657620009556200098b565b5b50919050565b7f4e487b7100000000000000000000000000000000000000000000000000000000600052601160045260246000fd5b7f4e487b7100000000000000000000000000000000000000000000000000000000600052602260045260246000fd5b6127c680620009ca6000396000f3fe608060405234801561001057600080fd5b50600436106101365760003560e01c80637cba25da116100b8578063b384abef1161007c578063b384abef146102dd578063b3a4dc2f146102f9578063c10196fa14610317578063c857ecbe14610335578063d962aa3d14610353578063f3c95c601461036f57610136565b80637cba25da146102615780637d467dcb1461027d578063811094e41461029b57806393dfc8eb146102b75780639f88a0cf146102d357610136565b80635b2585d6116100ff5780635b2585d6146101cf5780635b3e5cd3146101eb5780635ca2797c14610209578063794566d7146102135780637a89281e1461023157610136565b8062ce8e3e1461013b57806319abe7b814610159578063410de7a61461017757806341ecf70014610193578063512e711e146101b1575b600080fd5b61014361039f565b6040516101509190612170565b60405180910390f35b61016161050b565b60405161016e9190612192565b60405180910390f35b610191600480360381019061018c9190611aeb565b61057e565b005b61019b610624565b6040516101a891906121b4565b60405180910390f35b6101b961063b565b6040516101c691906121b4565b60405180910390f35b6101e960048036038101906101e49190611aeb565b61064e565b005b6101f36106f4565b60405161020091906121b4565b60405180910390f35b61021161070b565b005b61021b6107ee565b60405161022891906121b4565b60405180910390f35b61024b60048036038101906102469190611a45565b610801565b60405161025891906121b4565b60405180910390f35b61027b60048036038101906102769190611aeb565b610859565b005b6102856108f3565b60405161029291906121b4565b60405180910390f35b6102b560048036038101906102b09190611b14565b610906565b005b6102d160048036038101906102cc9190611a6e565b610ce5565b005b6102db611275565b005b6102f760048036038101906102f29190611b14565b611358565b005b610301611600565b60405161030e919061229f565b60405180910390f35b61031f611606565b60405161032c919061214e565b60405180910390f35b61033d611726565b60405161034a91906121b4565b60405180910390f35b61036d60048036038101906103689190611aaa565b61173d565b005b61038960048036038101906103849190611a45565b611838565b60405161039691906121b4565b60405180910390f35b60606004805480602002602001604051908101604052809291908181526020016000905b828210156105025783829060005260206000209060040201604051806080016040529081600082015481526020016001820160009054906101000a900473ffffffffffffffffffffffffffffffffffffffff1673ffffffffffffffffffffffffffffffffffffffff1673ffffffffffffffffffffffffffffffffffffffff16815260200160028201805461045690612649565b80601f016020809104026020016040519081016040528092919081815260200182805461048290612649565b80156104cf5780601f106104a4576101008083540402835291602001916104cf565b820191906000526020600020905b8154815290600101906020018083116104b257829003601f168201915b505050505081526020016003820160009054906101000a900460ff161515151581525050815260200190600101906103c3565b50505050905090565b60606002805480602002602001604051908101604052809291908181526020016000905b828210156105755783829060005260206000209060020201604051806040016040529081600082015481526020016001820154815250508152602001906001019061052f565b50505050905090565b80600081148061058e5750600181145b6105cd576040517f08c379a00000000000000000000000000000000000000000000000000000000081526004016105c49061223f565b60405180910390fd5b6001600560016101000a81548160ff0219169083151502179055507f7391a69cbe7f7d60dcd848427cf512560c21aff11e6012a0eb9d42aa07dcfbfe600160405161061891906121b4565b60405180910390a15050565b6000600560009054906101000a900460ff16905090565b600560019054906101000a900460ff1681565b80600081148061065e5750600181145b61069d576040517f08c379a00000000000000000000000000000000000000000000000000000000081526004016106949061223f565b60405180910390fd5b6000600560016101000a81548160ff0219169083151502179055507f7391a69cbe7f7d60dcd848427cf512560c21aff11e6012a0eb9d42aa07dcfbfe60006040516106e891906121b4565b60405180910390a15050565b6000600560019054906101000a900460ff16905090565b60008054906101000a900473ffffffffffffffffffffffffffffffffffffffff1673ffffffffffffffffffffffffffffffffffffffff163373ffffffffffffffffffffffffffffffffffffffff1614610799576040517f08c379a0000000000000000000000000000000000000000000000000000000008152600401610790906121ff565b60405180910390fd5b6001600560006101000a81548160ff0219169083151502179055507f24505c2a690f21afd3a9d6fd8280e5a12ad3fcf5edee69a44d19537561a85ad860016040516107e491906121b4565b60405180910390a1565b600560029054906101000a900460ff1681565b60008173ffffffffffffffffffffffffffffffffffffffff1660008054906101000a900473ffffffffffffffffffffffffffffffffffffffff1673ffffffffffffffffffffffffffffffffffffffff16149050919050565b8060008114806108695750600181145b6108a8576040517f08c379a000000000000000000000000000000000000000000000000000000000815260040161089f9061223f565b60405180910390fd5b6001600560026101000a81548160ff0219169083151502179055507f7a19ed057db79e3c2fa0b97a54b43bef4fce74b31bb6c01af514b9a18a7f70ab60405160405180910390a15050565b600560009054906101000a900460ff1681565b60008054906101000a900473ffffffffffffffffffffffffffffffffffffffff1673ffffffffffffffffffffffffffffffffffffffff163373ffffffffffffffffffffffffffffffffffffffff1614610994576040517f08c379a000000000000000000000000000000000000000000000000000000000815260040161098b906121ff565b60405180910390fd5b60018214156109d8576040517f08c379a00000000000000000000000000000000000000000000000000000000081526004016109cf9061221f565b60405180910390fd5b60008114806109e75750600181145b806109f25750600281145b610a31576040517f08c379a0000000000000000000000000000000000000000000000000000000008152600401610a289061227f565b60405180910390fd5b6000811415610b17576040518060400160405280600b81526020017f426f6172644d656d6265720000000000000000000000000000000000000000008152506004600184610a7f9190612579565b81548110610ab6577f4e487b7100000000000000000000000000000000000000000000000000000000600052603260045260246000fd5b90600052602060002090600402016002019080519060200190610ada929190611910565b507f12523f2a740b8fc93b2bdc49d3e14b8198f975653db12a894ab58b4be45b7e7282604051610b0a919061234b565b60405180910390a1610ce1565b6001811415610bfd576040518060400160405280600781526020017f54656163686572000000000000000000000000000000000000000000000000008152506004600184610b659190612579565b81548110610b9c577f4e487b7100000000000000000000000000000000000000000000000000000000600052603260045260246000fd5b90600052602060002090600402016002019080519060200190610bc0929190611910565b507f12523f2a740b8fc93b2bdc49d3e14b8198f975653db12a894ab58b4be45b7e7282604051610bf09190612379565b60405180910390a1610ce0565b6002811415610cdf576040518060400160405280600781526020017f53747564656e74000000000000000000000000000000000000000000000000008152506004600184610c4b9190612579565b81548110610c82577f4e487b7100000000000000000000000000000000000000000000000000000000600052603260045260246000fd5b90600052602060002090600402016002019080519060200190610ca6929190611910565b507f12523f2a740b8fc93b2bdc49d3e14b8198f975653db12a894ab58b4be45b7e7282604051610cd691906123a7565b60405180910390a15b5b5b5050565b60008054906101000a900473ffffffffffffffffffffffffffffffffffffffff1673ffffffffffffffffffffffffffffffffffffffff163373ffffffffffffffffffffffffffffffffffffffff1614610d73576040517f08c379a0000000000000000000000000000000000000000000000000000000008152600401610d6a906121ff565b60405180910390fd5b6000811480610d825750600181145b80610d8d5750600281145b610dcc576040517f08c379a0000000000000000000000000000000000000000000000000000000008152600401610dc39061227f565b60405180910390fd5b6000811415610f595760006001600480549050610de99190612523565b9050600460405180608001604052808381526020018573ffffffffffffffffffffffffffffffffffffffff1681526020016040518060400160405280600b81526020017f426f6172644d656d62657200000000000000000000000000000000000000000081525081526020016000151581525090806001815401808255809150506001900390600052602060002090600402016000909190919091506000820151816000015560208201518160010160006101000a81548173ffffffffffffffffffffffffffffffffffffffff021916908373ffffffffffffffffffffffffffffffffffffffff1602179055506040820151816002019080519060200190610ef2929190611910565b5060608201518160030160006101000a81548160ff02191690831515021790555050507f6b20eb62f1298cad3d3fe78b79d9d03ed50788e17184c1c0b61a05291ea520d88184846000604051610f4b94939291906122ba565b60405180910390a150611271565b60018114156110e65760006001600480549050610f769190612523565b9050600460405180608001604052808381526020018573ffffffffffffffffffffffffffffffffffffffff1681526020016040518060400160405280600781526020017f546561636865720000000000000000000000000000000000000000000000000081525081526020016000151581525090806001815401808255809150506001900390600052602060002090600402016000909190919091506000820151816000015560208201518160010160006101000a81548173ffffffffffffffffffffffffffffffffffffffff021916908373ffffffffffffffffffffffffffffffffffffffff160217905550604082015181600201908051906020019061107f929190611910565b5060608201518160030160006101000a81548160ff02191690831515021790555050507f6b20eb62f1298cad3d3fe78b79d9d03ed50788e17184c1c0b61a05291ea520d881848460006040516110d894939291906122ba565b60405180910390a150611270565b600281141561126f57600060016004805490506111039190612523565b9050600460405180608001604052808381526020018573ffffffffffffffffffffffffffffffffffffffff1681526020016040518060400160405280600781526020017f53747564656e740000000000000000000000000000000000000000000000000081525081526020016000151581525090806001815401808255809150506001900390600052602060002090600402016000909190919091506000820151816000015560208201518160010160006101000a81548173ffffffffffffffffffffffffffffffffffffffff021916908373ffffffffffffffffffffffffffffffffffffffff160217905550604082015181600201908051906020019061120c929190611910565b5060608201518160030160006101000a81548160ff02191690831515021790555050507f6b20eb62f1298cad3d3fe78b79d9d03ed50788e17184c1c0b61a05291ea520d8818484600060405161126594939291906122ba565b60405180910390a1505b5b5b5050565b60008054906101000a900473ffffffffffffffffffffffffffffffffffffffff1673ffffffffffffffffffffffffffffffffffffffff163373ffffffffffffffffffffffffffffffffffffffff1614611303576040517f08c379a00000000000000000000000000000000000000000000000000000000081526004016112fa906121ff565b60405180910390fd5b6000600560006101000a81548160ff0219169083151502179055507fd3dc25b085205a3d69d2d144a9f0a0767b54be27b041bcbdb5308a676c1f3937600060405161134e91906121b4565b60405180910390a1565b60011515600560009054906101000a900460ff1615151461137857600080fd5b60001515600460018361138b9190612579565b815481106113c2577f4e487b7100000000000000000000000000000000000000000000000000000000600052603260045260246000fd5b906000526020600020906004020160030160009054906101000a900460ff16151514611423576040517f08c379a000000000000000000000000000000000000000000000000000000000815260040161141a9061225f565b60405180910390fd5b600160046001836114349190612579565b8154811061146b577f4e487b7100000000000000000000000000000000000000000000000000000000600052603260045260246000fd5b906000526020600020906004020160030160006101000a81548160ff021916908315150217905550600060016002805490506114a79190612523565b90506002604051806040016040528083815260200185815250908060018154018082558091505060019003906000526020600020906002020160009091909190915060008201518160000155602082015181600101555050600360018461150e9190612579565b81548110611545577f4e487b7100000000000000000000000000000000000000000000000000000000600052603260045260246000fd5b906000526020600020906004020160020160008154809291906115679061267b565b91905055507f3894cca7f62969f5f8326aad1950b0cd936eb3c2b8e957265c4918d185a1f68f600360018561159c9190612579565b815481106115d3577f4e487b7100000000000000000000000000000000000000000000000000000000600052603260045260246000fd5b9060005260206000209060040201600101836040516115f39291906121cf565b60405180910390a1505050565b60065481565b60606003805480602002602001604051908101604052809291908181526020016000905b8282101561171d57838290600052602060002090600402016040518060800160405290816000820154815260200160018201805461166790612649565b80601f016020809104026020016040519081016040528092919081815260200182805461169390612649565b80156116e05780601f106116b5576101008083540402835291602001916116e0565b820191906000526020600020905b8154815290600101906020018083116116c357829003601f168201915b50505050508152602001600282015481526020016003820160009054906101000a900460ff1615151515815250508152602001906001019061162a565b50505050905090565b6000600560029054906101000a900460ff16905090565b600060016003805490506117519190612523565b905060036040518060800160405280838152602001848152602001600081526020016000151581525090806001815401808255809150506001900390600052602060002090600402016000909190919091506000820151816000015560208201518160010190805190602001906117c9929190611910565b506040820151816002015560608201518160030160006101000a81548160ff02191690831515021790555050507f1d58ebd61d2b8ddd2f0ec09260e573e2048929d40687fb178f27634264a83716818360008060405161182c94939291906122ff565b60405180910390a15050565b6000806000905060005b600480549050811015611906578373ffffffffffffffffffffffffffffffffffffffff16600482815481106118a0577f4e487b7100000000000000000000000000000000000000000000000000000000600052603260045260246000fd5b906000526020600020906004020160010160009054906101000a900473ffffffffffffffffffffffffffffffffffffffff1673ffffffffffffffffffffffffffffffffffffffff1614156118f357600191505b80806118fe9061267b565b915050611842565b5080915050919050565b82805461191c90612649565b90600052602060002090601f01602090048101928261193e5760008555611985565b82601f1061195757805160ff1916838001178555611985565b82800160010185558215611985579182015b82811115611984578251825591602001919060010190611969565b5b5090506119929190611996565b5090565b5b808211156119af576000816000905550600101611997565b5090565b60006119c66119c184612406565b6123d5565b9050828152602081018484840111156119de57600080fd5b6119e9848285612607565b509392505050565b600081359050611a0081612762565b92915050565b600082601f830112611a1757600080fd5b8135611a278482602086016119b3565b91505092915050565b600081359050611a3f81612779565b92915050565b600060208284031215611a5757600080fd5b6000611a65848285016119f1565b91505092915050565b60008060408385031215611a8157600080fd5b6000611a8f858286016119f1565b9250506020611aa085828601611a30565b9150509250929050565b600060208284031215611abc57600080fd5b600082013567ffffffffffffffff811115611ad657600080fd5b611ae284828501611a06565b91505092915050565b600060208284031215611afd57600080fd5b6000611b0b84828501611a30565b91505092915050565b60008060408385031215611b2757600080fd5b6000611b3585828601611a30565b9250506020611b4685828601611a30565b9150509250929050565b6000611b5c838361203b565b905092915050565b6000611b70838361209e565b905092915050565b6000611b848383612101565b60408301905092915050565b611b99816125ad565b82525050565b611ba8816125ad565b82525050565b6000611bb98261247b565b611bc381856124ce565b935083602082028501611bd585612436565b8060005b85811015611c115784840389528151611bf28582611b50565b9450611bfd836124a7565b925060208a01995050600181019050611bd9565b50829750879550505050505092915050565b6000611c2e82612486565b611c3881856124df565b935083602082028501611c4a85612446565b8060005b85811015611c865784840389528151611c678582611b64565b9450611c72836124b4565b925060208a01995050600181019050611c4e565b50829750879550505050505092915050565b6000611ca382612491565b611cad81856124f0565b9350611cb883612456565b8060005b83811015611ce9578151611cd08882611b78565b9750611cdb836124c1565b925050600181019050611cbc565b5085935050505092915050565b611cff816125bf565b82525050565b611d0e816125bf565b82525050565b611d1d816125f5565b82525050565b6000611d2e8261249c565b611d388185612501565b9350611d48818560208601612616565b611d5181612751565b840191505092915050565b6000611d678261249c565b611d718185612512565b9350611d81818560208601612616565b611d8a81612751565b840191505092915050565b60008154611da281612649565b611dac8186612512565b94506001821660008114611dc75760018114611dd957611e0c565b60ff1983168652602086019350611e0c565b611de285612466565b60005b83811015611e0457815481890152600182019150602081019050611de5565b808801955050505b50505092915050565b6000611e22600b83612512565b91507f426f6172644d656d6265720000000000000000000000000000000000000000006000830152602082019050919050565b6000611e62600783612512565b91507f54656163686572000000000000000000000000000000000000000000000000006000830152602082019050919050565b6000611ea2602683612512565b91507f4f6e6c79207468652063686169726d616e20697320616c6c6f77656420746f2060008301527f6d6f6469667900000000000000000000000000000000000000000000000000006020830152604082019050919050565b6000611f08601a83612512565b91507f596f752063616e6e6f742075706461746520796f757273656c660000000000006000830152602082019050919050565b6000611f48601683612512565b91507f596f7520617265206e6f7420617574686f72697a6564000000000000000000006000830152602082019050919050565b6000611f88601583612512565b91507f596f752063616e6e6f7420766f746520747769636500000000000000000000006000830152602082019050919050565b6000611fc8601883612512565b91507f55736572207479706520646f6573206e6f7420657869737400000000000000006000830152602082019050919050565b6000612008600783612512565b91507f53747564656e74000000000000000000000000000000000000000000000000006000830152602082019050919050565b60006080830160008301516120536000860182612130565b506020830151848203602086015261206b8282611d23565b91505060408301516120806040860182612130565b5060608301516120936060860182611cf6565b508091505092915050565b60006080830160008301516120b66000860182612130565b5060208301516120c96020860182611b90565b50604083015184820360408601526120e18282611d23565b91505060608301516120f66060860182611cf6565b508091505092915050565b6040820160008201516121176000850182612130565b50602082015161212a6020850182612130565b50505050565b612139816125eb565b82525050565b612148816125eb565b82525050565b600060208201905081810360008301526121688184611bae565b905092915050565b6000602082019050818103600083015261218a8184611c23565b905092915050565b600060208201905081810360008301526121ac8184611c98565b905092915050565b60006020820190506121c96000830184611d05565b92915050565b600060408201905081810360008301526121e98185611d95565b90506121f8602083018461213f565b9392505050565b6000602082019050818103600083015261221881611e95565b9050919050565b6000602082019050818103600083015261223881611efb565b9050919050565b6000602082019050818103600083015261225881611f3b565b9050919050565b6000602082019050818103600083015261227881611f7b565b9050919050565b6000602082019050818103600083015261229881611fbb565b9050919050565b60006020820190506122b4600083018461213f565b92915050565b60006080820190506122cf600083018761213f565b6122dc6020830186611b9f565b6122e9604083018561213f565b6122f66060830184611d05565b95945050505050565b6000608082019050612314600083018761213f565b81810360208301526123268186611d5c565b90506123356040830185611d14565b6123426060830184611d05565b95945050505050565b6000604082019050612360600083018461213f565b818103602083015261237181611e15565b905092915050565b600060408201905061238e600083018461213f565b818103602083015261239f81611e55565b905092915050565b60006040820190506123bc600083018461213f565b81810360208301526123cd81611ffb565b905092915050565b6000604051905081810181811067ffffffffffffffff821117156123fc576123fb612722565b5b8060405250919050565b600067ffffffffffffffff82111561242157612420612722565b5b601f19601f8301169050602081019050919050565b6000819050602082019050919050565b6000819050602082019050919050565b6000819050602082019050919050565b60008190508160005260206000209050919050565b600081519050919050565b600081519050919050565b600081519050919050565b600081519050919050565b6000602082019050919050565b6000602082019050919050565b6000602082019050919050565b600082825260208201905092915050565b600082825260208201905092915050565b600082825260208201905092915050565b600082825260208201905092915050565b600082825260208201905092915050565b600061252e826125eb565b9150612539836125eb565b9250827fffffffffffffffffffffffffffffffffffffffffffffffffffffffffffffffff0382111561256e5761256d6126c4565b5b828201905092915050565b6000612584826125eb565b915061258f836125eb565b9250828210156125a2576125a16126c4565b5b828203905092915050565b60006125b8826125cb565b9050919050565b60008115159050919050565b600073ffffffffffffffffffffffffffffffffffffffff82169050919050565b6000819050919050565b6000612600826125eb565b9050919050565b82818337600083830152505050565b60005b83811015612634578082015181840152602081019050612619565b83811115612643576000848401525b50505050565b6000600282049050600182168061266157607f821691505b60208210811415612675576126746126f3565b5b50919050565b6000612686826125eb565b91507fffffffffffffffffffffffffffffffffffffffffffffffffffffffffffffffff8214156126b9576126b86126c4565b5b600182019050919050565b7f4e487b7100000000000000000000000000000000000000000000000000000000600052601160045260246000fd5b7f4e487b7100000000000000000000000000000000000000000000000000000000600052602260045260246000fd5b7f4e487b7100000000000000000000000000000000000000000000000000000000600052604160045260246000fd5b6000601f19601f8301169050919050565b61276b816125ad565b811461277657600080fd5b50565b612782816125eb565b811461278d57600080fd5b5056fea2646970667358221220aa3a72c131163362807d97f190f85898d2f826f204f3dccf3dbfb8b39c4f522764736f6c63430008000033",
  "linkReferences": {},
  "deployedLinkReferences": {}
}