{
  "_format": "hh-sol-artifact-1",
  "contractName": "Voting",
  "sourceName": "contracts/Voting.sol",
  "abi": [
    {
      "inputs": [],
      "stateMutability": "nonpayable",
      "type": "constructor"
    },
    {
      "anonymous": false,
      "inputs": [
        {
          "indexed": false,
          "internalType": "string",
          "name": "contestantName_",
          "type": "string"
        },
        {
          "indexed": false,
          "internalType": "uint256",
          "name": "userId_",
          "type": "uint256"
        }
      ],
      "name": "VoteOccurred",
      "type": "event"
    },
    {
      "anonymous": false,
      "inputs": [
        {
          "indexed": false,
          "internalType": "bool",
          "name": "status",
          "type": "bool"
        }
      ],
      "name": "VotesVisibility",
      "type": "event"
    },
    {
      "anonymous": false,
      "inputs": [
        {
          "indexed": false,
          "internalType": "bool",
          "name": "status",
          "type": "bool"
        }
      ],
      "name": "VotingDisabled",
      "type": "event"
    },
    {
      "anonymous": false,
      "inputs": [
        {
          "indexed": false,
          "internalType": "bool",
          "name": "status",
          "type": "bool"
        }
      ],
      "name": "VotingEnabled",
      "type": "event"
    },
    {
      "anonymous": false,
      "inputs": [
        {
          "indexed": false,
          "internalType": "uint256",
          "name": "contestantId",
          "type": "uint256"
        },
        {
          "indexed": false,
          "internalType": "string",
          "name": "name",
          "type": "string"
        },
        {
          "indexed": false,
          "internalType": "uint256",
          "name": "numberOfVotes",
          "type": "uint256"
        },
        {
          "indexed": false,
          "internalType": "bool",
          "name": "hasWon",
          "type": "bool"
        }
      ],
      "name": "contestantCreated",
      "type": "event"
    },
    {
      "anonymous": false,
      "inputs": [
        {
          "indexed": false,
          "internalType": "uint256",
          "name": "userId",
          "type": "uint256"
        },
        {
          "indexed": false,
          "internalType": "address",
          "name": "userAddress",
          "type": "address"
        },
        {
          "indexed": false,
          "internalType": "uint256",
          "name": "userType",
          "type": "uint256"
        },
        {
          "indexed": false,
          "internalType": "bool",
          "name": "hasVoted",
          "type": "bool"
        }
      ],
      "name": "userCreated",
      "type": "event"
    },
    {
      "anonymous": false,
      "inputs": [
        {
          "indexed": false,
          "internalType": "string",
          "name": "message",
          "type": "string"
        }
      ],
      "name": "userCreationFailed",
      "type": "event"
    },
    {
      "anonymous": false,
      "inputs": [
        {
          "indexed": false,
          "internalType": "string",
          "name": "message",
          "type": "string"
        }
      ],
      "name": "userTypeUpdateFailure",
      "type": "event"
    },
    {
      "anonymous": false,
      "inputs": [
        {
          "indexed": false,
          "internalType": "uint256",
          "name": "userId_",
          "type": "uint256"
        },
        {
          "indexed": false,
          "internalType": "string",
          "name": "userType_",
          "type": "string"
        }
      ],
      "name": "userTypeUpdated",
      "type": "event"
    },
    {
      "inputs": [],
      "name": "_canVote",
      "outputs": [
        {
          "internalType": "bool",
          "name": "",
          "type": "bool"
        }
      ],
      "stateMutability": "view",
      "type": "function"
    },
    {
      "inputs": [],
      "name": "_isVoteVisible",
      "outputs": [
        {
          "internalType": "bool",
          "name": "",
          "type": "bool"
        }
      ],
      "stateMutability": "view",
      "type": "function"
    },
    {
      "inputs": [
        {
          "internalType": "uint256",
          "name": "userId_",
          "type": "uint256"
        },
        {
          "internalType": "uint256",
          "name": "_userType",
          "type": "uint256"
        }
      ],
      "name": "changeUserType",
      "outputs": [],
      "stateMutability": "nonpayable",
      "type": "function"
    },
    {
      "inputs": [
        {
          "internalType": "address",
          "name": "user",
          "type": "address"
        }
      ],
      "name": "checkIfChairman",
      "outputs": [
        {
          "internalType": "bool",
          "name": "",
          "type": "bool"
        }
      ],
      "stateMutability": "view",
      "type": "function"
    },
    {
      "inputs": [
        {
          "internalType": "string",
          "name": "_name",
          "type": "string"
        }
      ],
      "name": "createContestant",
      "outputs": [],
      "stateMutability": "nonpayable",
      "type": "function"
    },
    {
      "inputs": [
        {
          "internalType": "address",
          "name": "_userAddress",
          "type": "address"
        },
        {
          "internalType": "uint256",
          "name": "_userType",
          "type": "uint256"
        }
      ],
      "name": "createUser",
      "outputs": [],
      "stateMutability": "nonpayable",
      "type": "function"
    },
    {
      "inputs": [],
      "name": "disbaleVote",
      "outputs": [],
      "stateMutability": "nonpayable",
      "type": "function"
    },
    {
      "inputs": [],
      "name": "enableVote",
      "outputs": [],
      "stateMutability": "nonpayable",
      "type": "function"
    },
    {
      "inputs": [],
      "name": "getContestants",
      "outputs": [
        {
          "components": [
            {
              "internalType": "uint256",
              "name": "id",
              "type": "uint256"
            },
            {
              "internalType": "string",
              "name": "name",
              "type": "string"
            },
            {
              "internalType": "uint256",
              "name": "numberOfVotes",
              "type": "uint256"
            },
            {
              "internalType": "bool",
              "name": "hasWon",
              "type": "bool"
            }
          ],
          "internalType": "struct Voting.contestantInfo[]",
          "name": "",
          "type": "tuple[]"
        }
      ],
      "stateMutability": "view",
      "type": "function"
    },
    {
      "inputs": [],
      "name": "getUsers",
      "outputs": [
        {
          "components": [
            {
              "internalType": "uint256",
              "name": "userId",
              "type": "uint256"
            },
            {
              "internalType": "address",
              "name": "userAddress",
              "type": "address"
            },
            {
              "internalType": "string",
              "name": "userType",
              "type": "string"
            },
            {
              "internalType": "bool",
              "name": "hasVoted",
              "type": "bool"
            }
          ],
          "internalType": "struct Voting.userInfo[]",
          "name": "",
          "type": "tuple[]"
        }
      ],
      "stateMutability": "view",
      "type": "function"
    },
    {
      "inputs": [
        {
          "internalType": "uint256",
          "name": "_userType",
          "type": "uint256"
        }
      ],
      "name": "hideVotesVisibility",
      "outputs": [],
      "stateMutability": "nonpayable",
      "type": "function"
    },
    {
      "inputs": [],
      "name": "highestVote",
      "outputs": [
        {
          "internalType": "uint256",
          "name": "",
          "type": "uint256"
        }
      ],
      "stateMutability": "view",
      "type": "function"
    },
    {
      "inputs": [
        {
          "internalType": "address",
          "name": "userAddress",
          "type": "address"
        }
      ],
      "name": "isValidUser",
      "outputs": [
        {
          "internalType": "bool",
          "name": "",
          "type": "bool"
        }
      ],
      "stateMutability": "view",
      "type": "function"
    },
    {
      "inputs": [],
      "name": "isVotingEnabled",
      "outputs": [
        {
          "internalType": "bool",
          "name": "",
          "type": "bool"
        }
      ],
      "stateMutability": "view",
      "type": "function"
    },
    {
      "inputs": [
        {
          "internalType": "uint256",
          "name": "_userType",
          "type": "uint256"
        }
      ],
      "name": "showVotesVisibility",
      "outputs": [],
      "stateMutability": "nonpayable",
      "type": "function"
    },
    {
      "inputs": [
        {
          "internalType": "uint256",
          "name": "contestantId_",
          "type": "uint256"
        },
        {
          "internalType": "uint256",
          "name": "userId_",
          "type": "uint256"
        }
      ],
      "name": "vote",
      "outputs": [],
      "stateMutability": "nonpayable",
      "type": "function"
    }
  ],
  "bytecode": "0x60806040523480156200001157600080fd5b50336000806101000a81548173ffffffffffffffffffffffffffffffffffffffff021916908373ffffffffffffffffffffffffffffffffffffffff1602179055506001600560006101000a81548160ff021916908315150217905550620000803360006200008660201b60201c565b6200099f565b60008054906101000a900473ffffffffffffffffffffffffffffffffffffffff1673ffffffffffffffffffffffffffffffffffffffff163373ffffffffffffffffffffffffffffffffffffffff161462000117576040517f08c379a00000000000000000000000000000000000000000000000000000000081526004016200010e90620007c2565b60405180910390fd5b6000811480620001275750600181145b80620001335750600281145b62000175576040517f08c379a00000000000000000000000000000000000000000000000000000000081526004016200016c90620007e4565b60405180910390fd5b60008114156200030a576000600160048054905062000195919062000864565b9050600460405180608001604052808381526020018573ffffffffffffffffffffffffffffffffffffffff1681526020016040518060400160405280600b81526020017f426f6172644d656d62657200000000000000000000000000000000000000000081525081526020016000151581525090806001815401808255809150506001900390600052602060002090600402016000909190919091506000820151816000015560208201518160010160006101000a81548173ffffffffffffffffffffffffffffffffffffffff021916908373ffffffffffffffffffffffffffffffffffffffff1602179055506040820151816002019080519060200190620002a092919062000635565b5060608201518160030160006101000a81548160ff02191690831515021790555050507f6b20eb62f1298cad3d3fe78b79d9d03ed50788e17184c1c0b61a05291ea520d88184846000604051620002fb949392919062000806565b60405180910390a15062000631565b60018114156200049f57600060016004805490506200032a919062000864565b9050600460405180608001604052808381526020018573ffffffffffffffffffffffffffffffffffffffff1681526020016040518060400160405280600781526020017f546561636865720000000000000000000000000000000000000000000000000081525081526020016000151581525090806001815401808255809150506001900390600052602060002090600402016000909190919091506000820151816000015560208201518160010160006101000a81548173ffffffffffffffffffffffffffffffffffffffff021916908373ffffffffffffffffffffffffffffffffffffffff16021790555060408201518160020190805190602001906200043592919062000635565b5060608201518160030160006101000a81548160ff02191690831515021790555050507f6b20eb62f1298cad3d3fe78b79d9d03ed50788e17184c1c0b61a05291ea520d8818484600060405162000490949392919062000806565b60405180910390a15062000630565b60028114156200062f5760006001600480549050620004bf919062000864565b9050600460405180608001604052808381526020018573ffffffffffffffffffffffffffffffffffffffff1681526020016040518060400160405280600781526020017f53747564656e740000000000000000000000000000000000000000000000000081525081526020016000151581525090806001815401808255809150506001900390600052602060002090600402016000909190919091506000820151816000015560208201518160010160006101000a81548173ffffffffffffffffffffffffffffffffffffffff021916908373ffffffffffffffffffffffffffffffffffffffff1602179055506040820151816002019080519060200190620005ca92919062000635565b5060608201518160030160006101000a81548160ff02191690831515021790555050507f6b20eb62f1298cad3d3fe78b79d9d03ed50788e17184c1c0b61a05291ea520d8818484600060405162000625949392919062000806565b60405180910390a1505b5b5b5050565b82805462000643906200090b565b90600052602060002090601f016020900481019282620006675760008555620006b3565b82601f106200068257805160ff1916838001178555620006b3565b82800160010185558215620006b3579182015b82811115620006b257825182559160200191906001019062000695565b5b509050620006c29190620006c6565b5090565b5b80821115620006e1576000816000905550600101620006c7565b5090565b620006f081620008c1565b82525050565b6200070181620008d5565b82525050565b60006200071660268362000853565b91507f4f6e6c79207468652063686169726d616e20697320616c6c6f77656420746f2060008301527f6d6f6469667900000000000000000000000000000000000000000000000000006020830152604082019050919050565b60006200077e60188362000853565b91507f55736572207479706520646f6573206e6f7420657869737400000000000000006000830152602082019050919050565b620007bc8162000901565b82525050565b60006020820190508181036000830152620007dd8162000707565b9050919050565b60006020820190508181036000830152620007ff816200076f565b9050919050565b60006080820190506200081d6000830187620007b1565b6200082c6020830186620006e5565b6200083b6040830185620007b1565b6200084a6060830184620006f6565b95945050505050565b600082825260208201905092915050565b6000620008718262000901565b91506200087e8362000901565b9250827fffffffffffffffffffffffffffffffffffffffffffffffffffffffffffffffff03821115620008b657620008b562000941565b5b828201905092915050565b6000620008ce82620008e1565b9050919050565b60008115159050919050565b600073ffffffffffffffffffffffffffffffffffffffff82169050919050565b6000819050919050565b600060028204905060018216806200092457607f821691505b602082108114156200093b576200093a62000970565b5b50919050565b7f4e487b7100000000000000000000000000000000000000000000000000000000600052601160045260246000fd5b7f4e487b7100000000000000000000000000000000000000000000000000000000600052602260045260246000fd5b61240980620009af6000396000f3fe608060405234801561001057600080fd5b50600436106100ff5760003560e01c8063811094e411610097578063b3a4dc2f11610066578063b3a4dc2f1461024c578063c10196fa1461026a578063d962aa3d14610288578063f3c95c60146102a4576100ff565b8063811094e4146101ee57806393dfc8eb1461020a5780639f88a0cf14610226578063b384abef14610230576100ff565b80635b2585d6116100d35780635b2585d61461017a5780635ca2797c146101965780637a89281e146101a05780637d467dcb146101d0576100ff565b8062ce8e3e14610104578063410de7a61461012257806341ecf7001461013e578063512e711e1461015c575b600080fd5b61010c6102d4565b6040516101199190611e2e565b60405180910390f35b61013c6004803603810190610137919061188e565b610440565b005b6101466104e6565b6040516101539190611e50565b60405180910390f35b6101646104fd565b6040516101719190611e50565b60405180910390f35b610194600480360381019061018f919061188e565b610510565b005b61019e6105b6565b005b6101ba60048036038101906101b591906117e8565b610699565b6040516101c79190611e50565b60405180910390f35b6101d86106f1565b6040516101e59190611e50565b60405180910390f35b610208600480360381019061020391906118b7565b610704565b005b610224600480360381019061021f9190611811565b610a9f565b005b61022e61102f565b005b61024a600480360381019061024591906118b7565b611112565b005b6102546113ba565b6040516102619190611f1b565b60405180910390f35b6102726113c0565b60405161027f9190611e0c565b60405180910390f35b6102a2600480360381019061029d919061184d565b6114e0565b005b6102be60048036038101906102b991906117e8565b6115db565b6040516102cb9190611e50565b60405180910390f35b60606004805480602002602001604051908101604052809291908181526020016000905b828210156104375783829060005260206000209060040201604051806080016040529081600082015481526020016001820160009054906101000a900473ffffffffffffffffffffffffffffffffffffffff1673ffffffffffffffffffffffffffffffffffffffff1673ffffffffffffffffffffffffffffffffffffffff16815260200160028201805461038b9061228c565b80601f01602080910402602001604051908101604052809291908181526020018280546103b79061228c565b80156104045780601f106103d957610100808354040283529160200191610404565b820191906000526020600020905b8154815290600101906020018083116103e757829003601f168201915b505050505081526020016003820160009054906101000a900460ff161515151581525050815260200190600101906102f8565b50505050905090565b8060008114806104505750600181145b61048f576040517f08c379a000000000000000000000000000000000000000000000000000000000815260040161048690611ebb565b60405180910390fd5b6001600560016101000a81548160ff0219169083151502179055507f7391a69cbe7f7d60dcd848427cf512560c21aff11e6012a0eb9d42aa07dcfbfe60016040516104da9190611e50565b60405180910390a15050565b6000600560009054906101000a900460ff16905090565b600560019054906101000a900460ff1681565b8060008114806105205750600181145b61055f576040517f08c379a000000000000000000000000000000000000000000000000000000000815260040161055690611ebb565b60405180910390fd5b6000600560016101000a81548160ff0219169083151502179055507f7391a69cbe7f7d60dcd848427cf512560c21aff11e6012a0eb9d42aa07dcfbfe60006040516105aa9190611e50565b60405180910390a15050565b60008054906101000a900473ffffffffffffffffffffffffffffffffffffffff1673ffffffffffffffffffffffffffffffffffffffff163373ffffffffffffffffffffffffffffffffffffffff1614610644576040517f08c379a000000000000000000000000000000000000000000000000000000000815260040161063b90611e9b565b60405180910390fd5b6001600560006101000a81548160ff0219169083151502179055507f24505c2a690f21afd3a9d6fd8280e5a12ad3fcf5edee69a44d19537561a85ad8600160405161068f9190611e50565b60405180910390a1565b60008173ffffffffffffffffffffffffffffffffffffffff1660008054906101000a900473ffffffffffffffffffffffffffffffffffffffff1673ffffffffffffffffffffffffffffffffffffffff16149050919050565b600560009054906101000a900460ff1681565b60008054906101000a900473ffffffffffffffffffffffffffffffffffffffff1673ffffffffffffffffffffffffffffffffffffffff163373ffffffffffffffffffffffffffffffffffffffff1614610792576040517f08c379a000000000000000000000000000000000000000000000000000000000815260040161078990611e9b565b60405180910390fd5b60008114806107a15750600181145b806107ac5750600281145b6107eb576040517f08c379a00000000000000000000000000000000000000000000000000000000081526004016107e290611efb565b60405180910390fd5b60008114156108d1576040518060400160405280600b81526020017f426f6172644d656d626572000000000000000000000000000000000000000000815250600460018461083991906121bc565b81548110610870577f4e487b7100000000000000000000000000000000000000000000000000000000600052603260045260246000fd5b906000526020600020906004020160020190805190602001906108949291906116b3565b507f12523f2a740b8fc93b2bdc49d3e14b8198f975653db12a894ab58b4be45b7e72826040516108c49190611fc7565b60405180910390a1610a9b565b60018114156109b7576040518060400160405280600781526020017f5465616368657200000000000000000000000000000000000000000000000000815250600460018461091f91906121bc565b81548110610956577f4e487b7100000000000000000000000000000000000000000000000000000000600052603260045260246000fd5b9060005260206000209060040201600201908051906020019061097a9291906116b3565b507f12523f2a740b8fc93b2bdc49d3e14b8198f975653db12a894ab58b4be45b7e72826040516109aa9190611ff5565b60405180910390a1610a9a565b6002811415610a99576040518060400160405280600781526020017f53747564656e74000000000000000000000000000000000000000000000000008152506004600184610a0591906121bc565b81548110610a3c577f4e487b7100000000000000000000000000000000000000000000000000000000600052603260045260246000fd5b90600052602060002090600402016002019080519060200190610a609291906116b3565b507f12523f2a740b8fc93b2bdc49d3e14b8198f975653db12a894ab58b4be45b7e7282604051610a909190612023565b60405180910390a15b5b5b5050565b60008054906101000a900473ffffffffffffffffffffffffffffffffffffffff1673ffffffffffffffffffffffffffffffffffffffff163373ffffffffffffffffffffffffffffffffffffffff1614610b2d576040517f08c379a0000000000000000000000000000000000000000000000000000000008152600401610b2490611e9b565b60405180910390fd5b6000811480610b3c5750600181145b80610b475750600281145b610b86576040517f08c379a0000000000000000000000000000000000000000000000000000000008152600401610b7d90611efb565b60405180910390fd5b6000811415610d135760006001600480549050610ba39190612166565b9050600460405180608001604052808381526020018573ffffffffffffffffffffffffffffffffffffffff1681526020016040518060400160405280600b81526020017f426f6172644d656d62657200000000000000000000000000000000000000000081525081526020016000151581525090806001815401808255809150506001900390600052602060002090600402016000909190919091506000820151816000015560208201518160010160006101000a81548173ffffffffffffffffffffffffffffffffffffffff021916908373ffffffffffffffffffffffffffffffffffffffff1602179055506040820151816002019080519060200190610cac9291906116b3565b5060608201518160030160006101000a81548160ff02191690831515021790555050507f6b20eb62f1298cad3d3fe78b79d9d03ed50788e17184c1c0b61a05291ea520d88184846000604051610d059493929190611f36565b60405180910390a15061102b565b6001811415610ea05760006001600480549050610d309190612166565b9050600460405180608001604052808381526020018573ffffffffffffffffffffffffffffffffffffffff1681526020016040518060400160405280600781526020017f546561636865720000000000000000000000000000000000000000000000000081525081526020016000151581525090806001815401808255809150506001900390600052602060002090600402016000909190919091506000820151816000015560208201518160010160006101000a81548173ffffffffffffffffffffffffffffffffffffffff021916908373ffffffffffffffffffffffffffffffffffffffff1602179055506040820151816002019080519060200190610e399291906116b3565b5060608201518160030160006101000a81548160ff02191690831515021790555050507f6b20eb62f1298cad3d3fe78b79d9d03ed50788e17184c1c0b61a05291ea520d88184846000604051610e929493929190611f36565b60405180910390a15061102a565b60028114156110295760006001600480549050610ebd9190612166565b9050600460405180608001604052808381526020018573ffffffffffffffffffffffffffffffffffffffff1681526020016040518060400160405280600781526020017f53747564656e740000000000000000000000000000000000000000000000000081525081526020016000151581525090806001815401808255809150506001900390600052602060002090600402016000909190919091506000820151816000015560208201518160010160006101000a81548173ffffffffffffffffffffffffffffffffffffffff021916908373ffffffffffffffffffffffffffffffffffffffff1602179055506040820151816002019080519060200190610fc69291906116b3565b5060608201518160030160006101000a81548160ff02191690831515021790555050507f6b20eb62f1298cad3d3fe78b79d9d03ed50788e17184c1c0b61a05291ea520d8818484600060405161101f9493929190611f36565b60405180910390a1505b5b5b5050565b60008054906101000a900473ffffffffffffffffffffffffffffffffffffffff1673ffffffffffffffffffffffffffffffffffffffff163373ffffffffffffffffffffffffffffffffffffffff16146110bd576040517f08c379a00000000000000000000000000000000000000000000000000000000081526004016110b490611e9b565b60405180910390fd5b6000600560006101000a81548160ff0219169083151502179055507fd3dc25b085205a3d69d2d144a9f0a0767b54be27b041bcbdb5308a676c1f393760006040516111089190611e50565b60405180910390a1565b60011515600560009054906101000a900460ff1615151461113257600080fd5b60001515600460018361114591906121bc565b8154811061117c577f4e487b7100000000000000000000000000000000000000000000000000000000600052603260045260246000fd5b906000526020600020906004020160030160009054906101000a900460ff161515146111dd576040517f08c379a00000000000000000000000000000000000000000000000000000000081526004016111d490611edb565b60405180910390fd5b600160046001836111ee91906121bc565b81548110611225577f4e487b7100000000000000000000000000000000000000000000000000000000600052603260045260246000fd5b906000526020600020906004020160030160006101000a81548160ff021916908315150217905550600060016002805490506112619190612166565b9050600260405180604001604052808381526020018581525090806001815401808255809150506001900390600052602060002090600202016000909190919091506000820151816000015560208201518160010155505060036001846112c891906121bc565b815481106112ff577f4e487b7100000000000000000000000000000000000000000000000000000000600052603260045260246000fd5b90600052602060002090600402016002016000815480929190611321906122be565b91905055507f3894cca7f62969f5f8326aad1950b0cd936eb3c2b8e957265c4918d185a1f68f600360018561135691906121bc565b8154811061138d577f4e487b7100000000000000000000000000000000000000000000000000000000600052603260045260246000fd5b9060005260206000209060040201600101836040516113ad929190611e6b565b60405180910390a1505050565b60065481565b60606003805480602002602001604051908101604052809291908181526020016000905b828210156114d75783829060005260206000209060040201604051806080016040529081600082015481526020016001820180546114219061228c565b80601f016020809104026020016040519081016040528092919081815260200182805461144d9061228c565b801561149a5780601f1061146f5761010080835404028352916020019161149a565b820191906000526020600020905b81548152906001019060200180831161147d57829003601f168201915b50505050508152602001600282015481526020016003820160009054906101000a900460ff161515151581525050815260200190600101906113e4565b50505050905090565b600060016003805490506114f49190612166565b9050600360405180608001604052808381526020018481526020016000815260200160001515815250908060018154018082558091505060019003906000526020600020906004020160009091909190915060008201518160000155602082015181600101908051906020019061156c9291906116b3565b506040820151816002015560608201518160030160006101000a81548160ff02191690831515021790555050507f1d58ebd61d2b8ddd2f0ec09260e573e2048929d40687fb178f27634264a8371681836000806040516115cf9493929190611f7b565b60405180910390a15050565b6000806000905060005b6004805490508110156116a9578373ffffffffffffffffffffffffffffffffffffffff1660048281548110611643577f4e487b7100000000000000000000000000000000000000000000000000000000600052603260045260246000fd5b906000526020600020906004020160010160009054906101000a900473ffffffffffffffffffffffffffffffffffffffff1673ffffffffffffffffffffffffffffffffffffffff16141561169657600191505b80806116a1906122be565b9150506115e5565b5080915050919050565b8280546116bf9061228c565b90600052602060002090601f0160209004810192826116e15760008555611728565b82601f106116fa57805160ff1916838001178555611728565b82800160010185558215611728579182015b8281111561172757825182559160200191906001019061170c565b5b5090506117359190611739565b5090565b5b8082111561175257600081600090555060010161173a565b5090565b600061176961176484612082565b612051565b90508281526020810184848401111561178157600080fd5b61178c84828561224a565b509392505050565b6000813590506117a3816123a5565b92915050565b600082601f8301126117ba57600080fd5b81356117ca848260208601611756565b91505092915050565b6000813590506117e2816123bc565b92915050565b6000602082840312156117fa57600080fd5b600061180884828501611794565b91505092915050565b6000806040838503121561182457600080fd5b600061183285828601611794565b9250506020611843858286016117d3565b9150509250929050565b60006020828403121561185f57600080fd5b600082013567ffffffffffffffff81111561187957600080fd5b611885848285016117a9565b91505092915050565b6000602082840312156118a057600080fd5b60006118ae848285016117d3565b91505092915050565b600080604083850312156118ca57600080fd5b60006118d8858286016117d3565b92505060206118e9858286016117d3565b9150509250929050565b60006118ff8383611d28565b905092915050565b60006119138383611d8b565b905092915050565b611924816121f0565b82525050565b611933816121f0565b82525050565b6000611944826120e7565b61194e8185612122565b935083602082028501611960856120b2565b8060005b8581101561199c578484038952815161197d85826118f3565b945061198883612108565b925060208a01995050600181019050611964565b50829750879550505050505092915050565b60006119b9826120f2565b6119c38185612133565b9350836020820285016119d5856120c2565b8060005b85811015611a1157848403895281516119f28582611907565b94506119fd83612115565b925060208a019950506001810190506119d9565b50829750879550505050505092915050565b611a2c81612202565b82525050565b611a3b81612202565b82525050565b611a4a81612238565b82525050565b6000611a5b826120fd565b611a658185612144565b9350611a75818560208601612259565b611a7e81612394565b840191505092915050565b6000611a94826120fd565b611a9e8185612155565b9350611aae818560208601612259565b611ab781612394565b840191505092915050565b60008154611acf8161228c565b611ad98186612155565b94506001821660008114611af45760018114611b0657611b39565b60ff1983168652602086019350611b39565b611b0f856120d2565b60005b83811015611b3157815481890152600182019150602081019050611b12565b808801955050505b50505092915050565b6000611b4f600b83612155565b91507f426f6172644d656d6265720000000000000000000000000000000000000000006000830152602082019050919050565b6000611b8f600783612155565b91507f54656163686572000000000000000000000000000000000000000000000000006000830152602082019050919050565b6000611bcf602683612155565b91507f4f6e6c79207468652063686169726d616e20697320616c6c6f77656420746f2060008301527f6d6f6469667900000000000000000000000000000000000000000000000000006020830152604082019050919050565b6000611c35601683612155565b91507f596f7520617265206e6f7420617574686f72697a6564000000000000000000006000830152602082019050919050565b6000611c75601583612155565b91507f596f752063616e6e6f7420766f746520747769636500000000000000000000006000830152602082019050919050565b6000611cb5601883612155565b91507f55736572207479706520646f6573206e6f7420657869737400000000000000006000830152602082019050919050565b6000611cf5600783612155565b91507f53747564656e74000000000000000000000000000000000000000000000000006000830152602082019050919050565b6000608083016000830151611d406000860182611dee565b5060208301518482036020860152611d588282611a50565b9150506040830151611d6d6040860182611dee565b506060830151611d806060860182611a23565b508091505092915050565b6000608083016000830151611da36000860182611dee565b506020830151611db6602086018261191b565b5060408301518482036040860152611dce8282611a50565b9150506060830151611de36060860182611a23565b508091505092915050565b611df78161222e565b82525050565b611e068161222e565b82525050565b60006020820190508181036000830152611e268184611939565b905092915050565b60006020820190508181036000830152611e4881846119ae565b905092915050565b6000602082019050611e656000830184611a32565b92915050565b60006040820190508181036000830152611e858185611ac2565b9050611e946020830184611dfd565b9392505050565b60006020820190508181036000830152611eb481611bc2565b9050919050565b60006020820190508181036000830152611ed481611c28565b9050919050565b60006020820190508181036000830152611ef481611c68565b9050919050565b60006020820190508181036000830152611f1481611ca8565b9050919050565b6000602082019050611f306000830184611dfd565b92915050565b6000608082019050611f4b6000830187611dfd565b611f58602083018661192a565b611f656040830185611dfd565b611f726060830184611a32565b95945050505050565b6000608082019050611f906000830187611dfd565b8181036020830152611fa28186611a89565b9050611fb16040830185611a41565b611fbe6060830184611a32565b95945050505050565b6000604082019050611fdc6000830184611dfd565b8181036020830152611fed81611b42565b905092915050565b600060408201905061200a6000830184611dfd565b818103602083015261201b81611b82565b905092915050565b60006040820190506120386000830184611dfd565b818103602083015261204981611ce8565b905092915050565b6000604051905081810181811067ffffffffffffffff8211171561207857612077612365565b5b8060405250919050565b600067ffffffffffffffff82111561209d5761209c612365565b5b601f19601f8301169050602081019050919050565b6000819050602082019050919050565b6000819050602082019050919050565b60008190508160005260206000209050919050565b600081519050919050565b600081519050919050565b600081519050919050565b6000602082019050919050565b6000602082019050919050565b600082825260208201905092915050565b600082825260208201905092915050565b600082825260208201905092915050565b600082825260208201905092915050565b60006121718261222e565b915061217c8361222e565b9250827fffffffffffffffffffffffffffffffffffffffffffffffffffffffffffffffff038211156121b1576121b0612307565b5b828201905092915050565b60006121c78261222e565b91506121d28361222e565b9250828210156121e5576121e4612307565b5b828203905092915050565b60006121fb8261220e565b9050919050565b60008115159050919050565b600073ffffffffffffffffffffffffffffffffffffffff82169050919050565b6000819050919050565b60006122438261222e565b9050919050565b82818337600083830152505050565b60005b8381101561227757808201518184015260208101905061225c565b83811115612286576000848401525b50505050565b600060028204905060018216806122a457607f821691505b602082108114156122b8576122b7612336565b5b50919050565b60006122c98261222e565b91507fffffffffffffffffffffffffffffffffffffffffffffffffffffffffffffffff8214156122fc576122fb612307565b5b600182019050919050565b7f4e487b7100000000000000000000000000000000000000000000000000000000600052601160045260246000fd5b7f4e487b7100000000000000000000000000000000000000000000000000000000600052602260045260246000fd5b7f4e487b7100000000000000000000000000000000000000000000000000000000600052604160045260246000fd5b6000601f19601f8301169050919050565b6123ae816121f0565b81146123b957600080fd5b50565b6123c58161222e565b81146123d057600080fd5b5056fea2646970667358221220c7ab5d0003dc894a2513a26ada813e467433139db79a05910ae3ef70a9fa613a64736f6c63430008000033",
  "linkReferences": {},
  "deployedLinkReferences": {}
}