{
  "_format": "hh-sol-artifact-1",
  "contractName": "Voting",
  "sourceName": "contracts/Voting.sol",
  "abi": [
    {
      "inputs": [],
      "stateMutability": "nonpayable",
      "type": "constructor"
    },
    {
      "anonymous": false,
      "inputs": [
        {
          "indexed": false,
          "internalType": "bool",
          "name": "status",
          "type": "bool"
        }
      ],
      "name": "ContractDisabled",
      "type": "event"
    },
    {
      "anonymous": false,
      "inputs": [
        {
          "indexed": false,
          "internalType": "bool",
          "name": "status",
          "type": "bool"
        }
      ],
      "name": "ContractEnabled",
      "type": "event"
    },
    {
      "anonymous": false,
      "inputs": [
        {
          "indexed": false,
          "internalType": "string",
          "name": "contestantName_",
          "type": "string"
        },
        {
          "indexed": false,
          "internalType": "uint256",
          "name": "userId_",
          "type": "uint256"
        }
      ],
      "name": "VoteOccurred",
      "type": "event"
    },
    {
      "anonymous": false,
      "inputs": [
        {
          "indexed": false,
          "internalType": "bool",
          "name": "status",
          "type": "bool"
        }
      ],
      "name": "VotesVisibility",
      "type": "event"
    },
    {
      "anonymous": false,
      "inputs": [
        {
          "indexed": false,
          "internalType": "bool",
          "name": "status",
          "type": "bool"
        }
      ],
      "name": "VotingDisabled",
      "type": "event"
    },
    {
      "anonymous": false,
      "inputs": [
        {
          "indexed": false,
          "internalType": "bool",
          "name": "status",
          "type": "bool"
        }
      ],
      "name": "VotingEnabled",
      "type": "event"
    },
    {
      "anonymous": false,
      "inputs": [],
      "name": "VotingEnded",
      "type": "event"
    },
    {
      "anonymous": false,
      "inputs": [
        {
          "indexed": false,
          "internalType": "uint256",
          "name": "contestantId",
          "type": "uint256"
        },
        {
          "indexed": false,
          "internalType": "string",
          "name": "name",
          "type": "string"
        },
        {
          "indexed": false,
          "internalType": "uint256",
          "name": "numberOfVotes",
          "type": "uint256"
        },
        {
          "indexed": false,
          "internalType": "bool",
          "name": "hasWon",
          "type": "bool"
        }
      ],
      "name": "contestantCreated",
      "type": "event"
    },
    {
      "anonymous": false,
      "inputs": [
        {
          "indexed": false,
          "internalType": "uint256",
          "name": "userId",
          "type": "uint256"
        },
        {
          "indexed": false,
          "internalType": "address",
          "name": "userAddress",
          "type": "address"
        },
        {
          "indexed": false,
          "internalType": "uint256",
          "name": "userType",
          "type": "uint256"
        },
        {
          "indexed": false,
          "internalType": "bool",
          "name": "hasVoted",
          "type": "bool"
        }
      ],
      "name": "userCreated",
      "type": "event"
    },
    {
      "anonymous": false,
      "inputs": [
        {
          "indexed": false,
          "internalType": "string",
          "name": "message",
          "type": "string"
        }
      ],
      "name": "userCreationFailed",
      "type": "event"
    },
    {
      "anonymous": false,
      "inputs": [
        {
          "indexed": false,
          "internalType": "string",
          "name": "message",
          "type": "string"
        }
      ],
      "name": "userTypeUpdateFailure",
      "type": "event"
    },
    {
      "anonymous": false,
      "inputs": [
        {
          "indexed": false,
          "internalType": "uint256",
          "name": "userId_",
          "type": "uint256"
        },
        {
          "indexed": false,
          "internalType": "string",
          "name": "userType_",
          "type": "string"
        }
      ],
      "name": "userTypeUpdated",
      "type": "event"
    },
    {
      "inputs": [],
      "name": "_canVote",
      "outputs": [
        {
          "internalType": "bool",
          "name": "",
          "type": "bool"
        }
      ],
      "stateMutability": "view",
      "type": "function"
    },
    {
      "inputs": [],
      "name": "_isVoteVisible",
      "outputs": [
        {
          "internalType": "bool",
          "name": "",
          "type": "bool"
        }
      ],
      "stateMutability": "view",
      "type": "function"
    },
    {
      "inputs": [],
      "name": "_isVotingEnded",
      "outputs": [
        {
          "internalType": "bool",
          "name": "",
          "type": "bool"
        }
      ],
      "stateMutability": "view",
      "type": "function"
    },
    {
      "inputs": [
        {
          "internalType": "uint256",
          "name": "userId_",
          "type": "uint256"
        },
        {
          "internalType": "uint256",
          "name": "_userType",
          "type": "uint256"
        }
      ],
      "name": "changeUserType",
      "outputs": [],
      "stateMutability": "nonpayable",
      "type": "function"
    },
    {
      "inputs": [
        {
          "internalType": "address",
          "name": "user",
          "type": "address"
        }
      ],
      "name": "checkIfChairman",
      "outputs": [
        {
          "internalType": "bool",
          "name": "",
          "type": "bool"
        }
      ],
      "stateMutability": "view",
      "type": "function"
    },
    {
      "inputs": [
        {
          "internalType": "uint256",
          "name": "_userType",
          "type": "uint256"
        }
      ],
      "name": "collateResults",
      "outputs": [],
      "stateMutability": "nonpayable",
      "type": "function"
    },
    {
      "inputs": [],
      "name": "contractDisabled",
      "outputs": [
        {
          "internalType": "bool",
          "name": "",
          "type": "bool"
        }
      ],
      "stateMutability": "view",
      "type": "function"
    },
    {
      "inputs": [
        {
          "internalType": "string",
          "name": "_name",
          "type": "string"
        }
      ],
      "name": "createContestant",
      "outputs": [],
      "stateMutability": "nonpayable",
      "type": "function"
    },
    {
      "inputs": [
        {
          "internalType": "address",
          "name": "_userAddress",
          "type": "address"
        },
        {
          "internalType": "uint256",
          "name": "_userType",
          "type": "uint256"
        }
      ],
      "name": "createUser",
      "outputs": [],
      "stateMutability": "nonpayable",
      "type": "function"
    },
    {
      "inputs": [],
      "name": "disableContract",
      "outputs": [],
      "stateMutability": "nonpayable",
      "type": "function"
    },
    {
      "inputs": [],
      "name": "disbaleVote",
      "outputs": [],
      "stateMutability": "nonpayable",
      "type": "function"
    },
    {
      "inputs": [],
      "name": "enableContract",
      "outputs": [],
      "stateMutability": "nonpayable",
      "type": "function"
    },
    {
      "inputs": [],
      "name": "enableVote",
      "outputs": [],
      "stateMutability": "nonpayable",
      "type": "function"
    },
    {
      "inputs": [],
      "name": "fetchVotes",
      "outputs": [
        {
          "components": [
            {
              "internalType": "uint256",
              "name": "id",
              "type": "uint256"
            },
            {
              "internalType": "uint256",
              "name": "contestantId",
              "type": "uint256"
            }
          ],
          "internalType": "struct Voting.voteInfo[]",
          "name": "",
          "type": "tuple[]"
        }
      ],
      "stateMutability": "view",
      "type": "function"
    },
    {
      "inputs": [],
      "name": "getContestants",
      "outputs": [
        {
          "components": [
            {
              "internalType": "uint256",
              "name": "id",
              "type": "uint256"
            },
            {
              "internalType": "string",
              "name": "name",
              "type": "string"
            },
            {
              "internalType": "uint256",
              "name": "numberOfVotes",
              "type": "uint256"
            },
            {
              "internalType": "bool",
              "name": "hasWon",
              "type": "bool"
            }
          ],
          "internalType": "struct Voting.contestantInfo[]",
          "name": "",
          "type": "tuple[]"
        }
      ],
      "stateMutability": "view",
      "type": "function"
    },
    {
      "inputs": [],
      "name": "getUsers",
      "outputs": [
        {
          "components": [
            {
              "internalType": "uint256",
              "name": "userId",
              "type": "uint256"
            },
            {
              "internalType": "address",
              "name": "userAddress",
              "type": "address"
            },
            {
              "internalType": "string",
              "name": "userType",
              "type": "string"
            },
            {
              "internalType": "bool",
              "name": "hasVoted",
              "type": "bool"
            }
          ],
          "internalType": "struct Voting.userInfo[]",
          "name": "",
          "type": "tuple[]"
        }
      ],
      "stateMutability": "view",
      "type": "function"
    },
    {
      "inputs": [
        {
          "internalType": "uint256",
          "name": "_userType",
          "type": "uint256"
        }
      ],
      "name": "hideVotesVisibility",
      "outputs": [],
      "stateMutability": "nonpayable",
      "type": "function"
    },
    {
      "inputs": [],
      "name": "highestVote",
      "outputs": [
        {
          "internalType": "uint256",
          "name": "",
          "type": "uint256"
        }
      ],
      "stateMutability": "view",
      "type": "function"
    },
    {
      "inputs": [],
      "name": "isContractDisabled",
      "outputs": [
        {
          "internalType": "bool",
          "name": "",
          "type": "bool"
        }
      ],
      "stateMutability": "view",
      "type": "function"
    },
    {
      "inputs": [
        {
          "internalType": "address",
          "name": "userAddress",
          "type": "address"
        }
      ],
      "name": "isValidUser",
      "outputs": [
        {
          "internalType": "bool",
          "name": "",
          "type": "bool"
        }
      ],
      "stateMutability": "view",
      "type": "function"
    },
    {
      "inputs": [],
      "name": "isVotingEnabled",
      "outputs": [
        {
          "internalType": "bool",
          "name": "",
          "type": "bool"
        }
      ],
      "stateMutability": "view",
      "type": "function"
    },
    {
      "inputs": [],
      "name": "isVotingEnded",
      "outputs": [
        {
          "internalType": "bool",
          "name": "",
          "type": "bool"
        }
      ],
      "stateMutability": "view",
      "type": "function"
    },
    {
      "inputs": [],
      "name": "isVotingVisible",
      "outputs": [
        {
          "internalType": "bool",
          "name": "",
          "type": "bool"
        }
      ],
      "stateMutability": "view",
      "type": "function"
    },
    {
      "inputs": [
        {
          "internalType": "uint256",
          "name": "_userType",
          "type": "uint256"
        }
      ],
      "name": "showVotesVisibility",
      "outputs": [],
      "stateMutability": "nonpayable",
      "type": "function"
    },
    {
      "inputs": [
        {
          "internalType": "uint256",
          "name": "contestantId_",
          "type": "uint256"
        },
        {
          "internalType": "uint256",
          "name": "userId_",
          "type": "uint256"
        }
      ],
      "name": "vote",
      "outputs": [],
      "stateMutability": "nonpayable",
      "type": "function"
    }
  ],
  "bytecode": "0x60806040523480156200001157600080fd5b50620000467fa7525982680e84f98eca7a30f43ca193af52d50b3f6ce8412c4bbf101191431b60001b620002f860201b60201c565b6200007a7ff87e5d0d5650ee1e3c6545a5a87d7b4d53891ad0c3231178a1b6c9d75724d23260001b620002f860201b60201c565b620000ae7fa8cd02447412c31ae694d6b3dc42742793d7c2b522b7f75516c6a150f8d7515160001b620002f860201b60201c565b336000806101000a81548173ffffffffffffffffffffffffffffffffffffffff021916908373ffffffffffffffffffffffffffffffffffffffff160217905550620001227f0aba4322cfa2814baecdce084f276be9753a25d3513f60562528f78e27e8a14d60001b620002f860201b60201c565b620001567f0151da57b081e68b15064db95912df6e45ef3339138b1631e0e6b87a9ae023e660001b620002f860201b60201c565b6001600560006101000a81548160ff021916908315150217905550620001a57fcb333e5bf4f6de8780ab7d28b3b371140e335c8552668bff4c8d035740711cdb60001b620002f860201b60201c565b620001d97f6909a739565f2d642c56c98a6c4a18d58a1fdabab8f2d099aa2e08f5f464c3a760001b620002f860201b60201c565b6000600560026101000a81548160ff021916908315150217905550620002287fd2d3f5d525f9ff98ccede1ecb21ffdd4f5948d87396981c96bb464052826668060001b620002f860201b60201c565b6200025c7f9184c9cf2925dd77eae18cd4d4e46b1d3e3f6419258ae6755750a3756de6b6ae60001b620002f860201b60201c565b6000600760006101000a81548160ff021916908315150217905550620002ab7f46fca31097d9ff2c5d666c9b09820f75feb2549255c2d75ded991507bda1450960001b620002f860201b60201c565b620002df7ff31e03b3ba56f7870e855b2b6c00cd23e2371f1a52648f246fd7cff0616e363f60001b620002f860201b60201c565b620002f2336000620002fb60201b60201c565b620015fb565b50565b6200032f7fef43da0f26ae566a87a4aaa20a03af758ea04ede79d9f203b5e48a7745aa773c60001b620002f860201b60201c565b620003637feb57aac3338f386c1c266edda3724aa13fd2dec570bc06c33fb4d0c3339573fe60001b620002f860201b60201c565b620003977f42b91e8c973483e4118fc701be2519d7fc9c161715af12d6aa735a63e4463cde60001b620002f860201b60201c565b620003cb7fde7a68b7ae86298389d7c585aa3564b7d5759fea4c5816def1ae78618cc6a89a60001b620002f860201b60201c565b60008054906101000a900473ffffffffffffffffffffffffffffffffffffffff1673ffffffffffffffffffffffffffffffffffffffff163373ffffffffffffffffffffffffffffffffffffffff16146200045c576040517f08c379a000000000000000000000000000000000000000000000000000000000815260040162000453906200141e565b60405180910390fd5b620004907f577a0e929dcaa0872c59b226f3852a0f31f735e02b3e8e73c85b60abc06df6e560001b620002f860201b60201c565b620004c47f41e92cd776bedbc688f7a26c9319debd60c194e394ee2b3af0377b6f507a39d860001b620002f860201b60201c565b620004f87f6a2db2451bea729c665ab016dba44ec168c092f538fee964692509c3630a12a760001b620002f860201b60201c565b6200052c7f1b11e30cdb2cc4f74a025cc0d2e30dd09581b0930eb7e311ddefb3cf2386fa5c60001b620002f860201b60201c565b620005607f7e39da682e9ff02c1ee1d6add785b5ef228e5d8006771139e19729c757c16bb360001b620002f860201b60201c565b620005947f5437f81a5171c1803cbf9dff3260f4a0811eba0fea2b2389657a015de286edb860001b620002f860201b60201c565b60001515600760009054906101000a900460ff16151514620005ed576040517f08c379a0000000000000000000000000000000000000000000000000000000008152600401620005e490620013fc565b60405180910390fd5b620006217fd1e3539a8bfd4aae400ae5d8055a5fccf812096c04b416610bc366a0292ab65360001b620002f860201b60201c565b620006557f2e34e692b87ad72ebeb0c14d4af3a5de00f361dbaab7dc659ce508ec3f6b2f7e60001b620002f860201b60201c565b620006897f355bff74c3366eb8d94bcb27f47a620c68d67058219cf0d6e2499a6c28041d1060001b620002f860201b60201c565b620006bd7f8b690fb5bb88dcb9da05c323d8dae5388285ed3f99c4b2171d56ea1109a61f8960001b620002f860201b60201c565b620006f17f4dadda3a06edd60808c2c0a0e321491cf5714843e9c6cad5f0861ed49c6f525960001b620002f860201b60201c565b620007257f5079f4f3723aa4e55bb271f06f4d86450fa703096aeddd272eb8961f2e51fc7660001b620002f860201b60201c565b6000811480620007355750600181145b80620007415750600281145b62000783576040517f08c379a00000000000000000000000000000000000000000000000000000000081526004016200077a9062001440565b60405180910390fd5b620007b77f262468a20a065189820398f89b32a8a92d8ef265ea17a91ec7f82515947a384960001b620002f860201b60201c565b620007eb7f51e5a39a71db55563f00a23685b76cd09f9256bec304e2189d0bafa661af449c60001b620002f860201b60201c565b6200081f7f3dc6beb8e5cf6662046276f972eae87fee23ac0dbfbbae1657889841256d076e60001b620002f860201b60201c565b600081141562000b20576200085d7f14a99c11d10753b1c59f10e5888f9fe5a295c91dd6ea739d17eb36a63f7c578d60001b620002f860201b60201c565b620008917f54800cd0f671a2012002b0705c466246ee0c4cf49d3595214f1980385782f7d960001b620002f860201b60201c565b620008c57f1aa4cd53f949d0d4d18d397ce8f9211c61137840a0bf42ea7a7cd4c4d4a7b78760001b620002f860201b60201c565b60006001600480549050620008db9190620014c0565b9050620009117f95859a35b02116620a0a7a4b6dfd9b11bf87ee4af96f5de9060696b5aca64f6960001b620002f860201b60201c565b620009457f97e4f145043b4bd7c62be4a4169db4d04e11e8222b000cd17d6f2851c8da7ebc60001b620002f860201b60201c565b600460405180608001604052808381526020018573ffffffffffffffffffffffffffffffffffffffff1681526020016040518060400160405280600b81526020017f426f6172644d656d62657200000000000000000000000000000000000000000081525081526020016000151581525090806001815401808255809150506001900390600052602060002090600402016000909190919091506000820151816000015560208201518160010160006101000a81548173ffffffffffffffffffffffffffffffffffffffff021916908373ffffffffffffffffffffffffffffffffffffffff160217905550604082015181600201908051906020019062000a4e9291906200122d565b5060608201518160030160006101000a81548160ff021916908315150217905550505062000aa57fbc425e72244f3eac0f8784df74eb3633a893efc09b9d108ba67f234cb1be4e7f60001b620002f860201b60201c565b62000ad97f864f11951d81932da7232100f9cba39dbd7fe9bf353062e0d69c59b1554e7bd760001b620002f860201b60201c565b7f6b20eb62f1298cad3d3fe78b79d9d03ed50788e17184c1c0b61a05291ea520d8818484600060405162000b11949392919062001462565b60405180910390a15062001229565b62000b547fb65cc5e676722a39d37a62c66ab8b3d60c264562aae78a47644153732e3792df60001b620002f860201b60201c565b62000b887f7bf379b5ded2608b5d1186235eeb89c47cf26530ef3409163a680a8b8dd4f5f760001b620002f860201b60201c565b600181141562000e895762000bc67f0cca31473288a03f31207264f4ac9980d7f2736c301a79b89c311ba9238c54ea60001b620002f860201b60201c565b62000bfa7f298b77e04762a2d7d320c5566521b4b6ff523d7614a11bea95426f6214cb277660001b620002f860201b60201c565b62000c2e7f8834b2bae2c101c9677f5ea5c710d8e9e2f649c2b60afd1f7b7bc1398992309260001b620002f860201b60201c565b6000600160048054905062000c449190620014c0565b905062000c7a7f771ffed58f4af75a46cbb4fc241a1a518c90620958982f23e3b920363dd13bee60001b620002f860201b60201c565b62000cae7faeeac9471082ddbffa2f40866dd6846e3220a716de797930a2c7aca55c22ec6160001b620002f860201b60201c565b600460405180608001604052808381526020018573ffffffffffffffffffffffffffffffffffffffff1681526020016040518060400160405280600781526020017f546561636865720000000000000000000000000000000000000000000000000081525081526020016000151581525090806001815401808255809150506001900390600052602060002090600402016000909190919091506000820151816000015560208201518160010160006101000a81548173ffffffffffffffffffffffffffffffffffffffff021916908373ffffffffffffffffffffffffffffffffffffffff160217905550604082015181600201908051906020019062000db79291906200122d565b5060608201518160030160006101000a81548160ff021916908315150217905550505062000e0e7ff9726fdb5fabdeb3339f013c4ca32fc2883b7df9c18e074589a12c3b57312b3a60001b620002f860201b60201c565b62000e427f2cd3d5360ed1cd63e41ccbc395516fb741cf2c07dcde2e3795191a5e3602a6a560001b620002f860201b60201c565b7f6b20eb62f1298cad3d3fe78b79d9d03ed50788e17184c1c0b61a05291ea520d8818484600060405162000e7a949392919062001462565b60405180910390a15062001228565b62000ebd7fb1ee0b0f5e8a1f05c9b9987847599e88a77cca52674f23e8ebfce427a7279bce60001b620002f860201b60201c565b62000ef17f9c3d967aa4398c9885b385cafbc87a5fe6bef0785448f06e4c075059105ddc0260001b620002f860201b60201c565b6002811415620011f25762000f2f7f11ceeb3ddd69569e3853adc651662db092906423aa31b7f0c48696b1e3172a4f60001b620002f860201b60201c565b62000f637f96721af08b6fc4a70ad419ef9207a10ff273b9b63e0ac5ce069573b98200cb2560001b620002f860201b60201c565b62000f977f43bec662a60f2f8ba6d074f081abfc419a00d9749a550612916f2f84dfb4ee0560001b620002f860201b60201c565b6000600160048054905062000fad9190620014c0565b905062000fe37f45e714116b74c537878c0a8bd670bb967ffc5621e37559052a2c83ecc3e7c30760001b620002f860201b60201c565b620010177f5d2f86c367ecfc96d5ad8d2b948ae30d98b21b9c16f864b86c03cb13ff64589360001b620002f860201b60201c565b600460405180608001604052808381526020018573ffffffffffffffffffffffffffffffffffffffff1681526020016040518060400160405280600781526020017f53747564656e740000000000000000000000000000000000000000000000000081525081526020016000151581525090806001815401808255809150506001900390600052602060002090600402016000909190919091506000820151816000015560208201518160010160006101000a81548173ffffffffffffffffffffffffffffffffffffffff021916908373ffffffffffffffffffffffffffffffffffffffff1602179055506040820151816002019080519060200190620011209291906200122d565b5060608201518160030160006101000a81548160ff0219169083151502179055505050620011777facfa66427951b0d9efede4247ee6b4b54c182e5f9f8370853fb74e7128e8ce7660001b620002f860201b60201c565b620011ab7f57bfbee038983cb0225bee6911ece6beb6220af48d180e6f6e5b148d27d15dc460001b620002f860201b60201c565b7f6b20eb62f1298cad3d3fe78b79d9d03ed50788e17184c1c0b61a05291ea520d88184846000604051620011e3949392919062001462565b60405180910390a15062001227565b620012267f327efe096b9fddb0809d95a2444075f5b9e5d8f41cb240d35cc03ca4569f2bbf60001b620002f860201b60201c565b5b5b5b5050565b8280546200123b9062001567565b90600052602060002090601f0160209004810192826200125f5760008555620012ab565b82601f106200127a57805160ff1916838001178555620012ab565b82800160010185558215620012ab579182015b82811115620012aa5782518255916020019190600101906200128d565b5b509050620012ba9190620012be565b5090565b5b80821115620012d9576000816000905550600101620012bf565b5090565b620012e8816200151d565b82525050565b620012f98162001531565b82525050565b60006200130e601a83620014af565b91507f436f6e747261637420686173206265656e2064697361626c65640000000000006000830152602082019050919050565b600062001350602683620014af565b91507f4f6e6c79207468652063686169726d616e20697320616c6c6f77656420746f2060008301527f6d6f6469667900000000000000000000000000000000000000000000000000006020830152604082019050919050565b6000620013b8601883620014af565b91507f55736572207479706520646f6573206e6f7420657869737400000000000000006000830152602082019050919050565b620013f6816200155d565b82525050565b600060208201905081810360008301526200141781620012ff565b9050919050565b60006020820190508181036000830152620014398162001341565b9050919050565b600060208201905081810360008301526200145b81620013a9565b9050919050565b6000608082019050620014796000830187620013eb565b620014886020830186620012dd565b620014976040830185620013eb565b620014a66060830184620012ee565b95945050505050565b600082825260208201905092915050565b6000620014cd826200155d565b9150620014da836200155d565b9250827fffffffffffffffffffffffffffffffffffffffffffffffffffffffffffffffff038211156200151257620015116200159d565b5b828201905092915050565b60006200152a826200153d565b9050919050565b60008115159050919050565b600073ffffffffffffffffffffffffffffffffffffffff82169050919050565b6000819050919050565b600060028204905060018216806200158057607f821691505b60208210811415620015975762001596620015cc565b5b50919050565b7f4e487b7100000000000000000000000000000000000000000000000000000000600052601160045260246000fd5b7f4e487b7100000000000000000000000000000000000000000000000000000000600052602260045260246000fd5b6169ff806200160b6000396000f3fe608060405234801561001057600080fd5b50600436106101725760003560e01c80637a89281e116100de5780639f88a0cf11610097578063c10196fa11610071578063c10196fa146103a3578063c857ecbe146103c1578063d962aa3d146103df578063f3c95c60146103fb57610172565b80639f88a0cf1461035f578063b384abef14610369578063b3a4dc2f1461038557610172565b80637a89281e146102b35780637cba25da146102e35780637d467dcb146102ff578063811094e41461031d578063894ba8331461033957806393dfc8eb1461034357610172565b8063421ac42e11610130578063421ac42e14610215578063512e711e146102335780635b2585d6146102515780635b3e5cd31461026d5780635ca2797c1461028b578063794566d71461029557610172565b8062ce8e3e1461017757806319abe7b814610195578063313cedf0146101b3578063367edd32146101d1578063410de7a6146101db57806341ecf700146101f7575b600080fd5b61017f61042b565b60405161018c9190616369565b60405180910390f35b61019d610779565b6040516101aa919061638b565b60405180910390f35b6101bb6109ce565b6040516101c891906163ad565b60405180910390f35b6101d9610a69565b005b6101f560048036038101906101f09190615c64565b610d30565b005b6101ff611118565b60405161020c91906163ad565b60405180910390f35b61021d611311565b60405161022a91906163ad565b60405180910390f35b61023b611324565b60405161024891906163ad565b60405180910390f35b61026b60048036038101906102669190615c64565b611337565b005b61027561171f565b60405161028291906163ad565b60405180910390f35b610293611918565b005b61029d611d3d565b6040516102aa91906163ad565b60405180910390f35b6102cd60048036038101906102c89190615bbe565b611d50565b6040516102da91906163ad565b60405180910390f35b6102fd60048036038101906102f89190615c64565b611f8a565b005b610307612366565b60405161031491906163ad565b60405180910390f35b61033760048036038101906103329190615c8d565b612379565b005b610341612f17565b005b61035d60048036038101906103589190615be7565b61333c565b005b6103676140e3565b005b610383600480360381019061037e9190615c8d565b614508565b005b61038d614d84565b60405161039a91906164d8565b60405180910390f35b6103ab614d8a565b6040516103b89190616347565b60405180910390f35b6103c961508c565b6040516103d691906163ad565b60405180910390f35b6103f960048036038101906103f49190615c23565b615285565b005b61041560048036038101906104109190615bbe565b615612565b60405161042291906163ad565b60405180910390f35b60606104597f6a2db2451bea729c665ab016dba44ec168c092f538fee964692509c3630a12a760001b615a86565b6104857f1b11e30cdb2cc4f74a025cc0d2e30dd09581b0930eb7e311ddefb3cf2386fa5c60001b615a86565b6104b17f7e39da682e9ff02c1ee1d6add785b5ef228e5d8006771139e19729c757c16bb360001b615a86565b6104dd7f5437f81a5171c1803cbf9dff3260f4a0811eba0fea2b2389657a015de286edb860001b615a86565b60001515600760009054906101000a900460ff16151514610533576040517f08c379a000000000000000000000000000000000000000000000000000000000815260040161052a906163f8565b60405180910390fd5b61055f7fd1e3539a8bfd4aae400ae5d8055a5fccf812096c04b416610bc366a0292ab65360001b615a86565b61058b7f2e34e692b87ad72ebeb0c14d4af3a5de00f361dbaab7dc659ce508ec3f6b2f7e60001b615a86565b6105b77f535b561de8f363494514770ad0985913a63ce502d062895e7d5210e5318faf7a60001b615a86565b6105e37f0b5e5101a28503dc4f1418a9e64b9a4ae68b919ee89af7098615635da2b4680360001b615a86565b61060f7f5a797a6b2c261bd15d1ed3329f7d233c320b135c50852fd99fa51b3c04a5669960001b615a86565b6004805480602002602001604051908101604052809291908181526020016000905b828210156107705783829060005260206000209060040201604051806080016040529081600082015481526020016001820160009054906101000a900473ffffffffffffffffffffffffffffffffffffffff1673ffffffffffffffffffffffffffffffffffffffff1673ffffffffffffffffffffffffffffffffffffffff1681526020016002820180546106c490616882565b80601f01602080910402602001604051908101604052809291908181526020018280546106f090616882565b801561073d5780601f106107125761010080835404028352916020019161073d565b820191906000526020600020905b81548152906001019060200180831161072057829003601f168201915b505050505081526020016003820160009054906101000a900460ff16151515158152505081526020019060010190610631565b50505050905090565b60606107a77f6a2db2451bea729c665ab016dba44ec168c092f538fee964692509c3630a12a760001b615a86565b6107d37f1b11e30cdb2cc4f74a025cc0d2e30dd09581b0930eb7e311ddefb3cf2386fa5c60001b615a86565b6107ff7f7e39da682e9ff02c1ee1d6add785b5ef228e5d8006771139e19729c757c16bb360001b615a86565b61082b7f5437f81a5171c1803cbf9dff3260f4a0811eba0fea2b2389657a015de286edb860001b615a86565b60001515600760009054906101000a900460ff16151514610881576040517f08c379a0000000000000000000000000000000000000000000000000000000008152600401610878906163f8565b60405180910390fd5b6108ad7fd1e3539a8bfd4aae400ae5d8055a5fccf812096c04b416610bc366a0292ab65360001b615a86565b6108d97f2e34e692b87ad72ebeb0c14d4af3a5de00f361dbaab7dc659ce508ec3f6b2f7e60001b615a86565b6109057fe3223aa097284b94ecd71541be8a3a4d5dd2571b6ed3c2cbfd4545350b76d89560001b615a86565b6109317f53b9a29eceb0087da5e69836d368f5687fa763336afb7d42f140fdae20d14a3d60001b615a86565b61095d7fca20859b4864b4efe31d076a0dcd9b68b11585307ef4f39cc23dda8c129d3cf760001b615a86565b6002805480602002602001604051908101604052809291908181526020016000905b828210156109c55783829060005260206000209060020201604051806040016040529081600082015481526020016001820154815250508152602001906001019061097f565b50505050905090565b60006109fc7f863882f0c694b218214e2590cec11a0216b999c419747188e4071d856b4c37f860001b615a86565b610a287f5fdb5882db4ea8a0b2a2410303643db79c708156ae10aef7364d769a2e7f405d60001b615a86565b610a547f59b682088382e5d7c5c9656a17aeeea23f1809367801ebd0ef07d463d2ccfe8460001b615a86565b600760009054906101000a900460ff16905090565b610a957fef43da0f26ae566a87a4aaa20a03af758ea04ede79d9f203b5e48a7745aa773c60001b615a86565b610ac17feb57aac3338f386c1c266edda3724aa13fd2dec570bc06c33fb4d0c3339573fe60001b615a86565b610aed7f42b91e8c973483e4118fc701be2519d7fc9c161715af12d6aa735a63e4463cde60001b615a86565b610b197fde7a68b7ae86298389d7c585aa3564b7d5759fea4c5816def1ae78618cc6a89a60001b615a86565b60008054906101000a900473ffffffffffffffffffffffffffffffffffffffff1673ffffffffffffffffffffffffffffffffffffffff163373ffffffffffffffffffffffffffffffffffffffff1614610ba7576040517f08c379a0000000000000000000000000000000000000000000000000000000008152600401610b9e90616438565b60405180910390fd5b610bd37f577a0e929dcaa0872c59b226f3852a0f31f735e02b3e8e73c85b60abc06df6e560001b615a86565b610bff7f41e92cd776bedbc688f7a26c9319debd60c194e394ee2b3af0377b6f507a39d860001b615a86565b610c2b7f63ca1ac858840fe86856f256aaddd88c32e8fa5cf8d89ef71007303d796a3a3460001b615a86565b610c577fc981e4f9bdab3af09a2991125ca16dbab5e39e5acdfc043bcd1fadaa19f091f460001b615a86565b610c837f533217a6fe94e06a0b2f23c5e8f72389da2ed02dd24bd595a91694b70aebebe560001b615a86565b6000600760006101000a81548160ff021916908315150217905550610cca7fd6fa1b8ad2578b8479ee9c3c75c90b95e62f4fcef6a70394f56aa1d56f90017160001b615a86565b610cf67f6b90874667afb0ef2a611270bab7b1668bbc0f5b8f2c6cd2163efb92987d578f60001b615a86565b7fb332ca16caa1c4a06e0ac387e6f16243ed23af2575eb84c3417d16dbbfa3f3436000604051610d2691906163ad565b60405180910390a1565b610d5c7f6a2db2451bea729c665ab016dba44ec168c092f538fee964692509c3630a12a760001b615a86565b610d887f1b11e30cdb2cc4f74a025cc0d2e30dd09581b0930eb7e311ddefb3cf2386fa5c60001b615a86565b610db47f7e39da682e9ff02c1ee1d6add785b5ef228e5d8006771139e19729c757c16bb360001b615a86565b610de07f5437f81a5171c1803cbf9dff3260f4a0811eba0fea2b2389657a015de286edb860001b615a86565b60001515600760009054906101000a900460ff16151514610e36576040517f08c379a0000000000000000000000000000000000000000000000000000000008152600401610e2d906163f8565b60405180910390fd5b610e627fd1e3539a8bfd4aae400ae5d8055a5fccf812096c04b416610bc366a0292ab65360001b615a86565b610e8e7f2e34e692b87ad72ebeb0c14d4af3a5de00f361dbaab7dc659ce508ec3f6b2f7e60001b615a86565b80610ebb7faf6bca6ce21200a02f3cbe036828f6cfb765d6c088fa993b4bb0ab546b4c3f1b60001b615a86565b610ee77fd982bd477130beb139d731cb8928d87c370167f349c625a8e535fc4d2d3ee23b60001b615a86565b610f137fabf33cfa9f4e71f5616eb67056120427dfc2e446e50fb242f2b7b8d376d906c760001b615a86565b610f3f7f509f318513292604594951bdc2b18c4d80055568b0ac60e7bca3fd548ba81a9560001b615a86565b6000811480610f4e5750600181145b610f8d576040517f08c379a0000000000000000000000000000000000000000000000000000000008152600401610f8490616478565b60405180910390fd5b610fb97f4aedd73d2a4bca1b4db28fbcc07f5d1114fc8fea79030a83ec3286bd1ddee46260001b615a86565b610fe57f0e98c1fc9b6167b9c071357f5c02541e481f393a1ba185016055d641a3adb19160001b615a86565b6110117f92c6ed2334e4ff1dbc5f626221a28dded592ae513e8ccdfaa89dd03a500f53f060001b615a86565b61103d7fa5f7563529b32afc1e9d28dfbac507a755333593156e30343b5a00800b72ddfb60001b615a86565b6110697f4b28c1ce7809d96259a8aac6c3bf9a474016e32ff592ee908d96e31d55ec249960001b615a86565b6001600560016101000a81548160ff0219169083151502179055506110b07f7c5fd92cd08a64e6ea125c1c6715add3834cda0b99c535edaefadca04ee7c7ae60001b615a86565b6110dc7fb12002e5126e8689d643a3847c93cf30654b71ee5be7c97a4745255ea7cea02060001b615a86565b7f7391a69cbe7f7d60dcd848427cf512560c21aff11e6012a0eb9d42aa07dcfbfe600160405161110c91906163ad565b60405180910390a15050565b60006111467f6a2db2451bea729c665ab016dba44ec168c092f538fee964692509c3630a12a760001b615a86565b6111727f1b11e30cdb2cc4f74a025cc0d2e30dd09581b0930eb7e311ddefb3cf2386fa5c60001b615a86565b61119e7f7e39da682e9ff02c1ee1d6add785b5ef228e5d8006771139e19729c757c16bb360001b615a86565b6111ca7f5437f81a5171c1803cbf9dff3260f4a0811eba0fea2b2389657a015de286edb860001b615a86565b60001515600760009054906101000a900460ff16151514611220576040517f08c379a0000000000000000000000000000000000000000000000000000000008152600401611217906163f8565b60405180910390fd5b61124c7fd1e3539a8bfd4aae400ae5d8055a5fccf812096c04b416610bc366a0292ab65360001b615a86565b6112787f2e34e692b87ad72ebeb0c14d4af3a5de00f361dbaab7dc659ce508ec3f6b2f7e60001b615a86565b6112a47f7b6b7e4283cf4d86f88da6be21a85652a0ae370797215a77b30c388f6972b73d60001b615a86565b6112d07ff1e61e73ea300dba36ee526385d25af35a78dd5d834c7951a87be1b3141132fc60001b615a86565b6112fc7f8464180892ce02b0861ca7481e8feeb674ef4d0f56891b00ff11dd9dd0d3acd960001b615a86565b600560009054906101000a900460ff16905090565b600760009054906101000a900460ff1681565b600560019054906101000a900460ff1681565b6113637f6a2db2451bea729c665ab016dba44ec168c092f538fee964692509c3630a12a760001b615a86565b61138f7f1b11e30cdb2cc4f74a025cc0d2e30dd09581b0930eb7e311ddefb3cf2386fa5c60001b615a86565b6113bb7f7e39da682e9ff02c1ee1d6add785b5ef228e5d8006771139e19729c757c16bb360001b615a86565b6113e77f5437f81a5171c1803cbf9dff3260f4a0811eba0fea2b2389657a015de286edb860001b615a86565b60001515600760009054906101000a900460ff1615151461143d576040517f08c379a0000000000000000000000000000000000000000000000000000000008152600401611434906163f8565b60405180910390fd5b6114697fd1e3539a8bfd4aae400ae5d8055a5fccf812096c04b416610bc366a0292ab65360001b615a86565b6114957f2e34e692b87ad72ebeb0c14d4af3a5de00f361dbaab7dc659ce508ec3f6b2f7e60001b615a86565b806114c27faf6bca6ce21200a02f3cbe036828f6cfb765d6c088fa993b4bb0ab546b4c3f1b60001b615a86565b6114ee7fd982bd477130beb139d731cb8928d87c370167f349c625a8e535fc4d2d3ee23b60001b615a86565b61151a7fabf33cfa9f4e71f5616eb67056120427dfc2e446e50fb242f2b7b8d376d906c760001b615a86565b6115467f509f318513292604594951bdc2b18c4d80055568b0ac60e7bca3fd548ba81a9560001b615a86565b60008114806115555750600181145b611594576040517f08c379a000000000000000000000000000000000000000000000000000000000815260040161158b90616478565b60405180910390fd5b6115c07f4aedd73d2a4bca1b4db28fbcc07f5d1114fc8fea79030a83ec3286bd1ddee46260001b615a86565b6115ec7f0e98c1fc9b6167b9c071357f5c02541e481f393a1ba185016055d641a3adb19160001b615a86565b6116187fff7afb45d52b8fc33d2dd8bac7b874698ac76c8cad4413bce6b6b00b7b49ea4160001b615a86565b6116447f729add0ff34d5227518eb20c8b8e47b9ae65cff0c8c353b7aee716655fce145760001b615a86565b6116707f3b55e9318f4b997ae984de250caac29e525a565a40630fec08d02bbf69f52cb360001b615a86565b6000600560016101000a81548160ff0219169083151502179055506116b77f77406171b31ad3f4b02f2a6cf1fdc743cce1967b107679843a29851e3c73d07d60001b615a86565b6116e37fa11574337556242812c19bbdfca129d13f8392cbc0677b7c1625f2d7fd514fe360001b615a86565b7f7391a69cbe7f7d60dcd848427cf512560c21aff11e6012a0eb9d42aa07dcfbfe600060405161171391906163ad565b60405180910390a15050565b600061174d7f6a2db2451bea729c665ab016dba44ec168c092f538fee964692509c3630a12a760001b615a86565b6117797f1b11e30cdb2cc4f74a025cc0d2e30dd09581b0930eb7e311ddefb3cf2386fa5c60001b615a86565b6117a57f7e39da682e9ff02c1ee1d6add785b5ef228e5d8006771139e19729c757c16bb360001b615a86565b6117d17f5437f81a5171c1803cbf9dff3260f4a0811eba0fea2b2389657a015de286edb860001b615a86565b60001515600760009054906101000a900460ff16151514611827576040517f08c379a000000000000000000000000000000000000000000000000000000000815260040161181e906163f8565b60405180910390fd5b6118537fd1e3539a8bfd4aae400ae5d8055a5fccf812096c04b416610bc366a0292ab65360001b615a86565b61187f7f2e34e692b87ad72ebeb0c14d4af3a5de00f361dbaab7dc659ce508ec3f6b2f7e60001b615a86565b6118ab7f6bdee1f2d95c9a58226bb620885bb238a4c6ff1e0c7e52714e54dac476a1379e60001b615a86565b6118d77f094577bf4bb17c5e18cbe04614f0b035d9ff0e670f5c388999325fbc79fb852860001b615a86565b6119037f77c7c6d62937ecdc390fdaebc51447797ba4a2c7598e927c1781271aedde170c60001b615a86565b600560019054906101000a900460ff16905090565b6119447f6a2db2451bea729c665ab016dba44ec168c092f538fee964692509c3630a12a760001b615a86565b6119707f1b11e30cdb2cc4f74a025cc0d2e30dd09581b0930eb7e311ddefb3cf2386fa5c60001b615a86565b61199c7f7e39da682e9ff02c1ee1d6add785b5ef228e5d8006771139e19729c757c16bb360001b615a86565b6119c87f5437f81a5171c1803cbf9dff3260f4a0811eba0fea2b2389657a015de286edb860001b615a86565b60001515600760009054906101000a900460ff16151514611a1e576040517f08c379a0000000000000000000000000000000000000000000000000000000008152600401611a15906163f8565b60405180910390fd5b611a4a7fd1e3539a8bfd4aae400ae5d8055a5fccf812096c04b416610bc366a0292ab65360001b615a86565b611a767f2e34e692b87ad72ebeb0c14d4af3a5de00f361dbaab7dc659ce508ec3f6b2f7e60001b615a86565b611aa27fef43da0f26ae566a87a4aaa20a03af758ea04ede79d9f203b5e48a7745aa773c60001b615a86565b611ace7feb57aac3338f386c1c266edda3724aa13fd2dec570bc06c33fb4d0c3339573fe60001b615a86565b611afa7f42b91e8c973483e4118fc701be2519d7fc9c161715af12d6aa735a63e4463cde60001b615a86565b611b267fde7a68b7ae86298389d7c585aa3564b7d5759fea4c5816def1ae78618cc6a89a60001b615a86565b60008054906101000a900473ffffffffffffffffffffffffffffffffffffffff1673ffffffffffffffffffffffffffffffffffffffff163373ffffffffffffffffffffffffffffffffffffffff1614611bb4576040517f08c379a0000000000000000000000000000000000000000000000000000000008152600401611bab90616438565b60405180910390fd5b611be07f577a0e929dcaa0872c59b226f3852a0f31f735e02b3e8e73c85b60abc06df6e560001b615a86565b611c0c7f41e92cd776bedbc688f7a26c9319debd60c194e394ee2b3af0377b6f507a39d860001b615a86565b611c387fc04346413a5a8c5973dfd901d5a25d0b7afabf143c07403135b0a0bb4c00123360001b615a86565b611c647f3acde8fbe920e06ae64f830c46f7d7861ae5d2285d99874d4826d74ebaea327c60001b615a86565b611c907fb4888757562181733d25b4617957a0eed02a5ff827bd06a048db7c21f1c96b3860001b615a86565b6001600560006101000a81548160ff021916908315150217905550611cd77f6568d6dd55db0aa520a32fe8977f1df02928e746ae4939f01b4cd8a325a4697560001b615a86565b611d037f7808db2361bd0cf4fa30b75e02fd54fad108bb1f2839ae278cf96f25d6388b8b60001b615a86565b7f24505c2a690f21afd3a9d6fd8280e5a12ad3fcf5edee69a44d19537561a85ad86001604051611d3391906163ad565b60405180910390a1565b600560029054906101000a900460ff1681565b6000611d7e7f6a2db2451bea729c665ab016dba44ec168c092f538fee964692509c3630a12a760001b615a86565b611daa7f1b11e30cdb2cc4f74a025cc0d2e30dd09581b0930eb7e311ddefb3cf2386fa5c60001b615a86565b611dd67f7e39da682e9ff02c1ee1d6add785b5ef228e5d8006771139e19729c757c16bb360001b615a86565b611e027f5437f81a5171c1803cbf9dff3260f4a0811eba0fea2b2389657a015de286edb860001b615a86565b60001515600760009054906101000a900460ff16151514611e58576040517f08c379a0000000000000000000000000000000000000000000000000000000008152600401611e4f906163f8565b60405180910390fd5b611e847fd1e3539a8bfd4aae400ae5d8055a5fccf812096c04b416610bc366a0292ab65360001b615a86565b611eb07f2e34e692b87ad72ebeb0c14d4af3a5de00f361dbaab7dc659ce508ec3f6b2f7e60001b615a86565b611edc7f0ad70c9681864d1f1a7e97b855104a8b803e9fff084374a3a2c24848959ca65b60001b615a86565b611f087fbf35bf221dfc8ad039bcc5105861207585f051a0dcd3528bac958c370479a8a560001b615a86565b611f347fac8b4b6c1e33348394d4812379c46be6d00869339a757a0ae3e474682ad7e1d760001b615a86565b8173ffffffffffffffffffffffffffffffffffffffff1660008054906101000a900473ffffffffffffffffffffffffffffffffffffffff1673ffffffffffffffffffffffffffffffffffffffff16149050919050565b80611fb77faf6bca6ce21200a02f3cbe036828f6cfb765d6c088fa993b4bb0ab546b4c3f1b60001b615a86565b611fe37fd982bd477130beb139d731cb8928d87c370167f349c625a8e535fc4d2d3ee23b60001b615a86565b61200f7fabf33cfa9f4e71f5616eb67056120427dfc2e446e50fb242f2b7b8d376d906c760001b615a86565b61203b7f509f318513292604594951bdc2b18c4d80055568b0ac60e7bca3fd548ba81a9560001b615a86565b600081148061204a5750600181145b612089576040517f08c379a000000000000000000000000000000000000000000000000000000000815260040161208090616478565b60405180910390fd5b6120b57f4aedd73d2a4bca1b4db28fbcc07f5d1114fc8fea79030a83ec3286bd1ddee46260001b615a86565b6120e17f0e98c1fc9b6167b9c071357f5c02541e481f393a1ba185016055d641a3adb19160001b615a86565b61210d7f6a2db2451bea729c665ab016dba44ec168c092f538fee964692509c3630a12a760001b615a86565b6121397f1b11e30cdb2cc4f74a025cc0d2e30dd09581b0930eb7e311ddefb3cf2386fa5c60001b615a86565b6121657f7e39da682e9ff02c1ee1d6add785b5ef228e5d8006771139e19729c757c16bb360001b615a86565b6121917f5437f81a5171c1803cbf9dff3260f4a0811eba0fea2b2389657a015de286edb860001b615a86565b60001515600760009054906101000a900460ff161515146121e7576040517f08c379a00000000000000000000000000000000000000000000000000000000081526004016121de906163f8565b60405180910390fd5b6122137fd1e3539a8bfd4aae400ae5d8055a5fccf812096c04b416610bc366a0292ab65360001b615a86565b61223f7f2e34e692b87ad72ebeb0c14d4af3a5de00f361dbaab7dc659ce508ec3f6b2f7e60001b615a86565b61226b7fae315468f033257b60e2d0ec27e6ca6d0365349862fac9cfb9e1be1b498a5a1460001b615a86565b6122977f350f4de06cca70166af803c1e735f1818cd1b8900d5d7edf6c96352849855cd460001b615a86565b6122c37f77d0d24f9fb3313e7df396ceebfdd65aa625e3102f572fa214c83312f7d435f160001b615a86565b6001600560026101000a81548160ff02191690831515021790555061230a7f2e7f930f70f19018a5350a744099d1dd3331fde3a25aaca7567b7a1ec038e84460001b615a86565b6123367f21f7e2db655466b9808b94dc58f291075e53408e9f2ee8837dfefc4a6a2c9c9160001b615a86565b7f7a19ed057db79e3c2fa0b97a54b43bef4fce74b31bb6c01af514b9a18a7f70ab60405160405180910390a15050565b600560009054906101000a900460ff1681565b6123a57fef43da0f26ae566a87a4aaa20a03af758ea04ede79d9f203b5e48a7745aa773c60001b615a86565b6123d17feb57aac3338f386c1c266edda3724aa13fd2dec570bc06c33fb4d0c3339573fe60001b615a86565b6123fd7f42b91e8c973483e4118fc701be2519d7fc9c161715af12d6aa735a63e4463cde60001b615a86565b6124297fde7a68b7ae86298389d7c585aa3564b7d5759fea4c5816def1ae78618cc6a89a60001b615a86565b60008054906101000a900473ffffffffffffffffffffffffffffffffffffffff1673ffffffffffffffffffffffffffffffffffffffff163373ffffffffffffffffffffffffffffffffffffffff16146124b7576040517f08c379a00000000000000000000000000000000000000000000000000000000081526004016124ae90616438565b60405180910390fd5b6124e37f577a0e929dcaa0872c59b226f3852a0f31f735e02b3e8e73c85b60abc06df6e560001b615a86565b61250f7f41e92cd776bedbc688f7a26c9319debd60c194e394ee2b3af0377b6f507a39d860001b615a86565b61253b7f6a2db2451bea729c665ab016dba44ec168c092f538fee964692509c3630a12a760001b615a86565b6125677f1b11e30cdb2cc4f74a025cc0d2e30dd09581b0930eb7e311ddefb3cf2386fa5c60001b615a86565b6125937f7e39da682e9ff02c1ee1d6add785b5ef228e5d8006771139e19729c757c16bb360001b615a86565b6125bf7f5437f81a5171c1803cbf9dff3260f4a0811eba0fea2b2389657a015de286edb860001b615a86565b60001515600760009054906101000a900460ff16151514612615576040517f08c379a000000000000000000000000000000000000000000000000000000000815260040161260c906163f8565b60405180910390fd5b6126417fd1e3539a8bfd4aae400ae5d8055a5fccf812096c04b416610bc366a0292ab65360001b615a86565b61266d7f2e34e692b87ad72ebeb0c14d4af3a5de00f361dbaab7dc659ce508ec3f6b2f7e60001b615a86565b6126997f59e8a8a17a5df121cf7c649d00254b02a05ed9a629665cc582e31ec1cef1427560001b615a86565b6126c57f95bf64900902c967dbcc74fc8ea7ac937503c82babeffa1db5746c3c40f1acc360001b615a86565b6126f17f6db16b3301c8234429178fc0324bb6d9b6b6ed81c28c679c468be46652fb364760001b615a86565b61271d7f0dcd2b304557705802d35c9a5731ea0f6572c98aa893eb024cf401a554606a4760001b615a86565b6001821415612761576040517f08c379a000000000000000000000000000000000000000000000000000000000815260040161275890616458565b60405180910390fd5b61278d7fd212a619053eb197644682f2861e7f873f5bc3cc66d80fdbc0f1c1191d51162e60001b615a86565b6127b97fa1ce3f5f4e70e0e79b154d249307aa4b61853e138fc92d2a572f4f8bf2baf17260001b615a86565b6127e57f03790373c63e8e0a67a817d542008f9a03eb0aff8042f7841dd113782035927860001b615a86565b6128117f9b9efdc05ae0ffaf60de8845c7166e40c2e72ae3400aae344ce375c149e1e27560001b615a86565b60008114806128205750600181145b8061282b5750600281145b61286a576040517f08c379a0000000000000000000000000000000000000000000000000000000008152600401612861906164b8565b60405180910390fd5b6128967f3b8caec6c6e480cf48e6405633606f2f24b8a220623c3196f60e7abd3ad58e8460001b615a86565b6128c27fe71a0b71941846e3c5838ddd1ebc8c839ef6828f9dfa7b1572f6ebbb67f40fba60001b615a86565b6128ee7f7003ad851b16c06e2e742ce73bef3613f8c3bad7330bc53c87ee0fcaf4ee56e860001b615a86565b6000811415612ab0576129237ff96ab60d2f10df8295ebc78ee96a87a258db8a94d424305e584d06e8aeff5b2c60001b615a86565b61294f7f4f2757dccaeb7d007362cb8de91300b130337ba049cce1e4569df1193bbdba2960001b615a86565b61297b7f0fe5e7069c7a820577cf95e0035509216ce9d89996c356056b8f8b37d52cc98860001b615a86565b6040518060400160405280600b81526020017f426f6172644d656d62657200000000000000000000000000000000000000000081525060046001846129c091906167b2565b815481106129f7577f4e487b7100000000000000000000000000000000000000000000000000000000600052603260045260246000fd5b90600052602060002090600402016002019080519060200190612a1b929190615a89565b50612a487fc5ce7bc7fa7f19ad6eda58d4e7fadddd847a990fc2d370e96f03f391348300fb60001b615a86565b612a747f8cc738c1eb6c17d76e0fcbdd2d868c74593d9ce866f94a12cda7b475554c476560001b615a86565b7f12523f2a740b8fc93b2bdc49d3e14b8198f975653db12a894ab58b4be45b7e7282604051612aa39190616584565b60405180910390a1612f13565b612adc7f0389e76f2670901a9b0c997b0b2f413ae7a6ffdd459cafb4ec524c5e8249cecd60001b615a86565b612b087fda17e9eef0757ab335a6caae72fbeb755cdc5673b5cfb241006d8ec476b0e0ee60001b615a86565b6001811415612cca57612b3d7f954ddf6351c1b9fcbd35e71c793afc959e59e88951ca6a8fe2c546bf7cc49dbe60001b615a86565b612b697f830691f0581c2d926ff7c84521e988bcd6629d38414e63fc5dd71d053be4b05b60001b615a86565b612b957f316624e8da96b6555ee69b620889960d8c62048f9a3b1d51ba91e0c0e252584c60001b615a86565b6040518060400160405280600781526020017f54656163686572000000000000000000000000000000000000000000000000008152506004600184612bda91906167b2565b81548110612c11577f4e487b7100000000000000000000000000000000000000000000000000000000600052603260045260246000fd5b90600052602060002090600402016002019080519060200190612c35929190615a89565b50612c627f4a17ed9b8a932fb8cd395e5533f89ea8499e2d6b9cd4af94f060181a980b2e3d60001b615a86565b612c8e7fdab79c0c2e760e01b7a97b32d232efde7b8853bd4f3c0bf7f0a3e399ff46433c60001b615a86565b7f12523f2a740b8fc93b2bdc49d3e14b8198f975653db12a894ab58b4be45b7e7282604051612cbd91906165b2565b60405180910390a1612f12565b612cf67f42e3d8281c8defbde9010e1a5e405af1387580e175d47dd414fc7ec9cf643f1460001b615a86565b612d227f51954b85bb328666ae5257b9dfb8681f5f29df5d6247d51884b59678ba9387de60001b615a86565b6002811415612ee457612d577fd8675e0d6ddb01f76393093941977c5445488782d32a4a6a53725b9cdfc6c8bf60001b615a86565b612d837fa541c88b1dfef352bcd7129c434563dc143b6508b8f97e73efb5207941b397d060001b615a86565b612daf7fce99e1455edfaf3746d1bc8b654a423447bbba96c1621adaf64d238282ff036560001b615a86565b6040518060400160405280600781526020017f53747564656e74000000000000000000000000000000000000000000000000008152506004600184612df491906167b2565b81548110612e2b577f4e487b7100000000000000000000000000000000000000000000000000000000600052603260045260246000fd5b90600052602060002090600402016002019080519060200190612e4f929190615a89565b50612e7c7fd338021dd497220ae32d9915349427d00dcc7a15926a37c9836bb44a121c6b5e60001b615a86565b612ea87f2fa37bf052eeccd9c7876f611d5d84e318fb3e5a7faf12b8c23e26d338f936eb60001b615a86565b7f12523f2a740b8fc93b2bdc49d3e14b8198f975653db12a894ab58b4be45b7e7282604051612ed791906165e0565b60405180910390a1612f11565b612f107f9378125aec2ac04a0a526ad0a344553effb3bc6a6121004c44863731baf29f2960001b615a86565b5b5b5b5050565b612f437f6a2db2451bea729c665ab016dba44ec168c092f538fee964692509c3630a12a760001b615a86565b612f6f7f1b11e30cdb2cc4f74a025cc0d2e30dd09581b0930eb7e311ddefb3cf2386fa5c60001b615a86565b612f9b7f7e39da682e9ff02c1ee1d6add785b5ef228e5d8006771139e19729c757c16bb360001b615a86565b612fc77f5437f81a5171c1803cbf9dff3260f4a0811eba0fea2b2389657a015de286edb860001b615a86565b60001515600760009054906101000a900460ff1615151461301d576040517f08c379a0000000000000000000000000000000000000000000000000000000008152600401613014906163f8565b60405180910390fd5b6130497fd1e3539a8bfd4aae400ae5d8055a5fccf812096c04b416610bc366a0292ab65360001b615a86565b6130757f2e34e692b87ad72ebeb0c14d4af3a5de00f361dbaab7dc659ce508ec3f6b2f7e60001b615a86565b6130a17fef43da0f26ae566a87a4aaa20a03af758ea04ede79d9f203b5e48a7745aa773c60001b615a86565b6130cd7feb57aac3338f386c1c266edda3724aa13fd2dec570bc06c33fb4d0c3339573fe60001b615a86565b6130f97f42b91e8c973483e4118fc701be2519d7fc9c161715af12d6aa735a63e4463cde60001b615a86565b6131257fde7a68b7ae86298389d7c585aa3564b7d5759fea4c5816def1ae78618cc6a89a60001b615a86565b60008054906101000a900473ffffffffffffffffffffffffffffffffffffffff1673ffffffffffffffffffffffffffffffffffffffff163373ffffffffffffffffffffffffffffffffffffffff16146131b3576040517f08c379a00000000000000000000000000000000000000000000000000000000081526004016131aa90616438565b60405180910390fd5b6131df7f577a0e929dcaa0872c59b226f3852a0f31f735e02b3e8e73c85b60abc06df6e560001b615a86565b61320b7f41e92cd776bedbc688f7a26c9319debd60c194e394ee2b3af0377b6f507a39d860001b615a86565b6132377fee5ee9914bcbcd227b8e7a5b8a0514c6bb2dfed44474a5eb3a9e58f87ea49fc160001b615a86565b6132637f8528e3140743a1f221df0157e60db8d14ea5a4c3c246db3f71fd01d7b447a77860001b615a86565b61328f7f8934b53671cfd96c418f66799c6f79d95413eded8163541151f23630c28555ed60001b615a86565b6001600760006101000a81548160ff0219169083151502179055506132d67faf32d09b8a750aa5921f56534f53f3233f2bd9892a02862d1161a90b58ff446060001b615a86565b6133027fd5dd7f39020d1371acd4788e3ad2a147834e94a4900b826efaaa1019a27fe7a760001b615a86565b7f46a78bf7ff8f677ad559c47d73bbd80cc457eaa9e07d76e336d61cac18fee98b600160405161333291906163ad565b60405180910390a1565b6133687fef43da0f26ae566a87a4aaa20a03af758ea04ede79d9f203b5e48a7745aa773c60001b615a86565b6133947feb57aac3338f386c1c266edda3724aa13fd2dec570bc06c33fb4d0c3339573fe60001b615a86565b6133c07f42b91e8c973483e4118fc701be2519d7fc9c161715af12d6aa735a63e4463cde60001b615a86565b6133ec7fde7a68b7ae86298389d7c585aa3564b7d5759fea4c5816def1ae78618cc6a89a60001b615a86565b60008054906101000a900473ffffffffffffffffffffffffffffffffffffffff1673ffffffffffffffffffffffffffffffffffffffff163373ffffffffffffffffffffffffffffffffffffffff161461347a576040517f08c379a000000000000000000000000000000000000000000000000000000000815260040161347190616438565b60405180910390fd5b6134a67f577a0e929dcaa0872c59b226f3852a0f31f735e02b3e8e73c85b60abc06df6e560001b615a86565b6134d27f41e92cd776bedbc688f7a26c9319debd60c194e394ee2b3af0377b6f507a39d860001b615a86565b6134fe7f6a2db2451bea729c665ab016dba44ec168c092f538fee964692509c3630a12a760001b615a86565b61352a7f1b11e30cdb2cc4f74a025cc0d2e30dd09581b0930eb7e311ddefb3cf2386fa5c60001b615a86565b6135567f7e39da682e9ff02c1ee1d6add785b5ef228e5d8006771139e19729c757c16bb360001b615a86565b6135827f5437f81a5171c1803cbf9dff3260f4a0811eba0fea2b2389657a015de286edb860001b615a86565b60001515600760009054906101000a900460ff161515146135d8576040517f08c379a00000000000000000000000000000000000000000000000000000000081526004016135cf906163f8565b60405180910390fd5b6136047fd1e3539a8bfd4aae400ae5d8055a5fccf812096c04b416610bc366a0292ab65360001b615a86565b6136307f2e34e692b87ad72ebeb0c14d4af3a5de00f361dbaab7dc659ce508ec3f6b2f7e60001b615a86565b61365c7f355bff74c3366eb8d94bcb27f47a620c68d67058219cf0d6e2499a6c28041d1060001b615a86565b6136887f8b690fb5bb88dcb9da05c323d8dae5388285ed3f99c4b2171d56ea1109a61f8960001b615a86565b6136b47f4dadda3a06edd60808c2c0a0e321491cf5714843e9c6cad5f0861ed49c6f525960001b615a86565b6136e07f5079f4f3723aa4e55bb271f06f4d86450fa703096aeddd272eb8961f2e51fc7660001b615a86565b60008114806136ef5750600181145b806136fa5750600281145b613739576040517f08c379a0000000000000000000000000000000000000000000000000000000008152600401613730906164b8565b60405180910390fd5b6137657f262468a20a065189820398f89b32a8a92d8ef265ea17a91ec7f82515947a384960001b615a86565b6137917f51e5a39a71db55563f00a23685b76cd09f9256bec304e2189d0bafa661af449c60001b615a86565b6137bd7f3dc6beb8e5cf6662046276f972eae87fee23ac0dbfbbae1657889841256d076e60001b615a86565b6000811415613a7e576137f27f14a99c11d10753b1c59f10e5888f9fe5a295c91dd6ea739d17eb36a63f7c578d60001b615a86565b61381e7f54800cd0f671a2012002b0705c466246ee0c4cf49d3595214f1980385782f7d960001b615a86565b61384a7f1aa4cd53f949d0d4d18d397ce8f9211c61137840a0bf42ea7a7cd4c4d4a7b78760001b615a86565b6000600160048054905061385e919061675c565b905061388c7f95859a35b02116620a0a7a4b6dfd9b11bf87ee4af96f5de9060696b5aca64f6960001b615a86565b6138b87f97e4f145043b4bd7c62be4a4169db4d04e11e8222b000cd17d6f2851c8da7ebc60001b615a86565b600460405180608001604052808381526020018573ffffffffffffffffffffffffffffffffffffffff1681526020016040518060400160405280600b81526020017f426f6172644d656d62657200000000000000000000000000000000000000000081525081526020016000151581525090806001815401808255809150506001900390600052602060002090600402016000909190919091506000820151816000015560208201518160010160006101000a81548173ffffffffffffffffffffffffffffffffffffffff021916908373ffffffffffffffffffffffffffffffffffffffff16021790555060408201518160020190805190602001906139bf929190615a89565b5060608201518160030160006101000a81548160ff0219169083151502179055505050613a0e7fbc425e72244f3eac0f8784df74eb3633a893efc09b9d108ba67f234cb1be4e7f60001b615a86565b613a3a7f864f11951d81932da7232100f9cba39dbd7fe9bf353062e0d69c59b1554e7bd760001b615a86565b7f6b20eb62f1298cad3d3fe78b79d9d03ed50788e17184c1c0b61a05291ea520d88184846000604051613a7094939291906164f3565b60405180910390a1506140df565b613aaa7fb65cc5e676722a39d37a62c66ab8b3d60c264562aae78a47644153732e3792df60001b615a86565b613ad67f7bf379b5ded2608b5d1186235eeb89c47cf26530ef3409163a680a8b8dd4f5f760001b615a86565b6001811415613d9757613b0b7f0cca31473288a03f31207264f4ac9980d7f2736c301a79b89c311ba9238c54ea60001b615a86565b613b377f298b77e04762a2d7d320c5566521b4b6ff523d7614a11bea95426f6214cb277660001b615a86565b613b637f8834b2bae2c101c9677f5ea5c710d8e9e2f649c2b60afd1f7b7bc1398992309260001b615a86565b60006001600480549050613b77919061675c565b9050613ba57f771ffed58f4af75a46cbb4fc241a1a518c90620958982f23e3b920363dd13bee60001b615a86565b613bd17faeeac9471082ddbffa2f40866dd6846e3220a716de797930a2c7aca55c22ec6160001b615a86565b600460405180608001604052808381526020018573ffffffffffffffffffffffffffffffffffffffff1681526020016040518060400160405280600781526020017f546561636865720000000000000000000000000000000000000000000000000081525081526020016000151581525090806001815401808255809150506001900390600052602060002090600402016000909190919091506000820151816000015560208201518160010160006101000a81548173ffffffffffffffffffffffffffffffffffffffff021916908373ffffffffffffffffffffffffffffffffffffffff1602179055506040820151816002019080519060200190613cd8929190615a89565b5060608201518160030160006101000a81548160ff0219169083151502179055505050613d277ff9726fdb5fabdeb3339f013c4ca32fc2883b7df9c18e074589a12c3b57312b3a60001b615a86565b613d537f2cd3d5360ed1cd63e41ccbc395516fb741cf2c07dcde2e3795191a5e3602a6a560001b615a86565b7f6b20eb62f1298cad3d3fe78b79d9d03ed50788e17184c1c0b61a05291ea520d88184846000604051613d8994939291906164f3565b60405180910390a1506140de565b613dc37fb1ee0b0f5e8a1f05c9b9987847599e88a77cca52674f23e8ebfce427a7279bce60001b615a86565b613def7f9c3d967aa4398c9885b385cafbc87a5fe6bef0785448f06e4c075059105ddc0260001b615a86565b60028114156140b057613e247f11ceeb3ddd69569e3853adc651662db092906423aa31b7f0c48696b1e3172a4f60001b615a86565b613e507f96721af08b6fc4a70ad419ef9207a10ff273b9b63e0ac5ce069573b98200cb2560001b615a86565b613e7c7f43bec662a60f2f8ba6d074f081abfc419a00d9749a550612916f2f84dfb4ee0560001b615a86565b60006001600480549050613e90919061675c565b9050613ebe7f45e714116b74c537878c0a8bd670bb967ffc5621e37559052a2c83ecc3e7c30760001b615a86565b613eea7f5d2f86c367ecfc96d5ad8d2b948ae30d98b21b9c16f864b86c03cb13ff64589360001b615a86565b600460405180608001604052808381526020018573ffffffffffffffffffffffffffffffffffffffff1681526020016040518060400160405280600781526020017f53747564656e740000000000000000000000000000000000000000000000000081525081526020016000151581525090806001815401808255809150506001900390600052602060002090600402016000909190919091506000820151816000015560208201518160010160006101000a81548173ffffffffffffffffffffffffffffffffffffffff021916908373ffffffffffffffffffffffffffffffffffffffff1602179055506040820151816002019080519060200190613ff1929190615a89565b5060608201518160030160006101000a81548160ff02191690831515021790555050506140407facfa66427951b0d9efede4247ee6b4b54c182e5f9f8370853fb74e7128e8ce7660001b615a86565b61406c7f57bfbee038983cb0225bee6911ece6beb6220af48d180e6f6e5b148d27d15dc460001b615a86565b7f6b20eb62f1298cad3d3fe78b79d9d03ed50788e17184c1c0b61a05291ea520d881848460006040516140a294939291906164f3565b60405180910390a1506140dd565b6140dc7f327efe096b9fddb0809d95a2444075f5b9e5d8f41cb240d35cc03ca4569f2bbf60001b615a86565b5b5b5b5050565b61410f7f6a2db2451bea729c665ab016dba44ec168c092f538fee964692509c3630a12a760001b615a86565b61413b7f1b11e30cdb2cc4f74a025cc0d2e30dd09581b0930eb7e311ddefb3cf2386fa5c60001b615a86565b6141677f7e39da682e9ff02c1ee1d6add785b5ef228e5d8006771139e19729c757c16bb360001b615a86565b6141937f5437f81a5171c1803cbf9dff3260f4a0811eba0fea2b2389657a015de286edb860001b615a86565b60001515600760009054906101000a900460ff161515146141e9576040517f08c379a00000000000000000000000000000000000000000000000000000000081526004016141e0906163f8565b60405180910390fd5b6142157fd1e3539a8bfd4aae400ae5d8055a5fccf812096c04b416610bc366a0292ab65360001b615a86565b6142417f2e34e692b87ad72ebeb0c14d4af3a5de00f361dbaab7dc659ce508ec3f6b2f7e60001b615a86565b61426d7fef43da0f26ae566a87a4aaa20a03af758ea04ede79d9f203b5e48a7745aa773c60001b615a86565b6142997feb57aac3338f386c1c266edda3724aa13fd2dec570bc06c33fb4d0c3339573fe60001b615a86565b6142c57f42b91e8c973483e4118fc701be2519d7fc9c161715af12d6aa735a63e4463cde60001b615a86565b6142f17fde7a68b7ae86298389d7c585aa3564b7d5759fea4c5816def1ae78618cc6a89a60001b615a86565b60008054906101000a900473ffffffffffffffffffffffffffffffffffffffff1673ffffffffffffffffffffffffffffffffffffffff163373ffffffffffffffffffffffffffffffffffffffff161461437f576040517f08c379a000000000000000000000000000000000000000000000000000000000815260040161437690616438565b60405180910390fd5b6143ab7f577a0e929dcaa0872c59b226f3852a0f31f735e02b3e8e73c85b60abc06df6e560001b615a86565b6143d77f41e92cd776bedbc688f7a26c9319debd60c194e394ee2b3af0377b6f507a39d860001b615a86565b6144037f9d51b7328499d944dee7859db866ffd5d92c186d8be3c814db9e241149e8a55060001b615a86565b61442f7fa0f247db4a7db407acd414b81d0b553f2d27e6dbec2fd71ce73986fe8a18b23460001b615a86565b61445b7f02828ef4f6ebfe4fa14450f8ce65e67572ba00868f2d3c6f4252ec75e7acd1a060001b615a86565b6000600560006101000a81548160ff0219169083151502179055506144a27f72a04522da475a86044297cdd457c8a7a9d42162c361065398ab37685339885460001b615a86565b6144ce7f64e474c2489bfe0ae1340b8961ab6cf7deb40c41548214adbe05c0f5d8c379c560001b615a86565b7fd3dc25b085205a3d69d2d144a9f0a0767b54be27b041bcbdb5308a676c1f393760006040516144fe91906163ad565b60405180910390a1565b6145347f78abae2589ed62b24bc5b882058a6960e361110c35a60cacf35ee087ffcbc6b560001b615a86565b6145607fe9e5ffe8ae06c4586ebd5d5285a6ede0e1be3a794a7150c96ce9c2c7c847f08060001b615a86565b61458c7fc96636aa72efa6aa4d551142b67700c1b6fe4f3355a2d9c517167a1eb97446cf60001b615a86565b6145b87fc391bf0bffda6d52af6bb9fb59471af917b63b86bfa3fa1d39cba9be7626285e60001b615a86565b60011515600560009054906101000a900460ff161515146145d857600080fd5b6146047f3ae9fe378c81234cc4cd6fcc032c5981686646618a14573cbabb3d7a63e3a8cd60001b615a86565b6146307f72f26e288d4c1928ccd040b451e85864aad7ed424c9b3d0701f5a1cc2ed3f91060001b615a86565b61465c7f6a2db2451bea729c665ab016dba44ec168c092f538fee964692509c3630a12a760001b615a86565b6146887f1b11e30cdb2cc4f74a025cc0d2e30dd09581b0930eb7e311ddefb3cf2386fa5c60001b615a86565b6146b47f7e39da682e9ff02c1ee1d6add785b5ef228e5d8006771139e19729c757c16bb360001b615a86565b6146e07f5437f81a5171c1803cbf9dff3260f4a0811eba0fea2b2389657a015de286edb860001b615a86565b60001515600760009054906101000a900460ff16151514614736576040517f08c379a000000000000000000000000000000000000000000000000000000000815260040161472d906163f8565b60405180910390fd5b6147627fd1e3539a8bfd4aae400ae5d8055a5fccf812096c04b416610bc366a0292ab65360001b615a86565b61478e7f2e34e692b87ad72ebeb0c14d4af3a5de00f361dbaab7dc659ce508ec3f6b2f7e60001b615a86565b6147ba7f33e91c77643c44379c9e8a6b878504bf37ae1ab52270e444caa1f7136d9fd29960001b615a86565b6147e67f9788f24291c3c1813cfd02f9406ac39a5cde353b1daa8d8741fba6d0f542ff8160001b615a86565b6148127fbb606f1505dd49f830a81a0499cfb64828bb0434a4e47c69bdf34ed7cc6e60bf60001b615a86565b61483e7f1f9676e906d3fe6eb21abc126e8606e21bfa6fea7c060a061445028bf01afbd760001b615a86565b60001515600560029054906101000a900460ff16151514614894576040517f08c379a000000000000000000000000000000000000000000000000000000000815260040161488b90616418565b60405180910390fd5b6148c07fbac16cf32fe761dcc6cf51da1f5465412fac92d3b4a48870c4f39d64f3388cb660001b615a86565b6148ec7fccabe23bb0401be4ba2a22cce0ee72d2ab64d1ccbb3452cc8b8cd2bca30d1c0760001b615a86565b6149187f3d21e327e700131ca766557f261b10ebbe20e531732e40ec65a19db5f73a795a60001b615a86565b6149447f3ad50affec7ff02d51f2dcf5d800dae108d4c9376cd9df6e0c8ba193e8afb7b260001b615a86565b60001515600460018361495791906167b2565b8154811061498e577f4e487b7100000000000000000000000000000000000000000000000000000000600052603260045260246000fd5b906000526020600020906004020160030160009054906101000a900460ff161515146149ef576040517f08c379a00000000000000000000000000000000000000000000000000000000081526004016149e690616498565b60405180910390fd5b614a1b7ff7b72bedaaee2e8d0981da6a627da68b71425743e935e1ea9d023e14b5afaec460001b615a86565b614a477fd2f73a98b6328c1338f1dc33c1550bd40116017039a1d3ba01c237562f4f055460001b615a86565b614a737f78093b8959d2f4f414bf0d2f3ccdb9e4f4412a4086803cfa8bdd8a97f7f96fb160001b615a86565b60016004600183614a8491906167b2565b81548110614abb577f4e487b7100000000000000000000000000000000000000000000000000000000600052603260045260246000fd5b906000526020600020906004020160030160006101000a81548160ff021916908315150217905550614b0f7fa6a3d9a64888b31d55dfdb00315bedd2a7f3e8caf90c9fef3fd580150c118b5d60001b615a86565b614b3b7f242fef9bbc8934deed3c034f83f87f933706d48b180ce6cf4bbf885ecdcacbe160001b615a86565b60006001600280549050614b4f919061675c565b9050614b7d7ff81a7d89ab0d3bdd61c04aee523c1a55f27787bdd8403a6ac94a2fa83e035fd260001b615a86565b614ba97f3c7a5eb979172b40d9d8ed349a240451ca8160c77fd3a00d40e040cbbf9de0eb60001b615a86565b6002604051806040016040528083815260200185815250908060018154018082558091505060019003906000526020600020906002020160009091909190915060008201518160000155602082015181600101555050614c2b7f9e2d65b909abfcca3d1c4c6dadcecbdf5ddb6a42fc72218a009c88a297761eda60001b615a86565b6003600184614c3a91906167b2565b81548110614c71577f4e487b7100000000000000000000000000000000000000000000000000000000600052603260045260246000fd5b90600052602060002090600402016002016000815480929190614c93906168b4565b9190505550614cc47f97e35560f66015e8661f8f3c796d07c21415e11acfe3f9f9b914e5e7253a325760001b615a86565b614cf07faa3258cda0a01cf0c4f984ca79800c19d80b5aee52a01fbbf1e1d261714b41db60001b615a86565b7f3894cca7f62969f5f8326aad1950b0cd936eb3c2b8e957265c4918d185a1f68f6003600185614d2091906167b2565b81548110614d57577f4e487b7100000000000000000000000000000000000000000000000000000000600052603260045260246000fd5b906000526020600020906004020160010183604051614d779291906163c8565b60405180910390a1505050565b60065481565b6060614db87f6a2db2451bea729c665ab016dba44ec168c092f538fee964692509c3630a12a760001b615a86565b614de47f1b11e30cdb2cc4f74a025cc0d2e30dd09581b0930eb7e311ddefb3cf2386fa5c60001b615a86565b614e107f7e39da682e9ff02c1ee1d6add785b5ef228e5d8006771139e19729c757c16bb360001b615a86565b614e3c7f5437f81a5171c1803cbf9dff3260f4a0811eba0fea2b2389657a015de286edb860001b615a86565b60001515600760009054906101000a900460ff16151514614e92576040517f08c379a0000000000000000000000000000000000000000000000000000000008152600401614e89906163f8565b60405180910390fd5b614ebe7fd1e3539a8bfd4aae400ae5d8055a5fccf812096c04b416610bc366a0292ab65360001b615a86565b614eea7f2e34e692b87ad72ebeb0c14d4af3a5de00f361dbaab7dc659ce508ec3f6b2f7e60001b615a86565b614f167f7217e6c3859b883505b9b02778494c35d2cc680ae6e8c050f9728b599c80d3ca60001b615a86565b614f427f2701327e6344864e75f84bbc53aa9eec6dd084e6d6242e5b3917f60768bea2a960001b615a86565b614f6e7f9b2d105f4e33975ddb688a9ab7eb7779b71208a8f810b5f476f1834db04f53c460001b615a86565b6003805480602002602001604051908101604052809291908181526020016000905b82821015615083578382906000526020600020906004020160405180608001604052908160008201548152602001600182018054614fcd90616882565b80601f0160208091040260200160405190810160405280929190818152602001828054614ff990616882565b80156150465780601f1061501b57610100808354040283529160200191615046565b820191906000526020600020905b81548152906001019060200180831161502957829003601f168201915b50505050508152602001600282015481526020016003820160009054906101000a900460ff16151515158152505081526020019060010190614f90565b50505050905090565b60006150ba7f6a2db2451bea729c665ab016dba44ec168c092f538fee964692509c3630a12a760001b615a86565b6150e67f1b11e30cdb2cc4f74a025cc0d2e30dd09581b0930eb7e311ddefb3cf2386fa5c60001b615a86565b6151127f7e39da682e9ff02c1ee1d6add785b5ef228e5d8006771139e19729c757c16bb360001b615a86565b61513e7f5437f81a5171c1803cbf9dff3260f4a0811eba0fea2b2389657a015de286edb860001b615a86565b60001515600760009054906101000a900460ff16151514615194576040517f08c379a000000000000000000000000000000000000000000000000000000000815260040161518b906163f8565b60405180910390fd5b6151c07fd1e3539a8bfd4aae400ae5d8055a5fccf812096c04b416610bc366a0292ab65360001b615a86565b6151ec7f2e34e692b87ad72ebeb0c14d4af3a5de00f361dbaab7dc659ce508ec3f6b2f7e60001b615a86565b6152187f2821e01a5c932ecef3cbe4719a1c736048f5320dceea6a5774b4fedbae9425b560001b615a86565b6152447fb2cbccddd1bd7406e67f6c6dc01c4975cbb965707f05538366d7b0de734bb9ae60001b615a86565b6152707ffdd43df2956e69a94d534aac3448f77f1a666891d31f5a8ce3434985bcf56aa660001b615a86565b600560029054906101000a900460ff16905090565b6152b17f6a2db2451bea729c665ab016dba44ec168c092f538fee964692509c3630a12a760001b615a86565b6152dd7f1b11e30cdb2cc4f74a025cc0d2e30dd09581b0930eb7e311ddefb3cf2386fa5c60001b615a86565b6153097f7e39da682e9ff02c1ee1d6add785b5ef228e5d8006771139e19729c757c16bb360001b615a86565b6153357f5437f81a5171c1803cbf9dff3260f4a0811eba0fea2b2389657a015de286edb860001b615a86565b60001515600760009054906101000a900460ff1615151461538b576040517f08c379a0000000000000000000000000000000000000000000000000000000008152600401615382906163f8565b60405180910390fd5b6153b77fd1e3539a8bfd4aae400ae5d8055a5fccf812096c04b416610bc366a0292ab65360001b615a86565b6153e37f2e34e692b87ad72ebeb0c14d4af3a5de00f361dbaab7dc659ce508ec3f6b2f7e60001b615a86565b61540f7f4878130ba92287a058bd7fc1d8817597f9a6beece4422a4daba62d75cf6e2aeb60001b615a86565b61543b7f42f997f384294eafccf6ef117a0435edaa12b05de6600155a65bee1260bceffd60001b615a86565b6154677f287a305594e469f7880e6e0aa4bb31df7f1e9e7277259206f7618a77c04fe9ab60001b615a86565b6000600160038054905061547b919061675c565b90506154a97f92366508a8b0084ab68a5dbef981f89d769d8dad22d8b7abfe84c562c240650260001b615a86565b6154d57f7df029ba62acef9d6954f71c790c83d4feb1c558dc4db8af3c2831eba8f05e5060001b615a86565b600360405180608001604052808381526020018481526020016000815260200160001515815250908060018154018082558091505060019003906000526020600020906004020160009091909190915060008201518160000155602082015181600101908051906020019061554b929190615a89565b506040820151816002015560608201518160030160006101000a81548160ff02191690831515021790555050506155a47fae491ad1ae48ab4a285b6a0ffbce5a89f9da7824b2aa7a0759123ec5f1bd2ad460001b615a86565b6155d07f5b34da52c638f96dc0bdc15e44080b1b84e6f4cac19b705a3d90d6d530b615c960001b615a86565b7f1d58ebd61d2b8ddd2f0ec09260e573e2048929d40687fb178f27634264a8371681836000806040516156069493929190616538565b60405180910390a15050565b60006156407f6a2db2451bea729c665ab016dba44ec168c092f538fee964692509c3630a12a760001b615a86565b61566c7f1b11e30cdb2cc4f74a025cc0d2e30dd09581b0930eb7e311ddefb3cf2386fa5c60001b615a86565b6156987f7e39da682e9ff02c1ee1d6add785b5ef228e5d8006771139e19729c757c16bb360001b615a86565b6156c47f5437f81a5171c1803cbf9dff3260f4a0811eba0fea2b2389657a015de286edb860001b615a86565b60001515600760009054906101000a900460ff1615151461571a576040517f08c379a0000000000000000000000000000000000000000000000000000000008152600401615711906163f8565b60405180910390fd5b6157467fd1e3539a8bfd4aae400ae5d8055a5fccf812096c04b416610bc366a0292ab65360001b615a86565b6157727f2e34e692b87ad72ebeb0c14d4af3a5de00f361dbaab7dc659ce508ec3f6b2f7e60001b615a86565b61579e7f344da0afd607c87a2eda4cb92c97683ec1bc5dd147b39c53a78b569067310acc60001b615a86565b6157ca7fc3f4bc849533d07991d89cf034b39cdcc0bde712f3eeb30479bcd0541d623bb860001b615a86565b6157f67fc4fd93e4623e2c289e95e03d4fcf16b71d8756ea22cc906a5c41a1273fe05dbd60001b615a86565b60006158247f4e7d5f66877f34d1eaa6e9fa1e6a915a00eae5a9d1bf09b5eb8e2ea7a582cf0060001b615a86565b6158507f63f02bdc44f6decb6a780362e6bc8686cce60aacd244db09d04aebe397e726ee60001b615a86565b60005b600480549050811015615a245761588c7f8828c26d6227b8ccb85327f40899c9bd9a86c55416ca1ef62b1ad50e7469813160001b615a86565b6158b87fffcc61eb9ec98c7459839fca47d10cfacb2b367a148878b5661af2e3725c89bf60001b615a86565b8373ffffffffffffffffffffffffffffffffffffffff1660048281548110615909577f4e487b7100000000000000000000000000000000000000000000000000000000600052603260045260246000fd5b906000526020600020906004020160010160009054906101000a900473ffffffffffffffffffffffffffffffffffffffff1673ffffffffffffffffffffffffffffffffffffffff1614156159e4576159837f7fd679bafb3bb65d9b7426595e76f4c6b9e2eab6669c2eace8c69240e430ab1c60001b615a86565b6159af7f4d0fcc1c93233d0aacaf8ffde217f7f08ac1106d5997b0326356edd862ca7d5a60001b615a86565b6159db7f38a0bece505475d2fe6926cac848630c63810859677b5e496055e98f71d48c5c60001b615a86565b60019150615a11565b615a107f3b08e08fa0a61c62f0a5ec657bc5a240ff84823fd93ffcdd2c43754886aaeace60001b615a86565b5b8080615a1c906168b4565b915050615853565b50615a517faf6c8528afb60f13345d103b499ba954613f472e04e84e3ca9dd5509da70503460001b615a86565b615a7d7fe787affcea928e404811a9485bb42104f559d2711cc057d9809eae3836b42d6960001b615a86565b80915050919050565b50565b828054615a9590616882565b90600052602060002090601f016020900481019282615ab75760008555615afe565b82601f10615ad057805160ff1916838001178555615afe565b82800160010185558215615afe579182015b82811115615afd578251825591602001919060010190615ae2565b5b509050615b0b9190615b0f565b5090565b5b80821115615b28576000816000905550600101615b10565b5090565b6000615b3f615b3a8461663f565b61660e565b905082815260208101848484011115615b5757600080fd5b615b62848285616840565b509392505050565b600081359050615b798161699b565b92915050565b600082601f830112615b9057600080fd5b8135615ba0848260208601615b2c565b91505092915050565b600081359050615bb8816169b2565b92915050565b600060208284031215615bd057600080fd5b6000615bde84828501615b6a565b91505092915050565b60008060408385031215615bfa57600080fd5b6000615c0885828601615b6a565b9250506020615c1985828601615ba9565b9150509250929050565b600060208284031215615c3557600080fd5b600082013567ffffffffffffffff811115615c4f57600080fd5b615c5b84828501615b7f565b91505092915050565b600060208284031215615c7657600080fd5b6000615c8484828501615ba9565b91505092915050565b60008060408385031215615ca057600080fd5b6000615cae85828601615ba9565b9250506020615cbf85828601615ba9565b9150509250929050565b6000615cd58383616234565b905092915050565b6000615ce98383616297565b905092915050565b6000615cfd83836162fa565b60408301905092915050565b615d12816167e6565b82525050565b615d21816167e6565b82525050565b6000615d32826166b4565b615d3c8185616707565b935083602082028501615d4e8561666f565b8060005b85811015615d8a5784840389528151615d6b8582615cc9565b9450615d76836166e0565b925060208a01995050600181019050615d52565b50829750879550505050505092915050565b6000615da7826166bf565b615db18185616718565b935083602082028501615dc38561667f565b8060005b85811015615dff5784840389528151615de08582615cdd565b9450615deb836166ed565b925060208a01995050600181019050615dc7565b50829750879550505050505092915050565b6000615e1c826166ca565b615e268185616729565b9350615e318361668f565b8060005b83811015615e62578151615e498882615cf1565b9750615e54836166fa565b925050600181019050615e35565b5085935050505092915050565b615e78816167f8565b82525050565b615e87816167f8565b82525050565b615e968161682e565b82525050565b6000615ea7826166d5565b615eb1818561673a565b9350615ec181856020860161684f565b615eca8161698a565b840191505092915050565b6000615ee0826166d5565b615eea818561674b565b9350615efa81856020860161684f565b615f038161698a565b840191505092915050565b60008154615f1b81616882565b615f25818661674b565b94506001821660008114615f405760018114615f5257615f85565b60ff1983168652602086019350615f85565b615f5b8561669f565b60005b83811015615f7d57815481890152600182019150602081019050615f5e565b808801955050505b50505092915050565b6000615f9b600b8361674b565b91507f426f6172644d656d6265720000000000000000000000000000000000000000006000830152602082019050919050565b6000615fdb60078361674b565b91507f54656163686572000000000000000000000000000000000000000000000000006000830152602082019050919050565b600061601b601a8361674b565b91507f436f6e747261637420686173206265656e2064697361626c65640000000000006000830152602082019050919050565b600061605b60108361674b565b91507f566f74696e672068617320656e646564000000000000000000000000000000006000830152602082019050919050565b600061609b60268361674b565b91507f4f6e6c79207468652063686169726d616e20697320616c6c6f77656420746f2060008301527f6d6f6469667900000000000000000000000000000000000000000000000000006020830152604082019050919050565b6000616101601a8361674b565b91507f596f752063616e6e6f742075706461746520796f757273656c660000000000006000830152602082019050919050565b600061614160168361674b565b91507f596f7520617265206e6f7420617574686f72697a6564000000000000000000006000830152602082019050919050565b600061618160158361674b565b91507f596f752063616e6e6f7420766f746520747769636500000000000000000000006000830152602082019050919050565b60006161c160188361674b565b91507f55736572207479706520646f6573206e6f7420657869737400000000000000006000830152602082019050919050565b600061620160078361674b565b91507f53747564656e74000000000000000000000000000000000000000000000000006000830152602082019050919050565b600060808301600083015161624c6000860182616329565b50602083015184820360208601526162648282615e9c565b91505060408301516162796040860182616329565b50606083015161628c6060860182615e6f565b508091505092915050565b60006080830160008301516162af6000860182616329565b5060208301516162c26020860182615d09565b50604083015184820360408601526162da8282615e9c565b91505060608301516162ef6060860182615e6f565b508091505092915050565b6040820160008201516163106000850182616329565b5060208201516163236020850182616329565b50505050565b61633281616824565b82525050565b61634181616824565b82525050565b600060208201905081810360008301526163618184615d27565b905092915050565b600060208201905081810360008301526163838184615d9c565b905092915050565b600060208201905081810360008301526163a58184615e11565b905092915050565b60006020820190506163c26000830184615e7e565b92915050565b600060408201905081810360008301526163e28185615f0e565b90506163f16020830184616338565b9392505050565b600060208201905081810360008301526164118161600e565b9050919050565b600060208201905081810360008301526164318161604e565b9050919050565b600060208201905081810360008301526164518161608e565b9050919050565b60006020820190508181036000830152616471816160f4565b9050919050565b6000602082019050818103600083015261649181616134565b9050919050565b600060208201905081810360008301526164b181616174565b9050919050565b600060208201905081810360008301526164d1816161b4565b9050919050565b60006020820190506164ed6000830184616338565b92915050565b60006080820190506165086000830187616338565b6165156020830186615d18565b6165226040830185616338565b61652f6060830184615e7e565b95945050505050565b600060808201905061654d6000830187616338565b818103602083015261655f8186615ed5565b905061656e6040830185615e8d565b61657b6060830184615e7e565b95945050505050565b60006040820190506165996000830184616338565b81810360208301526165aa81615f8e565b905092915050565b60006040820190506165c76000830184616338565b81810360208301526165d881615fce565b905092915050565b60006040820190506165f56000830184616338565b8181036020830152616606816161f4565b905092915050565b6000604051905081810181811067ffffffffffffffff821117156166355761663461695b565b5b8060405250919050565b600067ffffffffffffffff82111561665a5761665961695b565b5b601f19601f8301169050602081019050919050565b6000819050602082019050919050565b6000819050602082019050919050565b6000819050602082019050919050565b60008190508160005260206000209050919050565b600081519050919050565b600081519050919050565b600081519050919050565b600081519050919050565b6000602082019050919050565b6000602082019050919050565b6000602082019050919050565b600082825260208201905092915050565b600082825260208201905092915050565b600082825260208201905092915050565b600082825260208201905092915050565b600082825260208201905092915050565b600061676782616824565b915061677283616824565b9250827fffffffffffffffffffffffffffffffffffffffffffffffffffffffffffffffff038211156167a7576167a66168fd565b5b828201905092915050565b60006167bd82616824565b91506167c883616824565b9250828210156167db576167da6168fd565b5b828203905092915050565b60006167f182616804565b9050919050565b60008115159050919050565b600073ffffffffffffffffffffffffffffffffffffffff82169050919050565b6000819050919050565b600061683982616824565b9050919050565b82818337600083830152505050565b60005b8381101561686d578082015181840152602081019050616852565b8381111561687c576000848401525b50505050565b6000600282049050600182168061689a57607f821691505b602082108114156168ae576168ad61692c565b5b50919050565b60006168bf82616824565b91507fffffffffffffffffffffffffffffffffffffffffffffffffffffffffffffffff8214156168f2576168f16168fd565b5b600182019050919050565b7f4e487b7100000000000000000000000000000000000000000000000000000000600052601160045260246000fd5b7f4e487b7100000000000000000000000000000000000000000000000000000000600052602260045260246000fd5b7f4e487b7100000000000000000000000000000000000000000000000000000000600052604160045260246000fd5b6000601f19601f8301169050919050565b6169a4816167e6565b81146169af57600080fd5b50565b6169bb81616824565b81146169c657600080fd5b5056fea26469706673582212202d34cebde56e4336e77a295dc2d1fdf7413845b39f0fea3abebfcdc72857976b64736f6c63430008000033",
  "linkReferences": {},
  "deployedLinkReferences": {}
}